:020000040800F2
:10000000282900204501000895360008E530000841
:1000100091360008A7020008B77900080000000028
:100020000000000000000000000000007150000807
:10003000AB020008000000008B3A00087350000873
:100040005F0100085F0100085F0100085F01000810
:100050005F0100085F0100085F0100085F01000800
:100060005F0100085F0100085F0100085F010008F0
:100070005F0100085F0100085F0100085F010008E0
:100080005F0100085F0100085F0100086178000857
:10009000717800085F0100085F0100085F01000837
:1000A0005F0100085F0100085F0100085F010008B0
:1000B0005F0100085F0100085F0100085F010008A0
:1000C0005F0100085F0100085F0100085F01000890
:1000D0005F0100085F0100085F0100085F01000880
:1000E0005F0100085F0100085F0100085F01000870
:1000F0005F0100085F0100085F0100085F01000860
:100100005F0100085F0100085F0100085F0100084F
:100110005F0100085F0100085F0100085F0100083F
:100120005F0100085F0100085F0100085F0100082F
:10013000DFF80CD000F04CF800480047157A0008B2
:10014000282900200648804706480047FEE7FEE7CA
:10015000FEE7FEE7FEE7FEE7FEE7FEE7FEE7FEE777
:100160000B51000831010008202A04DB203A21FA53
:1001700002F00021704721FA02F3D040C2F12002C0
:10018000914008431946704740EA01039B0703D09A
:1001900009E008C9121F08C0042AFAD203E011F8C6
:1001A000013B00F8013B521EF9D27047D2B201E088
:1001B00000F8012B491EFBD270470022F6E710B56C
:1001C00013460A4604461946FFF7F0FF204610BDC5
:1001D000064C074D06E0E06840F0010394E8070094
:1001E00098471034AC42F6D3FFF7A6FFBC7A00085C
:1001F000DC7A000870B58C1810F8015B15F0070365
:1002000001D110F8013B2A1106D110F8012B03E0AF
:1002100010F8016B01F8016B5B1EF9D12B0705D4B7
:100220000023521E0DD401F8013BFAE710F8013B00
:10023000CB1A921C03E013F8015B01F8015B521E1C
:10024000F9D5A142D8D3002070BD70B50446002571
:100250002068806800F0010018B32068806820F0F2
:1002600001002168886000F097FD054613E000F06A
:1002700093FD401B02280ED92068806800F0010021
:1002800048B1A06A40F01000A062E06A40F00100AE
:10029000E062012070BD2068806800F00100002845
:1002A000E5D10020F6E700BFFEE7704772B600BF59
:1002B000FEE730B504460D4600222946204600F0F0
:1002C00001F830BDF0B50346012500241148407AFD
:1002D00001281CDC00200F4E767A0E4FB8553846A8
:1002E000467A001D40F82630001F467A08308255B5
:1002F0003E46707A461C7E72044604F13000087057
:100300003A2048702F2088700020C87000252846A9
:10031000F0BD0000081900200021074AD1610749FB
:10032000096941F00401054A11611146096941F06A
:100330004001116170470000E818002000200240D1
:100340000021074AD1610749096941F00201054AC4
:10035000116111464861096941F04001116170471E
:10036000E8180020002002400022054BDA61054A0F
:10037000126942F00102034B1A61018070470000CC
:10038000E81800200020024000201E49C96801F042
:10039000100139B11C49C96941F002011A4AD16101
:1003A00040F010001749C96801F0040139B116493D
:1003B000C96941F00101144AD16140F004001149BA
:1003C000C96901F0010169B10F49C96941F004012E
:1003D0000D4AD16100BF0B49C96921F00101094AE9
:1003E000D16100BF00BF40F20111884206D105492A
:1003F000C96921F00101034AD16101E00149C860E6
:1004000000BF704700200240E818002070B5044685
:1004100000F0C2FC054609E0601C38B124B100F0D0
:10042000BBFC401BA04201D9032070BD1248C0682C
:1004300000F001000028EFD10F48C06800F0200054
:1004400020B100BF20200C49C86000BF0A48C06826
:1004500000F0100048B90848C06900F0010020B958
:100460000548C06800F0040018B1FFF78DFF0120B7
:10047000DBE70020D9E700000020024070B503460A
:10048000074C1D4604EBC124002004E014F8016B66
:1004900003F8016B401CB0EBC22FF7DB002070BDEE
:1004A00000000108F8B507460C46164600F0ACFA05
:1004B000002013490860134800EBC42088600846F8
:1004C000C6600020009069460D4800F0E3F908B1CD
:1004D0000120F8BD00250BE057F805C0094800EBE6
:1004E000C420411962460023022000F035FA2D1D78
:1004F000B5EBC62FF0D300F025FA0020E9E70000A5
:10050000141900200000010870B50A480468001D95
:100510000568001D0668344454B108220649204687
:1005200002F0E2FD042204491031284602F0DCFD0D
:1005300070BD0000E8F7FF1F6E00002038B50246CE
:1005400000230020009000BF92F82400012801D170
:10055000022038BD012082F8240000BF4868072827
:1005600012D21068406B0C79641E04EB84051F24C2
:10057000AC40A0430D796D1E05EB85050C68AC40C1
:1005800020431468606327E048680D2812D2106881
:10059000006B0C79E41F04EB84051F24AC40A043DE
:1005A0000D79ED1F05EB85050C68AC402043146800
:1005B000206311E01068C06A0C790D3C04EB8405DF
:1005C0001F24AC40A0430D790D3D05EB85050C685B
:1005D000AC4020431468E06208680A2812D310680F
:1005E000C0680C780A3C04EB44050724AC40A043E7
:1005F0000D780A3D05EB45058C68AC402043146836
:10060000E0600FE0106800690C7804EB44050724F3
:10061000AC40A0430D7805EB45058C68AC40204309
:10062000146820610868102802D00868112827D1B2
:10063000174C1068A0421ED11068806800F40000BA
:10064000F0B91068806840F400001468A060086881
:10065000102815D10F4800680F4CB0FBF4F000EBE8
:1006600080004000009002E00098401E009000983A
:100670000028F9D104E0906A40F020009062012344
:1006800000BF002082F8240000BF184661E7000088
:1006900000240140B800002040420F002DE9F04145
:1006A0000446002700250026A84614B90120BDE80D
:1006B000F081A06810B1207D00B100BFA06A30B900
:1006C0000020E06284F82400204600F097F82046DD
:1006D000FFF7BBFD0746A06A00F01000002873D1A9
:1006E000002F7ED1A06A20F4885040F00200A06262
:1006F0003F4AD4E90001904208D1E069B0F5402FAB
:1007000002D14FF4002002E0E06900E0E06901431B
:10071000207B41EA40000643A068B0F5807F02D00C
:10072000A068012802D14FF4807000E0002005434A
:10073000207D012811D1207B38B9A069401E4FF4DB
:10074000006141EA4030054307E0A06A40F0200024
:10075000A062E06A40F00100E0622068406820F496
:100760006940284321684860206880682149084022
:10077000304321688860A068B0F5807F02D0A0680F
:10078000012802D14FF4807000E00020B0F5807F96
:1007900003D1208A401E4FEA00582068C06A20F426
:1007A000700040EA08002168C86220688068124929
:1007B0000840B04209D10020E062A06A20F00200A7
:1007C00040F00100A06211E00BE0A06A20F00200FE
:1007D00040F01000A062E06A40F00100E0620127F2
:1007E00004E0A06A40F01000A062012738465EE7EE
:1007F000003C0140FDF7E1FFFE0E1FFF10B586B083
:10080000044600200290039004900590144920684B
:10081000884222D100BF1348806940F4007011491A
:1008200088610846806900F40070019000BF00BF35
:1008300000BF0846806940F004008861084680696E
:1008400000F00400019000BF00BF012002900320CF
:10085000039002A9044800F0EFF806B010BD0000B4
:1008600000240140001002400008014070B5044619
:1008700000F092FA06462546681C10B1044800783C
:10088000054400BF00F088FA801BA842FAD370BD6F
:10089000B40000202DE9F04104460E460127002552
:1008A00000BF2648007E012802D10220BDE8F08169
:1008B00001202249087600BF2068022813D14CF29B
:1008C0005030FFF7A3FD90BB0120FFF725FD4CF250
:1008D0005030FFF79BFD07461948006920F00400DF
:1008E0001749086123E04CF25030FFF78FFDF0B953
:1008F0004FF0FF303060A56812E02846FFF720FD7A
:100900004CF25030FFF782FD07460D48006920F099
:1009100002000B4908610FB1356007E005F500657D
:10092000D4E9021001EBC020A842E6D800BF00BF06
:1009300000200249087600BF3846B7E7E8180020D3
:10094000002002400348006940F08000014908612E
:1009500000207047002002402DE9FE4F05468B46DF
:1009600017469846012600240020029000BF244824
:10097000007E012802D10220BDE8FE8F012020491F
:10098000087600BF4CF25030FFF740FD064686BBAC
:10099000012D02D10120029006E0022D02D1022099
:1009A000029001E00420029000241EE02201B946DA
:1009B000C24648465146FFF7D7FB80B2019002205D
:1009C00000FB04B000900199FFF7CEFC4CF25030D0
:1009D000FFF71CFD06460B48006920F0010009499D
:1009E000086106B104E0601CC4B202988442DDDBF9
:1009F00000BF00BF00200249087600BF3046BBE7B9
:100A0000E81800200020024000200849096901F090
:100A1000800151B10649054A5160064951601146AD
:100A2000096901F0800101B10120704700200240F6
:100A300023016745AB89EFCD2DE9F8470246002336
:100A40009C467BE14FF0010808FA03F4D1F80080DE
:100A500008EA0400A0427DD1DFF8F4A2D1F80480B6
:100A6000A8EB0A09D0453AD014DCB8F1030F50D0F6
:100A700009DCB8F1000F31D0B8F1010F1CD0B8F18A
:100A8000020F49D120E0B8F1110F18D0B8F1120FC0
:100A900042D11EE0B9F5881F25D006DCB9F5803FAC
:100AA00020D0B9F5801F37D11AE0B9F5001F18D052
:100AB000B9F5041F30D117E0D1F80CC02DE0D1F802
:100AC0000C8008F1040C28E0D1F80C8008F1080C27
:100AD00023E0D1F80C8008F10C0C1EE000BF00BF31
:100AE00000BF00BF00BF00BFD1F80880B8F1000F01
:100AF00002D14FF0040C0BE0D1F80880B8F1010FDF
:100B000003D14FF0080C146102E04FF0080C54615F
:100B100003E04FF0000C00E000BF00BFFF2801D849
:100B2000904601E002F104084646FF2802D84FEA49
:100B3000830803E0A3F108084FEA88084746D6F87F
:100B400000804FF00F0909FA07F928EA09080CFAA2
:100B500007F900E07AE048EA0908C6F80080D1F811
:100B6000048008F08058B8F1805F6FD100BFDFF8D3
:100B7000E481D8F8188048F00108DFF8D891C9F866
:100B80001880C846D8F8188008F00108CDF8008011
:100B900000BF00BF4FEAB9384FEA930958F829500F
:100BA0004FEA83784FEA18794FF00F0808FA09F8EE
:100BB00025EA0805DFF8A081424502D14FF0000880
:100BC00024E0DFF89881424502D14FF001081DE092
:100BD000DFF88C81424502D14FF0020816E0DFF8C1
:100BE0008481424502D14FF003080FE0DFF878819D
:100BF000424502D14FF0040808E0DFF87081424519
:100C000002D14FF0050801E04FF006084FEA837962
:100C10004FEA197908FA09F848EA0505DFF8508122
:100C20004FEA930948F82950D1F8048008F4803835
:100C3000B8F5803F0BD1DFF83C81D8F8008048EA56
:100C40000008DFF83091C9F800800AE075E0DFF8AD
:100C50002481D8F8008028EA0008DFF81891C9F844
:100C60000080D1F8048008F40038B8F5003F0ED1B8
:100C7000DFF8008108F10408D8F8008048EA00088D
:100C8000DFF8F09009F10409C9F800800DE0DFF801
:100C9000E48008F10408D8F8008028EA0008DFF8AA
:100CA000D49009F10409C9F80080D1F8048008F44F
:100CB0008018B8F5801F0ED1DFF8B88008F1080859
:100CC000D8F8008048EA0008DFF8A89009F1080980
:100CD000C9F800800DE0DFF89C8008F10808D8F81A
:100CE000008028EA0008DFF88C9009F10809C9F8AB
:100CF0000080D1F8048008F40018B8F5001F0ED168
:100D0000DFF8708008F10C08D8F8008048EA000885
:100D1000DFF8609009F10C09C9F800800DE0DFF8F8
:100D2000548008F10C08D8F8008028EA0008DFF8A1
:100D3000449009F10C09C9F800805B1CD1F80080CF
:100D400028FA03F8B8F1000F7FF47CAEBDE8F8870D
:100D5000000011100010024000080140000C01408A
:100D6000001001400014014000180140001C014027
:100D7000080001400004014010B5C26821EA0203E6
:100D800002EA010443EA0443036110BD0AB10161B0
:100D900001E00B04036170470148006870470000E0
:100DA000AC00002070B504460CB9012070BD94F869
:100DB0003D0028B9002084F83C00204600F0DAF815
:100DC000242084F83D002068006820F0010021689C
:100DD00008602068006840F40040216808602068CE
:100DE000006820F400402168086001F00DFB054612
:100DF0005C496068884206D85B48854201D2012080
:100E000007E0002005E05948854201D2012000E0BA
:100E10000020012800D1C9E75548B5FBF0F620684D
:100E2000406820F03F003043216848604D496068C9
:100E3000884201D8701C07E04FF4967070434FF45D
:100E40007A71B0FBF1F0401C2168096A21F03F0182
:100E500008432168086243496068884214D8681EC4
:100E600061684900B0FBF1F0401CC0F30B0004289E
:100E700001D204203DE0681E61684900B0FBF1F03A
:100E8000401CC0F30B0034E0A06838B9681E6168EC
:100E900001EB4101B0FBF1F0401C0AE0681E616803
:100EA00001EBC10202EB0111B0FBF1F0401C40F478
:100EB0008040C0F30B0008B901201AE0A06848B9CF
:100EC000681E616801EB4101B0FBF1F0401CC0F30A
:100ED0000B000CE0681E616801EBC10202EB01111E
:100EE000B0FBF1F0401CC0F30B0040F4804040F434
:100EF00000402168C9694CF6FF729143084321689C
:100F0000C861D4E9070108432168096821F0C001DC
:100F1000084321680860D4E9031008432168896800
:100F200048F2FF329143084321688860D4E9050103
:100F300008432168C96821F0FF0108432168C8609F
:100F40002068006840F001002168086000202064EB
:100F5000202084F83D000020206384F83E0000BF7C
:100F600024E70000A086010080841E0000093D00E7
:100F700040420F0010B586B0044600200290039056
:100F80000490059015492068884225D100BF144877
:100F9000806940F00800124988610846806900F0C5
:100FA0000800019000BF00BFC020029012200390F3
:100FB0000320059002A90B48FFF73EFD00BF08483B
:100FC000C06940F400100649C8610846C06900F4D1
:100FD0000010019000BF00BF06B010BD00540040DB
:100FE00000100240000C01400348006803490978E2
:100FF0000844014908607047AC000020B40000209C
:1010000010B50848006840F0100006490860032049
:1010100000F0A8F80F2000F007F800F02BF80020EF
:1010200010BD00000020024070B504460E48007854
:101030004FF47A71B1FBF0F00C490968B1FBF0F59F
:10104000284601F0B7FF08B1012070BD102C07D26F
:1010500000222146501E00F047F80548046001E0D8
:101060000120F2E70020F0E7B4000020B8000020E3
:10107000B000002008B500BF1148806940F00100B1
:101080000F4988610846806900F00100009000BFA8
:1010900000BF00BF0846C06940F08050C8610846E4
:1010A000C06900F08050009000BF00BF00BF05493C
:1010B000486820F0E06000BF486000BF08BD000045
:1010C000001002400000014001460846002809DBEC
:1010D00000F01F0301229A4043099B0003F1E02323
:1010E000C3F8002100BF70472DE9F05F80460D4630
:1010F0001646002706F062FC074639462A46334664
:1011000001F00700C0F1070ABAF1040F02D94FF04D
:10111000040A01E0C0F1070AD14600F1040ABAF15D
:10112000070F02D24FF0000A01E0A0F1030AD446F3
:101130004FF0010A0AFA09FAAAF1010A0AEA020AB8
:101140000AFA0CFA4FF0010B0BFA0CFBABF1010B96
:101150000BEA030B4AEA0B042146404606F036FC34
:10116000BDE8F09F00BF00F00702064B19684FF67C
:10117000FF031940044B0B4343EA0221014B196062
:1011800000BF70470CED00E00000FA0570B50546A1
:101190000C4604F08000802808D104F0070000EB22
:1011A000800605F1280000EBC60105E004EB84068B
:1011B00005F5B47000EBC6011AB900200873CB80A6
:1011C00004E0012008730B81180C4881002070BDD9
:1011D000704770B504460D4605EB850304F1280100
:1011E00001EBC3014A692946D4F8E80204F0E6FAA3
:1011F00070BD70B504460D4605EB850304F5B4716A
:1012000001EBC3014A692946D4F8E80204F056FB11
:1012100070BD70B504460E4606F0800080280AD1E5
:1012200006F0070000EB800104F1280000EBC10587
:101230000120687009E006F0070000EB800104F56A
:10124000B47000EBC1050020687006F0070028703C
:1012500000BF94F8A802012801D1022070BD01202E
:1012600084F8A80200BF2946206805F02DFB00BFC6
:10127000002084F8A80200BF00BFEFE770B5044665
:101280000E4606F00F006168884201D9012070BD4A
:1012900006F0800080280AD106F0070000EB8001EC
:1012A00004F1280000EBC1050120687009E006F098
:1012B000070000EB800104F5B47000EBC1050020CD
:1012C00068700020A87006F00700287000BF94F82E
:1012D000A802012801D10220D9E7012084F8A80240
:1012E00000BF2946206805F04BFC00BF002084F8B1
:1012F000A80200BF00BFCAE72DE9F04105460C4631
:10130000174607F48040002850D02868B0F85010E5
:10131000207801EBC000801C296801F5806131F85C
:101320001000C0F30906A069B04203D3A069801B76
:10133000A06101E00020A061A069A8B900BF2278E7
:101340005200296831F812104BF68F7201EA020040
:1013500080F4005040F4004141F0800123785B00AC
:101360002A6822F8131000BF07F04000A8B100BFA0
:1013700000BF22785200296831F8121048F68F72A7
:1013800001EA020040F4004141F0C00123785B0013
:101390002A6822F8131000BF00BF002E55D0228902
:1013A00061693346286806F06FFA4EE02868B0F8A5
:1013B0005010207801EBC000801D296801F5806184
:1013C00031F81000C0F30906A069B04203D3A06948
:1013D000801BA06101E00020A061A069A8B900BF46
:1013E00022785200296831F812104BF68F7201EA08
:1013F000020080F4005040F4004141F08001237865
:101400005B002A6822F8131000BF07F04000A8B95B
:1014100000BF00BF22785200296831F8121048F648
:101420008F7201EA020040F4004141F0C0012378CC
:101430005B002A6822F8131000BF00BF2EB162893A
:1014400061693346286806F01FFA3046BDE8F0812E
:101450002DE9F04705460C46904608F0400000286C
:1014600071D02868B0F85010207801EBC000801CC3
:10147000296801F5806131F81000C0F30907A069FF
:10148000B84203D9A069C01BA06101E00020A0619F
:10149000A06900287ED100BF6078C8B900BF296864
:1014A0002A68B2F8502011442278022303EBC202CA
:1014B00001F5806303EB420000BF028848F2FF336E
:1014C0001A400280028842F40042028000BF13E00A
:1014D0006078012810D100BF28682A68B2F850202F
:1014E00010442278022303EBC20200F5806303EB71
:1014F000420100220A8000BF00BF00BF2968607857
:1015000010BB00BF2B68D5F800C0BCF850C06344C6
:1015100094F800C04FF0060909EBCC0C03F5806984
:1015200009EB4C0000BFB0F800C048F2FF390CEAEC
:10153000090CA0F800C0B0F800C04CF4004CA0F8B2
:1015400000C000BF11E0C0E0607801280DD128681C
:10155000B0F8500001442078062303EBC00001F5E9
:10156000806303EB40020020108000BF21782846F2
:10157000FFF72FFE08F48040002816D000BF00BF00
:1015800022785200296831F8121048F68F7201EA69
:10159000020000E00AE040F4004141F48141237878
:1015A0005B002A6822F8131000BFCAE108F48040EB
:1015B000A8B100BF00BF22785200296831F812108C
:1015C00048F68F7201EA020040F4004141F4814282
:1015D00023785B00296821F8132000BF00BF94F82E
:1015E00024000128E1D1606938446061E069384431
:1015F000E0612169206A884204D32669206A801B41
:1016000020620BE0206A20B93E46002084F82400C6
:1016100004E0002084F82400266A206200BF60787D
:10162000B8BB00BF2A682968B1F850100A44217875
:10163000022303EBC10102F5806303EB410108467D
:1016400000BF56B9038848F2FF3C03EA0C0303804D
:10165000038843F40043038019E03E2E0BD800BFFB
:10166000710806F0010303B1491C4FF6FF7303EA4A
:10167000812303800BE000BF710906F01F0303B94B
:10168000491E4FF4004343EA8123038000BF00BF9B
:1016900013E0FFE7607801280FD100BF28682A68AF
:1016A000B2F8502010442278022303EBC20200F566
:1016B000806303EB42010E8000BF00BFB3B22289FA
:1016C0006169286806F00FF93BE12868B0F850100E
:1016D000207801EBC000801D296801F5806131F898
:1016E0001000C0F30907A069B84203D3A069C01B6A
:1016F000A06101E00020A061A06900287DD100BFA9
:101700006078C8B900BF29682A68B2F8502011442F
:101710002278022303EBC20201F5806303EB42004F
:1017200000BF028848F2FF331A400280028842F468
:101730000042028000BF13E06078012810D100BF92
:1017400028682A68B2F8502010442278022303EB5C
:10175000C20200F5806303EB420100220A8000BF51
:1017600000BF00BF2968607808BB00BF2B68D5F8B0
:1017700000C0BCF850C0634494F800C04FF00609A4
:1017800009EBCC0C03F5806909EB4C0000BFB0F805
:1017900000C048F2FF390CEA090CA0F800C0B0F80C
:1017A00000C04CF4004CA0F800C000BF10E060780E
:1017B00001280DD12868B0F8500001442078062394
:1017C00003EBC00001F5806303EB400200201080B2
:1017D00000BF21782846FFF7FCFC08F48040002871
:1017E00016D100BF00BF22785200296831F81210CC
:1017F00048F68F7201EA020000E00AE040F400417E
:1018000041F4814123785B002A6822F8131000BF5D
:1018100097E008F48040A8B900BF00BF22785200CA
:10182000296831F8121048F68F7201EA020040F47C
:10183000004141F4814123785B002A6822F81310AB
:1018400000BF00BF94F8240001287AD160693844B1
:101850006061E0693844E0612169206A884204D30C
:101860002669206A801B20620BE0206A20B93E4670
:10187000002084F8240004E0266A0020206284F816
:10188000240000BF2A68607890BB00BFD5F800C074
:101890002968B1F850108C4421784FF0060909EB03
:1018A000C1010CF5806909EB4101084600BF76B91A
:1018B000B0F8009048F2FF3A09EA0A09A0F800904F
:1018C000B0F8009049F40049A0F8009020E03E2EC6
:1018D0000FD800BF710806F00109B9F1000F00D060
:1018E000491C4FF6FF7909EA8129A0F800900FE022
:1018F00010E000BF710906F01F09B9F1000F00D117
:10190000491E4FF4004949EA8129A0F8009000BF20
:1019100000BF0FE0607801280CD12868B0F85000B3
:1019200002442078062101EBC00002F5806101EB42
:1019300040031E8000BFB3B262896169286805F068
:10194000D2FF00BF22785200296831F8121048F601
:10195000BF7201EA020080F0100080F0200040F425
:10196000004141F0800123785B002A6822F81310BF
:1019700000BF0020BDE8F08770B504460D4600BFEB
:1019800094F8A802012801D1022070BD012084F83A
:10199000A80200BF05F08000802805D105F00701EE
:1019A000206805F059FF02E0206805F052FF00BFF3
:1019B000002084F8A80200BF00BFE6E7024601F05D
:1019C000070000EB800302F5B47000EBC300C069B0
:1019D00070472DE9F04705460E4690461F464FF0EA
:1019E000000906F0800080280AD106F0070000EB0D
:1019F000800105F1280000EBC1040120607009E0BE
:101A000006F0070000EB800105F5B47000EBC1049F
:101A10000020607006F007002070C4F81080E770A6
:101A2000607808B12078E081022F01D10020207178
:101A300000BF95F8A802012802D10220BDE8F08776
:101A4000012085F8A80200BF2146286804F012FD95
:101A500000BF002085F8A80200BF4846EEE72DE948
:101A6000F04105460E461746984606F0070000EB83
:101A7000800105F5B47000EBC1046761C4F81880FB
:101A80000020E061607006F00700207006F007009B
:101A900020B92146286805F00EF903E021462868A0
:101AA00005F009F90020BDE8F08170B504460D4647
:101AB00005F007006168884201D9012070BD05F07A
:101AC000800080280AD105F0070000EB800104F1B6
:101AD000280000EBC1060120707007E005EB8501CE
:101AE00004F5B47000EBC106002070700120B070E6
:101AF00005F00700307000BF94F8A802012801D15A
:101B00000220DBE7012084F8A80200BF31462068EC
:101B100005F0A3F805F0070020B904F52C71206842
:101B200005F02BF800BF002084F8A80200BF00BF1A
:101B3000C4E72DE9F04105460E4690461F4606F0E3
:101B4000070000EB800105F1280000EBC104C4F898
:101B50001480A761012084F8240027620020E0613E
:101B60000120607006F00700207006F0070020B921
:101B70002146286805F09FF803E02146286805F013
:101B80009AF80020BDE8F0817FB50446206805F092
:101B900077FE00F40040B0F5004F02D1204601F07E
:101BA0007BFD206805F06CFE00F48060B0F5806F6E
:101BB0000FD12068B0F844004FF6FF31084021688B
:101BC000A1F84400204600F0A7F90021204600F0CB
:101BD000C3F9206805F054FE00F48040B0F5804F52
:101BE00008D12068B0F844004BF6FF710840216826
:101BF000A1F84400206805F043FE00F40050B0F561
:101C0000005F08D12068B0F844004DF6FF7108402D
:101C10002168A1F84400206805F032FE00F48050ED
:101C2000B0F5805F1DD12068B0F840004FF6FB7121
:101C300008402168A1F840002068B0F840004FF645
:101C4000F77108402168A1F84000204600F076F9BD
:101C50002068B0F844004EF6FF7108402168A1F8F2
:101C60004400206805F00CFE00F40060B0F5006F41
:101C700055D1002507E06900206830F811002DF8E3
:101C80001500681CC5B2082DF5D32068B0F84000D7
:101C900040F001002168A1F840002068B0F8400041
:101CA0004FF6FE7108402168A1F8400000BF20688F
:101CB000B0F8440000F480600028F8D02068B0F844
:101CC00044004FF6FF3108402168A1F84400002588
:101CD00007E03DF815006A00216821F81200681C31
:101CE000C5B2082DF5D32068B0F8400040F00800D8
:101CF0002168A1F840002068B0F844004FF2FF715D
:101D000008402168A1F844002068B0F8400040F085
:101D100004002168A1F84000204600F05FF9206827
:101D200005F0AEFD00F40070B0F5007F0BD1206827
:101D3000B0F844004FF6FF5108402168A1F8440074
:101D4000204600F002F9206805F09AFD00F480704A
:101D5000B0F5807F08D12068B0F844004FF6FF61ED
:101D600008402168A1F844007FBD30B585B0044625
:101D700014B9012005B030BD94F8A90228B900209B
:101D800084F8A802204600F09DF8032084F8A902F8
:101D9000206804F0E8FE142204F110016846FEF702
:101DA000F3F994E80F0004F08BFD20B1022084F8D1
:101DB000A9020120DEE70021206805F08AFD002548
:101DC00031E0012105EB850204F1280000EBC2009F
:101DD000417005EB850104F1280000F8315005EB56
:101DE000850100EBC100C581002105EB850204F1EE
:101DF000280000EBC200C17005EB850204F1280049
:101E000000EBC200016105EB850204F1280000EB44
:101E1000C200416105EB850204F1280000EBC2001D
:101E20008161681CC5B26068A842CAD800252AE052
:101E3000002105EB850204F5B47000EBC20041708F
:101E400005EB850104F5B47000F83150002105EB75
:101E5000850200EBC200C17005EB850204F5B47089
:101E600000EBC200016105EB850204F5B47000EBE4
:101E7000C200416105EB850204F5B47000EBC200BD
:101E80008161681CC5B26068A842D1D8142204F1EF
:101E900010016846FEF778F994E80F0004F058FE48
:101EA00020B1022084F8A902012063E7002084F811
:101EB0002400012084F8A902206804F046FE0020D6
:101EC00058E7000038B504461149206888421DD102
:101ED00000BF1048C06940F400000E49C8610846C0
:101EE000C06900F40000009000BF00BF002211464E
:101EF0001320FFF7F9F81320FFF7E6F80022114648
:101F00001420FFF7F1F81420FFF7DEF838BD0000C9
:101F1000005C00400010024070B504460125A06836
:101F2000022801D0FEF7C2F92946D4F8E80203F0EE
:101F300005FED4F8E80203F0B7FD70BD10B5044605
:101F4000D4F8E80203F0DEFD10BD10B50446D4F865
:101F5000E80203F0E2FD10BD70B504460D4600BF77
:101F600094F8A802012801D1022070BD012084F854
:101F7000A80200BF84F824502946206805F0ACFC74
:101F800000BF002084F8A80200BF00BFEDE710B535
:101F9000044604F52C71D4F8E80203F0E6FD10BD08
:101FA00010B5044600BF94F8A802012801D1022010
:101FB00010BD012084F8A80200BF206805F040FC95
:101FC00001212046FFF704F9206804F0BBFD00BFA3
:101FD000002084F8A80200BF00BFE9E710B504465E
:101FE000D4F8E80203F01AFEA06928B1034800689B
:101FF00040F006000149086010BD000010ED00E04F
:10200000012001490862704700000E422DE9F043AB
:1020100085B0064642A30FCB01AC0FC444A00068B4
:1020200000904FF00008002500270024A146042E50
:1020300036D004DC012E3BD0022E6BD15FE0082E9F
:1020400032D0102E66D13B484468006800F08070A2
:1020500000B301A8C4F38341475C04F4803070B13D
:1020600034484068C0F340401DF8008004F48030DC
:1020700040B13148B0FBF8F000FB07F502E02F4813
:1020800007FB00F52B48406800F48000B0F5800F96
:1020900001D1A94603E068000321B0FBF1F93AE061
:1020A00000F0D2F9814636E000F0CEF9814632E008
:1020B0002048046A04F44070B0F5807F05D104F034
:1020C000020010B14FF4004918E004F44070B0F57C
:1020D000007F07D11748406A00F0020010B149F6AE
:1020E00040490BE004F44070B0F5407F06D1114840
:1020F000006800F4003008B14FF224490BE000F012
:1021000093F90C494968C1F38131491C4900B0FB7E
:10211000F1F900E000BF00BF484605B0BDE8F0831C
:1021200002030405060708090A0B0C0D0E0F101018
:10213000010200000010024000127A0000093D0078
:10214000F8B5044600260025207800F0010000289C
:102150006BD000274348C06900F0805070B900BFC1
:102160004048C06940F080503E49C8610846C06997
:1021700000F08050009000BF00BF01273A4800687F
:1021800000F48070B0B93848006840F48070364977
:102190000860FEF701FE064606E0FEF7FDFD801B27
:1021A000642801D90320F8BD2F48006800F480702E
:1021B0000028F2D02B48006A00F440752DB3A088A7
:1021C00000F44070A84220D02648006A20F44075F0
:1021D000012026490860002008602248056205F0B9
:1021E000010090B1FEF7D8FD064608E0FEF7D4FDE9
:1021F000801B41F28831884201D90320D3E7194876
:10220000006A00F002000028F0D01648006A20F4AE
:1022100040706168084313490862012F04D10846E1
:10222000C06920F08050C86100BF207800F0020033
:10223000022807D10B48406820F44040A1680843B9
:1022400008494860207800F01000102807D10548A0
:10225000406820F48000616908430249486000201A
:10226000A1E700000010024000700040400442421C
:1022700070B504460D460CB9012070BD5A4800687F
:1022800000F00700A8420ED25748006820F007006F
:102290002843554908600846006800F00700A84236
:1022A00001D00120E9E7207800F0020002281DD1CA
:1022B000207800F00400042805D14C48406840F420
:1022C000E0604A494860207800F00800082805D1FD
:1022D0004648406840F4605044494860434840687C
:1022E00020F0F000A168084340494860207800F0E1
:1022F000010078B36068012806D13C48006800F40A
:10230000003090B90120B8E76068022806D137484C
:10231000006800F0007040B90120AEE73348006863
:1023200000F0020008B90120A7E73048406820F01B
:102330000300616808432D494860FEF72DFD0646FD
:1023400009E0FEF729FD801B41F28831884202D95D
:10235000032092E707E02548406800F00C00616820
:10236000B0EB810FEDD12048006800F00700A842D3
:102370000ED91D48006820F0070028431A4908605C
:102380000846006800F00700A84201D0012074E769
:10239000207800F00400042807D11448406820F495
:1023A000E060E168084311494860207800F00800C7
:1023B000082808D10D48406820F46050216940EA9F
:1023C000C1000A49486000F03FF808494968C1F374
:1023D0000311074A515CC840064908600648006876
:1023E000FEF722FE002048E70020024000100240D5
:1023F0008C7A0008B8000020B00000200148006876
:1024000070470000B800002000B5FFF7F7FF04494F
:102410004968C1F30221034A515CC84000BD000075
:10242000001002409C7A000800B5FFF7E7FF04495E
:102430004968C1F3C221034A515CC84000BD000095
:10244000001002409C7A0008F0B585B00FF26C0CC9
:102450009CE8E01001A8A0E8E0101CA52D680095FC
:1024600000210022002300240020194D696801F09A
:102470000C05F5B1042D02D0082D19D101E0154845
:1024800019E001ADC1F38346AC5D01F4803555B16F
:102490000F4D6D68C5F340451DF805200D4D654392
:1024A000B5FBF2F302E00C4D04FB05F3184602E025
:1024B00000BF084800BF00BF05B0F0BD020304051F
:1024C000060708090A0B0C0D0E0F10100102000080
:1024D0000010024000127A0000093D00F8B50446E1
:1024E0000CB90120F8BD207800F00100002878D058
:1024F000F848406800F00C0004280CD0F54840680B
:1025000000F00C00082811D1F248406800F4803037
:10251000B0F5803F0AD1EF48006800F40030002891
:102520005FD0606800285CD10120DBE700BF6068F5
:10253000B0F5803F06D1E748006840F48030E549B7
:10254000086028E0606858B9E248006820F48030EC
:10255000E04908600846006820F4802008601AE01E
:102560006068B0F5A02F0BD1DA48006840F48020F5
:10257000D84908600846006840F4803008600AE0E6
:10258000D448006820F48030D249086008460068CA
:1025900020F48020086000BF606888B1FEF7FCFB73
:1025A000054606E0FEF7F8FB401B642801D903202E
:1025B00098E7C848006800F400300028F2D010E026
:1025C000FEF7EAFB054606E0FEF7E6FB401B642843
:1025D00001D9032086E7BF48006800F400300028D6
:1025E000F2D1207800F00200022857D1B9484068A3
:1025F00000F00C0050B1B748406800F00C0008280B
:1026000018D1B448406800F4803098B9B1480068E7
:1026100000F0020020B12069012801D0012061E70B
:10262000AC48006820F0F800616940EAC100A9499F
:10263000086033E02069E8B10120A7490860FEF78F
:10264000ABFB054606E0FEF7A7FB401B022801D9BD
:10265000032047E79F48006800F002000028F2D0FE
:102660009C48006820F0F800616940EAC10099497F
:10267000086013E0002098490860FEF78DFB0546CE
:1026800006E0FEF789FB401B022801D9032029E759
:102690009048006800F002000028F2D1207800F095
:1026A000080008282DD1A069B8B101208B49086025
:1026B000FEF772FB054606E0FEF76EFB401B0228A4
:1026C00001D903200EE78348406A00F00200002889
:1026D000F2D0012001F0DAF913E000207F49086010
:1026E000FEF75AFB054606E0FEF756FB401B0228A4
:1026F00001D90320F6E67748406A00F0020000287E
:10270000F2D1207800F00400042873D1002771482A
:10271000C06900F0805070B900BF6E48C06940F0D9
:1027200080506C49C8610846C06900F08050009034
:1027300000BF00BF01276A48006800F48070B0B98C
:102740006748006840F4807065490860FEF724FB24
:10275000054606E0FEF720FB401B642801D9032054
:10276000C0E65F48006800F480700028F2D000BF27
:10277000E068012806D15748006A40F00100554939
:10278000086227E0E06858B95248006A20F001006A
:10279000504908620846006A20F00400086219E007
:1027A000E06805280BD14B48006A40F00400494915
:1027B00008620846006A40F0010008620AE04548E5
:1027C000006A20F00100434908620846006A20F0D0
:1027D0000400086200BFE068A0B1FEF7DDFA05461C
:1027E00009E0FEF7D9FA401B41F28831884202D94C
:1027F000032077E622E03748006A00F00200002854
:10280000EFD012E0FEF7C8FA054608E0FEF7C4FA7A
:10281000401B41F28831884201D9032062E62D48ED
:10282000006A00F002000028F0D1012F05D12948EC
:10283000C06920F080502749C86100BFE069C8B373
:102840002448406800F00C00082860D0E0690228A5
:1028500048D1002020490866FEF79EFA054606E0AA
:10286000FEF79AFA401B022801D903203AE61948DC
:10287000006800F000700028F2D1206AB0F5803FB7
:1028800007D11448406820F40030A168084311497A
:102890004860D4E9080108430E49496821F47411DD
:1028A00008430C49486001200B490866FEF774FA9A
:1028B000054607E03DE0FEF76FFA401B022801D90C
:1028C00003200FE60348006800F000700028F2D0F3
:1028D0002FE000000010024000004242800442420B
:1028E00000700040002014490866FEF755FA0546BE
:1028F00006E0FEF751FA401B022801D90320F1E55A
:102900000E48006800F000700028F2D111E0E06984
:10291000012800D1E6E50948466806F48031206ABE
:10292000814204D106F47011606A814201D0012015
:10293000D8E50020D6E50000000042420010024029
:102940002DE9F04780460C46914600250026AA4610
:102950000027B8F1000F00D014B90120BDE8F087BE
:10296000D8F800004068C0F3800008B10120F5E706
:10297000404601F066F905464FF46160B5FBF0F79B
:10298000B5FBF0F100FB11503C21B0FBF1F06070A1
:102990004FF46160B5FBF0F100FB11503C21B0FB3E
:1029A000F1F201FB1200A070182F39D31820B7FBE9
:1029B000F0FAB7FBF0F100FB11702070404601F017
:1029C00034F90646701C18B1AE4201D9761B01E0FD
:1029D0004FF0FF360AEB4A00C000C0EB4011C1EBDC
:1029E0000020A5EB00152946404601F09DF908B1ED
:1029F0000120B3E7701C38B12E443146404601F047
:102A00007CF940B10120A9E73146404601F075F953
:102A100008B10120A2E75146404601F058F800E015
:102A20002770B9F1000F0BD0207801F043F8207027
:102A3000607801F03FF86070A07801F03BF8A0707A
:102A400000208BE770B5044600250CB9012070BD4D
:102A5000607C20B900202074204600F05BF8022042
:102A60006074204600F076F818B1042060740120EC
:102A7000EDE7204601F086F818B1042060740120CB
:102A8000E5E72068406820F0070021684860A068FA
:102A900028B11F48006820F001001D4908601C484B
:102AA000001F006820F46070A16808431849091FDE
:102AB00008606068401C08B1656809E00120FFF704
:102AC000A5FA05461DB9042060740120BFE76D1EFC
:102AD0002068806820F00F0040EA15402168886077
:102AE0002068C06865F30F002168C860204601F0C7
:102AF00066F818B1042060740120A8E70021E17392
:102B000001216173A1730120607400209FE7000020
:102B1000306C004038B504460B492068884212D119
:102B2000FFF76EFA00BF0948C06940F0006007492E
:102B3000C8610846C06900F00060009000BF00BF97
:102B400001200349086038BD002800400010024001
:102B50003C04424270B5044600250CB9012070BD0A
:102B60002068406820F0080021684860FEF714F9EA
:102B7000054607E0FEF710F9401BB0F57A7F01D952
:102B80000320ECE72068406800F008000028F1D03E
:102B90000020E4E7F0B589B004460E460027032084
:102BA00084F83400606C032820D0B6F5805F04D12F
:102BB000A06B40F08050A0631CE0B6F5006F07D119
:102BC000204602F0D9F90546A06B2843A06311E026
:102BD0003EB9204602F09CF90546A06B2843A0634D
:102BE00008E0A06B40F00060A06303E0A06B40F041
:102BF0008050A063A06B38B117482168886301201A
:102C000084F83400012713E060680390A068049002
:102C1000E0680590069660690790A069089006A88C
:102C200007C88DE80700206803A90EC901F09DFCC4
:102C30004FF40071206801F00DFD054635B10648DE
:102C400021688863A06B2843A0630127012084F8D2
:102C50003400384609B0F0BDFF05400010B502460B
:102C6000506E800F0870506EC0F383604870506ED5
:102C7000C0F301608870506E000CC870B2F8640038
:102C8000000A087192F864004871906E000DC880C7
:102C9000906EC0F3034008726820805AC0F3C030C1
:102CA00048726820805AC0F3803088726820805A49
:102CB000C0F34030C8726820805AC0F300300873F7
:102CC00000204873506C002836D16820805A800557
:102CD000030DD06E43EA90700861D06EC0F3C260FD
:102CE0000875D06EC0F302604875D06EC0F34250D4
:102CF0008875D06EC0F38240C875D06EC0F3C23004
:102D000008760869401C50650B7E506D03F0070380
:102D10009B1C01249C4060435065087A00F00F031F
:102D2000012098409065D2E915035B0A5843D065AD
:102D30004FF40073136621E0506C012813D1682012
:102D4000805C8006830AD06E43EA104008610869FF
:102D5000401C83025365536DD3654FF40073936534
:102D6000936D13660AE02E4813689863906B40F0E9
:102D700080509063012082F8340010BD6C20805A8E
:102D8000C0F3803001F8190F6C20805AC0F3C610D0
:102D900048706C20805C00F07F008870106FC00F5E
:102DA000C870106FC0F341700871106FC0F382607B
:102DB0004871106FC0F383508871106FC0F340509A
:102DC000C87100200872106FC0F300404872702074
:102DD000805AC0F3C03088727020805AC0F38030AF
:102DE000C8727020805AC0F3403008737020805A37
:102DF000C0F3003048737020805AC0F3812088737C
:102E00007020805AC0F30120C8737020805CC0F32A
:102E1000460008740120487419390020ADE700000D
:102E2000FF05400010B504460CB9012010BD94F810
:102E3000340020B900202077204600F067F80320F6
:102E400084F83400204600F00BF808B10120EDE7CB
:102E50000020A0632063012084F834000020E5E70F
:102E600070B58AB004460020049005900690079043
:102E700008907620099007A807C88DE80700206809
:102E800004A90EC901F071FB064616B101200AB073
:102E900070BD00201B490860206801F080FB012004
:102EA0001849A039C1F8A000204601F0CBFF054623
:102EB0003DB1012084F83400A06B2843A0630120B9
:102EC000E5E7204601F03DFF05463DB1012084F8CD
:102ED0003400A06B2843A0630120D8E74FF40071B1
:102EE000206801F0B7FB05464DB1074821688863AB
:102EF000A06B2843A063012084F83400C7E70020BA
:102F0000C5E70000A0003042FF05400010B586B0C4
:102F10000446002002900390049005902149206807
:102F200088423CD100BF2048406940F480601E497F
:102F300048610846406900F48060019000BF00BF0E
:102F400000BF0846806940F010008861084680692B
:102F500000F01000019000BF00BF00BF084680696C
:102F600040F0200088610846806900F02000019050
:102F700000BF00BF4FF4F8500290022003900320DE
:102F8000059002A90948FDF757FD04200290022090
:102F900003900320059002A90548FDF74DFD06B0FA
:102FA00010BD0000008001400010024000100140F0
:102FB0000014014070B504462546681EB0F1807FBC
:102FC00001D301200FE0681E4FF0E02148610F217E
:102FD0004FF0FF3004F0FAFC00204FF0E021886150
:102FE00007200861002070BD10B504460CB901200F
:102FF00010BDA06900B100E000BF94F83D0028B901
:10300000002084F83C00204600F028F8242084F8B2
:103010003D002068C06820F400502168C860204648
:1030200002F074F82068006920F49040216808617B
:103030002068406920F02A00216848612068C06843
:1030400040F400502168C86000202064202084F8EB
:103050003D0084F83E000020CAE7000010B586B0AD
:103060000446002002900390049005901A492068BD
:1030700088422ED100BF1948806940F4804017492A
:1030800088610846806900F48040019000BF00BF5D
:1030900000BF0846806940F00400886108468069E6
:1030A00000F00400019000BF00BF4815029002200C
:1030B00003900320059002A90948FDF7BDFC4FF4D9
:1030C0008060029000200390049002A90448FDF75C
:1030D000B3FC06B010BD00000038014000100240F3
:1030E0000008014000BFFEE730B50B46002100BFDD
:1030F00016E00A24B4EB107F05D9302404EB1074D9
:1031000003F8114005E0412404EB10740A3C03F875
:103110001140000100254C00641C1D554C1CE1B2FF
:103120009142E6DB30BD70B50546D5F8B84240F6B1
:103130001800005D48B940F61400005928B1607AC3
:1031400018B90121284602F047FD8121284602F0E6
:1031500043FD607A022806D11F2304F60C020121E8
:10316000284602F089FC70BD70B50546D5F8B84216
:103170004FF4016001594FF40360015140F614000F
:10318000015940F6340001510121284602F0FCFBB0
:103190001F2812D12B49D4F80C0888420DD140F6D3
:1031A0001900005D012808D840F61A00005D20B122
:1031B00040F61A00005D10280DD940F61900015D97
:1031C00020230522284601F0A9F802206072284633
:1031D000FFF7A9FF33E040F61900015D04F61B027A
:1031E000284600F02FFE00280BDA207A052804D1AB
:1031F0000121284600F0C0F821E02846FFF793FFA0
:103200001DE0207A022819D0207A012816D0207AD1
:10321000032813D0608930B1628904F10C0128467B
:1032200000F0C8F80BE0608920B90021284600F0C2
:10323000A3F804E02846FFF776FF00E070BD00BF6A
:10324000FCE700005553424370B506460D46D6F8DC
:10325000B842607A022806D18121304602F0BCFCD7
:10326000002060720CE005F08000802807D1607AB1
:10327000012804D00121304600F07EF800E070BD46
:1032800000BFFCE770B505460E46D5F8B842207A77
:10329000022804D0032812D0042815D10EE040F6ED
:1032A0001900015D04F61B02284600F0CBFD002842
:1032B00003DA0121284600F05FF806E000BF002194
:1032C000284600F059F800E000BF00BF70BD70B59F
:1032D00005460E46D5F8B842207A10B1012813D120
:1032E00003E02846FFF740FF0FE040F61900015DBC
:1032F00004F61B02284600F0A5FD002803DA012190
:10330000284600F039F800E000BF00BF70BDD0F8DB
:10331000B81200220A72704770B50546D5F8B84257
:1033200000202072607284F85D0884F85C08D5F88B
:10333000BC020168002088470121284602F011FBE9
:103340008121284602F00DFB1F2304F60C02012107
:10335000284602F091FB70BD70B50546D5F8B8421D
:1033600000202072012060721F2304F60C0201214C
:10337000284602F081FB70BD70B505460E46D5F8B3
:10338000B8420B48C4F82C0840F638000655002017
:1033900020720D2304F62C028121284602F048FCFD
:1033A0001F2304F60C020121284602F065FB70BDC4
:1033B000555342532DE9F04106460F461546D6F8BF
:1033C000B84240F614000059A84203D240F6140057
:1033D000005900E028461FFA80F840F634000059F2
:1033E000411B40F6340001510021001D015504200D
:1033F000207243463A468121304602F019FCBDE86E
:10340000F08100000EB5002000900190029012485B
:1034100012490860002111488160017301754FF461
:103420006021C16100200D49486001210B48016104
:10343000FDF734F908B1FCF739FF002000900120B6
:1034400001900720029069460448FDF777F808B11B
:10345000FCF72CFF0EBD0000002401406401002099
:1034600010B503490348FCF724FF0349087010BD59
:10347000310000201C0000203000002000B585B085
:103480000020019002900390049000BF32488069B0
:1034900040F04000304988610846806900F04000F3
:1034A000009000BF00BF00BF0846806940F01000D8
:1034B00088610846806900F01000009000BF00BFDE
:1034C00000BF0846806940F00400886108468069B2
:1034D00000F00400009000BF00BF00BF08468069F4
:1034E00040F0200088610846806900F020000090CC
:1034F00000BF00BF00BF0846806940F00800886137
:103500000846806900F00800009000BF00BF00225C
:1035100020211248FDF73AFC002220211048FDF737
:1035200035FC202001900120029000200390022011
:10353000049001A90948FDF77FFA2020019001209D
:103540000290002003900220049001A90448FDF796
:1035500073FA05B000BD00000010024000180140E1
:10356000000C014010B50B480B4908600B4848603F
:10357000002109488160C1604FF480410161002150
:1035800041618161C1610162FDF70CFC08B1FCF78A
:103590008DFE10BD0054004094010020A086010063
:1035A00010B50848084908604FF0FF3048604FF4F4
:1035B000807105488160FFF745FA08B1FCF776FE97
:1035C00010BD000000280040E801002010B50D48A3
:1035D0000D4908600020486000210B488160C160EF
:1035E000016141618161FFF71DFC08B1FCF75EFEDE
:1035F0004FF400610448FFF7CDFA08B1FCF756FE1E
:1036000010BD000000800140FC01002010B50B48F7
:103610000B4908604FF4E1304860002108488160A0
:10362000C16001610C21416100218161C161FFF72D
:10363000DBFC08B1FCF73AFE10BD00000038014089
:103640008002002010B500220D490E4802F077F8E4
:1036500008B1FCF72BFE0C490A4802F088FC08B1BF
:10366000FCF724FE0949074802F085FB08B1FCF786
:103670001DFE044802F044FD08B1FCF717FE10BD22
:1036800038000020C4020020C00000208C00002070
:1036900000BFFEE700BFFEE72DE9F0470546EAE17F
:1036A0002868B0F844A00AF00F06002E7ED10AF078
:1036B0001000B0BB00BF2968098848F60F7201EA04
:1036C000020040F400412A68118000BF05F128047F
:1036D0002868B0F85010207801EBC000801C2968E1
:1036E00001F5806131F81000C0F30900E061E16983
:1036F00060690844606100212846FDF76AFD95F87D
:1037000024000028CBD0A0690028C8D195F8240057
:1037100040F080002968A1F84C00002085F82400C2
:10372000A9E1FFE705F5B4742868B0F8008008F453
:10373000006030B32868B0F85010207801EBC0006A
:10374000801D296801F5806131F81000C0F309007F
:10375000E061A18B8BB2E28805F52C71286804F03A
:1037600093F800BF2968098840F68F7201EA0200C9
:1037700040F080012A68118000BF2846FEF707FC50
:1037800079E108F40040002889D000BF2968098841
:1037900040F68F7201EA020040F080012A68118031
:1037A00000BF2868B0F85010207800E06FE001EB0F
:1037B000C000801D296801F5806131F81000C0F358
:1037C0000900E061E06990B1606980B1B4F81CC0A3
:1037D0001FFA8CF3E2886169286804F055F8E16902
:1037E00060690844606100212846FDF702FD2868F1
:1037F000008800F40060002892D100BF2A68296880
:10380000B1F850100A4402F20C41084600BF236987
:1038100053B9038848F2FF3C03EA0C030380038892
:1038200043F4004303801EE023693E2B0DD800BF04
:1038300023695908237C03F0010303B1491C4FF6A7
:10384000FF7303EA812303800DE000BF2369590958
:10385000237C03F01F0303B9491E4FF4004343EADE
:103860008123038000BF00BF00BF00BF2968098813
:103870004BF68F7201EA020080F4805080F4005011
:1038800040F4004141F080012A681180F3E07100AA
:10389000286830F8118008F4004000287ED000BF6E
:1038A0007200296831F8121040F68F7201EA0200A6
:1038B00040F0800173002A6822F8131000BF06EB65
:1038C000860105F5B47000EBC104207BB0B928680F
:1038D000B0F85010207801EBC000801D296801F578
:1038E000806131F81000C0F30907002F5BD0E28837
:1038F00061693B46286803F0C7FF54E0E07802287E
:1039000006D1424621462846FDF7F6FC07464AE026
:1039100000BF00BF22785200296831F8121048F623
:103920008F7201EA020040F4004141F0C0012378A7
:103930005B002A6822F8131000BF00BF21784900FD
:10394000286830F8110000F48040A8B12868B0F869
:103950005010207801EBC000801C296801F58061BF
:1039600031F81000C0F30907EFB1228961693B46C5
:10397000286803F089FF16E02868B0F85010207816
:1039800001EBC000801D296801F5806131F810004D
:10399000C0F309073FB16289616900E017E03B4667
:1039A000286803F071FFE0693844E06160693844D9
:1039B0006061A06910B12069B84204D92178284615
:1039C000FDF717FC03E02146286803F074F908F0BE
:1039D0008000B0B306EB860105F1280000EBC104BE
:1039E00000BF7200296831F8121048F60F7201EA20
:1039F000020040F4004173002A6822F8131000BF4F
:103A0000E078032807D0E07828B1E07802282DD1AB
:103A100008F4807050BB2868B0F85010207801EB93
:103A2000C000801C296801F5806131F81000C0F3E6
:103A30000909A069484505D9A069A0EB0900A06162
:103A400002E018E00020A061A06920B92178284692
:103A5000FDF7BFFB0FE0606948446061E0694844DE
:103A6000E0612146286803F026F904E04246214639
:103A70002846FDF7EDFC2868B0F8440000F400404B
:103A800000287FF40DAEBDE8F087704708B50849FF
:103A90000968C9084FF47A72B1FBF2F14143009111
:103AA00000BF00BF00994A1E00920029F9D108BD4D
:103AB000B80000200146002203E0521CA1F10A00D8
:103AC000C1B20A29F9D2100741EA106070472DE906
:103AD000F04706468846002700240025A146F77BCC
:103AE000747BB57B00BF40E0012C0BD0032C09D0C8
:103AF000052C07D0072C05D0082C03D00A2C01D0A8
:103B00000C2C0CD11F2D01D26D1C2CE00C2C02D0E2
:103B1000641C012527E0012401257F1C23E0042CDF
:103B200005D0062C03D0092C01D00B2C06D11E2D5C
:103B300001D26D1C17E0641C012514E0022C12D187
:103B40001C2D01D26D1C0EE01C2D08D1B8B200F066
:103B500053F808B16D1C06E0641C012503E01D2D1F
:103B600001D1641C012509F10109C145BCD3F773DA
:103B70007473B573EAB2E1B2384600F07CF8307382
:103B8000BDE8F08770B504460025FDF705F9054648
:103B900007E0FDF701F9401BB0F57A7F01D903205A
:103BA00070BD2068406800F020000028F1D0206837
:103BB000406840F01000216848600020F0E770B5D0
:103BC000044600252068406820F010002168486005
:103BD000FDF7E2F8054607E0FDF7DEF8401BB0F51B
:103BE0007A7F01D9032070BD2068406800F0200072
:103BF0000028F1D00020F6E7014601F0030008B1EB
:103C0000002070476420B1FBF0F200FB121008B1F5
:103C10000120F6E74FF4C870B1FBF0F200FB121080
:103C200008B90120EDE70020EBE701460022002360
:103C30000868006A82B20868406A83B243EA0240B8
:103C4000704730B5014600220023002400200D6893
:103C5000AD69AAB20D68ED69ACB20D68AD69ABB2E1
:103C60009A4205D00D68ED6963F31F45284601E0CF
:103C700044EA024030BDF0B504460B460021002561
:103C800004F5FA61032B1BD2C3EBC30000EB031056
:103C90000926B0FBF6F01044001D4618481E06EB3E
:103CA00090066427B0FBF7F0361A481EBF00B0FB41
:103CB000F7F030440726B0FBF6F706FB17051AE0CD
:103CC000C3EBC30000EB03100926B0FBF6F0104471
:103CD000001D084400EB91006426B1FBF6F6801B42
:103CE0004FF4C876B1FBF6F63044801E0726B0FBD1
:103CF000F6F706FB1705E8B2F0BD70B504460D46B1
:103D000000262046FFF73EFF08B101260AE0280CF6
:103D100021680862A8B2216848622046FFF74FFF79
:103D200000B10126304670BD70B504460D46002630
:103D30002046FFF727FF08B101260AE0280C21687A
:103D40008861A8B22168C8612046FFF738FF00B13A
:103D50000126304670BD2DE9F04104460F46154658
:103D60001E46D4F8B882A819D8F86018884209D934
:103D7000212305223946204600F0D0FA4FF0FF30CB
:103D8000BDE8F0810020FBE7F0B504460E46D4F80C
:103D9000B832507800F0010060B10721598106E087
:103DA000481E81B21048475C03F10C0047540029BB
:103DB000F6D116E0D4F8BC02C06906EBC60700EBEA
:103DC00087052879411D1079884200DC11795981D5
:103DD00005E0481E81B26F5C03F10C0047540029D6
:103DE000F7D10020F0BD0000A47A000870B50346AA
:103DF0000C4615460821D3F8B822518106E0481E2A
:103E000081B20448465C02F10C0046540029F6D108
:103E1000002070BDB37A000870B503460C46154605
:103E2000D3F8B8220821518106E0481E81B2044827
:103E3000465C02F10C0046540029F6D1002070BD0A
:103E4000AB7A000870B505460E4614462078232844
:103E500045D00DDC1A2836D005DCB0B103281AD0C5
:103E600012285AD11DE01B2821D01E2855D124E04C
:103E70002A2846D004DC252837D028284DD13AE01E
:103E80002F2844D05A2848D123E0224631462846DC
:103E900000F06CFA4AE022463146284600F0FBF971
:103EA00044E0224631462846FFF76EFF3EE02246B8
:103EB0003146284600F052FA38E02246314628467C
:103EC00000F04CFA32E0224631462846FFF7A4FFC4
:103ED0002CE0224631462846FFF788FF26E022469E
:103EE0003146284600F092F920E022463146284625
:103EF00000F04CF91AE022463146284600F0DDF881
:103F000014E022463146284600F081FA0EE02246AF
:103F10003146284600F055FA08E0202305223146B4
:103F2000284600F0FBF94FF0FF3070BD00BF0020C5
:103F3000FBE72DE9F04106460F46D6F8B842B4F843
:103F40005E18D4F8680800FB01F5B5F5006F01D2E2
:103F5000284601E04FF400600546B4F85E08B5FB62
:103F6000F0F01FFA80F8D4F86428D6F8BC02434673
:103F700004F10C01D0F810C03846E047002809DAF7
:103F8000112304223946304600F0C8F94FF0FF30C3
:103F9000BDE8F081ABB204F10C028121304601F0A2
:103FA00047FEB4F85E08B5FBF0F0D4F86418084496
:103FB000C4F86408B4F85E08B5FBF0F0D4F86818EB
:103FC000081AC4F8680840F634000059411B40F64E
:103FD00034000151D4F8680808B903202072002089
:103FE000D6E72DE9F04106460F46D6F8B842B4F8B8
:103FF0005E18D4F8680800FB01F5B5F5006F01D232
:10400000284601E04FF400600546B4F85E08B5FBB1
:10401000F0F01FFA80F8D4F86428D6F8BC024346C2
:1040200004F10C01D0F814C03846E047002809DA42
:10403000032304223946304600F070F94FF0FF3078
:10404000BDE8F081B4F85E08B5FBF0F0D4F8641870
:104050000844C4F86408B4F85E08B5FBF0F0D4F87E
:104060006818081AC4F8680840F634000059411B63
:1040700040F634000151D4F8680820B900213046D8
:10408000FFF77AF917E0B4F85E18D4F868084843E7
:10409000B0F5006F05D2B4F85E18D4F8680848434C
:1040A00001E04FF400600546ABB204F10C020121BF
:1040B000304601F0E1FC0020C2E72DE9F041064660
:1040C0000F461546D6F8B842207A002856D140F659
:1040D0001800005D00F0800080280BD040F6190029
:1040E000015D20230522304600F018F94FF0FF3023
:1040F000BDE8F081D6F8BC0281683846884740B1F7
:104100003A2302223946304600F008F94FF0FF30DA
:10411000EEE7A8780006E97840EA0140297940EA0C
:10412000012069790843C4F86408287AE97940EAEB
:104130000120C4F868083946304604F664020CCA07
:10414000FFF709FE002802DA4FF0FF30D0E7022027
:104150002072B4F85E18D4F86808484340F6140199
:10416000095988420AD040F61900015D2023052232
:10417000304600F0D3F84FF0FF30B9E74FF400605D
:10418000608139463046FFF7D4FEB1E72DE9F041B2
:1041900005460E461746D5F8B842D5F8BC0204F6D7
:1041A0005E02911C43683046984748B13A23022288
:1041B0003146284600F0B2F84FF0FF30BDE8F081FC
:1041C000D4F86008401E000E2073D4F86008401E2A
:1041D000010C6173B4F86008401E010AA17394F8E1
:1041E0006008401EE073B4F85E0801162174B4F84C
:1041F0005E0801146174B4F85E080112A17494F8A9
:104200005E18E174082060810020D7E72DE9FC41A9
:1042100005460F469046D5F8B842002605E0002135
:1042200004F10C008155701C86B20C2EF7D3D5F822
:10423000BC0201AA694643683846984748B13A2308
:1042400002223946284600F069F84FF0FF30BDE8F9
:10425000FC810821E1730098401E010E2174009832
:10426000401E010C61740098401E010AA174009860
:10427000401EE07402212175BDF80400011461752F
:10428000BDF804000112A175BDF80400E0750C2012
:1042900060810020DBE770B504460D46D4F8B81203
:1042A000002305E0002601F10C00C654581CC3B2DF
:1042B000122BF7D3702008730C26CE7491F85C088B
:1042C00091F85D68B04220D091F85C6801F63C003E
:1042D00010F836608E7391F85C6800EBC600467982
:1042E0000E7691F85C6801F63C0000EBC60006799A
:1042F0004E7691F85C08401C81F85C0891F85C08E7
:10430000042802D1002081F85C081220488110792D
:10431000122801D810794881002070BDF0B50446FC
:10432000D4F8B80290F85D6800F63C0505F8362030
:104330001D02EEB290F85D7800F63C0505EBC7056E
:104340002E7190F85D586D1C80F85D5890F85D589E
:10435000042D02D1002580F85D58F0BD10B503464C
:104360000C46D3F8B8120020488110BD2DE9F04169
:1043700005460E461746D5F8B84240F614000059D7
:1043800058B140F61900015D202305222846FFF7A9
:10439000C5FF4FF0FF30BDE8F081D5F8BC02816861
:1043A0003046884748B13A23022231462846FFF773
:1043B000B5FF05202072801FEDE70020608100BF5F
:1043C000E9E72DE9F04105460F461646D5F8B84213
:1043D000707800F00200022809D124230522394612
:1043E0002846FFF79BFF4FF0FF30BDE8F0813946CC
:1043F000284604F664020CCAFFF7ADFC002802DA76
:104400004FF0FF30F1E70020608100BFEDE72DE9BC
:10441000F041064688461546D6F8B842207A00286C
:1044200077D140F61800005D00F0800080280BD1A5
:1044300040F61900015D202305223046FFF76EFF8C
:104440004FF0FF30BDE8F081D6F8BC0281684046ED
:10445000884740B13A23022241463046FFF75EFFCB
:104460004FF0FF30EEE7D6F8BC02C16840468847FF
:1044700040B12723022241463046FFF74FFF4FF05D
:10448000FF30DFE7A8780006E97840EA01402979A3
:1044900040EA012069790843C4F86408287AE97978
:1044A00040EA0120C4F868084146304604F6640238
:1044B0000CCAFFF750FC002802DA4FF0FF30C1E7CA
:1044C000B4F85E18D4F8680800FB01F740F6140051
:1044D0000059B8420AD040F61900015D2023052298
:1044E0003046FFF71BFF4FF0FF30ABE7B7F5006F2B
:1044F00001D2384601E04FF40060074601202072E7
:10450000BBB204F10C020121304601F0B5FA05E01E
:10451000FFE741463046FFF764FD93E7002091E74F
:1045200010B5024600230868506248689062D1E9DD
:10453000020420430C6920434C6920430343D06AA2
:1045400020F0F7001843D062002010BD0146086932
:10455000C0B270470146086800F003007047024689
:1045600002F114004318186870470FB410B50446E0
:104570000021DDE903021043059A1043069A104317
:10458000079A1043089A10430143606847F6FF6298
:10459000904308436060002010BC5DF814FB10B528
:1045A0000446032020600220FCF760F9002010BDC3
:1045B0000146D1F88000704710B502460023086814
:1045C0009060D1E901042043CC6820430C6920436A
:1045D0000343D0686FF30B001843D060002010BD78
:1045E00070B586B005460C460194372002904020F5
:1045F0000390002004904FF48060059001A92846A4
:10460000FFF7DAFF41F288323721284600F032F90D
:104610000646304606B070BD70B586B005460C46FD
:104620000B48204301902920029040200390002055
:1046300004904FF48060059001A92846FFF7BCFF65
:10464000284600F01FFA0646304606B070BD00004E
:104650000000108070B586B005460C46019410200D
:10466000029040200390002004904FF48060059059
:1046700001A92846FFF7A0FF41F288321021284601
:1046800000F0F8F80646304606B070BD70B586B04A
:1046900005460C460194062002904020039000201D
:1046A00004904FF48060059001A92846FFF784FF2D
:1046B00041F288320621284600F0DCF806463046F2
:1046C00006B070BD30B585B0044600200090019062
:1046D000029003904FF48060049069462046FFF7F3
:1046E0006BFF204600F0A6F80546284605B030BD11
:1046F00030B585B004464FF4D57000900820019085
:1047000040200290002003904FF48060049069469E
:104710002046FFF751FF204600F03CFA05462846A8
:1047200005B030BDF0B585B0064614461D46009470
:104730000720019040200290002003904FF48060F9
:10474000049069463046FFF737FF41F2883207216F
:10475000304600F08FF80746384605B0F0BD30B55A
:1047600085B004460020009002200190C0200290F5
:10477000002003904FF48060049069462046FFF7C4
:104780001BFF204600F04CF90546284605B030BD19
:1047900070B586B005460C46019409200290C020F1
:1047A0000390002004904FF48060059001A92846F2
:1047B000FFF702FF284600F033F90646304606B000
:1047C00070BD30B585B004460020009033200190C4
:1047D00040200290002003904FF4806004906946CE
:1047E0002046FFF7E9FE41F288323321204600F0EF
:1047F00041F80546284605B030BD70B586B005467F
:104800000C460020019003200290402003900020DD
:1048100004904FF48060059001A92846FFF7CCFE74
:1048200022460321284600F059F90646304606B0D4
:1048300070BD000001460E480068C0084FF47A734E
:10484000B0FBF3F041F2883300FB03F200BF101E0F
:10485000A2F1010202D14FF000407047486B00F016
:1048600080000028F3D0C52088630020F5E7000011
:10487000B80000202DE9F04305460F4690466648F3
:104880000068C0084FF47A71B0FBF1F000FB08F942
:1048900000BFB9F10000A9F1010903D14FF00040B8
:1048A000BDE8F0836E6B06F045000028F1D006F4F9
:1048B00000600028EDD1686B00F0040010B1042006
:1048C000A863EDE7686B00F0010010B10120A86358
:1048D000E6E7C520A8632846FFF738FEB84201D0B6
:1048E0000120DDE700212846FFF739FE04464B484A
:1048F000204008B90020D3E704F00040B0F1004F99
:1049000002D14FF00070CBE704F08040B0F1804F4F
:1049100001D14020C4E704F00050B0F1005F01D1A4
:104920008020BDE704F08050B0F1805F02D14FF4E9
:104930008070B5E704F00060B0F1006F02D14FF471
:104940000070ADE704F08060B0F1806F02D14FF4E9
:104950008060A5E704F08070B0F1807F02D14FF451
:1049600000609DE704F40000B0F5000F02D14FF4A1
:10497000805095E704F48000B0F5800F02D14FF429
:1049800000508DE704F40010B0F5001F02D14FF481
:10499000804085E704F48010B0F5801F02D14FF409
:1049A00000407DE704F48020B0F5802F02D14FF461
:1049B000003075E704F40030B0F5003F02D14FF449
:1049C00080206DE704F48030B0F5803F02D14FF4D1
:1049D000002065E704F40040B0F5004F02D14FF429
:1049E00080105DE704F48040B0F5804F02D14FF4B1
:1049F000001055E704F40050B0F5005F02D14FF409
:104A000080004DE704F00800082801D1000547E7C1
:104A10004FF4803044E70000B800002008E0FFFDBC
:104A200010B5014616480068C0084FF47A74B0FB10
:104A3000F4F041F2883400FB04F300BF181EA3F128
:104A4000010302D14FF0004010BD4A6B02F0450057
:104A50000028F3D002F400600028EFD1486B00F08A
:104A6000040010B104208863EEE7486B00F00100F9
:104A700010B101208863E7E7C52088630020E3E7E1
:104A8000B800002010B5014613480068C0084FF474
:104A90007A74B0FBF4F041F2883400FB04F300BFF9
:104AA000181EA3F1010302D14FF0004010BD4A6B64
:104AB00002F045000028F3D002F400600028EFD196
:104AC000486B00F0040010B104208863EEE7C520B5
:104AD00088630020EAE70000B80000202DE9F043D9
:104AE00004460F4690462A480068C0084FF47A7181
:104AF000B0FBF1F041F2883100FB01F900BFB9F1E0
:104B00000000A9F1010903D14FF00040BDE8F08396
:104B1000666B06F045000028F1D006F4006000281E
:104B2000EDD1606B00F0040010B10420A063EDE74C
:104B3000606B00F0010010B10120A063E6E72046A1
:104B4000FFF704FDB84201D00120DFE7C520A063D4
:104B500000212046FFF703FD054605F4604020B91B
:104B6000280CA8F800000020D0E705F48040B0F53C
:104B7000804F02D14FF40050C8E705F40040B0F573
:104B8000004F02D14FF48050C0E74FF48030BDE7B2
:104B9000B800002010B5014618480068C0084FF45E
:104BA0007A74B0FBF4F041F2883400FB04F300BFE8
:104BB000181EA3F1010302D14FF0004010BD4A6B53
:104BC00002F045000028F3D002F400600028EFD185
:104BD000486B00F0040010B104208863EEE7486BD6
:104BE00000F0010010B101208863E7E7486B00F096
:104BF000400008B1402088630020DFE7B8000020B3
:104C00002DE9F04389B004460F46FCF7C5F881460C
:104C10004FF000080020019002903E4608212068D5
:104C2000FFF718FD05461DB1284609B0BDE8F08321
:104C30005022125B11042068FFF7D2FC05460DB12B
:104C40002846F2E74FF0FF30039008200490302010
:104C5000059002200690002007900120089003A9EB
:104C60002068FFF75DFC2068FFF7ABFD05460DB13E
:104C70002846DAE71CE02068406B00F4001040B1E1
:104C80002068FFF795FC01A941F8280008F1010808
:104C900005E02068406B00F4005000B90EE0FCF71E
:104CA0007BF8A0EB0900401C10B94FF00040BCE7B6
:104CB0002068406B00F02A000028DCD000BF20688C
:104CC000406B00F0080018B1082021688863ACE749
:104CD0002068406B00F0020018B102202168886350
:104CE000A3E72068406B00F0200018B12020216865
:104CF00088639AE740F23A50216888630298000678
:104D0000029901F47F4140EA0120029901F47F01F8
:104D100040EA1120029940EA11603060361D019886
:104D20000006019901F47F4140EA0120019901F454
:104D30007F0140EA1120019940EA116030600020B3
:104D400073E730B58FB00446012003902068FFF769
:104D500001FC18B94FF080600FB030BD606C0328C3
:104D60001BD02068FFF7FBFC05460DB12846F3E792
:104D700000212068FFF7F3FB606704212068FFF73C
:104D8000EEFBA06708212068FFF7E9FBE0670C2134
:104D90002068FFF7E4FB80210851606C032807D0EE
:104DA00003A92068FFF729FD05460DB12846D3E782
:104DB000606C032820D0BDF80C1021655022125BD6
:104DC00011042068FFF7E4FC05460DB12846C3E74F
:104DD00000212068FFF7C3FB606604212068FFF70D
:104DE000BEFBA06608212068FFF7B9FBE0660C2136
:104DF0002068FFF7B4FB206704212068FFF7AFFBB2
:104E0000010DE16404A92046FDF728FF10B14FF021
:104E10008050A1E75020005B01040A46002320686F
:104E2000FFF780FC05460DB1284695E7D4E904124A
:104E3000A069CDE90012029094E80F00FFF795FBFE
:104E4000002089E7F8B504460020009000260027DE
:104E50002068FFF737FC05460DB12846F8BD2068ED
:104E6000FFF746FC054645B10021A1642068FFF725
:104E700029FC05461DB12846F0E70121A164A06C7C
:104E8000012808D100212068FFF7AAFB054615B1CB
:104E90004FF08050E2E71DE000212068FFF7A0FB03
:104EA00005460DB12846D9E718492068FFF7B4FB3D
:104EB000054615B14FF08050D0E700212068FFF77C
:104EC0004EFB0646012080EAD67080F0010700986C
:104ED000401C00904FF6FF710098884201D2002FCD
:104EE000DAD04FF6FF710098884202D34FF08070FD
:104EF000B4E706F08040B0F1804F02D10120606439
:104F000001E0002060640020A8E70000000010C15C
:104F10007CB5044600200090019000212068FFF736
:104F20001EFB00F00070B0F1007F02D14FF4006072
:104F30007CBD69462046FFF763FE05460DB1284655
:104F4000F6E7019800F4803098B15022125B11040A
:104F50002068FFF745FB05460DB12846E8E700212C
:104F60002068FFF793FB05460DB12846E0E70020D7
:104F7000DEE74FF08060DBE77CB504460020009060
:104F8000019000212068FFF7EAFA00F00070B0F10C
:104F9000007F02D14FF400607CBD69462046FFF7D8
:104FA0002FFE05460DB12846F6E7019800F4802053
:104FB00098B15022125B11042068FFF711FB0546DF
:104FC0000DB12846E8E702212068FFF75FFB0546A0
:104FD0000DB12846E0E70020DEE74FF08060DBE718
:104FE0000346E02008604FF4006010800020704706
:104FF000002070470146002070470000014602482B
:10500000007840B270470000880000200146002070
:10501000704700002DE9F04107460C4615461E4634
:10502000012006490870324629462046FBF726FA39
:10503000002002490870BDE8F081000088000020CF
:105040002DE9F04180460C4615461E4601200749D1
:105050000870324629462046FBF724FA074600200E
:105060000249087078B2BDE8F08100008800002095
:10507000704710B5FBF7B8FF10BD00B595B02821FB
:105080000BA8FBF79AF8142106A8FBF796F818214D
:105090006846FBF792F805200B904FF480300C9097
:1050A00000200D9001200E900F9002201290C1035D
:1050B00013914FF4E01114910BA8FDF70FFA08B10A
:1050C000FBF7F4F80F2006900220079000200890CC
:1050D0004FF48060099000200A90022106A8FDF795
:1050E000C7F808B1FBF7E2F8132000904FF4807086
:1050F0000190C0010290002005906846FDF720F85D
:1051000008B1FBF7D3F815B000BD704770B5044681
:105110002168096921F44051E26811432268116154
:105120002269A1681143626941EA02052168C968E0
:1051300041F20C62914329432268D1602168496998
:1051400021F44071A2691143226851612D4A2168FE
:10515000914202D1FDF768F901E0FDF755F900EB46
:10516000C00101EB001162689200B1FBF2F100EBAB
:10517000C00202EB001263689B00B2FBF3F26423EF
:10518000B2FBF3F202EBC20303EB0212A1EB8201CA
:10519000322202EB01116422B1FBF2F101F0F001C5
:1051A00000EBC00202EB001263689B00B2FBF3F25B
:1051B0006423B2FBF3F201EB021200EBC00101EB3E
:1051C000001163689B00B1FBF3F100EBC00303EB3C
:1051D00000136668B600B3FBF6F36426B3FBF6F380
:1051E00003EBC30606EB0313A1EB8301322303EBAE
:1051F00001116423B1FBF3F101F00F0111442268A6
:10520000916070BD0038014070B504460D46D4F879
:10521000B4022946426820469047002070BD70B510
:1052200004460D4694F89C02012804D0022803D0BD
:1052300003280CD101E000BF00BF6888012805D118
:105240000020C4F8A402204600F04AF804E02946F1
:10525000204600F01BF800BF00BF70BD70B50646C9
:105260000C4615462B4622460021304600F004FC31
:10527000002070BD70B506460C4615462B462246EA
:105280000021304600F0D4FC002070BD70B504460B
:105290000D468021204600F09FFC0021204600F0B2
:1052A0009BFC70BD10B504460520C4F89402002391
:1052B0001A461946204600F0DFFB002010BD70B5ED
:1052C00004460E4615460220C4F89402E5612562A4
:1052D0002B4632460021204600F0AAFC002070BD7B
:1052E00010B504460420C4F8940200231A46194657
:1052F000204600F09DFC002010BD000070B5054662
:105300000C462DB92246064906A000F0D9F904E062
:105310002246034903A000F0D3F9014870BD000004
:10532000880500204D534320436F6E666967000077
:1053300002461220088001487047000054000020F7
:1053400070B505460C462DB92246064906A000F068
:10535000B7F904E02246034903A000F0B1F901487F
:1053600070BD0000880500204D534320496E7465D0
:1053700072666163650000000246042008800148EF
:10538000704700006800002070B505460C462246B4
:10539000024903A000F094F9004870BD8805002080
:1053A00053544D6963726F656C656374726F6E6997
:1053B0006373000070B505460C462DB922460649B8
:1053C00006A000F07DF904E02246034903A000F0A6
:1053D00077F9014870BD00008805002053544D3313
:1053E00032204D6173732053746F726167650000E2
:1053F00070B505460C461A202080FBF785F8014859
:1054000070BD00006C00002070B504460D46E888B1
:10541000012804D029462046FFF738FF1EE094F803
:105420009C02012804D0022803D0032810D109E0EF
:1054300000BF0020A060012204F108012046FFF710
:105440003EFF0AE00122211D2046FFF738FF04E05D
:1054500029462046FFF71AFF00BF00BF70BDF8B510
:1054600004460E4600200090002700257088001298
:10547000082875D2DFE800F0C7040C20C7C7A5B51F
:10548000207CD4F8B0120A68694690470746C1E00C
:10549000207C40B9D4F8B402816A68468847074640
:1054A0000220787007E0D4F8B402C16A68468847E1
:1054B000074602207870ADE0B078062878D2DFE8A1
:1054C00000F00316293C5063D4F8B002406838B1AC
:1054D000207CD4F8B0124A6869469047074605E038
:1054E00031462046FFF7D2FE681CC5B267E0D4F80B
:1054F000B002806838B1207CD4F8B0128A6869465E
:105500009047074605E031462046FFF7BFFE681C7E
:10551000C5B254E0D4F8B002C06838B1207CD4F8E9
:10552000B012CA6869469047074605E031462046F2
:10553000FFF7ACFE681CC5B241E0D4F8B0020069C8
:1055400038B1207CD4F8B0120A6969469047074602
:1055500005E031462046FFF799FE681CC5B22EE0F3
:1055600051E0D4F8B002406938B1207CD4F8B012D0
:105570004A6969469047074605E031462046FFF7ED
:1055800085FE681CC5B21AE0D4F8B002806940B14B
:10559000207CD4F8B0128A6969469047074606E035
:1055A00006E031462046FFF771FE681CC5B206E0F2
:1055B00031462046FFF76AFE681CC5B200BF00BF37
:1055C00028E0207C30B9D4F8B402416B68468847A3
:1055D000074605E031462046FFF758FE681CC5B275
:1055E00018E0207C40B9D4F8B402016B68468847C3
:1055F00007460720787005E031462046FFF746FE53
:10560000681CC5B206E031462046FFF73FFE681C25
:10561000C5B200BF00BF05B1F8BDBDF8000088B13C
:10562000F08878B1F088BDF80010884202DDBDF83E
:10563000000000E0F0880090BDF8002039462046C8
:10564000FFF73DFEF08810B92046FFF749FE00BF86
:10565000E2E70146002002E0421CD0B2491C0A7871
:10566000002AF9D1704770B504460D4694F89C02A3
:10567000012804D0022803D003281AD101E000BF7A
:1056800000BFE888022804D029462046FFF7FEFD27
:1056900014E00120E060D4F8A40218B1E06840F002
:1056A0000200E060022204F10C012046FFF707FE31
:1056B00004E029462046FFF7E9FD00BF00BF70BDAA
:1056C0002DE9F04104460D4617460026FCB1204660
:1056D000FFF7BFFF022101EB400038803A783046E7
:1056E000711CCEB22A5403223046711CCEB22A5409
:1056F0000AE014F8012B3046711CCEB22A54002265
:105700003046711CCEB22A5420780028F1D1BDE871
:10571000F0810146002031B1012906D0022906D0CE
:10572000032908D105E0002007E0022005E0012060
:1057300003E0022001E0022000BF00BF704770B507
:1057400004460D4616460CB9022070BDD4F8B402CA
:1057500010B10020C4F8B4020DB1C4F8B052012059
:1057600084F89C022670204600F018F90020ECE72F
:105770002DE9F04104460D46002600272946D4F8BD
:10578000C002FBF77BFD06463046FFF7C2FF074627
:105790003846BDE8F0812DE9F04104460D4600266B
:1057A00000272946D4F8C002FBF733FD06463046F1
:1057B000FFF7AFFF07463846BDE8F0812DE9F0411D
:1057C00004460E461746002E64D104F11405D4F8A1
:1057D0009402022848D1D5E90301884210D9D5E9BD
:1057E0000301401AE860A88982B239462046FFF7D3
:1057F00041FD00231A461946204600F03DF93EE0DF
:105800002969A868B0FBF1F201FB1200B8B9296957
:10581000A868884213D3A868D4F8981288420ED298
:10582000002211462046FFF725FD0020C4F898020B
:1058300000231A461946204600F01EF91FE0D4F84E
:10584000B402C06840B194F89C02032804D1D4F893
:10585000B402C168204688478021204600F0BCF988
:105860002046FFF71FFD0AE0D4F89402042802D076
:10587000D4F8940218B98021204600F0ADF994F8CC
:10588000A002012818D1204600F079FB002084F8FE
:10589000A00211E0D4F8B402406950B194F89C021F
:1058A000032806D1D4F8B402314642692046904715
:1058B00002E00220BDE8F0810020FBE72DE9F04185
:1058C00004460E461746BEBB04F5AA75D4F89402EA
:1058D000032825D1D5E90301884210D9D5E9030170
:1058E000401AE860D5E90301884201D2E86800E087
:1058F000286982B239462046FFF7B0FC2FE0D4F881
:10590000B402006940B194F89C02032804D1D4F891
:10591000B4020169204688472046FFF7E1FC1EE0FB
:10592000D4F8940205281AD10020C4F8940200216A
:10593000204600F051F912E0FFE7D4F8B402806984
:1059400050B194F89C02032806D1D4F8B402314631
:1059500082692046904702E00220BDE8F0810020E5
:10596000FBE72DE9F04104460D46002600272946B5
:10597000D4F8C002FCF700F806463046FFF7C9FE2F
:1059800007463846BDE8F08170B504460D46294605
:10599000D4F8C002FCF712F870BD000010B5044640
:1059A0001948C0F8E842C4F8C0021848164908600F
:1059B0000820486002211448816000218161C16192
:1059C0000162FCF7D2F908B1FAF770FC1823002243
:1059D0001146D4F8C002FBF7D9FB582300228021DE
:1059E000D4F8C002FBF7D2FB982300228121D4F81F
:1059F000C002FBF7CBFBD82300220121D4F8C00260
:105A0000FBF7C4FB002010BD880D0020005C0040A7
:105A100010B50246D2F8C03201F08000802809D1CA
:105A200001F07F0000EB800403F1280000EBC400CC
:105A3000807810BD01F07F0000EB800403F5B470A6
:105A400000EBC4008078F4E72DE9F04704460F46E8
:105A500015461E464FF00008C1462B4632463946D1
:105A6000D4F8C002FBF7B5FF80464046FFF751FE71
:105A700081464846BDE8F0872DE9F04704460D46CB
:105A800016461F464FF00008C1463B46324629469F
:105A9000D4F8C002FBF7E3FF80464046FFF739FE2B
:105AA00081464846BDE8F08710B5044640230022F1
:105AB00011462046FFF7C8FF01214FF4AC70015199
:105AC00040214FF4B2700151402300228021204632
:105AD000FFF7BAFF0121A16140216162012084F832
