:020000040800F2
:100000007828002045010008752E000831290008D5
:10001000712E0008A7020008036400080000000019
:10002000000000000000000000000000BD3A0008D1
:10003000AB020008000000006B320008BF3A000865
:100040005F0100085F0100085F0100085F01000810
:100050005F0100085F0100085F0100085F01000800
:100060005F0100085F0100085F0100085F010008F0
:100070005F0100085F0100085F0100085F010008E0
:100080005F0100085F0100085F010008AD62000821
:10009000BD6200085F0100085F0100085F01000801
:1000A0005F0100085F0100085F0100085F010008B0
:1000B0005F0100085F0100085F0100085F010008A0
:1000C0005F0100085F0100085F0100085F01000890
:1000D0005F0100085F0100085F0100085F01000880
:1000E0005F0100085F0100085F0100085F01000870
:1000F0005F0100085F0100085F0100085F01000860
:100100005F0100085F0100085F0100085F0100084F
:100110005F0100085F0100085F0100085F0100083F
:100120005F0100085F0100085F0100085F0100082F
:10013000DFF80CD000F04CF800480047616400087C
:10014000782800200648804706480047FEE7FEE77B
:10015000FEE7FEE7FEE7FEE7FEE7FEE7FEE7FEE777
:10016000573B000831010008202A04DB203A21FA1D
:1001700002F00021704721FA02F3D040C2F12002C0
:10018000914008431946704740EA01039B0703D09A
:1001900009E008C9121F08C0042AFAD203E011F8C6
:1001A000013B00F8013B521EF9D27047D2B201E088
:1001B00000F8012B491EFBD270470022F6E710B56C
:1001C00013460A4604461946FFF7F0FF204610BDC5
:1001D000064C074D06E0E06840F0010394E8070094
:1001E00098471034AC42F6D3FFF7A6FFEC64000842
:1001F0000C65000870B58C1810F8015B15F007034A
:1002000001D110F8013B2A1106D110F8012B03E0AF
:1002100010F8016B01F8016B5B1EF9D12B0705D4B7
:100220000023521E0DD401F8013BFAE710F8013B00
:10023000CB1A921C03E013F8015B01F8015B521E1C
:10024000F9D5A142D8D3002070BD70B50446002571
:100250002068806800F0010018B32068806820F0F2
:1002600001002168886000F097FD054613E000F06A
:1002700093FD401B02280ED92068806800F0010021
:1002800048B1A06A40F01000A062E06A40F00100AE
:10029000E062012070BD2068806800F00100002845
:1002A000E5D10020F6E700BFFEE7704772B600BF59
:1002B000FEE730B504460D4600222946204600F0F0
:1002C00001F830BDF0B50346012500241148407AFD
:1002D00001281CDC00200F4E767A0E4FB8553846A8
:1002E000467A001D40F82630001F467A08308255B5
:1002F0003E46707A461C7E72044604F13000087057
:100300003A2048702F2088700020C87000252846A9
:10031000F0BD0000581800200021074AD1610749AC
:10032000096941F00401054A11611146096941F06A
:100330004001116170470000381800200020024081
:100340000021074AD1610749096941F00201054AC4
:10035000116111464861096941F04001116170471E
:1003600038180020002002400022054BDA61054ABF
:10037000126942F00102034B1A61018070470000CC
:10038000381800200020024000201E49C96801F0F2
:10039000100139B11C49C96941F002011A4AD16101
:1003A00040F010001749C96801F0040139B116493D
:1003B000C96941F00101144AD16140F004001149BA
:1003C000C96901F0010169B10F49C96941F004012E
:1003D0000D4AD16100BF0B49C96921F00101094AE9
:1003E000D16100BF00BF40F20111884206D105492A
:1003F000C96921F00101034AD16101E00149C860E6
:1004000000BF7047002002403818002070B5044635
:1004100000F0C2FC054609E0601C38B124B100F0D0
:10042000BBFC401BA04201D9032070BD1248C0682C
:1004300000F001000028EFD10F48C06800F0200054
:1004400020B100BF20200C49C86000BF0A48C06826
:1004500000F0100048B90848C06900F0010020B958
:100460000548C06800F0040018B1FFF78DFF0120B7
:10047000DBE70020D9E700000020024070B503460A
:10048000074C1D4604EBC124002004E014F8016B66
:1004900003F8016B401CB0EBC22FF7DB002070BDEE
:1004A00000000108F8B507460C46164600F0ACFA05
:1004B000002013490860134800EBC42088600846F8
:1004C000C6600020009069460D4800F0E3F908B1CD
:1004D0000120F8BD00250BE057F805C0094800EBE6
:1004E000C420411962460023022000F035FA2D1D78
:1004F000B5EBC62FF0D300F025FA0020E9E70000A5
:10050000641800200000010870B50A480468001D46
:100510000568001D0668344454B108220649204687
:1005200002F008FA042204491031284602F002FAC7
:1005300070BD0000E8F7FF1F5600002038B50246E6
:1005400000230020009000BF92F82400012801D170
:10055000022038BD012082F8240000BF4868072827
:1005600012D21068406B0C79641E04EB84051F24C2
:10057000AC40A0430D796D1E05EB85050C68AC40C1
:1005800020431468606327E048680D2812D2106881
:10059000006B0C79E41F04EB84051F24AC40A043DE
:1005A0000D79ED1F05EB85050C68AC402043146800
:1005B000206311E01068C06A0C790D3C04EB8405DF
:1005C0001F24AC40A0430D790D3D05EB85050C685B
:1005D000AC4020431468E06208680A2812D310680F
:1005E000C0680C780A3C04EB44050724AC40A043E7
:1005F0000D780A3D05EB45058C68AC402043146836
:10060000E0600FE0106800690C7804EB44050724F3
:10061000AC40A0430D7805EB45058C68AC40204309
:10062000146820610868102802D00868112827D1B2
:10063000174C1068A0421ED11068806800F40000BA
:10064000F0B91068806840F400001468A060086881
:10065000102815D10F4800680F4CB0FBF4F000EBE8
:1006600080004000009002E00098401E009000983A
:100670000028F9D104E0906A40F020009062012344
:1006800000BF002082F8240000BF184661E7000088
:1006900000240140A000002040420F002DE9F0415D
:1006A0000446002700250026A84614B90120BDE80D
:1006B000F081A06810B1207D00B100BFA06A30B900
:1006C0000020E06284F82400204600F097F82046DD
:1006D000FFF7BBFD0746A06A00F01000002873D1A9
:1006E000002F7ED1A06A20F4885040F00200A06262
:1006F0003F4AD4E90001904208D1E069B0F5402FAB
:1007000002D14FF4002002E0E06900E0E06901431B
:10071000207B41EA40000643A068B0F5807F02D00C
:10072000A068012802D14FF4807000E0002005434A
:10073000207D012811D1207B38B9A069401E4FF4DB
:10074000006141EA4030054307E0A06A40F0200024
:10075000A062E06A40F00100E0622068406820F496
:100760006940284321684860206880682149084022
:10077000304321688860A068B0F5807F02D0A0680F
:10078000012802D14FF4807000E00020B0F5807F96
:1007900003D1208A401E4FEA00582068C06A20F426
:1007A000700040EA08002168C86220688068124929
:1007B0000840B04209D10020E062A06A20F00200A7
:1007C00040F00100A06211E00BE0A06A20F00200FE
:1007D00040F01000A062E06A40F00100E0620127F2
:1007E00004E0A06A40F01000A062012738465EE7EE
:1007F000003C0140FDF7E1FFFE0E1FFF10B586B083
:10080000044600200290039004900590144920684B
:10081000884222D100BF1348806940F4007011491A
:1008200088610846806900F40070019000BF00BF35
:1008300000BF0846806940F004008861084680696E
:1008400000F00400019000BF00BF012002900320CF
:10085000039002A9044800F0EFF806B010BD0000B4
:1008600000240140001002400008014070B5044619
:1008700000F092FA06462546681C10B1044800783C
:10088000054400BF00F088FA801BA842FAD370BD6F
:100890009C0000202DE9F04104460E46012700256A
:1008A00000BF2648007E012802D10220BDE8F08169
:1008B00001202249087600BF2068022813D14CF29B
:1008C0005030FFF7A3FD90BB0120FFF725FD4CF250
:1008D0005030FFF79BFD07461948006920F00400DF
:1008E0001749086123E04CF25030FFF78FFDF0B953
:1008F0004FF0FF303060A56812E02846FFF720FD7A
:100900004CF25030FFF782FD07460D48006920F099
:1009100002000B4908610FB1356007E005F500657D
:10092000D4E9021001EBC020A842E6D800BF00BF06
:1009300000200249087600BF3846B7E73818002083
:10094000002002400348006940F08000014908612E
:1009500000207047002002402DE9FE4F05468B46DF
:1009600017469846012600240020029000BF244824
:10097000007E012802D10220BDE8FE8F012020491F
:10098000087600BF4CF25030FFF740FD064686BBAC
:10099000012D02D10120029006E0022D02D1022099
:1009A000029001E00420029000241EE02201B946DA
:1009B000C24648465146FFF7D7FB80B2019002205D
:1009C00000FB04B000900199FFF7CEFC4CF25030D0
:1009D000FFF71CFD06460B48006920F0010009499D
:1009E000086106B104E0601CC4B202988442DDDBF9
:1009F00000BF00BF00200249087600BF3046BBE7B9
:100A0000381800200020024000200849096901F040
:100A1000800151B10649054A5160064951601146AD
:100A2000096901F0800101B10120704700200240F6
:100A300023016745AB89EFCD2DE9F8470246002336
:100A40009C467BE14FF0010808FA03F4D1F80080DE
:100A500008EA0400A0427DD1DFF8F4A2D1F80480B6
:100A6000A8EB0A09D0453AD014DCB8F1030F50D0F6
:100A700009DCB8F1000F31D0B8F1010F1CD0B8F18A
:100A8000020F49D120E0B8F1110F18D0B8F1120FC0
:100A900042D11EE0B9F5881F25D006DCB9F5803FAC
:100AA00020D0B9F5801F37D11AE0B9F5001F18D052
:100AB000B9F5041F30D117E0D1F80CC02DE0D1F802
:100AC0000C8008F1040C28E0D1F80C8008F1080C27
:100AD00023E0D1F80C8008F10C0C1EE000BF00BF31
:100AE00000BF00BF00BF00BFD1F80880B8F1000F01
:100AF00002D14FF0040C0BE0D1F80880B8F1010FDF
:100B000003D14FF0080C146102E04FF0080C54615F
:100B100003E04FF0000C00E000BF00BFFF2801D849
:100B2000904601E002F104084646FF2802D84FEA49
:100B3000830803E0A3F108084FEA88084746D6F87F
:100B400000804FF00F0909FA07F928EA09080CFAA2
:100B500007F900E07AE048EA0908C6F80080D1F811
:100B6000048008F08058B8F1805F6FD100BFDFF8D3
:100B7000E481D8F8188048F00108DFF8D891C9F866
:100B80001880C846D8F8188008F00108CDF8008011
:100B900000BF00BF4FEAB9384FEA930958F829500F
:100BA0004FEA83784FEA18794FF00F0808FA09F8EE
:100BB00025EA0805DFF8A081424502D14FF0000880
:100BC00024E0DFF89881424502D14FF001081DE092
:100BD000DFF88C81424502D14FF0020816E0DFF8C1
:100BE0008481424502D14FF003080FE0DFF878819D
:100BF000424502D14FF0040808E0DFF87081424519
:100C000002D14FF0050801E04FF006084FEA837962
:100C10004FEA197908FA09F848EA0505DFF8508122
:100C20004FEA930948F82950D1F8048008F4803835
:100C3000B8F5803F0BD1DFF83C81D8F8008048EA56
:100C40000008DFF83091C9F800800AE075E0DFF8AD
:100C50002481D8F8008028EA0008DFF81891C9F844
:100C60000080D1F8048008F40038B8F5003F0ED1B8
:100C7000DFF8008108F10408D8F8008048EA00088D
:100C8000DFF8F09009F10409C9F800800DE0DFF801
:100C9000E48008F10408D8F8008028EA0008DFF8AA
:100CA000D49009F10409C9F80080D1F8048008F44F
:100CB0008018B8F5801F0ED1DFF8B88008F1080859
:100CC000D8F8008048EA0008DFF8A89009F1080980
:100CD000C9F800800DE0DFF89C8008F10808D8F81A
:100CE000008028EA0008DFF88C9009F10809C9F8AB
:100CF0000080D1F8048008F40018B8F5001F0ED168
:100D0000DFF8708008F10C08D8F8008048EA000885
:100D1000DFF8609009F10C09C9F800800DE0DFF8F8
:100D2000548008F10C08D8F8008028EA0008DFF8A1
:100D3000449009F10C09C9F800805B1CD1F80080CF
:100D400028FA03F8B8F1000F7FF47CAEBDE8F8870D
:100D5000000011100010024000080140000C01408A
:100D6000001001400014014000180140001C014027
:100D7000080001400004014010B5C26821EA0203E6
:100D800002EA010443EA0443036110BD0AB10161B0
:100D900001E00B04036170470148006870470000E0
:100DA0009400002070B504460CB9012070BD94F881
:100DB0003D0028B9002084F83C00204600F0DAF815
:100DC000242084F83D002068006820F0010021689C
:100DD00008602068006840F40040216808602068CE
:100DE000006820F400402168086001F06DFA0546B3
:100DF0005C496068884206D85B48854201D2012080
:100E000007E0002005E05948854201D2012000E0BA
:100E10000020012800D1C9E75548B5FBF0F620684D
:100E2000406820F03F003043216848604D496068C9
:100E3000884201D8701C07E04FF4967070434FF45D
:100E40007A71B0FBF1F0401C2168096A21F03F0182
:100E500008432168086243496068884214D8681EC4
:100E600061684900B0FBF1F0401CC0F30B0004289E
:100E700001D204203DE0681E61684900B0FBF1F03A
:100E8000401CC0F30B0034E0A06838B9681E6168EC
:100E900001EB4101B0FBF1F0401C0AE0681E616803
:100EA00001EBC10202EB0111B0FBF1F0401C40F478
:100EB0008040C0F30B0008B901201AE0A06848B9CF
:100EC000681E616801EB4101B0FBF1F0401CC0F30A
:100ED0000B000CE0681E616801EBC10202EB01111E
:100EE000B0FBF1F0401CC0F30B0040F4804040F434
:100EF00000402168C9694CF6FF729143084321689C
:100F0000C861D4E9070108432168096821F0C001DC
:100F1000084321680860D4E9031008432168896800
:100F200048F2FF329143084321688860D4E9050103
:100F300008432168C96821F0FF0108432168C8609F
:100F40002068006840F001002168086000202064EB
:100F5000202084F83D000020206384F83E0000BF7C
:100F600024E70000A086010080841E0000093D00E7
:100F700040420F0010B586B0044600200290039056
:100F80000490059015492068884225D100BF144877
:100F9000806940F00800124988610846806900F0C5
:100FA0000800019000BF00BFC020029012200390F3
:100FB0000320059002A90B48FFF73EFD00BF08483B
:100FC000C06940F400100649C8610846C06900F4D1
:100FD0000010019000BF00BF06B010BD00540040DB
:100FE00000100240000C01400348006803490978E2
:100FF0000844014908607047940000209C000020CC
:1010000010B50848006840F0100006490860032049
:1010100000F0A8F80F2000F007F800F02BF80020EF
:1010200010BD00000020024070B504460E48007854
:101030004FF47A71B1FBF0F00C490968B1FBF0F59F
:10104000284601F0DDFB08B1012070BD102C07D24D
:1010500000222146501E00F047F80548046001E0D8
:101060000120F2E70020F0E79C000020A000002013
:101070009800002008B500BF1148806940F00100C9
:101080000F4988610846806900F00100009000BFA8
:1010900000BF00BF0846C06940F08050C8610846E4
:1010A000C06900F08050009000BF00BF00BF05493C
:1010B000486820F0E06000BF486000BF08BD000045
:1010C000001002400000014001460846002809DBEC
:1010D00000F01F0301229A4043099B0003F1E02323
:1010E000C3F8002100BF70472DE9F05F80460D4630
:1010F0001646002705F088F9074639462A46334642
:1011000001F00700C0F1070ABAF1040F02D94FF04D
:10111000040A01E0C0F1070AD14600F1040ABAF15D
:10112000070F02D24FF0000A01E0A0F1030AD446F3
:101130004FF0010A0AFA09FAAAF1010A0AEA020AB8
:101140000AFA0CFA4FF0010B0BFA0CFBABF1010B96
:101150000BEA030B4AEA0B042146404605F05CF912
:10116000BDE8F09F00BF00F00702064B19684FF67C
:10117000FF031940044B0B4343EA0221014B196062
:1011800000BF70470CED00E00000FA0570B50546A1
:101190000C4604F08000802808D104F0070000EB22
:1011A000800605F1280000EBC60105E004EB84068B
:1011B00005F5B47000EBC6011AB900200873CB80A6
:1011C00004E0012008730B81180C4881002070BDD9
:1011D000704770B504460D4605EB850304F1280100
:1011E00001EBC3014A692946D4F8E80203F00CF880
:1011F00070BD70B504460D4605EB850304F5B4716A
:1012000001EBC3014A692946D4F8E80203F07CF8EF
:1012100070BD70B504460E4606F0800080280AD1E5
:1012200006F0070000EB800104F1280000EBC10587
:101230000120687009E006F0070000EB800104F56A
:10124000B47000EBC1050020687006F0070028703C
:1012500000BF94F8A802012801D1022070BD01202E
:1012600084F8A80200BF2946206804F053F800BFA4
:10127000002084F8A80200BF00BFEFE770B5044665
:101280000E4606F00F006168884201D9012070BD4A
:1012900006F0800080280AD106F0070000EB8001EC
:1012A00004F1280000EBC1050120687009E006F098
:1012B000070000EB800104F5B47000EBC1050020CD
:1012C00068700020A87006F00700287000BF94F82E
:1012D000A802012801D10220D9E7012084F8A80240
:1012E00000BF2946206804F071F900BF002084F88F
:1012F000A80200BF00BFCAE72DE9F04105460C4631
:10130000174607F48040002850D02868B0F85010E5
:10131000207801EBC000801C296801F5806131F85C
:101320001000C0F30906A069B04203D3A069801B76
:10133000A06101E00020A061A069A8B900BF2278E7
:101340005200296831F812104BF68F7201EA020040
:1013500080F4005040F4004141F0800123785B00AC
:101360002A6822F8131000BF07F04000A8B100BFA0
:1013700000BF22785200296831F8121048F68F72A7
:1013800001EA020040F4004141F0C00123785B0013
:101390002A6822F8131000BF00BF002E55D0228902
:1013A00061693346286804F095FF4EE02868B0F87C
:1013B0005010207801EBC000801D296801F5806184
:1013C00031F81000C0F30906A069B04203D3A06948
:1013D000801BA06101E00020A061A069A8B900BF46
:1013E00022785200296831F812104BF68F7201EA08
:1013F000020080F4005040F4004141F08001237865
:101400005B002A6822F8131000BF07F04000A8B95B
:1014100000BF00BF22785200296831F8121048F648
:101420008F7201EA020040F4004141F0C0012378CC
:101430005B002A6822F8131000BF00BF2EB162893A
:1014400061693346286804F045FF3046BDE8F08105
:101450002DE9F04705460C46904608F0400000286C
:1014600071D02868B0F85010207801EBC000801CC3
:10147000296801F5806131F81000C0F30907A069FF
:10148000B84203D9A069C01BA06101E00020A0619F
:10149000A06900287ED100BF6078C8B900BF296864
:1014A0002A68B2F8502011442278022303EBC202CA
:1014B00001F5806303EB420000BF028848F2FF336E
:1014C0001A400280028842F40042028000BF13E00A
:1014D0006078012810D100BF28682A68B2F850202F
:1014E00010442278022303EBC20200F5806303EB71
:1014F000420100220A8000BF00BF00BF2968607857
:1015000010BB00BF2B68D5F800C0BCF850C06344C6
:1015100094F800C04FF0060909EBCC0C03F5806984
:1015200009EB4C0000BFB0F800C048F2FF390CEAEC
:10153000090CA0F800C0B0F800C04CF4004CA0F8B2
:1015400000C000BF11E0C0E0607801280DD128681C
:10155000B0F8500001442078062303EBC00001F5E9
:10156000806303EB40020020108000BF21782846F2
:10157000FFF72FFE08F48040002816D000BF00BF00
:1015800022785200296831F8121048F68F7201EA69
:10159000020000E00AE040F4004141F48141237878
:1015A0005B002A6822F8131000BFCAE108F48040EB
:1015B000A8B100BF00BF22785200296831F812108C
:1015C00048F68F7201EA020040F4004141F4814282
:1015D00023785B00296821F8132000BF00BF94F82E
:1015E00024000128E1D1606938446061E069384431
:1015F000E0612169206A884204D32669206A801B41
:1016000020620BE0206A20B93E46002084F82400C6
:1016100004E0002084F82400266A206200BF60787D
:10162000B8BB00BF2A682968B1F850100A44217875
:10163000022303EBC10102F5806303EB410108467D
:1016400000BF56B9038848F2FF3C03EA0C0303804D
:10165000038843F40043038019E03E2E0BD800BFFB
:10166000710806F0010303B1491C4FF6FF7303EA4A
:10167000812303800BE000BF710906F01F0303B94B
:10168000491E4FF4004343EA8123038000BF00BF9B
:1016900013E0FFE7607801280FD100BF28682A68AF
:1016A000B2F8502010442278022303EBC20200F566
:1016B000806303EB42010E8000BF00BFB3B22289FA
:1016C0006169286804F035FE3BE12868B0F85010E5
:1016D000207801EBC000801D296801F5806131F898
:1016E0001000C0F30907A069B84203D3A069C01B6A
:1016F000A06101E00020A061A06900287DD100BFA9
:101700006078C8B900BF29682A68B2F8502011442F
:101710002278022303EBC20201F5806303EB42004F
:1017200000BF028848F2FF331A400280028842F468
:101730000042028000BF13E06078012810D100BF92
:1017400028682A68B2F8502010442278022303EB5C
:10175000C20200F5806303EB420100220A8000BF51
:1017600000BF00BF2968607808BB00BF2B68D5F8B0
:1017700000C0BCF850C0634494F800C04FF00609A4
:1017800009EBCC0C03F5806909EB4C0000BFB0F805
:1017900000C048F2FF390CEA090CA0F800C0B0F80C
:1017A00000C04CF4004CA0F800C000BF10E060780E
:1017B00001280DD12868B0F8500001442078062394
:1017C00003EBC00001F5806303EB400200201080B2
:1017D00000BF21782846FFF7FCFC08F48040002871
:1017E00016D100BF00BF22785200296831F81210CC
:1017F00048F68F7201EA020000E00AE040F400417E
:1018000041F4814123785B002A6822F8131000BF5D
:1018100097E008F48040A8B900BF00BF22785200CA
:10182000296831F8121048F68F7201EA020040F47C
:10183000004141F4814123785B002A6822F81310AB
:1018400000BF00BF94F8240001287AD160693844B1
:101850006061E0693844E0612169206A884204D30C
:101860002669206A801B20620BE0206A20B93E4670
:10187000002084F8240004E0266A0020206284F816
:10188000240000BF2A68607890BB00BFD5F800C074
:101890002968B1F850108C4421784FF0060909EB03
:1018A000C1010CF5806909EB4101084600BF76B91A
:1018B000B0F8009048F2FF3A09EA0A09A0F800904F
:1018C000B0F8009049F40049A0F8009020E03E2EC6
:1018D0000FD800BF710806F00109B9F1000F00D060
:1018E000491C4FF6FF7909EA8129A0F800900FE022
:1018F00010E000BF710906F01F09B9F1000F00D117
:10190000491E4FF4004949EA8129A0F8009000BF20
:1019100000BF0FE0607801280CD12868B0F85000B3
:1019200002442078062101EBC00002F5806101EB42
:1019300040031E8000BFB3B262896169286804F069
:10194000F8FC00BF22785200296831F8121048F6DE
:10195000BF7201EA020080F0100080F0200040F425
:10196000004141F0800123785B002A6822F81310BF
:1019700000BF0020BDE8F08770B504460D4600BFEB
:1019800094F8A802012801D1022070BD012084F83A
:10199000A80200BF05F08000802805D105F00701EE
:1019A000206804F07FFC02E0206804F078FC00BFAF
:1019B000002084F8A80200BF00BFE6E7024601F05D
:1019C000070000EB800302F5B47000EBC300C069B0
:1019D00070472DE9F04705460E4690461F464FF0EA
:1019E000000906F0800080280AD106F0070000EB0D
:1019F000800105F1280000EBC1040120607009E0BE
:101A000006F0070000EB800105F5B47000EBC1049F
:101A10000020607006F007002070C4F81080E770A6
:101A2000607808B12078E081022F01D10020207178
:101A300000BF95F8A802012802D10220BDE8F08776
:101A4000012085F8A80200BF2146286803F038FA73
:101A500000BF002085F8A80200BF4846EEE72DE948
:101A6000F04105460E461746984606F0070000EB83
:101A7000800105F5B47000EBC1046761C4F81880FB
:101A80000020E061607006F00700207006F007009B
:101A900020B92146286803F034FE03E02146286877
:101AA00003F02FFE0020BDE8F08170B504460D461E
:101AB00005F007006168884201D9012070BD05F07A
:101AC000800080280AD105F0070000EB800104F1B6
:101AD000280000EBC1060120707007E005EB8501CE
:101AE00004F5B47000EBC106002070700120B070E6
:101AF00005F00700307000BF94F8A802012801D15A
:101B00000220DBE7012084F8A80200BF31462068EC
:101B100003F0C9FD05F0070020B904F52C71206819
:101B200003F051FD00BF002084F8A80200BF00BFF1
:101B3000C4E72DE9F04105460E4690461F4606F0E3
:101B4000070000EB800105F1280000EBC104C4F898
:101B50001480A761012084F8240027620020E0613E
:101B60000120607006F00700207006F0070020B921
:101B70002146286803F0C5FD03E02146286803F0EC
:101B8000C0FD0020BDE8F0817FB50446206804F068
:101B90009DFB00F40040B0F5004F02D1204601F05B
:101BA0006BF9206804F092FB00F48060B0F5806F60
:101BB0000FD12068B0F844004FF6FF31084021688B
:101BC000A1F84400204600F0A7F90021204600F0CB
:101BD000C3F9206804F07AFB00F48040B0F5804F30
:101BE00008D12068B0F844004BF6FF710840216826
:101BF000A1F84400206804F069FB00F40050B0F53F
:101C0000005F08D12068B0F844004DF6FF7108402D
:101C10002168A1F84400206804F058FB00F48050CB
:101C2000B0F5805F1DD12068B0F840004FF6FB7121
:101C300008402168A1F840002068B0F840004FF645
:101C4000F77108402168A1F84000204600F076F9BD
:101C50002068B0F844004EF6FF7108402168A1F8F2
:101C60004400206804F032FB00F40060B0F5006F1F
:101C700055D1002507E06900206830F811002DF8E3
:101C80001500681CC5B2082DF5D32068B0F84000D7
:101C900040F001002168A1F840002068B0F8400041
:101CA0004FF6FE7108402168A1F8400000BF20688F
:101CB000B0F8440000F480600028F8D02068B0F844
:101CC00044004FF6FF3108402168A1F84400002588
:101CD00007E03DF815006A00216821F81200681C31
:101CE000C5B2082DF5D32068B0F8400040F00800D8
:101CF0002168A1F840002068B0F844004FF2FF715D
:101D000008402168A1F844002068B0F8400040F085
:101D100004002168A1F84000204600F05FF9206827
:101D200004F0D4FA00F40070B0F5007F0BD1206805
:101D3000B0F844004FF6FF5108402168A1F8440074
:101D4000204600F002F9206804F0C0FA00F4807028
:101D5000B0F5807F08D12068B0F844004FF6FF61ED
:101D600008402168A1F844007FBD30B585B0044625
:101D700014B9012005B030BD94F8A90228B900209B
:101D800084F8A802204600F09DF8032084F8A902F8
:101D9000206803F00EFC142204F110016846FEF7DF
:101DA000F3F994E80F0003F0B1FA20B1022084F8AF
:101DB000A9020120DEE70021206804F0B0FA002526
:101DC00031E0012105EB850204F1280000EBC2009F
:101DD000417005EB850104F1280000F8315005EB56
:101DE000850100EBC100C581002105EB850204F1EE
:101DF000280000EBC200C17005EB850204F1280049
:101E000000EBC200016105EB850204F1280000EB44
:101E1000C200416105EB850204F1280000EBC2001D
:101E20008161681CC5B26068A842CAD800252AE052
:101E3000002105EB850204F5B47000EBC20041708F
:101E400005EB850104F5B47000F83150002105EB75
:101E5000850200EBC200C17005EB850204F5B47089
:101E600000EBC200016105EB850204F5B47000EBE4
:101E7000C200416105EB850204F5B47000EBC200BD
:101E80008161681CC5B26068A842D1D8142204F1EF
:101E900010016846FEF778F994E80F0003F07EFB26
:101EA00020B1022084F8A902012063E7002084F811
:101EB0002400012084F8A902206803F06CFB0020B4
:101EC00058E7000038B504461149206888421DD102
:101ED00000BF1048C06940F400000E49C8610846C0
:101EE000C06900F40000009000BF00BF002211464E
:101EF0001320FFF7F9F81320FFF7E6F80022114648
:101F00001420FFF7F1F81420FFF7DEF838BD0000C9
:101F1000005C00400010024070B504460125A06836
:101F2000022801D0FEF7C2F92946D4F8E80202F0EF
:101F30002BFBD4F8E80202F0DDFA70BD10B50446C0
:101F4000D4F8E80202F004FB10BD10B50446D4F842
:101F5000E80202F008FB10BD70B504460D4600BF54
:101F600094F8A802012801D1022070BD012084F854
:101F7000A80200BF84F824502946206804F0D2F952
:101F800000BF002084F8A80200BF00BFEDE710B535
:101F9000044604F52C71D4F8E80202F00CFB10BDE5
:101FA00010B5044600BF94F8A802012801D1022010
:101FB00010BD012084F8A80200BF206804F066F973
:101FC00001212046FFF704F9206803F0E1FA00BF81
:101FD000002084F8A80200BF00BFE9E710B504465E
:101FE000D4F8E80202F040FBA06928B10348006879
:101FF00040F006000149086010BD000010ED00E04F
:10200000F8B5044600260025207800F001000028DD
:102010006BD000274348C06900F0805070B900BF02
:102020004048C06940F080503E49C8610846C069D8
:1020300000F08050009000BF00BF01273A480068C0
:1020400000F48070B0B93848006840F480703649B8
:102050000860FEF7A1FE064606E0FEF79DFE801B27
:10206000642801D90320F8BD2F48006800F480706F
:102070000028F2D02B48006A00F440752DB3A088E8
:1020800000F44070A84220D02648006A20F4407531
:10209000012026490860002008602248056205F0FA
:1020A000010090B1FEF778FE064608E0FEF774FEE8
:1020B000801B41F28831884201D90320D3E71948B7
:1020C000006A00F002000028F0D01648006A20F4F0
:1020D00040706168084313490862012F04D1084623
:1020E000C06920F08050C86100BF207800F0020075
:1020F000022807D10B48406820F44040A1680843FB
:1021000008494860207800F01000102807D10548E1
:10211000406820F48000616908430249486000205B
:10212000A1E700000010024000700040400442425D
:1021300070B504460D460CB9012070BD5A480068C0
:1021400000F00700A8420ED25748006820F00700B0
:102150002843554908600846006800F00700A84277
:1021600001D00120E9E7207800F0020002281DD10B
:10217000207800F00400042805D14C48406840F461
:10218000E0604A494860207800F00800082805D13E
:102190004648406840F460504449486043484068BD
:1021A00020F0F000A168084340494860207800F022
:1021B000010078B36068012806D13C48006800F44B
:1021C000003090B90120B8E76068022806D137488E
:1021D000006800F0007040B90120AEE733480068A5
:1021E00000F0020008B90120A7E73048406820F05D
:1021F0000300616808432D494860FEF7CDFD06469F
:1022000009E0FEF7C9FD801B41F28831884202D9FE
:10221000032092E707E02548406800F00C00616861
:10222000B0EB810FEDD12048006800F00700A84214
:102230000ED91D48006820F0070028431A4908609D
:102240000846006800F00700A84201D0012074E7AA
:10225000207800F00400042807D11448406820F4D6
:10226000E060E168084311494860207800F0080008
:10227000082808D10D48406820F46050216940EAE0
:10228000C1000A49486000F03FF808494968C1F3B5
:102290000311074A515CC8400649086006480068B7
:1022A000FEF7C2FE002048E7002002400010024076
:1022B000BC640008A00000209800002001480068CD
:1022C00070470000A000002000B5FFF7F7FF0449A9
:1022D0004968C1F30221034A515CC84000BD0000B7
:1022E00000100240CC64000800B5FFF7E7FF044986
:1022F0004968C1F3C221034A515CC84000BD0000D7
:1023000000100240CC640008F0B585B00FF26C0CF0
:102310009CE8E01001A8A0E8E0101CA52D6800953D
:1023200000210022002300240020194D696801F0DB
:102330000C05F5B1042D02D0082D19D101E0154886
:1023400019E001ADC1F38346AC5D01F4803555B1B0
:102350000F4D6D68C5F340451DF805200D4D6543D3
:10236000B5FBF2F302E00C4D04FB05F3184602E066
:1023700000BF084800BF00BF05B0F0BD0203040560
:10238000060708090A0B0C0D0E0F101001020000C1
:102390000010024000127A0000093D00F8B5044622
:1023A0000CB90120F8BD207800F00100002878D099
:1023B000F848406800F00C0004280CD0F54840684C
:1023C00000F00C00082811D1F248406800F4803079
:1023D000B0F5803F0AD1EF48006800F400300028D3
:1023E0005FD0606800285CD10120DBE700BF606837
:1023F000B0F5803F06D1E748006840F48030E549F9
:10240000086028E0606858B9E248006820F480302D
:10241000E04908600846006820F4802008601AE05F
:102420006068B0F5A02F0BD1DA48006840F4802036
:10243000D84908600846006840F4803008600AE027
:10244000D448006820F48030D2490860084600680B
:1024500020F48020086000BF606888B1FEF79CFC13
:10246000054606E0FEF798FC401B642801D90320CE
:1024700098E7C848006800F400300028F2D010E067
:10248000FEF78AFC054606E0FEF786FC401B642842
:1024900001D9032086E7BF48006800F40030002817
:1024A000F2D1207800F00200022857D1B9484068E4
:1024B00000F00C0050B1B748406800F00C0008284C
:1024C00018D1B448406800F4803098B9B148006829
:1024D00000F0020020B12069012801D0012061E74D
:1024E000AC48006820F0F800616940EAC100A949E1
:1024F000086033E02069E8B10120A7490860FEF7D1
:102500004BFC054606E0FEF747FC401B022801D9BC
:10251000032047E79F48006800F002000028F2D03F
:102520009C48006820F0F800616940EAC1009949C0
:10253000086013E0002098490860FEF72DFC05466E
:1025400006E0FEF729FC401B022801D9032029E7F9
:102550009048006800F002000028F2D1207800F0D6
:10256000080008282DD1A069B8B101208B49086066
:10257000FEF712FC054606E0FEF70EFC401B0228A3
:1025800001D903200EE78348406A00F002000028CA
:10259000F2D0012000F06AFE13E000207F490860BD
:1025A000FEF7FAFB054606E0FEF7F6FB401B0228A5
:1025B00001D90320F6E67748406A00F002000028BF
:1025C000F2D1207800F00400042873D1002771486C
:1025D000C06900F0805070B900BF6E48C06940F01B
:1025E00080506C49C8610846C06900F08050009076
:1025F00000BF00BF01276A48006800F48070B0B9CE
:102600006748006840F4807065490860FEF7C4FBC5
:10261000054606E0FEF7C0FB401B642801D90320F5
:10262000C0E65F48006800F480700028F2D000BF68
:10263000E068012806D15748006A40F0010055497A
:10264000086227E0E06858B95248006A20F00100AB
:10265000504908620846006A20F00400086219E048
:10266000E06805280BD14B48006A40F00400494956
:1026700008620846006A40F0010008620AE0454826
:10268000006A20F00100434908620846006A20F011
:102690000400086200BFE068A0B1FEF77DFB0546BC
:1026A00009E0FEF779FB401B41F28831884202D9EC
:1026B000032077E622E03748006A00F00200002895
:1026C000EFD012E0FEF768FB054608E0FEF764FB7A
:1026D000401B41F28831884201D9032062E62D482F
:1026E000006A00F002000028F0D1012F05D129482E
:1026F000C06920F080502749C86100BFE069C8B3B5
:102700002448406800F00C00082860D0E0690228E6
:1027100048D1002020490866FEF73EFB054606E04A
:10272000FEF73AFB401B022801D903203AE619487C
:10273000006800F000700028F2D1206AB0F5803FF8
:1027400007D11448406820F40030A16808431149BB
:102750004860D4E9080108430E49496821F474111E
:1027600008430C49486001200B490866FEF714FB3A
:10277000054607E03DE0FEF70FFB401B022801D9AC
:1027800003200FE60348006800F000700028F2D034
:102790002FE000000010024000004242800442424C
:1027A00000700040002014490866FEF7F5FA05465F
:1027B00006E0FEF7F1FA401B022801D90320F1E5FB
:1027C0000E48006800F000700028F2D111E0E069C6
:1027D000012800D1E6E50948466806F48031206A00
:1027E000814204D106F47011606A814201D0012057
:1027F000D8E50020D6E5000000004242001002406B
:1028000070B504462546681EB0F1807F01D30120D3
:102810000FE0681E4FF0E02148610F214FF0FF30BC
:1028200003F0FAFD00204FF0E021886107200861E5
:10283000002070BD10B504460CB9012010BDA06980
:1028400000B100E000BF94F83D0028B9002084F8F2
:102850003C00204600F028F8242084F83D00206841
:10286000C06820F400502168C860204601F074F967
:102870002068006920F49040216808612068406960
:1028800020F02A00216848612068C06840F40050A8
:102890002168C86000202064202084F83D0084F86E
:1028A0003E000020CAE7000010B586B004460020B4
:1028B00002900390049005901A49206888422ED116
:1028C00000BF1948806940F4804017498861084674
:1028D000806900F48040019000BF00BF00BF08463F
:1028E000806940F0040088610846806900F00400B7
:1028F000019000BF00BF4815029002200390032002
:10290000059002A90948FEF797F84FF480600290FD
:1029100000200390049002A90448FEF78DF806B049
:1029200010BD0000003801400010024000080140C6
:1029300000BFFEE730B50B46002100BF16E00A24B9
:10294000B4EB107F05D9302404EB107403F8114068
:1029500005E0412404EB10740A3C03F81140000127
:1029600000254C00641C1D554C1CE1B29142E6DB75
:1029700030BD70B50546D5F8B84240F61800005D88
:1029800048B940F61400005928B1607A18B90121FD
:10299000284601F047FE8121284601F043FE607A77
:1029A000022806D11F2304F60C020121284601F05B
:1029B00089FD70BD70B50546D5F8B8424FF4016089
:1029C00001594FF40360015140F61400015940F6DB
:1029D000340001510121284601F0FCFC1F2812D1CE
:1029E0002B49D4F80C0888420DD140F61900005D3F
:1029F000012808D840F61A00005D20B140F61A0000
:102A0000005D10280DD940F61900015D2023052234
:102A1000284600F023FF022060722846FFF7A9FF36
:102A200033E040F61900015D04F61B02284600F071
:102A3000A9FC00280BDA207A052804D101212846B8
:102A400000F0C0F821E02846FFF793FF1DE0207A50
:102A5000022819D0207A012816D0207A032813D012
:102A6000608930B1628904F10C01284600F0C8F891
:102A70000BE0608920B90021284600F0A3F804E0AB
:102A80002846FFF776FF00E070BD00BFFCE70000BE
:102A90005553424370B506460D46D6F8B842607AA3
:102AA000022806D18121304601F0BCFD0020607271
:102AB0000CE005F08000802807D1607A012804D05E
:102AC0000121304600F07EF800E070BD00BFFCE759
:102AD00070B505460E46D5F8B842207A022804D0D3
:102AE000032812D0042815D10EE040F61900015D2C
:102AF00004F61B02284600F045FC002803DA0121F9
:102B0000284600F05FF806E000BF0021284600F0EC
:102B100059F800E000BF00BF70BD70B505460E4615
:102B2000D5F8B842207A10B1012813D103E0284625
:102B3000FFF740FF0FE040F61900015D04F61B02AD
:102B4000284600F01FFC002803DA0121284600F087
:102B500039F800E000BF00BF70BDD0F8B812002205
:102B60000A72704770B50546D5F8B8420020207249
:102B7000607284F85D0884F85C08D5F8BC020168CE
:102B8000002088470121284601F011FC81212846B8
:102B900001F00DFC1F2304F60C020121284601F070
:102BA00091FC70BD70B50546D5F8B8420020207282
:102BB000012060721F2304F60C020121284601F057
:102BC00081FC70BD70B505460E46D5F8B8420B487D
:102BD000C4F82C0840F638000655002020720D235A
:102BE00004F62C028121284601F048FD1F2304F63B
:102BF0000C020121284601F065FC70BD555342537B
:102C00002DE9F04106460F461546D6F8B84240F683
:102C100014000059A84203D240F61400005900E005
:102C200028461FFA80F840F634000059411B40F650
:102C3000340001510021001D01550420207243463B
:102C40003A468121304601F019FDBDE8F0810000CF
:102C50000EB50020009001900290124812490860C1
:102C6000002111488160017301754FF46021C16139
:102C700000200D49486001210B480161FDF70EFD60
:102C800008B1FDF713FB0020009001200190072000
:102C9000029069460448FDF751FC08B1FDF706FBB8
:102CA0000EBD0000002401404C01002010B5034976
:102CB0000348FDF7FEFA0349087010BD1900002013
:102CC000040000201800002000B585B0002001900D
:102CD00002900390049000BF3248806940F04000A9
:102CE000304988610846806900F04000009000BFCC
:102CF00000BF00BF0846806940F0100088610846A8
:102D0000806900F01000009000BF00BF00BF0846BF
:102D1000806940F0040088610846806900F0040082
:102D2000009000BF00BF00BF0846806940F020004F
:102D300088610846806900F02000009000BF00BF55
:102D400000BF0846806940F0080088610846806935
:102D500000F00800009000BF00BF002220211248B0
:102D6000FEF714F8002220211048FEF70FF820206B
:102D7000019001200290002003900220049001A9FC
:102D80000948FDF759FE2020019001200290002003
:102D900003900220049001A90448FDF74DFE05B000
:102DA00000BD00000010024000180140000C01406E
:102DB00010B50B480B4908600B48486000210948D2
:102DC0008160C1604FF480410161002141618161F6
:102DD000C1610162FDF7E6FF08B1FDF767FA10BDBA
:102DE000005400407C010020A086010010B50B4873
:102DF0000B4908604FF4E1304860002108488160C9
:102E0000C16001610C21416100218161C161FFF755
:102E100011FD08B1FDF74AFA10BD0000003801406D
:102E2000D001002010B500220D490E4801F0ADF987
:102E300008B1FDF73BFA0C490A4801F0BEFD08B1A4
:102E4000FDF734FA0949074801F0BBFC08B1FDF76A
:102E50002DFA044801F07AFE08B1FDF727FA10BDFB
:102E60002000002014020020A80000207400002090
:102E700000BFFEE700BFFEE72DE9F0470546EAE1A7
:102E80002868B0F844A00AF00F06002E7ED10AF0A0
:102E90001000B0BB00BF2968098848F60F7201EA2C
:102EA000020040F400412A68118000BF05F12804A7
:102EB0002868B0F85010207801EBC000801C296809
:102EC00001F5806131F81000C0F30900E061E169AB
:102ED00060690844606100212846FEF77AF995F898
:102EE00024000028CBD0A0690028C8D195F8240080
:102EF00040F080002968A1F84C00002085F82400EB
:102F0000A9E1FFE705F5B4742868B0F8008008F47B
:102F1000006030B32868B0F85010207801EBC00092
:102F2000801D296801F5806131F81000C0F30900A7
:102F3000E061A18B8BB2E28805F52C71286803F063
:102F4000C9F900BF2968098840F68F7201EA0200BA
:102F500040F080012A68118000BF2846FFF717F86B
:102F600079E108F40040002889D000BF2968098869
:102F700040F68F7201EA020040F080012A68118059
:102F800000BF2868B0F85010207800E06FE001EB37
:102F9000C000801D296801F5806131F81000C0F380
:102FA0000900E061E06990B1606980B1B4F81CC0CB
:102FB0001FFA8CF3E2886169286803F08BF9E169F4
:102FC00060690844606100212846FEF712F928680C
:102FD000008800F40060002892D100BF2A682968A8
:102FE000B1F850100A4402F20C41084600BF2369B0
:102FF00053B9038848F2FF3C03EA0C0303800388BB
:1030000043F4004303801EE023693E2B0DD800BF2C
:1030100023695908237C03F0010303B1491C4FF6CF
:10302000FF7303EA812303800DE000BF2369590980
:10303000237C03F01F0303B9491E4FF4004343EA06
:103040008123038000BF00BF00BF00BF296809883B
:103050004BF68F7201EA020080F4805080F4005039
:1030600040F4004141F080012A681180F3E07100D2
:10307000286830F8118008F4004000287ED000BF96
:103080007200296831F8121040F68F7201EA0200CE
:1030900040F0800173002A6822F8131000BF06EB8D
:1030A000860105F5B47000EBC104207BB0B9286837
:1030B000B0F85010207801EBC000801D296801F5A0
:1030C000806131F81000C0F30907002F5BD0E2885F
:1030D00061693B46286803F0FDF854E0E078022877
:1030E00006D1424621462846FEF706F907464AE041
:1030F00000BF00BF22785200296831F8121048F64C
:103100008F7201EA020040F4004141F0C0012378CF
:103110005B002A6822F8131000BF00BF2178490025
:10312000286830F8110000F48040A8B12868B0F891
:103130005010207801EBC000801C296801F58061E7
:1031400031F81000C0F30907EFB1228961693B46ED
:10315000286803F0BFF816E02868B0F8501020780F
:1031600001EBC000801D296801F5806131F8100075
:10317000C0F309073FB16289616900E017E03B468F
:10318000286803F0A7F8E0693844E06160693844D2
:103190006061A06910B12069B84204D9217828463D
:1031A000FEF727F803E02146286802F0AAFA08F0A3
:1031B0008000B0B306EB860105F1280000EBC104E6
:1031C00000BF7200296831F8121048F60F7201EA48
:1031D000020040F4004173002A6822F8131000BF77
:1031E000E078032807D0E07828B1E07802282DD1D4
:1031F00008F4807050BB2868B0F85010207801EBBC
:10320000C000801C296801F5806131F81000C0F30E
:103210000909A069484505D9A069A0EB0900A0618A
:1032200002E018E00020A061A06920B921782846BA
:10323000FDF7CFFF0FE0606948446061E0694844F2
:10324000E0612146286802F05CFA04E0424621462B
:103250002846FEF7FDF82868B0F8440000F4004066
:1032600000287FF40DAEBDE8F087704708B5084927
:103270000968C9084FF47A72B1FBF2F14143009139
:1032800000BF00BF00994A1E00920029F9D108BD75
:10329000A00000202DE9F04104460F4615461E46C9
:1032A000D4F8B882A819D8F86018884209D921231F
:1032B00005223946204600F0D1FA4FF0FF30BDE834
:1032C000F0810020FBE70000F0B504460E46D4F87C
:1032D000B832507800F0010060B10721598106E052
:1032E000481E81B21048475C03F10C004754002986
:1032F000F6D116E0D4F8BC02C06906EBC60700EBB5
:1033000087052879411D1079884200DC117959819F
:1033100005E0481E81B26F5C03F10C0047540029A0
:10332000F7D10020F0BD0000D464000870B503465A
:103330000C4615460821D3F8B822518106E0481EF4
:1033400081B20448465C02F10C0046540029F6D1D3
:10335000002070BDE364000870B503460C461546B6
:10336000D3F8B8220821518106E0481E81B20448F2
:10337000465C02F10C0046540029F6D1002070BDD5
:10338000DB64000870B505460E46144620782328F5
:1033900045D00DDC1A2836D005DCB0B103281AD090
:1033A00012285AD11DE01B2821D01E2855D124E017
:1033B0002A2846D004DC252837D028284DD13AE0E9
:1033C0002F2844D05A2848D123E0224631462846A7
:1033D00000F06CFA4AE022463146284600F0FBF93C
:1033E00044E0224631462846FFF76EFF3EE0224683
:1033F0003146284600F052FA38E022463146284647
:1034000000F04CFA32E0224631462846FFF7A4FF8E
:103410002CE0224631462846FFF788FF26E0224668
:103420003146284600F092F920E0224631462846EF
:1034300000F04CF91AE022463146284600F0DDF84B
:1034400014E022463146284600F081FA0EE022467A
:103450003146284600F055FA08E02023052231467F
:10346000284600F0FBF94FF0FF3070BD00BF002090
:10347000FBE72DE9F04106460F46D6F8B842B4F80E
:103480005E18D4F8680800FB01F5B5F5006F01D2AD
:10349000284601E04FF400600546B4F85E08B5FB2D
:1034A000F0F01FFA80F8D4F86428D6F8BC0243463E
:1034B00004F10C01D0F810C03846E047002809DAC2
:1034C000112304223946304600F0C8F94FF0FF308E
:1034D000BDE8F081ABB204F10C028121304601F06D
:1034E000CDF8B4F85E08B5FBF0F0D4F864180844E1
:1034F000C4F86408B4F85E08B5FBF0F0D4F86818B6
:10350000081AC4F8680840F634000059411B40F618
:1035100034000151D4F8680808B903202072002053
:10352000D6E72DE9F04106460F46D6F8B842B4F882
:103530005E18D4F8680800FB01F5B5F5006F01D2FC
:10354000284601E04FF400600546B4F85E08B5FB7C
:10355000F0F01FFA80F8D4F86428D6F8BC0243468D
:1035600004F10C01D0F814C03846E047002809DA0D
:10357000032304223946304600F070F94FF0FF3043
:10358000BDE8F081B4F85E08B5FBF0F0D4F864183B
:103590000844C4F86408B4F85E08B5FBF0F0D4F849
:1035A0006818081AC4F8680840F634000059411B2E
:1035B00040F634000151D4F8680820B900213046A3
:1035C000FFF700FB17E0B4F85E18D4F8680848432A
:1035D000B0F5006F05D2B4F85E18D4F86808484317
:1035E00001E04FF400600546ABB204F10C0201218A
:1035F000304600F067FF0020C2E72DE9F0410646A3
:103600000F461546D6F8B842207A002856D140F623
:103610001800005D00F0800080280BD040F61900F3
:10362000015D20230522304600F018F94FF0FF30ED
:10363000BDE8F081D6F8BC0281683846884740B1C1
:103640003A2302223946304600F008F94FF0FF30A5
:10365000EEE7A8780006E97840EA0140297940EAD7
:10366000012069790843C4F86408287AE97940EAB6
:103670000120C4F868083946304604F664020CCAD2
:10368000FFF708FE002802DA4FF0FF30D0E70220F3
:103690002072B4F85E18D4F86808484340F6140164
:1036A000095988420AD040F61900015D20230522FD
:1036B000304600F0D3F84FF0FF30B9E74FF4006028
:1036C000608139463046FFF7D4FEB1E72DE9F0417D
:1036D00005460E461746D5F8B842D5F8BC0204F6A2
:1036E0005E02911C43683046984748B13A23022253
:1036F0003146284600F0B2F84FF0FF30BDE8F081C7
:10370000D4F86008401E000E2073D4F86008401EF4
:10371000010C6173B4F86008401E010AA17394F8AB
:103720006008401EE073B4F85E0801162174B4F816
:103730005E0801146174B4F85E080112A17494F873
:103740005E18E174082060810020D7E72DE9FC4174
:1037500005460F469046D5F8B842002605E0002100
:1037600004F10C008155701C86B20C2EF7D3D5F8ED
:10377000BC0201AA694643683846984748B13A23D3
:1037800002223946284600F069F84FF0FF30BDE8C4
:10379000FC810821E1730098401E010E21740098FD
:1037A000401E010C61740098401E010AA17400982B
:1037B000401EE07402212175BDF8040001146175FA
:1037C000BDF804000112A175BDF80400E0750C20DD
:1037D00060810020DBE770B504460D46D4F8B812CE
:1037E000002305E0002601F10C00C654581CC3B2AA
:1037F000122BF7D3702008730C26CE7491F85C0856
:1038000091F85D68B04220D091F85C6801F63C0008
:1038100010F836608E7391F85C6800EBC60046794C
:103820000E7691F85C6801F63C0000EBC600067964
:103830004E7691F85C08401C81F85C0891F85C08B1
:10384000042802D1002081F85C08122048811079F8
:10385000122801D810794881002070BDF0B50446C7
:10386000D4F8B80290F85D6800F63C0505F83620FB
:103870001D02EEB290F85D7800F63C0505EBC70539
:103880002E7190F85D586D1C80F85D5890F85D5869
:10389000042D02D1002580F85D58F0BD10B5034617
:1038A0000C46D3F8B8120020488110BD2DE9F04134
:1038B00005460E461746D5F8B84240F614000059A2
:1038C00058B140F61900015D202305222846FFF774
:1038D000C5FF4FF0FF30BDE8F081D5F8BC0281682C
:1038E0003046884748B13A23022231462846FFF73E
:1038F000B5FF05202072801FEDE70020608100BF2A
:10390000E9E72DE9F04105460F461646D5F8B842DD
:10391000707800F00200022809D1242305223946DC
:103920002846FFF79BFF4FF0FF30BDE8F081394696
:10393000284604F664020CCAFFF7ACFC002802DA41
:103940004FF0FF30F1E70020608100BFEDE72DE987
:10395000F041064688461546D6F8B842207A002837
:1039600077D140F61800005D00F0800080280BD170
:1039700040F61900015D202305223046FFF76EFF57
:103980004FF0FF30BDE8F081D6F8BC0281684046B8
:10399000884740B13A23022241463046FFF75EFF96
:1039A0004FF0FF30EEE7D6F8BC02C16840468847CA
:1039B00040B12723022241463046FFF74FFF4FF028
:1039C000FF30DFE7A8780006E97840EA014029796E
:1039D00040EA012069790843C4F86408287AE97943
:1039E00040EA0120C4F868084146304604F6640203
:1039F0000CCAFFF74FFC002802DA4FF0FF30C1E796
:103A0000B4F85E18D4F8680800FB01F740F614001B
:103A10000059B8420AD040F61900015D2023052262
:103A20003046FFF71BFF4FF0FF30ABE7B7F5006FF5
:103A300001D2384601E04FF40060074601202072B1
:103A4000BBB204F10C020121304600F03BFD05E061
:103A5000FFE741463046FFF764FD93E7002091E71A
:103A60000346E02008604FF400601080002070479B
:103A700000207047014600207047000001460248C0
:103A8000007840B27047000070000020014600201E
:103A90007047000030B504460120024D2870002018
:103AA000287030BD7000002030B504460120024D62
:103AB00028700020287030BD70000020704710B5BD
:103AC000FDF792FA10BD00B595B028210BA8FCF7C0
:103AD00074FB142106A8FCF770FB18216846FCF75C
:103AE0006CFB05200B904FF480300C9000200D9063
:103AF00001200E900F9002201290C10313914FF4F9
:103B0000E01114910BA8FEF749FC08B1FCF7CEFBBD
:103B10000F20069002200790002008904FF480604C
:103B2000099000200A90022106A8FEF701FB08B1C7
:103B3000FCF7BCFB132000904FF480700190C00193
:103B40000290002005906846FEF75AFA08B1FCF78B
:103B5000ADFB15B000BD704770B50446216809691A
:103B600021F44051E2681143226811612269A16881
:103B70001143626941EA02052168C96841F20C6299
:103B8000914329432268D1602168496921F4407139
:103B9000A2691143226851612D4A2168914202D1E4
:103BA000FEF7A2FB01E0FEF78FFB00EBC00101EB8B
:103BB000001162689200B1FBF2F100EBC00202EB6F
:103BC000001263689B00B2FBF3F26423B2FBF3F2D2
:103BD00002EBC20303EB0212A1EB8201322202EBE1
:103BE00001116422B1FBF2F101F0F00100EBC0021F
:103BF00002EB001263689B00B2FBF3F26423B2FB9A
:103C0000F3F201EB021200EBC00101EB001163685B
:103C10009B00B1FBF3F100EBC00303EB00136668FC
:103C2000B600B3FBF6F36426B3FBF6F303EBC3066F
:103C300006EB0313A1EB8301322303EB0111642391
:103C4000B1FBF3F101F00F0111442268916070BDE6
:103C50000038014070B504460D46D4F8B402294638
:103C6000426820469047002070BD70B504460D465E
:103C700094F89C02012804D0022803D003280CD118
:103C800001E000BF00BF6888012805D10020C4F80A
:103C9000A402204600F04AF804E02946204600F03D
:103CA0001BF800BF00BF70BD70B506460C46154638
:103CB0002B4622460021304600F004FC002070BD57
:103CC00070B506460C4615462B4622460021304666
:103CD00000F0D4FC002070BD70B504460D46802174
:103CE000204600F09FFC0021204600F09BFC70BDA8
:103CF00010B504460520C4F8940200231A4619465C
:103D0000204600F0DFFB002010BD70B504460E46D3
:103D100015460220C4F89402E56125622B4632461E
:103D20000021204600F0AAFC002070BD10B504461A
:103D30000420C4F8940200231A461946204600F0D5
:103D40009DFC002010BD000070B505460C462DB945
:103D50002246064906A000F0D9F904E022460349AC
:103D600003A000F0D3F9014870BD0000D804002082
:103D70004D534320436F6E66696700000246122070
:103D800008800148704700003C00002070B50546DF
:103D90000C462DB92246064906A000F0B7F904E00A
:103DA0002246034903A000F0B1F9014870BD0000AC
:103DB000D80400204D534320496E746572666163D8
:103DC000650000000246042008800148704700009A
:103DD0005000002070B505460C462246024903A05B
:103DE00000F094F9004870BDD804002053544D6988
:103DF00063726F656C656374726F6E6963730000E4
:103E000070B505460C462DB92246064906A000F0BD
:103E10007DF904E02246034903A000F077F9014848
:103E200070BD0000D804002053544D3332204D6142
:103E300073732053746F72616765000070B5054637
:103E40000C461A202080FCF75FFB014870BD000083
:103E50005400002070B504460D46E888012804D0BF
:103E600029462046FFF738FF1EE094F89C020128FF
:103E700004D0022803D0032810D109E000BF00209D
:103E8000A060012204F108012046FFF73EFF0AE08E
:103E90000122211D2046FFF738FF04E02946204675
:103EA000FFF71AFF00BF00BF70BDF8B504460E460D
:103EB000002000900027002570880012082875D285
:103EC000DFE800F0C7040C20C7C7A5B5207CD4F8F4
:103ED000B0120A68694690470746C1E0207C40B9A5
:103EE000D4F8B402816A6846884707460220787091
:103EF00007E0D4F8B402C16A684688470746022042
:103F00007870ADE0B078062878D2DFE800F00316CC
:103F1000293C5063D4F8B002406838B1207CD4F812
:103F2000B0124A6869469047074605E03146204688
:103F3000FFF7D2FE681CC5B267E0D4F8B002806813
:103F400038B1207CD4F8B0128A6869469047074699
:103F500005E031462046FFF7BFFE681CC5B254E0BD
:103F6000D4F8B002C06838B1207CD4F8B012CA6866
:103F700069469047074605E031462046FFF7ACFE0C
:103F8000681CC5B241E0D4F8B002006938B1207CA9
:103F9000D4F8B0120A6969469047074605E03146F1
:103FA0002046FFF799FE681CC5B22EE051E0D4F818
:103FB000B002406938B1207CD4F8B0124A69694631
:103FC0009047074605E031462046FFF785FE681C0E
:103FD000C5B21AE0D4F8B002806940B1207CD4F8B0
:103FE000B0128A6969469047074606E006E0314606
:103FF0002046FFF771FE681CC5B206E03146204638
:10400000FFF76AFE681CC5B200BF00BF28E0207C35
:1040100030B9D4F8B402416B68468847074605E0DA
:1040200031462046FFF758FE681CC5B218E0207CD8
:1040300040B9D4F8B402016B6846884707460720A8
:10404000787005E031462046FFF746FE681CC5B291
:1040500006E031462046FFF73FFE681CC5B200BFB0
:1040600000BF05B1F8BDBDF8000088B1F08878B197
:10407000F088BDF80010884202DDBDF8000000E0C5
:10408000F0880090BDF8002039462046FFF73DFE3D
:10409000F08810B92046FFF749FE00BFE2E701466D
:1040A000002002E0421CD0B2491C0A78002AF9D153
:1040B000704770B504460D4694F89C02012804D060
:1040C000022803D003281AD101E000BF00BFE8880E
:1040D000022804D029462046FFF7FEFD14E0012007
:1040E000E060D4F8A40218B1E06840F00200E0609B
:1040F000022204F10C012046FFF707FE04E02946E6
:104100002046FFF7E9FD00BF00BF70BD2DE9F0417B
:1041100004460D4617460026FCB12046FFF7BFFFB8
:10412000022101EB400038803A783046711CCEB253
:104130002A5403223046711CCEB22A540AE014F8E5
:10414000012B3046711CCEB22A5400223046711C1D
:10415000CEB22A5420780028F1D1BDE8F081014682
:10416000002031B1012906D0022906D0032908D147
:1041700005E0002007E0022005E0012003E0022026
:1041800001E0022000BF00BF704770B504460D4635
:1041900016460CB9022070BDD4F8B40210B100204C
:1041A000C4F8B4020DB1C4F8B052012084F89C02E6
:1041B0002670204600F018F90020ECE72DE9F041C8
:1041C00004460D46002600272946D4F8C002FDF714
:1041D00055F806463046FFF7C2FF07463846BDE8A9
:1041E000F0812DE9F04104460D46002600272946BE
:1041F000D4F8C002FDF70DF806463046FFF7AFFFD2
:1042000007463846BDE8F0812DE9F04104460E46E8
:104210001746002E64D104F11405D4F89402022844
:1042200048D1D5E90301884210D9D5E90301401AE4
:10423000E860A88982B239462046FFF741FD002395
:104240001A461946204600F03DF93EE02969A86863
:10425000B0FBF1F201FB1200B8B92969A8688842E5
:1042600013D3A868D4F8981288420ED200221146BF
:104270002046FFF725FD0020C4F8980200231A46C7
:104280001946204600F01EF91FE0D4F8B402C068B9
:1042900040B194F89C02032804D1D4F8B402C16858
:1042A000204688478021204600F0BCF92046FFF7D1
:1042B0001FFD0AE0D4F89402042802D0D4F8940236
:1042C00018B98021204600F0ADF994F8A002012829
:1042D00018D1204600F079FB002084F8A00211E0FC
:1042E000D4F8B402406950B194F89C02032806D176
:1042F000D4F8B402314642692046904702E00220D9
:10430000BDE8F0810020FBE72DE9F04104460E46B0
:104310001746BEBB04F5AA75D4F89402032825D12C
:10432000D5E90301884210D9D5E90301401AE860B4
:10433000D5E90301884201D2E86800E0286982B229
:1043400039462046FFF7B0FC2FE0D4F8B4020069EC
:1043500040B194F89C02032804D1D4F8B402016956
:10436000204688472046FFF7E1FC1EE0D4F894027F
:1043700005281AD10020C4F894020021204600F03C
:1043800051F912E0FFE7D4F8B402806950B194F813
:104390009C02032806D1D4F8B40231468269204633
:1043A000904702E00220BDE8F0810020FBE72DE904
:1043B000F04104460D46002600272946D4F8C002E5
:1043C000FDF7DAFA06463046FFF7C9FE07463846DB
:1043D000BDE8F08170B504460D462946D4F8C00208
:1043E000FDF7ECFA70BD000010B504461948C0F89E
:1043F000E842C4F8C002184816490860082048601E
:1044000002211448816000218161C1610162FDF7D0
:10441000ACFC08B1FBF74AFF182300221146D4F880
:10442000C002FCF7B3FE582300228021D4F8C0025A
:10443000FCF7ACFE982300228121D4F8C002FCF7DF
:10444000A5FED82300220121D4F8C002FCF79EFE6D
:10445000002010BDD80C0020005C004010B50246C2
:10446000D2F8C03201F08000802809D101F07F002D
:1044700000EB800403F1280000EBC400807810BD3D
:1044800001F07F0000EB800403F5B47000EBC40082
:104490008078F4E72DE9F04704460F4615461E469E
:1044A0004FF00008C1462B4632463946D4F8C002C8
:1044B000FDF78FFA80464046FFF751FE8146484699
:1044C000BDE8F0872DE9F04704460D4616461F4625
:1044D0004FF00008C1463B4632462946D4F8C00298
:1044E000FDF7BDFA80464046FFF739FE8146484653
:1044F000BDE8F08710B5044640230022114620464F
:10450000FFF7C8FF01214FF4AC70015140214FF477
:10451000B27001514023002280212046FFF7BAFFEC
:104520000121A16140216162012084F89C020020E8
:10453000C4F894026060C4F8A402D4F8B80228B1A8
:104540002179D4F8B402426820469047002010BD7B
:10455000014691F89C02042803D191F89D0281F84C
:104560009C020020704710B5044694F89C02032872
:1045700008D1D4F8B402C06920B1D4F8B402C1693A
:1045800020468847002010BD024611740020704765
:104590002DE9F04104460D46002600272946D4F8AF
:1045A000C002FDF7D9FC06463046FFF7D8FD0746A6
:1045B0003846BDE8F08170B504460D46294604F53D
:1045C0002A7000F0E6F90120C4F8940240F2AE200F
:1045D000005BC4F8980294F8A80200F01F0020B114
:1045E000012808D0022812D10BE004F52A712046D8
:1045F00000F0B3FA13E004F52A71204600F01AFC2B
:104600000DE004F52A71204600F0F8FA07E094F86E
:10461000A80200F08001204600F004F800BF00BFAF
:10462000002070BD2DE9F04104460D46002600270C
:104630002946D4F8C002FDF738FA06463046FFF79F
:104640008EFD07463846BDE8F08170B5044600256A
:104650000026D4F8C002FDF7A3FC05462846FFF764
:104660007EFD0646304670BD014691F89C0281F8F9
:104670009D02042081F89C02002070472DE9F0473C
:1046800004460D4616461F464FF00008C1463B46FD
:1046900032462946D4F8C002FDF74BFA8046404620
:1046A000FFF75DFD81464846BDE8F08770B50446DA
:1046B0000D4629462046FEF70BFA002070BD70B566
:1046C00004460D4629462046FEF727FA002070BD15
:1046D00070B504460D4601212046FFF782FD0021FA
:1046E000C4F86C1181212046FFF77BFD0021E162B7
:1046F0002046FEF732FAD4F8B80230B1D4F8B80246
:1047000000F0D7FB0020C4F8B802002070BD000004
:1047100001460A200880014870470000400100203F
:104720000146202008800148704700000001002059
:10473000014620200880014870470000E00000206A
:104740000146202008800148704700002001002019
:1047500070B504460D46207C90B94FF400730222D8
:1047600001212046FFF796FE0121C4F86C114B028F
:10477000022281212046FFF78DFE0121E16210E037
:104780004023022201212046FFF784FE0121C4F8C4
:104790006C114023022281212046FFF77BFE01217C
:1047A000E16240F66C0000F085FBC4F8B802D4F872
:1047B000B80208B9022070BD2046FEF7D3F90020E8
:1047C000F9E7024609B1C2F8BC1200207047F8B5FB
:1047D00005460C46D5F8B8620027002000902078E6
:1047E00000F0600000283DD0202871D16078FE28BC
:1047F00002D0FF282ED11AE0608890B9E088012805
:104800000FD1207800F0800080280AD1D5F8BC12A2
:10481000886980473060012231462846FFF775FAE3
:1048200004E021462846FFF757FA022718E060887F
:1048300050B9E08840B9207800F08000802803D08B
:104840002846FEF7AFF904E021462846FFF744FA70
:10485000022705E021462846FFF73EFA022700BF5F
:1048600000BF93E0607830B1012832D00A2812D01E
:104870000B287DD11FE095F89C02032805D1022268
:1048800069462846FFF741FA04E021462846FFF72B
:1048900023FA022772E095F89C02032805D1012231
:1048A000311D2846FFF731FA04E021462846FFF77C
:1048B00013FA022762E095F89C02032802D1A0783F
:1048C000706004E021462846FFF706FA022755E00B
:1048D00056E021792846FFF76AFD21792846FFF73F
:1048E00080FC207900F0800080281DD100212079F3
:1048F00000F00F0000EB800205F1140000EB8200D5
:104900004160287C38B94FF4007302228121284687
:10491000FFF7C0FD05E04023022281212846FFF772
:10492000B9FD0121E9621DE00021207900F00F00AE
:1049300000EB800205F5AA7000EB82004160287C44
:1049400038B94FF40073022201212846FFF7A2FD77
:1049500005E04023022201212846FFF79BFD0121AB
:10496000C5F86C1121792846FEF794F806E0FFE7B8
:1049700021462846FFF7B0F9022700BF00BF05E037
:1049800021462846FFF7A8F9022700BF00BF384696
:10499000F8BD0A7802704A7842708B78CA7803EBC7
:1049A000022242800B794A7903EB022282808B79C2
:1049B000CA7903EB0222C28070470246002011B17F
:1049C000C2F8B41200E00220704701460020704790
:1049D00070B504460D46A88810BBE88800BB6888FF
:1049E00080281DD2A87800F07F0694F89C02032846
:1049F00004D129462046FFF76FF915E084F89E623E
:104A000031462046FFF7C4FD2046FFF78FF91EB15F
:104A1000022084F89C0207E0012084F89C0203E055
:104A200029462046FFF758F970BD70B504460D467B
:104A30000226D4F8B40238B1D4F8B4022946026888
:104A40002046904700B90026304670BD70B5044638
:104A50000D46A8783649087008460078012804DD1C
:104A600029462046FFF738F960E094F89C020228B6
:104A700002D003284FD11CE02D480078A8B12C4863
:104A800000786060032084F89C0229480178204661
:104A9000FFF7CBFF022804D129462046FFF71CF977
:104AA00070BD2046FFF742F902E02046FFF73EF9CD
:104AB0003BE01F48007870B9022084F89C021C4833
:104AC000007860601A4801782046FFF7C3F8204656
:104AD000FFF72CF91EE0164909786068884216D065
:104AE00021792046FFF7B6F8114800786060104839
:104AF00001782046FFF799FF022804D12946204675
:104B0000FFF7EAF8CCE72046FFF710F902E020466D
:104B1000FFF70CF909E029462046FFF7DDF80448C5
:104B200001782046FFF796F800BF00BF00BFB7E747
:104B3000A400002070B505460C466088012804D109
:104B4000C5F8A4022846FFF7F1F870BD10B5044679
:104B50002046FFF77AFD002010BD70B505460C46D3
:104B60000026207800F0600060B1202802D04028A4
:104B70003CD100E000BFD5F8B40221468268284647
:104B8000904738E060780A2829D2DFE800F019233E
:104B9000281E280A0528140F21462846FFF785F904
:104BA00022E021462846FFF713FF1DE02146284654
:104BB000FFF74CFF18E021462846FFF74BF913E0BA
:104BC00021462846FFF775FA0EE021462846FFF7F2
:104BD000B1FF09E021462846FFF747F804E02146E7
:104BE0002846FFF779F800BF00BF04E021462846B9
:104BF000FFF772F800BF00BF304670BD2DE9F041ED
:104C000005460E464FF000083479307800F0600019
:104C100060B1202802D0402871D100E000BFD5F853
:104C2000B402314682682846904700E1307800F0AF
:104C30006000202809D1D5F8B402314682682846A0
:104C4000904780464046BDE8F081707800285ED0ED
:104C500001282FD0032876D195F89C02022802D093
:104C6000032820D110E054B1802C08D021462846DA
:104C7000FFF7D8FC80212846FFF7D4FC03E031463B
:104C80002846FFF729F813E0708840B93CB1802C22
:104C900005D0F08818B921462846FFF7C3FC2846FE
:104CA000FFF744F804E031462846FFF715F800BF47
:104CB00000BFB5E095F89C02022802D003281FD15E
:104CC00010E054B1802C08D021462846FFF7AAFCFA
:104CD00080212846FFF7A6FC03E031462846FEF770
:104CE000FBFF12E0708848B904F07F0018B121463C
:104CF0002846FFF763FA2846FFF718F805E091E029
:104D000031462846FEF7E8FF00BF00BF88E095F86F
:104D10009C02022802D0032876D126E034B1802CF0
:104D200004D031462846FEF7D7FF72E004F0800039
:104D3000802809D104F07F0000EB800105F1140008
:104D400000EB810008E066E004F07F0000EB8001EA
:104D500005F5AA7000EB81000746002038600222AA
:104D600039462846FEF7D1FF53E004F08000802842
:104D70000ED104F00F0000EB800105F1140000EBF0
:104D80008100406898B931462846FEF7A5FF40E00B
:104D900004F00F0000EB800105F5AA7000EB810024
:104DA000406820B931462846FEF796FF31E004F00E
:104DB0008000802808D104F07F0000EB800105F11D
:104DC000140000EB810007E004F07F0000EB80019D
:104DD00005F5AA7000EB810007460CB1802C02D1CA
:104DE0000020386009E021462846FFF737FB10B164
:104DF0000120386001E00020386002223946284650
:104E0000FEF783FF05E0FFE731462846FEF764FF23
:104E100000BF00BF04E031462846FEF75DFF00BF3B
:104E200000BF04E031462846FEF756FF00BF00BF32
:104E3000404608E770B505460C460026207800F08D
:104E4000600030B1202802D040282AD100E000BF05
:104E500000BF95F89C02012804D0022803D0032843
:104E600018D101E000BF00BF207901280DDCD5F882
:104E7000B40221468268284690470646E08840B939
:104E80003EB92846FEF752FF03E021462846FEF7CA
:104E900023FF04E021462846FEF71EFF00BF00BFA7
:104EA00004E021462846FEF717FF00BF00BF0020A0
:104EB00070BD70470146014870470000C40F0020D4
:104EC000F0B5024600260878400032F8100048F697
:104ED0008F1400EA0403C87830B101280CD00228EE
:104EE00005D003280BD104E043F4007309E000BFB0
:104EF00007E043F4C06304E043F4806301E001266B
:104F000000BF00BF43F4004040F080000C78640014
:104F100022F8140000BF0C78640032F8144048F600
:104F20008F752C400D7844EA050040F4004444F0AD
:104F300080040D786D0022F8154000BF087B002822
:104F40007ED14878002852D000BF1046B2F85050A9
:104F500028440D7800F5806707EB0514CD886D10A7
:104F60006D00258000BF00BF0C78640032F814008B
:104F700000F040048CB100BF0D786D0032F8155080
:104F800048F68F7705EA070444F4004545F0C0056C
:104F90000F787F0022F8175000BF00BFC8780128A3
:104FA00013D000BF0C78640032F8144048F6BF7587
:104FB00004EA050080F0200040F4004444F080043E
:104FC0000D786D0022F815409EE100BF0C7864005A
:104FD00032F8144048F6BF7504EA050040F4004476
:104FE00044F080040D786D0022F815408CE100BF7C
:104FF0001046B2F8505028440D78042707EBC50539
:1050000000F5806707EB4504CD886D106D002580A5
:1050100000BF00BF1546B2F8504025440C78062763
:1050200007EBC40405F5806707EB4404204600BF86
:105030000F6967B9078848F2FF3C07EA0C0700E0F0
:1050400057E00780078847F4004707801EE00F6994
:105050003E2F0DD800BF0F697C080F7C07F00107B9
:1050600007B1641C4FF6FF7707EA842707800DE03D
:1050700000BF0F697C090F7C07F01F0707B9641E8A
:105080004FF4004747EA8427078000BF00BF00BFF6
:1050900000BF0C78640032F8140000F480448CB136
:1050A00000BF0D786D0032F8155048F68F7705EA8D
:1050B000070444F4004545F481450F787F0022F849
:1050C000175000BF00BF00BF0C78640032F81440D6
:1050D0004BF68F7504EA050080F4805080F4005090
:1050E00040F4004444F080040D786D0022F815402F
:1050F0000AE100BF0C78640032F8144048F68F755E
:1051000004EA050040F4004444F4C0740D786D00D6
:1051100022F8154000BF00BF00BF00BF1046B2F824
:10512000505028440D7800F5806707EB05140D8971
:105130006D106D00258000BF00BF00BF00BF10468E
:10514000B2F8505028440D78042707EBC50500F548
:10515000806707EB45044D896D106D00258000BF09
:1051600000BF00BF487800285DD100BF0C78640004
:1051700032F8140000F480448CB100BF0D786D004B
:1051800032F8155048F68F7705EA070444F40045D5
:1051900045F481450F787F0022F8175000BF00BF0B
:1051A00000BF0C78640032F8140000F040048CB1A9
:1051B00000BF0D786D0032F8155048F68F7705EA7C
:1051C000070444F4004545F0C0050F787F0022F83D
:1051D000175000BF00BF00BF0C78640032F81440C5
:1051E0004BF68F7504EA050080F4805080F400507F
:1051F00040F4004444F080040D786D0022F815401E
:1052000000BF00BF0C78640032F8144048F6BF7548
:1052100004EA050040F4004444F080040D786D0079
:1052200022F8154070E000BF0C78640032F81400DA
:1052300000F480448CB100BF0D786D0032F8155039
:1052400048F68F7705EA070444F4004545F48145A4
:105250000F787F0022F8175000BF00BF00BF0C7806
:10526000640032F8140000F040048CB100BF0D78E7
:105270006D0032F8155048F68F7705EA070444F4BC
:10528000004545F0C0050F787F0022F8175000BF99
:1052900000BFC878012813D000BF0C78640032F832
:1052A000144048F6BF7504EA050080F0200040F481
:1052B000004444F080040D786D0022F8154011E0A0
:1052C00000BF0C78640032F8144048F6BF7504EA59
:1052D000050040F4004444F080040D786D0022F88D
:1052E000154000BF00BF0C78640032F814404BF644
:1052F0008F7504EA050040F4004444F080040D7802
:105300006D0022F8154000BF3046F0BD10B50446D0
:10531000002010BD30B50246087B00285BD14878DC
:1053200060B300BF0B785B0032F8130000F040035D
:105330008BB100BF0C78640032F8144048F68F75CA
:1053400004EA050343F4004444F0C0040D786D0002
:1053500022F8154000BF00BF00BF0B785B0032F899
:10536000133048F6BF7403EA040040F4004343F0EE
:1053700080030C78640022F8143007E100BF0B783A
:105380005B0032F8130000F480438BB100BF0C784F
:10539000640032F8144048F68F7504EA050343F4BC
:1053A000004444F481440D786D0022F8154000BF9C
:1053B00000BF00BF0B785B0032F813304BF68F74E0
:1053C00003EA040040F4004343F080030C786400D7
:1053D00022F81430DAE0487800286BD100BF0B784F
:1053E0005B0032F8130000F480438BB100BF0C78EF
:1053F000640032F8144048F68F7504EA050343F45C
:10540000004444F481440D786D0022F8154000BF3B
:1054100000BF00BF0B785B0032F8130000F04003C0
:105420008BB100BF0C78640032F8144048F68F75D9
:1054300004EA050343F4004444F0C0040D786D0011
:1054400022F8154000BF00BF00BF0B785B0032F8A8
:10545000133048F68F7403EA040040F4004343F02D
:10546000C0030C78640022F8143000BF00BF0B7832
:105470005B0032F813304BF68F7403EA040040F4FB
:10548000004343F080030C78640022F8143000BF1E
:1054900000BF0B785B0032F8133048F6BF7403EAA4
:1054A000040040F4004343F080030C78640022F8C9
:1054B00014306BE000BF0B785B0032F8130000F48F
:1054C00080438BB100BF0C78640032F8144048F67A
:1054D0008F7504EA050343F4004444F481440D78D5
:1054E0006D0022F8154000BF00BF00BF0B785B00C5
:1054F00032F8130000F040038BB100BF0C78640059
:1055000032F8144048F68F7504EA050343F400446A
:1055100044F0C0040D786D0022F8154000BF00BFB4
:1055200000BF0B785B0032F8133048F68F7403EA43
:10553000040040F4004343F481430C78640022F8F3
:10554000143000BF00BF0B785B0032F8133048F610
:10555000BF7403EA040040F4004343F080030C7876
:10556000640022F8143000BF00BF0B785B0032F8F3
:1055700013304BF68F7403EA040040F4004343F009
:1055800080030C78640022F8143000BF002030BD86
:1055900001460020704701460020704710B50446C0
:1055A000012024F8400F00202080A0802082403C71
:1055B00010BD01464FF43F42B1F840009043A1F8BE
:1055C00040000020704702460020704730B5024678
:1055D000087B002865D1487888B300BF0B785B0052
:1055E00032F8130000F040038BB100BF0C78640068
:1055F00032F8144048F68F7504EA050343F400447A
:1056000044F0C0040D786D0022F8154000BF00BFC3
:10561000C878012845D000BF0B785B0032F8133002
:1056200048F6BF7403EA040080F0200040F4004311
:1056300043F080030C78640022F8143031E0FFE777
:1056400000BF0B785B0032F8130000F480438BB18D
:1056500000BF0C78640032F8144048F68F7504EAF5
:10566000050343F4004444F481440D786D0022F8AE
:10567000154000BF00BF00BF0B785B0032F813304D
:105680004BF68F7403EA040080F4805080F40050DD
:1056900040F4004343F080030C78640022F8143097
:1056A00000BF002030BD10B50246487898B100BF59
:1056B0000B785B0032F8133048F6BF7403EA04003D
:1056C00080F0100040F4004343F080030C78640045
:1056D00022F8143013E000BF0B785B0032F813306F
:1056E0004BF68F7403EA040080F4805040F40043CA
:1056F00043F080030C78640022F8143000BF0020CF
:1057000010BD2DE9F04706460C466078012876D199
:105710002169A069884201D9256900E0A569207B3B
:10572000A0B9ABB2E2883046616900F002FE00BF6A
:105730003046B6F8502010442278022303EBC20210
:1057400000F5806303EB42010D8081E3E0780228DD
:105750007DD12169206A88427AD900BF2178490029
:1057600036F8111048F68F7201EA020040F4004149
:1057700041F4C0712278520026F8121000BF206A4E
:10578000401B20622078400036F8100000F04000F6
:1057900000287DD000BF3346607888BB00BF32460A
:1057A000B6F850100A4421784FF0060909EBC10100
:1057B00002F5806909EB4101084600BF75B9B0F8F0
:1057C000009048F2FF3A09EA0A09A0F80090B0F800
:1057D000009049F40049A0F8009021E03E2D10D837
:1057E00000BF690805F00109B9F1000F00D0491C9C
:1057F0004FF6FF7909EA8129A0F8009010E03DE317
:1058000010E000BF690905F01F09B9F1000F00D1D0
:10581000491E4FF4004949EA8129A0F8009000BFD1
:1058200000BF0FE0607801280CD1B6F850000344A7
:105830002078062101EBC00003F5806101EB400CEC
:10584000ACF8005000BF6789ABB23A4601E057E1BF
:105850002CE13046616900F06CFD606928446061AC
:105860002169206A884203D9206A401B206202E035
:10587000256A0020206200BF6078C0BB00BF3246AE
:10588000B6F850100A442178022303EBC10100E06E
:1058900049E002F5806303EB4101084600BF55B9BA
:1058A000038848F2FF3C03EA0C030380038843F4B7
:1058B0000043038019E03E2D0BD800BF690805F0B6
:1058C000010303B1491C4FF6FF7303EA81230380F0
:1058D0000BE000BF690905F01F0303B9491E4FF42F
:1058E000004343EA8123038000BF00BF12E0FFE7CB
:1058F000607801280ED100BF3046B6F85020104421
:105900002278022303EBC20200F5806303EB42011D
:105910000D8000BF00BF2789ABB23A4630466169AF
:1059200000F007FD94E200BF6078B0BB00BF3246D4
:10593000B6F850100A442178022303EBC10102F5A6
:10594000806303EB4101084600BF55B9038848F264
:10595000FF3C03EA0C030380038843F40043038005
:1059600019E03E2D0BD800BF690805F0010303B113
:10597000491C4FF6FF7303EA812303800BE000BF4D
:10598000690905F01F0303B9491E4FF4004343EAB8
:105990008123038000BF00BF12E0FFE76078012889
:1059A0000ED100BF3046B6F85020104422780223B2
:1059B00003EBC20200F5806303EB42010D8000BFE0
:1059C00000BF2789ABB23A463046616900F0B1FCAE
:1059D0006069284460612169206A884203D9206A8D
:1059E000401B206202E0256A0020206200BF33468F
:1059F000607880BB00BF3246B6F850100A44217868
:105A00004FF0060909EBC10102F5806909EB41017C
:105A1000084600BF75B9B0F8009048F2FF3A09EAAD
:105A20000A09A0F80090B0F8009049F40049A0F8E5
:105A3000009020E03E2D0FD800BF690805F0010955
:105A4000B9F1000F00D0491C4FF6FF7909EA81290E
:105A5000A0F800900FE010E000BF690905F01F09F1
:105A6000B9F1000F00D1491E4FF4004949EA8129DC
:105A7000A0F8009000BF00BF0FE0607801280CD1B3
:105A8000B6F8500003442078062101EBC00003F56E
:105A9000806101EB400CACF8005000BF6789ABB2ED
:105AA0003A463046616900F044FCD1E1256A00BF06
:105AB0002178490036F8111048F68F6201EA020099
:105AC00040F4004141F080012278520026F8121083
:105AD00000BF00BF3046B6F85020104422780223A1
