:020000040800F2
:10000000C0040020010100083B0F0008D30E0008C7
:10001000390F00088D010008C11000080000000021
:100020000000000000000000000000003F0F00087A
:100030008F010008000000003D0F0008410F00087C
:100040001B0100081B0100081B0100081B01000820
:100050001B0100081B0100081B0100081B01000810
:100060001B0100081B0100081B0100081B01000800
:100070001B0100081B0100081B0100081B010008F0
:100080001B0100081B0100081B0100081B010008E0
:100090001B0100081B0100081B0100081B010008D0
:1000A0001B0100081B0100081B0100081B010008C0
:1000B0001B0100081B0100081B0100081B010008B0
:1000C0001B0100081B0100081B0100081B010008A0
:1000D0001B0100081B0100081B0100081B01000890
:1000E0001B0100081B0100081B010008DFF80CD0F1
:1000F00000F03AF80048004711120008C004002040
:100100000648804706480047FEE7FEE7FEE7FEE7B1
:10011000FEE7FEE7FEE7FEE7FEE7FEE7A30F0008C7
:10012000ED000008202A04DB203A21FA02F0002129
:10013000704721FA02F3D040C2F1200291400843F7
:1001400019467047D2B201E000F8012B491EFBD2DC
:1001500070470022F6E710B513460A4604461946D2
:10016000FFF7F0FF204610BD064C074D06E0E068A3
:1001700040F0010394E8070098471034AC42F6D3EE
:10018000FFF7B8FFD0120008F0120008FEE7704732
:1001900072B6FEE706490020C8610648016941F0D1
:1001A00004010161016941F04001016170470000F3
:1001B000A000002000200240064A0021D16106492B
:1001C0000A6942F002020A614861086940F0400091
:1001D00008617047A000002000200240044B00226C
:1001E000DA61044A136943F0010313610180704727
:1001F000A00000200020024014480022C168CB0665
:10020000134904D5CA6942F00202CA611022C368C8
:100210005B0705D5CB6943F00103CB6142F00402D3
:10022000C369DB0707D0CB6943F00403CB61C16925
:1002300021F00101C161A2F58071013901D0C260D4
:100240007047C16921F00101C1617047002002407F
:10025000A000002070B5054600F058FA0646114C83
:1002600009E0681C07D025B100F050FA801BA842B5
:1002700001D9032070BDE068C007F2D1E0688006B4
:1002800001D52020E060E068C00605D4E069C00721
:1002900002D1E068400703D5FFF7AEFF012070BD33
:1002A000002070BD002002400B4810B50021016005
:1002B0000A4981600221C160094900F085F80028DF
:1002C00008D000F0D5F807A000F0FCFEBDE8104013
:1002D000FFF75EBF10BD00009000002000F800088E
:1002E0001C000020204572726F722E2E2E310D0AD6
:1002F0000000000030B50022064B074C06E020CB82
:1003000040F82250521C92B2A34201D28A42F6D344
:1003100030BD000000F80008000001082DE9F041A0
:100320000E4680460024124D00F0ECF8FFF7BCFFAB
:1003300010A000F0C7FE164F0FE000BF58F82420B1
:1003400000232946022000F09DF860B111A000F0C2
:10035000B9FEFFF71DFFBD4201D2B442EED3BDE8A6
:10036000F04100F085B8641CA4B22D1DF3E7000035
:1003700000F8000820B2C1B3FDCDEAB3C9A3ACD7E1
:10038000BCB1B8D0B4C8EB2E2E2E2E2E2E0D0A00E6
:1003900000000108204572726F722E2E2E320D0A57
:1003A0000000000070B5044600F0B0F90546601C7E
:1003B00002D004480078044400F0A8F9401BA04291
:1003C000FAD370BD200000202DE9F04705462648ED
:1003D0000F460126017E01290FD0012181460176B9
:1003E0002868DFF888804CF25034022808D0A246F2
:1003F0002046FFF72FFFA8B131E00220BDE8F087CB
:100400002046FFF727FF08BB0120FFF7C3FE204669
:10041000FFF720FFD8F81010064621F00401C8F8B5
:1004200010101CE04FF0FF303860AC6811E020463F
:10043000FFF7C2FE5046FFF70DFFD8F81010060078
:1004400021F00201C8F8101001D03C6007E004F56B
:100450008064D5E9020100EB8120A042E7D80021A9
:1004600089F818103046C9E7A0000020002002409B
:100470000348016941F080010161002070470000DC
:10048000002002402DE9F05F07461C488846002402
:10049000017E15461E46012909D0012181460176BB
:1004A0004CF2503A5046FFF7D5FE18B122E0022038
:1004B000BDE8F09F012F02D0022F00D00427D346C1
:1004C000DFF83CA0220128463146FFF72BFE81B21F
:1004D00008EB4400FFF782FE5846FFF7BBFEDAF850
:1004E000102022F00102CAF8102018B9641CE4B2EE
:1004F000BC42E7D3002289F81820D9E7A0000020E9
:1005000000200240064900200A69120607D5054A64
:100510004A60054A4A600969090600D5012070470A
:100520000020024023016745AB89EFCD2DE9F84F4C
:10053000DFF8B891002409F1040A0AF1040B2346FC
:100540000F270BF1040EC9E00125A5402A40AA425D
:100550007DD1674ED1F804C0ACEB0608B44532D06B
:1005600014DCBCF1030F3AD009DCBCF1000F2AD037
:10057000BCF1010F1CD0BCF1020F31D11DE0BCF168
:10058000110F17D0BCF1120F2AD119E0B8F5881F4E
:1005900019D006DCB8F5803F15D0B8F5801F1FD103
:1005A00011E0B8F5001F0ED0B8F5041F18D10AE00D
:1005B000CB6815E0CB681B1D12E0CB6808330FE059
:1005C000CB680C330CE08B682BB1012B4FF0080388
:1005D00003D0456104E0042302E0056100E000234C
:1005E000FF2A01D8064601E000F104064FEA84051F
:1005F00001D9A5F12005D6F8008007FA05FC28EA04
:100600000C0803FA05F548EA0508C6F800804D68AD
:10061000ED0062D5374DAE6946F00106AE61AD69B9
:1006200024F0030605F001050095334D06EB050C9B
:10063000DCF80850A607360F07FA06F825EA080581
:10064000DFF8B880404503D14FF0000817E044E0E0
:10065000DFF8AC80404502D14FF001080FE0DFF831
:10066000A480404502D14FF0020808E0DFF89880EE
:10067000404502D14FF0030801E04FF0040808FAAA
:1006800006F848EA0508CCF808804D68D9F80060FB
:10069000ED034D4601D5164300E096432E604D68AC
:1006A000DAF80060AD03554601D5164300E09643E5
:1006B0002E604D68DBF80060ED025D4601D5164303
:1006C00000E096432E604D68DEF80060AD0275468E
:1006D00001D5164300E096432E60641C0D682A463F
:1006E000E5407FF431AFBDE8F88F00000004014021
:1006F00000001110001002400000014000080140FD
:10070000000C0140001001400014014001488068C5
:1007100070470000200000200248816802781144E0
:100720008160704720000020074810B5016841F043
:1007300010010160032000F067F80F2000F006F8B8
:1007400000F024F8002010BD0020024070B50D4DCF
:1007500004464FF47A712878B1FBF0F00A49096831
:10076000B1FBF0F000F0DEFA48B9102C07D20022FD
:100770002146501E00F028F800206C6070BD01205A
:1007800070BD0000200000202C0000200C4808B59F
:10079000816941F001018161816901F001010091EC
:1007A000C16941F08051C161C06900F08050009082
:1007B0000448416821F0E06141F00071416008BDEA
:1007C0000010024000000140F0B40E4B1B680C46C4
:1007D000C3F30223C3F10705042D00D90425191D15
:1007E000072901D2002300E0DB1E012606FA05F1ED
:1007F000491E214099409E40761E16403143F0BC70
:1008000000F070BC0CED00E0064900F0070208683B
:100810004FF6FF03184040EA0220034A10430860E5
:10082000704700000CED00E00000FA052DE9F047EC
:100830000F46050061D0434E306800F00700B84213
:1008400009D2306820F0070038433060306800F08B
:100850000700B84251D128683B4C810712D54007A8
:1008600003D5606840F4E06060602878000703D535
:10087000606840F4605060606068A96820F0F00033
:10088000084360602878C00728D06868012810D025
:100890002168022810D0890700292EDA616821F02A
:1008A000030101436160FFF731FF804641F288395F
:1008B0000DE021688903EFE78901EDE7FFF726FFE7
:1008C000A0EB0801494502D90320BDE8F087606824
:1008D000696800F00C00B0EB810FEFD1306800F0D8
:1008E0000700B8420BD9306820F007003843306069
:1008F000306800F00700B84201D00120E5E7287811
:10090000400705D56068E96820F4E060084360604E
:100910002878000706D56068296920F4605040EA0D
:10092000C100606000F038F86168084AC1F3031143
:10093000515CC8400649086006480068FFF706FF9A
:100940000020C2E70020024000100240B812000858
:100950002C00002024000020044805490068496854
:10096000044AC1F30221515CC84070472C000020AA
:1009700000100240C8120008044805490068496890
:10098000044AC1F3C221515CC84070472C000020CA
:1009900000100240C812000812A185B00FC98DE8EE
:1009A0000F0014A0144A006804905168134801F025
:1009B0000C03042B10D0082B0ED1C1F38343C903C1
:1009C0001DF803000AD5516804AAC1F34041515CE7
:1009D0000A4A5043B0FBF1F005B07047084948435C
:1009E000FAE7000002030405060708090A0B0C0DCC
:1009F0000E0F1010010200000010024000127A00D9
:100A000000093D002DE9F84F040070D02078C04D5A
:100A1000C00749D06868C0F38100012807D0686822
:100A2000C0F38100022809D16868C00306D5286890
:100A3000800339D560680028E7D035E06068B0F5FC
:100A4000803F0BD010B1B0F5A02F11D0286820F452
:100A500080302860286820F4802002E0286840F474
:100A600080302860606890B1FFF750FE06460AE0CB
:100A7000286840F480202860F0E700BFFFF746FEBA
:100A8000801B642873D828688003F7D50CE0FFF733
:100A90003DFE064605E000BFFFF738FE801B6428D8
:100AA000F0D828688003F7D420789A4E80074FF05A
:100AB00001094FF0000839D5686810F00C0F07D015
:100AC0006868C0F38100022809D16868C00306D4B1
:100AD0002868800714D52069012808D110E0206912
:100AE000B0B1C6F80090FFF711FE074605E00AE135
:100AF000FFF70CFEC01B0228C4D828688007F7D572
:100B00002868616920F0F80040EAC10028600DE023
:100B1000C6F80080FFF7FAFD074604E0FFF7F6FD90
:100B2000C01B022823D828688007F7D42078000744
:100B30002CD57948A169D9B1C0F80090FFF7E6FD3E
:100B4000074604E0FFF7E2FDC01B02280FD8686AE1
:100B50008007F7D571484FF4FA510068B0FBF1F007
:100B6000009000BF0098411E0091FAD20EE080E094
:100B7000C0F80080FFF7CAFD074604E0FFF7C6FD96
:100B8000C01B022875D8686A8007F7D42078400710
:100B900060D5E8690027C00008D4E86940F08050BB
:100BA000E861E869012700F0805000905C48016826
:100BB000C90513D40168834641F480710160FFF7D1
:100BC000A5FD824606E000BFFFF7A0FDA0EB0A00EE
:100BD00064284ED8DBF80000C005F5D5E068012890
:100BE0000AD008B1052813D0286A20F00100286235
:100BF000286A20F0040002E0286A40F00100286220
:100C0000E06841F2883B98B1FFF780FD82460BE037
:100C1000286A40F004002862EEE700BFFFF776FD87
:100C2000A0EB0A0159455AD8286A8007F6D50CE08E
:100C3000FFF76CFD824605E0FFF768FDA0EB0A01B7
:100C400059454CD8286A8007F6D41FB1E86920F0CE
:100C50008050E861E06988B36968C1F381010229C5
:100C600044D00228C6F8608004D0FFF74FFD044648
:100C700038E034E0FFF74AFD074604E0FFF746FDA1
:100C8000C01B02282BD828688001F7D4206AB0F551
:100C9000803F05D16868A16820F40030084368608F
:100CA000D4E908010843696821F4741108436860B5
:100CB000C6F86090FFF72AFD044606E025E000BF75
:100CC000FFF724FD001B022809D828688001F7D50A
:100CD0001BE000BFFFF71AFD001B022802D903200A
:100CE000BDE8F88F28688001F4D40EE00128F7D021
:100CF0006868226A00F48031914204D1616A00F48C
:100D00007010884201D00120EAE70020E8E70000E7
:100D10000010024000004242800442422C000020A9
:100D20000070004010B5401EB0F1807F01D301205B
:100D300010BD4FF0E02460610F21601700F0D2F980
:100D40000020A06107202061002010BD70B50400C4
:100D500004D094F83D00002510B106E0012070BDDC
:100D600084F83C50204600F023F8242084F83D000D
:100D70002068C16821F40051C160204600F012F9DA
:100D80002068016921F4904101612068416921F0E6
:100D90002A0141612068C16841F40051C1602564A5
:100DA000202084F83D0084F83E00002070BD000043
:100DB00030B585B000240094019402940394006837
:100DC0001449884224D11448816941F480418161E9
:100DD000816901F480410491816941F004018161DC
:100DE00080690E4D00F0040004904FF400700090F4
:100DF000022001900320039069462846FFF796FBE6
:100E00002815CDE90004694628460294FFF78EFBB9
:100E100005B030BD0038014000100240000801401C
:100E20002DE9F843044690F83D001F4616460D464E
:100E300020284CD1C5B1BEB194F83C00012846D061
:100E4000012084F83C004FF00008C4F840802120C5
:100E500084F83D00FFF75AFCA6848146E684A0682A
:100E6000B0F5805F03D004E00120BDE8F88320697D
:100E700028B12E465FF0000584F83C800EE0002685
:100E8000FAE78021204600F0E9F8A0B9AEB116F8E3
:100E9000010B21684860E08C401EE084E08C4B46EA
:100EA0004FF0000200970028EBD14FF040012046A0
:100EB00000F0D4F830B10320D7E735F8020BC0F3C7
:100EC0000800E6E7202084F83D000020CDE702205E
:100ED000CBE7FEE7094808B5816941F0200181614F
:100EE000816901F020010091816941F00401816173
:100EF000806900F00400009008BD0000001002406E
:100F00000C4810B50A4901604FF4E13141600021FD
:100F100081600C22C160C0E904128161C161FFF7E8
:100F200015FF002803D0BDE81040FFF731B910BD10
:100F3000003801404C000020FEE7FEE77047704794
:100F4000FFF7EABB30B58FB028216846FFF701F9FB
:100F500014210AA8FFF7FDF801210804CDE90010CB
:100F60000024029402250491CDE907504FF4E010CB
:100F700009906846FFF746FD08B172B6FEE70F20FC
:100F8000CDE90A054FF48060CDE90C4002210AA8A2
:100F90000E94FFF74BFC002801D072B6FEE70FB0AD
:100FA00030BD704770B5044600680169E26821F4FD
:100FB0004051114301612169A068084361690843F8
:100FC0002168CA6841F20C639A430243CA602068F0
:100FD0004169A26921F44071114341611E492068B1
:100FE000884202D1FFF7C8FC01E0FFF7B5FC00EB37
:100FF000C00101EB0012606864218000B2FBF0F3D5
:10100000B3FBF1F36FF018067343B2FBF0F5B2FBDC
:10101000F0F605EB8305322303EB0515B5FBF1F57F
:10102000B6FBF1F605F0F00505EB0615B2FBF0F6A0
:10103000B2FBF0F0B0FBF1F06FF01802504306EB9A
:10104000800003EB0010B0FBF1F0216800F00F000E
:101050002844886070BD0000003801402DE9F0414F
:10106000984617460E460446069D1DE0681C1BD098
:101070002DB1FFF74BFBA0EB0800A84214D9206864
:10108000C16821F4D071C1602068416921F001017B
:101090004161202084F83D0084F83E00002084F85F
:1010A0003C000320BDE8F0812068006836EA0000BB
:1010B00004D00020B842D9D00020F3E70120F9E79E
:1010C000FEE700000FB4054B10B503A9044A0298CF
:1010D00000F027F810BC5DF814FB0000F9110008BF
:1010E000300000200907090E002804DB00F1E02091
:1010F00080F80014704700F00F0000F1E02080F845
:10110000141D704702E008C8121F08C1002AFAD156
:1011100070477047002001E001C1121F002AFBD177
:1011200070472DE9F84F99469246884605460027B4
:1011300006E025280AD051464A4690476D1C7F1C80
:1011400028780028F5D13846BDE8F88F002315F837
:10115000011F18462E2915D115F8011F04232A292D
:101160000DD06FF02F022978A1F13004092C09D895
:1011700000EB800002EB400008446D1CF3E758F8D8
:10118000040B6D1C2A78002ADDD0632A07D0732A4D
:101190000FD0104651464A4690477F1C2AE018F867
:1011A000042B8DF8002000218DF801106E460121DE
:1011B00003E058F8046B4FF0FF315A074FF000047A
:1011C00001D409E0641C84420BDA8C42FADB325D04
:1011D000002AF7D105E0641C8C42FCDB305D00285E
:1011E000F9D1274404E016F8010B51464A469047CE
:1011F000641EF8D26D1CA3E713B54FF0FF33012234
:1012000069460248FFF70CFE00981CBD4C00002008
:10121000FFF78AFAFFF796FEFFF75CFEFFF770FE16
:101220000DA0FFF74FFF4FF4FA60FFF7BBF8062160
:101230000E48FFF773F80EA0FFF744FF062113488E
:10124000FFF758F812A0FFF73DFF0848001F01689C
:1012500017A0FFF737FFFEE720B4AEBFDA4F4B21F0
:101260002E2E2E2E2E2E0D0A00000000040000202F
:1012700020D0B4C8EBB3C9B9A6A3ACD7BCB1B8B63B
:10128000C1C8A12E2E2E2E2E2E0D0A0034000020B5
:1012900020B6C1C8A1B3C9B9A62E2E2E2E2E2ED08F
:1012A000B4C8EBC4DAC8DDCEAAA3BA0D0A000000A8
:1012B0002025730D0A00000000000000000000005F
:1012C00001020304060708090000000001020304EC
:1012D000F012000800000020340000000411000893
:1012E00024130008340000208C04000014110008AE
:1012F0003400002053544D33325F48414C5F464C1C
:101300004153485F544553545F0000000000000003
:101310000100000010000000000000000024F400A4
:0413200000000000C9
:04000005080000ED02
:00000001FF
