:020000040800F2
:1000000088060020A1010008971B0008F51A0008C7
:10001000951B00083F1200086D2200080000000038
:1000200000000000000000000000000001220008A5
:100030004112000800000000291F000803220008E8
:10004000BB010008BB010008BB010008BB010008A0
:10005000BB010008BB010008BB010008BB01000890
:10006000BB010008BB010008BB010008BB01000880
:10007000BB010008BB010008BB010008BB01000870
:10008000BB010008BB010008BB010008BB01000860
:10009000BB010008BB010008BB010008BB01000850
:1000A000BB010008BB010008BB010008BB01000840
:1000B000BB010008BB010008BB010008BB01000830
:1000C000BB010008BB010008BB010008BB01000820
:1000D000BB010008BB010008BB010008BB01000810
:1000E000BB010008BB010008BB01000800F002F8DA
:1000F00000F047F80AA090E8000C82448344AAF17B
:100100000107DA4501D100F03CF8AFF2090EBAE878
:100110000F0013F0010F18BFFB1A43F0010318473B
:10012000A02F0000C02F0000103A24BF78C878C16B
:10013000FAD8520724BF30C830C144BF04680C60ED
:10014000704700000023002400250026103A28BF35
:1001500078C1FBD8520728BF30C148BF0B60704739
:10016000662902F01084002070471FB500F02AFBBA
:1001700004000020002102F045F9E0601FBD10B529
:1001800010BD00F01FFC1146FFF7EFFF02F0B4F8BE
:1001900000F03DFC03B4FFF7F2FF03BC00F080FC6D
:1001A0000948804709480047FEE7FEE7FEE7FEE70B
:1001B000FEE7FEE7FEE7FEE7FEE7FEE70448054947
:1001C000054A064B704700006B220008ED0000084E
:1001D0008800002088060020880200208802002075
:1001E0000FB41CB5074B06AA7B44694600900598DE
:1001F00000F0CFFA0020694600F0DEFA1CBC5DF882
:1002000014FB0000CD0500002DE9F0474FF0000A77
:1002100089460446C0F820A02046E16888470028A7
:1002200076D0252806D0D4E901219047206A401CC9
:100230002062F1E7E168204600258847C4F81CA049
:1002400006460027C4F818A02A2E09D0304602F02E
:100250004BF838B304EB8708303EC8F8186019E053
:1002600059F8041B204604EB87029161E168884736
:10027000012F064618D1E069002820DA25F0200574
:100280001DE0D8F8180000EB800006EB4000303885
:10029000C8F818002046E1688847064602F024F8AE
:1002A0000028EED1012F0AD02E2E08D12046E16879
:1002B00088477F1C0646022F45F02005C4DBA06955
:1002C000002803DA404245F00105A061E80701D0AB
:1002D00025F01005B6B1A6F14100192802D8203644
:1002E00045F400654A463146204625604D46FFF7F5
:1002F00037FF58B1012806D0ED1D25F0070000F1A9
:10030000080989E704E005F1040985E730468AE732
:10031000206ABDE8F0874FF0000200B5134694460E
:100320009646203922BFA0E80C50A0E80C50B1F14D
:100330002001BFF4F7AF090728BFA0E80C5048BF61
:100340000CC05DF804EB890028BF40F8042B08BFFF
:10035000704748BF20F8022B11F0804F18BF00F8FB
:10036000012B704770477047704770472DE9FF4F6A
:100370000C461E464FF0FF378BB0D2E90001DDF886
:1003800060800A908A46C1F30A5505B93D460021AE
:1003900008464FF00000BAF1000F00F4400005DA03
:1003A00000EB80004FF4400101EA50004FEA905901
:1003B000B9F1010F00DDB9460A9850EA4A000ED0A3
:1003C00044F61050A5F2FF3545432F14B8F1000F45
:1003D0001ED07542291E1EDDC9F100021CE0B8F1D5
:1003E000010F4FF0000001D0302103E0F24305E09F
:1003F0002154401CB042FBDB304600220021215436
:100400000B99C1F80880C1E900200FB0BDE8F08F5A
:10041000BD1B6D1CDEE74A4600DA694206A800F003
:100420005BFA06AB93E8070003AB83E8070050468E
:100430000A9900F03CFB8DE80700A0F500501F383A
:1004400000900398002D0ADD42F21F014A4608443D
:10045000002303A90390684600F0A5FD09E0A0F57C
:1004600000504A461F38002303A90390684600F055
:10047000AFFD8DE807000004000C03D04FF0FF3003
:10048000410800E01046B8F1000F03D000220092AE
:1004900015461EE0751E05D400F098F930326255FD
:1004A0006D1EF9D5B3460122084302D000227F1CFD
:1004B00004E02078302801D100227F1E002A09970D
:1004C00084D01DE0112D07DA00F080F9303262553A
:1004D0006D1C50EA0102F5D1084302D00098C8B162
:1004E0000EE00021681E05E0235C625C6354225428
:1004F000401E491C8142F7DBAB46A81B401E0990F9
:10050000002004F80B000B98099AC0F80880C0E995
:10051000002B7AE711264FF0000857E72DE9F04F3E
:1005200088460446D21D22F0070191B0D1E90001AE
:10053000CDE90A0101F0B4FE02460B98C00F01D0CC
:100540002D2007E02068810701D52B2002E0202123
:1005500001EAC000032A099001D0072A05DB0346FF
:100560004146204600F078F90BE12078800601D55D
:10057000E06900E00620B8F1650F814606D0B8F1C9
:10058000660F18D0B8F1670F70D131E00020B9F1D3
:10059000110F009001DB112301E009F101030AAA08
:1005A00001A90CA8FFF7E2FEDDE90C70002609F1B5
:1005B0000105834647E001204B4600904FF000477D
:1005C0000AAA01A90CA8FFF7D1FEDDE90DB00C992C
:1005D0005D46002610B909F101000D18B9EB0500C0
:1005E00003D4C0F1FF3609F10105A5EB09002BE0AA
:1005F000B9F1010F01DA4FF001090020B9F1110F33
:100600000090484601DD112300E003460AAA01A933
:100610000CA8FFF7ABFEDDE90C704D4600268346C3
:10062000207800070AD4AB4500DA5D4601A8012D09
:1006300004DD411911F8011C302907D04F4502DAB9
:1006400017F1040F04DA012082460FE06D1EEEE779
:10065000002F02DCED1B3E4403E0781CA84200DDC5
:100660007D1CB81B00F1010A4FF0004720780007FD
:1006700003D4AA4501DB4FF0FF3A0021B7F1004F48
:100680000DF143088DF8431024D002202B23002FB6
:1006900001DA7F422D230A21021EA0F1010000DCB5
:1006A0005FB197FBF1FC97FBF1F201FB1C7C174655
:1006B0000CF1300C08F801CDEEE7A8F10100037051
:1006C0002188090501D5452100E06521A0F1010837
:1006D00000F8011C09980FA9A1EB0807FF1D00B144
:1006E0000120411901EBEA70A1693844081A401E43
:1006F000A0612078C00602D42046AFF3008009989C
:1007000028B1D4E901219047206A401C206220785A
:10071000C00622D52046AFF300801EE0002E04DB89
:10072000B34502DD01A8805D00E03020D4E901215D
:100730009047206A401C2062761CAAF101005FEA03
:10074000000A0AD100F03EF8C0680168405CD4E9B4
:1007500001219047206A401C2062281EA5F1010556
:10076000DCDC07E0D4E9012118F8010B9047206A8E
:10077000401C2062381EA7F10107F3DC2046AFF3CE
:100780000080032011B041E601694A1C026108782B
:10079000704700B58FB0CDE90131002105910549C1
:1007A0007944CDE9031011466846FFF72DFD0FB0DF
:1007B00000BD0000E5FFFFFF0A6802F8010B0A60B8
:1007C00070470000004870474400002030B5B0F189
:1007D0000A024FEA900E71F100034EEA817EB0EBFF
:1007E0000E0061EB91014FEA101E4EEA017E10EB04
:1007F0000E0041EB11114FEA102E4EEA016E10EB84
:100800000E0041EB11214FEA104E4EEA014E10EB63
:100810000E0041EB1141401841F100014FEAD000B8
:1008200040EA41704FEAD10110EB80054FEA8104A4
:1008300044EA907444EB01046D1944EB0404521B28
:10084000A3414FF0000348BF0A3200D530BD401C21
:1008500041F1000130BD00002DE9F0411F46044682
:1008600003260168072A01F4006004DB08B116A51D
:1008700005E016A503E008B115A500E015A521F0D7
:1008800010002060A069C01EA0610FB1401EA061D1
:100890002046AFF300804FB1D4E90121384690479C
:1008A000206A401C2062C01C206206E0206AFAE731
:1008B000D4E9012115F8010B9047761EF8D22046A5
:1008C000AFF30080BDE8F0814E414E006E616E00D6
:1008D000494E4600696E66002DE9F047814616468E
:1008E0008AB0354878440DC88DE80D003248784408
:1008F000801C03AC0DC884E80D0041F69B30084411
:10090000372190FBF1F290FBF1F5A5F1800501FB99
:1009100012041B3C02D56442012000E00020DFF8F5
:1009200098A080460027FA44AAF1BE0A0EE0E0072C
:100930000AD03246684607EB470101230AEB8101E2
:1009400000F046FB8DE8070064107F1C002CEED100
:10095000194F7F44AE3F19E0E80715D007EB0410AC
:100960000DF1180A90E80E008AE80E00C068F04207
:1009700001D1981908903246012306A903A800F076
:1009800027FB03AB83E807006D10641C002DE3D147
:100990004FF0010332466946B8F1000F03A802D0B8
:1009A00000F001FB01E000F013FBC9E90001C9F808
:1009B00008200AB0BDE8F087C02700000048704753
:1009C000240000207546FFF7F9FFAE460500694692
:1009D000534620F00700854618B020B5FFF7EEFB20
:1009E000BDE820404FF000064FF000074FF0000830
:1009F0004FF0000B21F00701AC46ACE8C009ACE8B1
:100A0000C009ACE8C009ACE8C0098D46704710B514
:100A10000446AFF300802046BDE81040FFF7BABBA4
:100A20004FF0013C50F8042B51F8043B9A4221D17D
:100A3000A2EB0C03934313EACC1317D150F8042B09
:100A400051F8043B9A4215D1A2EB0C03934313EAED
:100A5000CC130BD150F8042B51F8043B9A4209D126
:100A6000A2EB0C03934313EACC13DBD04FF000004E
:100A7000704700BFD01A01BAB1FA81F101F0180134
:100A800022FA01F0CB40C1F12001DBB2C0B2C01AA2
:100A90002CFA01F3D11A914311EAC311E6D1704740
:100AA00001491820ABBEFEE72600020070475FEA4E
:100AB000400C08BF91F0000F4FEA8C234FEAC1228F
:100AC00043EA51514FEA1C5018BF00F5F0404FEA7D
:100AD000300018BF41F000415FEA6C5C00F02980F3
:100AE000BCF1FF3F08BF40F080407047130C06BFC9
:100AF00012044FF0100C4FF0000C130E04BF120242
:100B00000CF1080C130F04BF12010CF1040C930F2D
:100B100004BF92000CF1020CD30F04BF52000CF181
:100B2000010C11464FF00002A0F11F00A0EB0C00D9
:100B3000704711F0004F08BF704731F000413FF49B
:100B4000D5AF0B0C06BF09044FF0100C4FF0000C92
:100B50000B0E04BF09020CF1080C0B0F04BF0901B6
:100B60000CF1040C8B0F04BF89000CF1020CCB0FAD
:100B700004BF49000CF1010CCCF12003A0EB0C00E8
:100B800022FA03F302FA0CF241EA030100F1010038
:100B9000704720F07F4C80EA030023F07F47ACEBE6
:100BA000070303F57C5300F0004003F1FF032DE938
:100BB00080494FEA154B09B44FEA144325EA0B4E1E
:100BC00024EA03480FF2042606EB132749083E786F
:100BD0005FEA320203FB0667C7F5000707FB06F66C
:100BE0004FEA54374FEAD64606F1020607FB066C79
:100BF000CCF1005C4FEA1C472CEA074C07FB06F4DB
:100C00000CFB06F504EB15464FEA961634BF0020A0
:100C10004FF000404FEAD13706FB07FC4FEA1C4C6F
:100C20000CFB0BF7D21B03FB0CF761EB07010CFB72
:100C30000EF7B0EB074072EB17420CFB08F734BF1E
:100C4000A2EB0742B2EB074261EB17414FEA0C44BB
:100C50004FEA910706FB07FC4FEA1C4C0CFB0BF715
:100C6000B0EBC74072EB573203FB0CF734BFA2EB7B
:100C7000C742B2EBC74261EB57310CFB0EF7B0EB4A
:100C8000C70072EB57720CFB08F734BFA2EBC70228
:100C9000B2EBC70261EB5771039F4FEA816141EAF2
:100CA000921104EBCC044FEAD1374FEA826206FB83
:100CB00007FC42EA90124FEA80604FEA1C4C0CFBA2
:100CC0000BF7D21B03FB0CF761EB07010CFB0EF7D4
:100CD000B0EB074072EB17420CFB08F734BFA2EBF6
:100CE0000742B2EB074261EB17414FEA8C554FEADE
:100CF000910704EB9C2406FB07FC4FEA1C4C0CFB01
:100D00000BF7B0EBC74072EB573203FB0CF734BF65
:100D1000A2EBC742B2EBC74261EB57310CFB0EF7B7
:100D2000B0EBC70072EB57720CFB08F734BFA2EBB5
:100D3000C702B2EBC70261EB577115EB4C254FEAC6
:100D4000816141EA92114FEA82624FEAD13742EA69
:100D5000901206FB07FC44F100044FEA80604FEA62
:100D60001C4C0CFB0BF7D21B03FB0CF761EB0701D0
:100D70000CFB0EF7B0EB074072EB17420CFB08F7C9
:100D800034BFA2EB0742B2EB074261EB174115EB10
:100D90001C154FEA813141EA92414FEA823242EA20
:100DA00090424FEA80304FEA0C7644F1000448EA62
:100DB00003434EEA0B484FF0000EB2EB080C71EB08
:100DC000030724BF624639464EEB0E0E4FF0000B70
:100DD0000018524149414BEB0B0BB2EB080C71EB85
:100DE00003077BF1000B24BF624639464EEB0E0E23
:100DF0004FF0000B0018524149414BEB0B0BB2EB8B
:100E0000080C71EB03077BF1000B24BF62463946E7
:100E10004EEB0E0E51EA020718BF46F0010616EB24
:100E20000E7655F1000254F1000103D5BDE88901A9
:100E3000BDE80088BDE88901BDE80048B619524107
:100E400041EB0101A3F10103704780807F7E7D7C2F
:100E50007B7A7978777676757473727171706F6E4C
:100E60006E6D6C6C6B6A6A696868676666656464F7
:100E7000636362616160605F5F5E5E5D5D5C5C5B81
:100E80005B5A5A59595858575756565555555454F0
:100E9000535352525251515050504F4F4F4E4E4D4E
:100EA0004D4D4C4C4C4B4B4B4A4A4A49494948489A
:100EB00048474747474646464545454444444443DA
:100EC00043434342424242414141002B9C4630D47D
:100ED00077002BD01CB54FEA370703B44FF0100052
:100EE0004FF01001BAF1000F06D0BCF1000FDCBFCB
:100EF00040F0080040F008014FF000000FBCBDE8D2
:100F000010400BF1010BBBF1010F08BF5FEA17079F
:100F100022BF12F1010211F101014FF0004143F132
:100F2000000300F0004043EA00007047F9D357087F
:100F3000D0E746EA064613F1400F4FEA16461FDD9A
:100F400013F1200FDFBF16430A46002120335B4216
:100F5000BED0C3F1200746EA064602FA07F74FEA79
:100F6000164646EA0706C3F1200722FA03F201FA01
:100F700007F721FA03F14FF0000342EA0702A7E75F
:100F800046EA020646EA06464FEA164646EA0106E1
:100F9000BCBF46EA0646360C4FF000034FF0000295
:100FA0004FF0000194E72DE9804C9A46934670B4C7
:100FB00091E8380007C831EA400C48BF34EA430CD6
:100FC00003D5FFF7E6FDFFF780FFF0BCBDE8008C1E
:100FD0002DE9804C9A46934670B491E8380007C8D2
:100FE00010F0804F08BF13F0804F03D100F005F8D8
:100FF000FFF76BFFF0BCBDE8008C20F07F4780EA74
:10100000030023F07F4C07EB0C03A3F57C5300F0A7
:101010000040A3F1FE0392F0000F00F0B38095F0C2
:10102000000F00F077802DE901494FEA11404FEAA7
:10103000144621EA004800FB06FC24EA064708FBA8
:1010400006F607FB08F800FB07F718EB06484CEB21
:10105000164C4FEA124B18EB07484FEA15464CEB7B
:10106000174022EA0B4E0BFB06FC25EA06470EFB57
:1010700006F607FB0EFE0BFB07F71EEB064E4CEBCE
:10108000164C4FF000061EEB074E4CEB174B18EBBF
:101090000B0840F1000018EB0E0B58EB000840F174
:1010A00000008F1A4FF000013CBFC943661B14BFFC
:1010B000B5EB040C00213CBFC943F61B4FEA1744B3
:1010C0004EEA8E0E27EA04454FEA1C4704FB0762EE
:1010D0002CEA074C05FB07F70CFB05F604FB0CFCA0
:1010E00016EB074642EB174216EB0C4642EB1C424E
:1010F0001BEB060658EB0202414146EA9E0601D56B
:10110000BDE80189B619524141EB0101A3F1010388
:10111000BDE801894FEA14454FEA114724EA054624
:1011200021EA074C05FB07F406FB07F70CFB06F169
:1011300005FB0CFC11EB074144EB17444FEA124747
:1011400011EB0C4144EB1C4422EA074C05FB07F26F
:1011500006FB07F70CFB06F605FB0CFC16EB074637
:1011600042EB174216EB0C4642EB1C456A1854F151
:10117000000148BF7047B619524141EB0101A3F18C
:101180000103704795F0000F37D04FEA11424FEA44
:10119000144721EA024624EA074C02FB07F106FB4A
:1011A00007F70CFB06F402FB0CFC14EB074441EBC5
:1011B00017414FEA154714EB0C4441EB1C4125EA5B
:1011C000074C02FB07F506FB07F70CFB06F602FBD4
:1011D0000CFC16EB074645EB174516EB0C4645EBAA
:1011E0001C42121951F1000148BF7047B619524113
:1011F00041EB0101A3F1010370474FEA14454FEAA7
:10120000114724EA054621EA074C05FB07F106FBD6
:1012100007F70CFB06F24FF0000605FB0CFC12EB87
:10122000074241EB174112EB0C4251EB1C4148BF06
:101230007047921841EB0101A3F101037047FEE7EB
:10124000704772B6FEE7000070B5044600F020F962
:101250000546601C02D004480078044400F018F9E8
:10126000401BA042FAD370BD0800002010B5044610
:1012700000F060FA0849B0FBF1F000F027FC601EB6
:10128000FFF7E2FF00F056FA4FF47A71B0FBF1F08D
:10129000BDE8104000F01ABC40420F002DE9F84FA5
:1012A000DFF8B891002409F1040A0AF1040B23467F
:1012B0000F270BF1040EC9E00125A5402A40AA42E0
:1012C0007DD1674ED1F804C0ACEB0608B44532D0EE
:1012D00014DCBCF1030F3AD009DCBCF1000F2AD0BA
:1012E000BCF1010F1CD0BCF1020F31D11DE0BCF1EB
:1012F000110F17D0BCF1120F2AD119E0B8F5881FD1
:1013000019D006DCB8F5803F15D0B8F5801F1FD185
:1013100011E0B8F5001F0ED0B8F5041F18D10AE08F
:10132000CB6815E0CB681B1D12E0CB6808330FE0DB
:10133000CB680C330CE08B682BB1012B4FF008030A
:1013400003D0456104E0042302E0056100E00023CE
:10135000FF2A01D8064601E000F104064FEA8405A1
:1013600001D9A5F12005D6F8008007FA05FC28EA86
:101370000C0803FA05F548EA0508C6F800804D6830
:10138000ED0062D5374DAE6946F00106AE61AD693C
:1013900024F0030605F001050095334D06EB050C1E
:1013A000DCF80850A607360F07FA06F825EA080504
:1013B000DFF8B880404503D14FF0000817E044E063
:1013C000DFF8AC80404502D14FF001080FE0DFF8B4
:1013D000A480404502D14FF0020808E0DFF8988071
:1013E000404502D14FF0030801E04FF0040808FA2D
:1013F00006F848EA0508CCF808804D68D9F800607E
:10140000ED034D4601D5164300E096432E604D682E
:10141000DAF80060AD03554601D5164300E0964367
:101420002E604D68DBF80060ED025D4601D5164385
:1014300000E096432E604D68DEF80060AD02754610
:1014400001D5164300E096432E60641C0D682A46C1
:10145000E5407FF431AFBDE8F88F000000040140A3
:10146000000011100010024000000140000801407F
:10147000000C014000100140001401408068084049
:1014800000D0012070470AB1016170470904FBE7F1
:1014900001488068704700000800002070B5040013
:1014A00011D021684CF6CC400860216845F25550B7
:1014B0000860D4E9000141602168A0688860FFF7F6
:1014C000E7FF05460DE0012070BD00BFFFF7E0FF1C
:1014D000401B272805D92068C068800701D0032059
:1014E00070BD2068C0688007F0D121684AF6AA2044
:1014F0000860002070BD00684AF6AA210160002043
:10150000704700000248816802781144816070478A
:1015100008000020074810B5016841F01001016083
:10152000032000F05FF80F2000F006F800F024F828
:10153000002010BD0020024070B50D4D04464FF450
:101540007A712878B1FBF0F00A490968B1FBF0F034
:1015500000F0BCFA48B9102C07D200222146501ED8
:1015600000F020F800206C6070BD012070BD00000C
:101570000800002014000020094808B5816941F0E6
:1015800001018161816901F001010091C16941F0AE
:101590008051C161C06900F08050009008BD00001A
:1015A00000100240F0B40E4B1B680C46C3F302233C
:1015B000C3F10705042D00D90425191D072901D2FF
:1015C000002300E0DB1E012606FA05F1491E21403A
:1015D00099409E40761E16403143F0BC00F074BE28
:1015E0000CED00E0064900F0070208684FF6FF0323
:1015F000184040EA0220034A104308607047000088
:101600000CED00E00000FA052DE9F0470F4605005B
:1016100061D0434E306800F00700B84209D230680C
:1016200020F0070038433060306800F00700B8420F
:1016300051D128683B4C810712D5400703D560681B
:1016400040F4E06060602878000703D5606840F4EB
:10165000605060606068A96820F0F0000843606036
:101660002878C00728D06868012810D0216802288F
:1016700010D0890700292EDA616821F003010143A7
:101680006160FFF705FF804641F288390DE021686F
:101690008903EFE78901EDE7FFF7FAFEA0EB080108
:1016A000494502D90320BDE8F0876068696800F009
:1016B0000C00B0EB810FEFD1306800F00700B842AA
:1016C0000BD9306820F0070038433060306800F0F4
:1016D0000700B84201D00120E5E72878400705D58A
:1016E0006068E96820F4E0600843606028780007DB
:1016F00006D56068296920F4605040EAC100606046
:1017000000F01EF86168084AC1F30311515CC8403B
:101710000649086006480068FFF70EFF0020C2E790
:1017200000200240001002408A2900081400002016
:101730000C000020014800687047000014000020E1
:1017400012A185B00FC98DE80F0014A0144A0068DB
:1017500004905168134801F00C03042B10D0082B9F
:101760000ED1C1F38343C9031DF803000AD55168A4
:1017700004AAC1F34041515C0A4A5043B0FBF1F066
:1017800005B0704708494843FAE700000203040522
:10179000060708090A0B0C0D0E0F101001020000BD
:1017A0000010024000127A0000093D002DE9F84FB8
:1017B000040070D02078C04DC00749D06868C0F3DD
:1017C0008100012807D06868C0F38100022809D190
:1017D0006868C00306D52868800339D5606800288A
:1017E000E7D035E06068B0F5803F0BD010B1B0F5C0
:1017F000A02F11D0286820F480302860286820F4B9
:10180000802002E0286840F480302860606890B151
:10181000FFF73EFE06460AE0286840F48020286074
:10182000F0E700BFFFF734FE801B642873D82868F8
:101830008003F7D50CE0FFF72BFE064605E000BF5E
:10184000FFF726FE801B6428F0D828688003F7D4B1
:1018500020789A4E80074FF001094FF0000839D5E3
:10186000686810F00C0F07D06868C0F38100022888
:1018700009D16868C00306D42868800714D5206998
:10188000012808D110E02069B0B1C6F80090FFF738
:10189000FFFD074605E00AE1FFF7FAFDC01B02283D
:1018A000C4D828688007F7D52868616920F0F80057
:1018B00040EAC10028600DE0C6F80080FFF7E8FDAF
:1018C000074604E0FFF7E4FDC01B022823D8286880
:1018D0008007F7D4207800072CD57948A169D9B1C1
:1018E000C0F80090FFF7D4FD074604E0FFF7D0FDF5
:1018F000C01B02280FD8686A8007F7D571484FF4DB
:10190000FA510068B0FBF1F0009000BF0098411E52
:101910000091FAD20EE080E0C0F80080FFF7B8FD39
:10192000074604E0FFF7B4FDC01B022875D8686ABB
:101930008007F7D42078400760D5E8690027C00009
:1019400008D4E86940F08050E861E869012700F0B8
:10195000805000905C480168C90513D40168834633
:1019600041F480710160FFF793FD824606E000BFFD
:10197000FFF78EFDA0EB0A0064284ED8DBF80000CC
:10198000C005F5D5E06801280AD008B1052813D0B4
:10199000286A20F001002862286A20F0040002E092
:1019A000286A40F001002862E06841F2883B98B163
:1019B000FFF76EFD82460BE0286A40F004002862C3
:1019C000EEE700BFFFF764FDA0EB0A0159455AD8C6
:1019D000286A8007F6D50CE0FFF75AFD824605E03D
:1019E000FFF756FDA0EB0A0159454CD8286A80073D
:1019F000F6D41FB1E86920F08050E861E06988B34F
:101A00006968C1F38101022944D00228C6F86080C8
:101A100004D0FFF73DFD044638E034E0FFF738FD21
:101A2000074604E0FFF734FDC01B02282BD82868C6
:101A30008001F7D4206AB0F5803F05D16868A168BD
:101A400020F4003008436860D4E90801084369685D
:101A500021F4741108436860C6F86090FFF718FD20
:101A6000044606E025E000BFFFF712FD001B022838
:101A700009D828688001F7D51BE000BFFFF708FDF3
:101A8000001B022802D90320BDE8F88F28688001D6
:101A9000F4D40EE00128F7D06868226A00F480319F
:101AA000914204D1616A00F47010884201D0012093
:101AB000EAE70020E8E70000001002400000424290
:101AC00080044242140000200070004010B5401E07
:101AD000B0F1807F01D3012010BD4FF0E0246061A0
:101AE0000F21601700F0F0FB0020A06107202061AB
:101AF000002010BDFEE7000030B585B00024184876
:101B00000094019402940394816941F01001816171
:101B1000816901F010010491816941F02001816126
:101B2000816901F020010491816941F0080181611E
:101B300080690C4D00F0080004900122C021284665
:101B4000FFF7A1FCC02000901120CDE90104032083
:101B5000039069462846FFF7A1FB05B030BD0000A1
:101B600000100240000C0140094810B5074901600F
:101B70000421416040F271218160FFF78FFC002851
:101B800003D0BDE81040FFF75CBB10BD0030004043
:101B900018000020FEE7FEE770B500240021204673
:101BA00000F0C7F80025002000F0ADF96D1CEDB283
:101BB000802DF8D3641CE4B2082CEFD370BD000074
:101BC0002DE9F0410024144E0746802525FA04F241
:101BD0003A4080213046FFF756FC01224021304632
:101BE000FFF751FC002240213046FFF74CFC641CFB
:101BF000E4B2082CEAD3012280213046FFF743FCEF
:101C0000012240213046FFF73EFC3046BDE8F0415E
:101C100000224021FFF737BC000C014010B50B4CEF
:101C2000012280212046FFF72EFC01224021204680
:101C3000FFF729FC002280212046FFF724FC2046E4
:101C40000022BDE810404021FFF71DBC000C014000
:101C500010B5094C002280212046FFF714FC012218
:101C600040212046FFF70FFC20460122BDE810402E
:101C70008021FFF708BC0000000C014010B50020D7
:101C80004FF47A720021491C9142FCD3401C9042CF
:101C9000F8D3AE2000F026F9D52000F023F98020FB
:101CA00000F020F9A82000F01DF93F2000F01AF9FB
:101CB000D32000F017F9002000F014F9402000F0C4
:101CC00011F9A12000F00EF9C82000F00BF9DA207C
:101CD00000F008F9122000F005F9812000F002F967
:101CE000CF2000F0FFF8D92000F0FCF8F12000F040
:101CF000F9F8DB2000F0F6F8302000F0F3F8A4202B
:101D000000F0F0F8A62000F0EDF88D2000F0EAF8E1
:101D1000142000F0E7F8AF2000F0E4F8BDE8104030
:101D2000FFF73ABF0246012000E05043491EFCD2B3
:101D3000704710B50C4640F0B00000F0D3F810200A
:101D400040EA141000F0CEF804F00F00BDE8104097
:101D500000F0C8B82DE9F0410746CE004000083E2B
:101D6000801E15464FF0FF38F1B2C0B2FFF7E1FF19
:101D70001148002400EB05152819A0F5805090F8B3
:101D8000000E00F0C0F8641CE4B2082CF4D308EB99
:101D90004700F1B2C0B2FFF7CCFF00242819A0F52C
:101DA000805090F8080E00F0AEF8641CE4B2082CE5
:101DB000F4D3BDE8F08100009A2900082DE9F04134
:101DC0001D4616460F468046002408E007EB4400F7
:101DD000C1B2325D404600F03BF8641CE4B2AC4254
:101DE000F4D3BDE8F0812DE9F04700241D461646E6
:101DF000884681460A2713E0291B0A20491EFFF75F
:101E000091FFB6FBF0F0B0FBF7F107FB110208EB16
:101E10000400C1B248463032FFF79CFF641CE4B2B4
:101E2000AC42E9D3BDE8F0872DE9F04115460E46F6
:101E30000746002406E03019C1B23846FFF78AFF92
:101E4000641CE4B22A5D002AF5D1BDE8F0810000EF
:101E50002DE9F0478146CE004000A6F10807A0F129
:101E6000020815464FF0FF3AF9B208F0FF00FFF7FD
:101E700060FF1B48002400EB4515285D00F043F887
:101E8000641CE4B2082CF8D308F0FF00F1B2FFF7AD
:101E900050FF01242819007A00F035F8641CE4B2E0
:101EA000082CF7D3F9B20AEB4907F8B2FFF741FF64
:101EB00000242819007C00F026F8641CE4B2082CE9
:101EC000F7D3F1B2F8B2FFF734FF01242819007EEE
:101ED00000F019F8641CE4B2082CF7D3BDE8F087D1
:101EE0008A2F000810B50446FFF798FE7820FFF708
:101EF00067FE0020FFF764FE2046FFF761FEBDE8A5
:101F00001040FFF7A5BE10B50446FFF787FE782006
:101F1000FFF756FE4020FFF753FE2046FFF750FE26
:101F2000BDE81040FFF794BE704700002DE9F04770
:101F3000894680460021E02000F04AF900F07EF852
:101F4000892000F0ABF800F093F92A4C01224021DF
:101F50002046FFF798FA40212046FFF78FFA002825
:101F6000F9D0002000F0F8F84FF6FF7606EA0024DA
:101F7000002000F0F1F840EA0405002000F0ECF841
:101F80000446002000F0E8F806EA0026002000F0F1
:101F9000E3F80643012000F0DFF8074600F068F898
:101FA000304600F031F8B84221D1284600F02CF834
:101FB000A0421CD1304600F091FB0F4900F0A2FB7B
:101FC0000E4C214600F0C8FAC8F80000284600F080
:101FD00085FB0B4900F096FB214600F0BDFA09494C
:101FE00000F05CFCC9F800000120BDE8F08700208B
:101FF000FBE70000000C01400000C84200FF7F47E3
:1020000000002F430000344230B50446FF20230A6D
:1020100000215840002205064FEA40604FEA106058
:1020200001D580F03100521CD2B2082AF3D301B995
:10203000E3B2491CC9B20229EBD330BD10B50B4C39
:10204000012280212046FFF71EFA0122402120466E
:10205000FFF719FA002280212046FFF714FA2046E4
:102060000022BDE810404021FFF70DBA000C0140EE
:1020700010B5094C002280212046FFF704FA012206
:1020800040212046FFF7FFF920460122BDE810401D
:102090008021FFF7F8B90000000C014070B5104E28
:1020A0000546002405FA04F000F080028021304645
:1020B000FFF7E9F9012240213046FFF7E4F9002259
:1020C00040213046FFF7DFF9641CE4B2082CE9D365
:1020D0003046BDE8704001228021FFF7D4B90000EE
:1020E000000C014030B585B00024194800940194DB
:1020F00002940394816941F0080181618069154D62
:1021000000F0080004900122C0212846FFF7BBF927
:10211000C02000901120CDE90104032003906946FE
:102120002846FFF7BBF8012240212846FFF7ABF90C
:10213000012280212846FFF7A6F92121272000F05F
:1021400047F84FF49670FFF791F805B030BD0000E6
:1021500000100240000C01402DE9F0411B4E0746E3
:102160000025012280213046FFF78DF9002401224D
:1021700040213046FFF787F980213046FFF77EF98E
:10218000C4F1070188402843C5B2002240213046EF
:10219000FFF779F9641CE4B2082CE8D33A468021B1
:1021A0003046FFF770F9012240213046FFF76BF906
:1021B000002240213046FFF766F901228021304697
:1021C000FFF761F92846BDE8F0810000000C0140EE
:1021D00070B50D460446FFF731FF8820FFF75EFF1C
:1021E00000F046F82046FFF759FF00F041F8284676
:1021F000FFF754FF00F03CF8BDE87040FFF738BF30
:102200007047FFF77FB930B58FB028216846FEF7D9
:1022100082F814210AA8FEF77EF809200121009017
:102220004FF48030002404910691CDE90104022589
:10223000CDE907504FF4E01009906846FFF7B6FA71
:1022400008B172B6FEE70F20CDE90A054FF48060B1
:10225000CDE90C4002210AA80E94FFF7D5F9002819
:1022600001D072B6FEE70FB030BD7047FEE7000048
:1022700070B50A4D012240212846FFF704F980215C
:102280002846FFF7FBF808B1012400E000240022F3
:1022900040212846FFF7F7F8204670BD000C0140AA
:1022A000490050EAC12018BF04204A0D18BF40F071
:1022B000010040F2FF72B2EB515F08BF40F0020034
:1022C000012808BF052070470907090E002804DB14
:1022D00000F1E02080F80014704700F00F0000F1DA
:1022E000E02080F8141D704730380A2801D2012000
:1022F000704700207047000086B000242646FFF794
:1023000009F9FFF780FFFFF7F7FBFFF72DFCFFF759
:10231000B5FCFFF7E7FE30A0012100680090022322
:102320006A460846FFF74AFD2CA002230068019088
:1023300001AA01210320FFF741FD29A00123006824
:10234000029002AA0B211846FFF738FD254D022303
:10235000641C22460E211846FFF745FD632C00D170
:1023600000242049081DFFF7E1FD28B3286810F17B
:10237000FF4F05D200F062F80B4602461AA104E0B6
:1023800000F05CF80B46024619A103A8FDF728FFF0
:1023900003AA05210120FFF747FD686800F04EF809
:1023A00002460B4614A103A8FDF71AFF03AA052154
:1023B0000320FFF739FD07E0761CB6B20223324650
:1023C0000E210120FFF70FFD6420FEF73DFF0C48B2
:1023D000FFF791F8BBE700000001000002030000D6
:1023E00004000000000000202B252E3266000000B3
:1023F000252E32660000000020252E32662525009D
:102400001800002010B500290AD00878002807D04D
:1024100005487844FEF704FB002801D0002010BDD9
:102420000248784410BD0000CE0C0000C60C00002D
:102430000808A0F500114FEA3101704743004FEA48
:10244000D30C4FEA3C0C43401FBF40070CF16051D6
:1024500013F0FE4F70471CF0006F03D100200CF00A
:10246000004170470CF0004343EA507010B540EA59
:10247000CC0000F0C8F900BF000000924FEA000154
:10248000FFF7D6BF4FF000414FF00000A1F500214B
:102490007047000090EA010F48BF81F0004100F151
:1024A0000482421A3CBF801A89184FEAD0524FF07A
:1024B0007F4C1CEA410FA2EBD15318BF9CEA026F7C
:1024C00000F03B804FF0004C4CEA00204CEA012128
:1024D00021FA03FC10EB0C0C1ED202F1FF325FEA72
:1024E0001C2040EBC25038BF70471CF07F0F4FEAF2
:1024F000400C18BFBCF17F4F38BF7047C3F12003B9
:10250000994008BF20F00100BCF17F4F38BF7047F1
:10251000A0F1C04000F0BDB94FEA3C00000A40EB1A
:10252000C25028BF1CF0FF0F4FEA400CE6D018BF86
:10253000BCF17F4F38BF7047EAE79CEA026F05D0D5
:1025400010EA5C0F08BF00F00040704710B500F0C3
:102550005AF900BF64FBBE3E4FF47F0C1CEAD01258
:102560001EBF1CEAD11392EA0C0F93EA0C0F00F085
:10257000858090EA010F48BF42F4807240F4000C5D
:1025800041F400002CF07F4120F07F4000B58142F3
:10259000A2EB03020FF2081CACEB504EC0F100009E
:1025A0009EF800E04FEA4E0E00FB0EFC38BF4900DB
:1025B0004FEA2C1C02F5FA020CFB0EF34FEACE1E7A
:1025C0004FEA112C4FEAC1210EEB635E42EB22422F
:1025D0000EFB0CFC4FEA1C5300FB03114FEA112CBD
:1025E0004FEA01310EFB0CFC4FEADC4C00FB0C11F6
:1025F000C14228BF09184CEB03335DF804EB10EB24
:10260000410143EBC250B2F57C0F38BF704729D56A
:1026100012F0F00F1CBF00F1C04000F00040704706
:10262000008182838485868788898B8C8D8E8F91AB
:102630009293959697999A9C9D9FA0A2A3A5A7A8CF
:10264000AAACAEB0B2B3B5B7B9BCBEC0C2C5C7C9FB
:10265000CCCED1D4D7D9DCDFE2E6E9ECF0F3F7FA5F
:10266000FE0000004FEA400C0CF1807CBCF17E4F74
:1026700028BF7047B0F1C04000F00BB990EA010FDD
:102680000CEAD11348BF42F48072624538BF6345FB
:1026900007D213F47F0F16D080EA010000F000404B
:1026A000704710B500F0AFF8097EFC3E00F005B8A9
:1026B00080EA010000F00040704780EA010000F06D
:1026C000004000F0E6B812F47F0F04BF02487047E4
:1026D00080EA010000F0DDB80000C07FB0FA80F3AE
:1026E00010FA03F2C3F19D030AD0D90501EB1220C1
:1026F000530638BF704700F1010008BF20F0010009
:10270000704700004FF47F0C1CEAD0121EBF1CEA79
:10271000D11392EA0C0F93EA0C0F00F0478090EA75
:10272000010F48BF42F480724FF0004C4CEA002089
:102730004CEA012102EB0302A0FB0113A2F5000207
:10274000002918BF43F001035B0028BF4FEA3303A1
:1027500042EB22425FEA132C4CEBC2502EBFBCEB83
:10276000436FB2F57C0F70474FEA036CBCF1004F2A
:1027700008BF20F00100B2F57C0F38BF70470BD5C1
:1027800082F0FF0212F5803FC8BF704700F1C040E1
:10279000D8BF00F00040704700F5000C5FEA4C0C19
:1027A00048BF7047B0F1C04000F073B890EA010F25
:1027B0000CEAD11348BF42F48072624538BF6345CA
:1027C00004D280EA010000F00040704710B500F02C
:1027D0001AF800BF8900013E00F007B800F009B800
:1027E0005FEA410C5FEA1C6C08D080EA010000F04F
:1027F00050B85FEA400C5FEA1C6CF6D14FF0004025
:10280000A0F5800070470EF1020E2EF0030E5EF868
:10281000044B244204D44FEA4102B2F17F4F11D855
:102820004FEA4003B3F17F4F0CD80ED14FEAD07C72
:10283000B2F17F4F0CEB4C0C0CF1020C08BF4CEBCF
:10284000D17C04E04FF0080C01E04FEAD17C0CEBA6
:102850004C0324FA03F404F00704B4F1040C06D288
:102860000EEB840CBDE810404CF0010C6047DFE833
:102870000CF0070802024FF00040A0F5800010BDE8
:102880000846420018BFD2F1807288BF00F00040B5
:1028900010BDFF2141EAD050C005704790EA010FFA
:1028A00048BF81F000413FF5FCAD421A04D882F0E8
:1028B0000042A0EB020011444FEAD0524FF07F4C8F
:1028C0001CEA410FA2EBD15318BF9CEA026F4AD019
:1028D0004FF0004C4CEA00204CEA012121FA03FCA5
:1028E000B0EB0C0C0FD412F0FE0F36D05FEA4C00A8
:1028F0001DD5001240EBC25038BF70471CF03F0F8F
:1029000018BF70470BE0A2F101025FEA1C2040EB08
:10291000C25038BF70471CF07F0F18BF7047C3F11B
:102920002003994014BF401E20F00100704780082A
:102930004FEA122308BF7047B0FA80FCA2EB0C02EA
:10294000CCF1280C60FA0CF093EA122F04BF00EBD4
:10295000C25070474FEAC3707047130A5FEADC1039
:1029600008BF7047F6E79CEA026F04D010EA5C0FDC
:1029700008BF0020704710B5FFF745FF40DFF63E67
:1029800081F000407047FDF7C9BD00000000000065
:10299000000001020304060708090000000000000F
:1029A00000000000000000000000000000F800002F
:1029B0000000000000333000000000100C06100C76
:1029C0000600000000000000000040C07840C07811
:1029D0004000043F04043F040400007088FC0830F9
:1029E0000000001820FF211E0000F008F000E01891
:1029F000000000211C031E211E0000F0088870004A
:102A000000001E2123241927211010160E0000009B
:102A100000000000000000000000000000E01804BA
:102A20000200000000071820400000020418E00027
:102A300000000040201807000000404080F0804067
:102A400040000202010F01020200000000F000003D
:102A500000000101011F0101010000000000000051
:102A6000000080B0700000000000000000000000C6
:102A7000000000010101010101010000000000004F
:102A80000000003030000000000000000000806006
:102A90001804006018060100000000E0100808108B
:102AA000E000000F102020100F00001010F80000B0
:102AB00000000020203F2020000000700808088847
:102AC0007000003028242221300000300888884817
:102AD00030000018202020110E000000C02010F847
:102AE000000000070424243F240000F80888880818
:102AF00008000019212020110E0000E0108888181D
:102B00000000000F112020110E0000380808C838FE
:102B100008000000003F00000000007088080888DE
:102B20007000001C222121221C0000E01008081067
:102B3000E0000000312222110F00000000C0C000A0
:102B400000000000003030000000000000800000A5
:102B500000000000806000000000000080402010A5
:102B6000080000010204081020004040404040409E
:102B70004000040404040404040000081020408001
:102B80000000002010080402010000704808080836
:102B9000F0000000003036010000C030C828E81006
:102BA000E0000718272423140B000000C038E000C1
:102BB0000000203C23020227382008F8888888700B
:102BC0000000203F202020110E00C0300808080817
:102BD0003800071820202010080008F808080810FE
:102BE000E000203F202020100F0008F88888E80827
:102BF0001000203F20202320180008F88888E808CB
:102C00001000203F200003000000C03008080838F2
:102C1000000007182020221E020008F80800000803
:102C2000F808203F210101213F20000808F808088A
:102C300000000020203F2020000000000808F808C5
:102C40000800C08080807F00000008F888C0281835
:102C50000800203F20012638200008F80800000066
:102C60000000203F20202020300008F8F800F8F86D
:102C70000800203F003F003F200008F830C0000857
:102C8000F808203F200007183F00E010080808104F
:102C9000E0000F10202020100F0008F80808080896
:102CA000F000203F210101010000E0100808081099
:102CB000E0000F18242438504F0008F888888888CE
:102CC0007000203F2000030C3020007088080808A6
:102CD00038000038202121221C00180808F80808B4
:102CE00018000000203F2000000008F8080000083D
:102CF000F808001F202020201F000878880000C846
:102D00003808000007380E010000F80800F8000835
:102D1000F800033C0700073C03000818688080683F
:102D2000180820302C03032C30200838C800C8387D
:102D300008000000203F2000000010080808C838E4
:102D400008002038262120201800000000FE020282
:102D500002000000007F40404000000C30C0000036
:102D60000000000000010638C00000020202FE0060
:102D70000000004040407F0000000000040202020A
:102D8000040000000000000000000000000000003F
:102D9000000080808080808080800002020400002B
:102DA0000000000000000000000000008080808023
:102DB00000000019242222223F2008F80080800011
:102DC0000000003F112020110E00000000808080D4
:102DD0000000000E112020201100000000808088DB
:102DE000F800000E112020103F200000808080801D
:102DF0000000001F222222221300008080F0888819
:102E000088180020203F2020000000008080808063
:102E10008000006B94949493600008F80080808098
:102E20000000203F210000203F20008098980000F3
:102E300000000020203F2020000000000080989823
:102E4000000000C08080807F000008F800008080C3
:102E50008000203F24022D302000000808F80000E8
:102E600000000020203F20200000808080808080A3
:102E70008000203F20003F20003F80800080808035
:102E80000000203F210000203F2000008080808043
:102E90000000001F202020201F0080800080800074
:102EA000000080FFA12020110E0000000080808023
:102EB0008000000E112020A0FF8080808000808094
:102EC000800020203F2120000100000080808080C1
:102ED00080000033242424241900008080E08080B6
:102EE00000000000001F2020000080800000008003
:102EF0008000001F202020103F2080808000008064
:102F0000808000010E300806010080800080008073
:102F100080800F300C030C300F0000808000808018
:102F200080000020312E0E31200080808000008043
:102F3000808080818E7018060100008080808080F3
:102F400080000021302C2221300000000000807C15
:102F5000020200000000003F404000000000FF00AF
:102F6000000000000000FF0000000002027C800062
:102F700000000040403F0000000000060101020286
:102F8000040400000000000000001060028C00003B
:102F9000FE9292929292FE00000004047E01407E16
:102FA00042427E427E42427E40000000FC242424B5
:102FB000FC252624FC242424040040308F80844CEB
:102FC00055252525554C808080001060028C00FE20
:102FD000929292929292FE00000004047E01444874
:102FE000507F40407F50484440000000FC2424248F
:102FF000FC252624FC242424040040308F80844CAB
:1030000055252525554C80808000060909E6F80CD9
:10301000040202020202041E0000000000071F302A
:1030200020404040404020100000000002400000CE
:10303000000000A00000000005400000000000C8E3
:10304000000000000C4000000000409C0000000058
:10305000194000000020BCBE000000003440000009
:10306000BFC91B8E00000004B5400000504BCFD0FC
:103070006607E2CF010000006C4100003E8251AAC9
:10308000DFEEA73401000000D9420000DCB5A0E269
:103090003A301F97FFFFFFFFB4450000FD25A0C891
:1030A000E9A3C14FFFFFFFFFFF3F000000000080CA
:1030B00000000000FF3F0000000000800000000052
:1030C000FC30000800000020180000002801000863
:1030D00014310008180000207006000044010008A8
:1030E0001C00000043000000F8FFFFFF0C00000080
:1030F0000E0000000F0000002E0000000000000085
:1031000000000000010000001000000000000000AE
:043110000024F400A3
:04000005080000ED02
:00000001FF
