:020000040800F2
:10000000485A00204501000881510008EB450008CE
:100010007D510008A10C00080590000800000000B8
:1000200000000000000000000000000099640008CB
:10003000E30C000800000000775500089B640008EE
:100040005F0100085F0100085F0100085F01000810
:100050005F0100085F0100085F0100085F01000800
:100060005F0100085F0100085F0100085F010008F0
:100070005F0100085F0100085F0100085F010008E0
:100080005F0100085F0100085F010008598E000849
:10009000698E00085F0100085F0100085F01000829
:1000A0005F010008396500085F0100085F01000872
:1000B0005F0100085F0100085F0100085F010008A0
:1000C0005F0100085F0100085F0100085F01000890
:1000D0005F0100085F0100085F0100085F01000880
:1000E0005F010008A15500085F0100085F010008DA
:1000F0005F0100085F0100085F0100085F01000860
:100100005F0100085F0100085F0100085F0100084F
:100110005F0100085F0100085F0100085F0100083F
:100120005F0100085F0100085F0100085F0100082F
:10013000DFF80CD000F094FC004800476DC60008C2
:10014000485A00200648804706480047FEE7FEE779
:10015000FEE7FEE7FEE7FEE7FEE7FEE7FEE7FEE777
:100160003565000831010008202A04DB203A21FA15
:1001700002F00021704721FA02F3D040C2F12002C0
:10018000914008431946704740EA01039B0703D09A
:1001900009E008C9121F08C0042AFAD203E011F8C6
:1001A000013B00F8013B521EF9D27047D2B201E088
:1001B00000F8012B491EFBD270470022F6E710B56C
:1001C00013460A4604461946FFF7F0FF204610BDC5
:1001D000F0B480EA0102D40F4200B2EB410F02D228
:1001E0000246084611464A0042D0C30DDDB2C1F3B3
:1001F000C752AD1A202D35DAC1F3160141F40002C1
:1002000004B15242C5F1200602FA06F12A41104417
:10021000B3EBD05F23D0C4B1012DA0EBC35009DCF8
:10022000F0BC4FF0004202EAC352DBB200F500001E
:1002300000F033BB400000F1807000EBC350A0F130
:10024000807040EAD170490009E0490841EAC07174
:10025000A0EBC35000F50000400800EBC350F0BC19
:1002600000F012BB6142012202EB4101001BF6E7E4
:10027000F0BC704781F00041AAE780F00040A7E79A
:1002800080EA010210B502F00043400022D04A008B
:100290001FD0010E01EB1261C0F35600C2F35602EB
:1002A00040F4000042F40002A0FB022000047F3969
:1002B000140400D0401C50EA124001D44000491EF2
:1002C000C2B20C0604EBD010401C4008802A02D0B9
:1002D00003E0002010BD20F00100002900DA00201A
:1002E000184310BD30B480EA010202F0004530F03E
:1002F000004221F0004013D090B1C30DD40DC2F3E1
:100300001601C0F31600E41A41F4000140F40002A3
:100310007D34914201D3641C00E04900002C02DAD4
:1003200030BC002070474FF400000023914201D3FD
:10033000891A034340084FEA4101F7D151B1914274
:1003400002D14FF0004105E002D24FF0010101E07F
:100350006FF0010103EBC450284430BC00F094BAA4
:100360002DE9FE4F804681EA0300C00F0C46009045
:1003700021F0004123F00045B8EB0200A94105D26D
:100380004046214690461C460B46024623F000405C
:10039000104347D0270DC7F30A00C3F30A51029058
:1003A000401A019040286BDAC3F3130040F4801B1D
:1003B0000098924620B10023D2EB030A63EB0B0BAB
:1003C00001985946C0F14002504600F03CFA0646FA
:1003D0000D4650465946019A00F044FA10EB0800C9
:1003E0006141002487EA115284EAE7731A4340D03E
:1003F000009A62B3019A012A4FEA075215DC001BEA
:1004000061EB02014FF0004202EA0752CDE90042DF
:10041000001C41F5801132462B4600F07BFA03B0F8
:10042000BDE8F08F40462146F9E7001B61EB020171
:10043000001C41F5801300185B412018A2F500173D
:1004400047EB030140EAD570B6196D4111E06D0824
:100450004FEA360645EAC0754FEA0752001B61EBCA
:100460000201001C41F5801149084FEA30000019D3
:10047000514132462B4603B0BDE8F04F00F03BBA85
:100480000098012240000023D0EB020263EBE073EE
:10049000009821464FEAE074B8EB000061EB0401DC
:1004A000E9E783F000435BE781F0004158E72DE97D
:1004B000FE4F81EA030404F0004421F0004100945F
:1004C0004FF0000B23F0004350EA01045ED052EAE3
:1004D00003045BD0C3F30A54C1F30A552C44A4F2BD
:1004E000F3340194A0FB0254C1F3130141F48011D1
:1004F000C3F3130343F4801301FB024400FB034ED8
:10050000840A970A44EA815447EA8357A4FB0768A0
:1005100002958D0A05FB07854FEA932C04FB0C54CA
:100520002705029D4FEA065847EA1637B5EB08053E
:100530006EEB070C870E920E47EA811742EA831290
:10054000A7FB0201B6EB0B0164EB00042B0D43EAA1
:100550000C335E1844EB1C50DA465146E7FB0201AF
:10056000C5F313044FEA0B3343EA14534FEA043242
:10057000019C43EA0603A4F10C040294009CCDE91B
:1005800000B400F0C7F903B0BDE8F08F00200146C9
:10059000F9E72DE9F04D81EA030404F0004B21F066
:1005A000004514464FF0000A23F0004150EA0502CE
:1005B00020D054EA01021DD0C5F30A570246C5F304
:1005C0001303C1F31300C1F30A5640F4801543F43A
:1005D0008013A7EB0608101BD64608F2FD3873EB14
:1005E000050002D308F1010801E092185B41B8F15F
:1005F000000F03DA00200146BDE8F08D00204FF423
:100600008011064684460EE0171B73EB050705D3E1
:10061000121B63EB050306434CEA010C49084FEA41
:10062000300092185B4150EA0107EDD152EA030015
:1006300012D082EA040083EA0501084305D0101BAA
:10064000AB4106D20122002306E000224FF0004316
:1006500002E06FF0010253101AEB06004CEB085158
:1006600010EB0A0041EB0B01BDE8F04D00F043B97F
:10067000C10F80EAE0700844CA079623002100F009
:100680000CB996230022114600F007B90EB540F2CE
:10069000334102910021CDE900110A460B4600F0DA
:1006A00039F903B000BD70B5C1F30A5201F000453D
:1006B0000024C1F3130140F2FF3341F480119A4248
:1006C00001DA002070BD40F233439A42A2F2334275
:1006D00003DC5242FFF748FD00E090402C43F1D08C
:1006E000404270BDC1F30A5210B5C1F3130140F28C
:1006F000FF3341F480119A4201DA002010BD40F22C
:1007000033439A42A2F2334203DC5242FFF72CFDFC
:1007100010BD904010BD00F0004230F000400AD003
:10072000C10D01F56071C0F3160042EA0151C20823
:1007300040071143704700200146704730B5041E42
:1007400071F1000404DB4FF00044404264EB01010E
:10075000141E73F1000405DB1C464FF000435242A7
:1007600063EB04038B4208BF824230BD01F00043BB
:1007700030B421F0004150EA010206D00A0DA2F582
:100780006072C1F31301002A02DC30BC0020704704
:10079000440F44EAC104C100E01830BC00EBC25071
:1007A00000F072B8002801DBC0F10040002901DB35
:1007B000C1F100418142704730B50B46014600202F
:1007C0002022012409E021FA02F59D4205D303FA13
:1007D00002F5491B04FA02F52844151EA2F1010294
:1007E000F1DC30BD2DE9F05F0546002092469B46C6
:1007F00088460646814640241BE028464146474637
:100800002246FFF7B1FC53465A46C01A914110D315
:1008100011461846224600F016F82D1A67EB01081B
:100820004F4622460120002100F00DF817EB000989
:100830004E41201EA4F10104DFDC484631462A4621
:100840004346BDE8F09F202A04DB203A00FA02F17B
:10085000002070479140C2F1200320FA03F31943AE
:1008600090407047202A06DBCB17203A41FA02F06D
:1008700043EAE07306E041FA02F3D040C2F12002FD
:1008800091400843194670470029A8BF7047401C93
:10089000490008BF20F00100704710B4B0FA80FC96
:1008A00000FA0CF050EA010404BF10BC704749B1D3
:1008B000CCF1200421FA04F411FA0CF118BF012143
:1008C00021430843A3EB0C01CB1D4FEA00614FEA23
:1008D000102042BF002010BC704700EBC3501044F2
:1008E0000029A4BF10BC7047401C490008BF20F07D
:1008F000010010BC704710B5141E73F1000408DA33
:10090000401C41F1000192185B411A4301D120F0D3
:10091000010010BD2DE9F04D92469B4611B1B1FA90
:1009200081F202E0B0FA80F220329046FFF78BFFAE
:1009300004460F4640EA0A0041EA0B0153465A4674
:10094000084313D0114653EA010019D0C8F1400200
:100950005046FFF709FC05460E46504659464246AA
:10096000FFF771FF084305D0012004E02046394617
:10097000BDE8F08D0020054346EAE0762C4337437E
:100980000A986305E40AA0EB08000022FD0A44EA85
:1009900047540A3002D500200146E9E70105101945
:1009A0006941DDE9084500196941BDE8F04DA2E75C
:1009B00070B521F0004303430CD0C1F30A55002465
:1009C000D5EB040564EB0403D617AD1AB34102DB83
:1009D0000020014670BD201841EB025170BD0EB5DC
:1009E000C10F80EAE0700844CA07002140F2334397
:1009F0008DE80E000A460B46FFF78CFF03B000BDE2
:100A0000C1F30A52C1F3130140F2FF3341F48011E4
:100A10009A4202DA00200146704740F233439A427C
:100A2000A2F2334202DC5242FFF79EBBFFF70BBF3C
:100A300030B5041E71F1000404DB4FF00044404265
:100A400064EB0101141E73F1000405DB1C464FF03A
:100A50000043524263EB0403994208BF904230BD09
:100A6000064C074D06E0E06840F0010394E80700FB
:100A700098471034AC42F6D3FFF75EFBF4D1000880
:100A800014D2000870B58C1810F8015B15F007033C
:100A900001D110F8013B2A1106D110F8012B03E017
:100AA00010F8016B01F8016B5B1EF9D12B0705D41F
:100AB0000023521E0DD401F8013BFAE710F8013B68
:100AC000CB1A921C03E013F8015B01F8015B521E84
:100AD000F9D5A142D8D3002070BD70B504460025D9
:100AE0002068806800F0010018B32068806820F05A
:100AF00001002168886000F0E7FE054613E000F081
:100B0000E3FE401B02280ED92068806800F0010037
:100B100048B1A06A40F01000A062E06A40F0010015
:100B2000E062012070BD2068806800F001000028AC
:100B3000E5D10020F6E7000038B504460025002086
:100B400000902068806800F0010078BB2068806811
:100B500040F0010021688860194800681949B0FB1D
:100B6000F1F0009002E00098401E009000980028EC
:100B7000F9D100F0A9FE054619E000F0A5FE401BE2
:100B8000022814D92068806800F0010078B9A06AB2
:100B900040F01000A062E06A40F00100E06200BF97
:100BA000002084F8240000BF012038BD05E0206843
:100BB000806800F001000028DFD00020F5E7000089
:100BC0002001002040420F0070B50446204600F08E
:100BD00013F8084800F0F4FB4FF47A71054800F070
:100BE0002FFB044800F040FA0546024800F080FC64
:100BF000284670BD6C2A00203EB5044600200090B7
:100C00000190029000940120019004200290694616
:100C1000034800F079F908B100F099F83EBD0000F2
:100C20006C2A00202DE9F04704464FF0000994F8A3
:100C300000904FF6FF7000EA0929607848441FFAD7
:100C400080F94846FFF722FD07464FF03332054B47
:100C5000FFF79FFC0546FFF726FD1FFA80F948467F
:100C6000BDE8F0873333F33F38B504464FF6FF70E5
:100C70000223224647210090014800F013FF38BDAF
:100C80009C2A002001B582B04FF6FF70012302AA12
:100C900046210090014801F0B1F80EBD9C2A0020C9
:100CA00000BFFEE730B502460B460024002118467F
:100CB00000BF13E0555C684000240BE000F08005A5
:100CC00025B1312585EA4005E8B201E04506280E48
:100CD000651CECB2082CF1DB4D1CE9B20229E9DB02
:100CE00030BD70472DE9F04704460D46C4F30F3779
:100CF0006019C0F30F38A8EB07001FFA80F900262F
:100D000006E0204600F008F804F6FF74701C86B276
:100D10004E45F6DDBDE8F08710B5044608F09FF9B2
:100D200008F094F908F07AF920200CF0B3F8C4F335
:100D300007400CF0AFF8C4F307200CF0ABF8E0B2BA
:100D40000CF0A8F808F060F908F080F910BD72B650
:100D500000BFFEE730B504460D4600222946204676
:100D600000F002F830BD0000F0B503460125002474
:100D70001148407A01281CDC00200F4E767A0E4F75
:100D8000B8553846467A001D40F82630001F467A8E
:100D9000083082553E46707A461C7E72044604F145
:100DA000300008703A2048702F2088700020C870EA
:100DB00000252846F0BD00002C4A002070B50A48E6
:100DC0000468001D0568001D0668344454B10822FB
:100DD0000649204603F067FE0422044910312846E4
:100DE00003F061FE70BD0000E8F7FF1FD600002091
:100DF000F8B5044600260020009000BF94F82400B7
:100E0000012801D10220F8BD012084F8240000BF90
:100E10002046FFF762FE0646002E6CD1A06A20F441
:100E2000885040F00200A062022002F05BF93549D0
:100E30000968B1FBF0F04000009002E00098401E0D
:100E4000009000980028F9D12046FFF775FE206831
:100E5000806840F008002168886000F035FD054694
:100E600016E000F031FD401B0A2811D92068806887
:100E700000F0080060B1A06A20F0020040F010000D
:100E8000A06200BF002084F8240000BF0120BAE760
:100E90002068806800F008000028E2D1206880689F
:100EA00040F004002168886000F00EFD054616E061
:100EB00000F00AFD401B0A2811D92068806800F064
:100EC000040060B1A06A20F0020040F01000A062AF
:100ED00000BF002084F8240000BF012093E72068B1
:100EE000806800F004000028E2D1A06A20F002002F
:100EF00040F00100A06200BF002084F8240000BF81
:100F0000304680E72001002038B50246002300204B
:100F1000009000BF92F82400012801D1022038BDC2
:100F2000012082F8240000BF4868072812D2106808
:100F3000406B0C79641E04EB84051F24AC40A04375
:100F40000D796D1E05EB85050C68AC4020431468D7
:100F5000606327E048680D2812D21068006B0C7996
:100F6000E41F04EB84051F24AC40A0430D79ED1F62
:100F700005EB85050C68AC4020431468206311E044
:100F80001068C06A0C790D3C04EB84051F24AC404A
:100F9000A0430D790D3D05EB85050C68AC40204361
:100FA0001468E06208680A2812D31068C0680C78D8
:100FB0000A3C04EB44050724AC40A0430D780A3DED
:100FC00005EB45058C68AC4020431468E0600FE0F9
:100FD000106800690C7804EB44050724AC40A0437A
:100FE0000D7805EB45058C68AC4020431468206102
:100FF0000868102802D00868112827D1174C1068FB
:10100000A0421ED11068806800F40000F0B910689A
:10101000806840F400001468A0600868102815D1AA
:101020000F4800680F4CB0FBF4F000EB800040006C
:10103000009002E00098401E009000980028F9D12E
:1010400004E0906A40F020009062012300BF00207D
:1010500082F8240000BF184661E700000024014028
:101060002001002040420F0001460868C06C704714
:101070002DE9F0410446002700250026A84614B9B2
:101080000120BDE8F081A06810B1207D00B100BF53
:10109000A06A30B90020E06284F82400204600F005
:1010A00097F82046FFF719FD0746A06A00F01000E8
:1010B000002873D1002F7ED1A06A20F4885040F020
:1010C0000200A0623F4AD4E90001904208D1E069E1
:1010D000B0F5402F02D14FF4002002E0E06900E0BB
:1010E000E0690143207B41EA40000643A068B0F577
:1010F000807F02D0A068012802D14FF4807000E008
:1011000000200543207D012811D1207B38B9A0693A
:10111000401E4FF4006141EA4030054307E0A06AF9
:1011200040F02000A062E06A40F00100E062206828
:10113000406820F46940284321684860206880683E
:1011400021490840304321688860A068B0F5807F5D
:1011500002D0A068012802D14FF4807000E0002086
:10116000B0F5807F03D1208A401E4FEA00582068E6
:10117000C06A20F4700040EA08002168C862206854
:10118000806812490840B04209D10020E062A06A9C
:1011900020F0020040F00100A06211E00BE0A06A24
:1011A00020F0020040F01000A062E06A40F0010070
:1011B000E062012704E0A06A40F01000A06201276D
:1011C00038465EE7003C0140FDF7E1FFFE0E1FFFE1
:1011D00010B586B00446002002900390049005905C
:1011E00014492068884222D100BF1348806940F426
:1011F0000070114988610846806900F40070019010
:1012000000BF00BF00BF0846806940F0040088614D
:101210000846806900F00400019000BF00BF022072
:1012200002900320039002A9044800F095F906B04B
:1012300010BD0000002401400010024000080140E1
:10124000F8B504460D46002600200090002700F067
:101250003BFB06462068806800F4807050B1A06AAD
:1012600040F02000A06200BF002084F8240000BFEE
:101270000120F8BD2068406800F4807020BB206821
:10128000C06A00F47000F8B917E0681CA8B125B175
:1012900000F01AFB801BA8420FD92068006800F0FC
:1012A000020050B9A06A40F00400A06200BF002014
:1012B00084F8240000BF0320DBE72068006800F00A
:1012C00002000028E1D053E0022001F00BFF384972
:1012D0000968B1FBF0F021680969364A114091B9FB
:1012E0002168C9689211114069B921680969324AB7
:1012F000114031B92168C9689211114009B914210E
:1013000017E0292115E0216809692B4A114021B90C
:101310002168C9689211114041B121680969274AC1
:10132000114029B92168C968114009B9542100E068
:10133000FC2100FB01F718E0681C98B125B100F012
:10134000C3FA801BA8420DD90098B8420AD2A06AFD
:1013500040F00400A06200BF002084F8240000BF19
:10136000032086E70098401C00900098B842E3D321
:101370006FF0120021680860A06A40F40070A0625B
:101380002068806800F46020B0F5602F0DD1207BCC
:1013900058B9A06A20F48070A062A06A00F480505E
:1013A00018B9A06A40F00100A062002061E70000C7
:1013B00020010020244992249224491249922400B9
:1013C00070B50446002500BF94F82400012801D11F
:1013D000022070BD012084F8240000BF2046FFF7E2
:1013E000ABFB0546002D77D1A06A40F2012188436E
:1013F00040F48070A0623C492068884208D13B4894
:10140000006800F4702008B9012002E0002000E02C
:10141000012078B1A06A20F48010A06220684068A2
:1014200000F4806000B3A06A20F4005040F48050C3
:10143000A06219E0A06A40F48010A0622B49091F45
:101440002068884203D028492068884204D1274870
:10145000006800F4806000E0002028B1A06A20F459
:10146000005040F48050A062A06A00F4805020B187
:10147000E06A20F00600E06201E00020E06200BFC8
:10148000002084F8240000BFC01E21680860206886
:10149000806800F46020B0F5602F16D112492068F2
:1014A000884208D11148006800F4702008B9012072
:1014B00002E0002000E0012038B12068806840F49C
:1014C000A000216888600CE006E02068806840F495
:1014D00080102168886004E000BF002084F82400A8
:1014E00000BF284675E700000028014004240140A1
:1014F00070B50446002500BF94F82400012801D1EE
:10150000022070BD012084F8240000BF2046FFF7B0
:10151000E4FA05462DB9A06A20F4885040F0010095
:10152000A06200BF002084F8240000BF2846E8E73E
:1015300070B5044600F0C8F906462546681C10B18F
:1015400004480078054400BF00F0BEF9801BA842A3
:10155000FAD370BD1C0100202DE9F8470246002394
:101560009C467BE14FF0010808FA03F4D1F80080B3
:1015700008EA0400A0427DD1DFF8F4A2D1F804808B
:10158000A8EB0A09D0453AD014DCB8F1030F50D0CB
:1015900009DCB8F1000F31D0B8F1010F1CD0B8F15F
:1015A000020F49D120E0B8F1110F18D0B8F1120F95
:1015B00042D11EE0B9F5881F25D006DCB9F5803F81
:1015C00020D0B9F5801F37D11AE0B9F5001F18D027
:1015D000B9F5041F30D117E0D1F80CC02DE0D1F8D7
:1015E0000C8008F1040C28E0D1F80C8008F1080CFC
:1015F00023E0D1F80C8008F10C0C1EE000BF00BF06
:1016000000BF00BF00BF00BFD1F80880B8F1000FD5
:1016100002D14FF0040C0BE0D1F80880B8F1010FB3
:1016200003D14FF0080C146102E04FF0080C546134
:1016300003E04FF0000C00E000BF00BFFF2801D81E
:10164000904601E002F104084646FF2802D84FEA1E
:10165000830803E0A3F108084FEA88084746D6F854
:1016600000804FF00F0909FA07F928EA09080CFA77
:1016700007F900E07AE048EA0908C6F80080D1F8E6
:10168000048008F08058B8F1805F6FD100BFDFF8A8
:10169000E481D8F8188048F00108DFF8D891C9F83B
:1016A0001880C846D8F8188008F00108CDF80080E6
:1016B00000BF00BF4FEAB9384FEA930958F82950E4
:1016C0004FEA83784FEA18794FF00F0808FA09F8C3
:1016D00025EA0805DFF8A081424502D14FF0000855
:1016E00024E0DFF89881424502D14FF001081DE067
:1016F000DFF88C81424502D14FF0020816E0DFF896
:101700008481424502D14FF003080FE0DFF8788171
:10171000424502D14FF0040808E0DFF870814245ED
:1017200002D14FF0050801E04FF006084FEA837937
:101730004FEA197908FA09F848EA0505DFF85081F7
:101740004FEA930948F82950D1F8048008F480380A
:10175000B8F5803F0BD1DFF83C81D8F8008048EA2B
:101760000008DFF83091C9F800800AE075E0DFF882
:101770002481D8F8008028EA0008DFF81891C9F819
:101780000080D1F8048008F40038B8F5003F0ED18D
:10179000DFF8008108F10408D8F8008048EA000862
:1017A000DFF8F09009F10409C9F800800DE0DFF8D6
:1017B000E48008F10408D8F8008028EA0008DFF87F
:1017C000D49009F10409C9F80080D1F8048008F424
:1017D0008018B8F5801F0ED1DFF8B88008F108082E
:1017E000D8F8008048EA0008DFF8A89009F1080955
:1017F000C9F800800DE0DFF89C8008F10808D8F8EF
:10180000008028EA0008DFF88C9009F10809C9F87F
:101810000080D1F8048008F40018B8F5001F0ED13C
:10182000DFF8708008F10C08D8F8008048EA00085A
:10183000DFF8609009F10C09C9F800800DE0DFF8CD
:10184000548008F10C08D8F8008028EA0008DFF876
:10185000449009F10C09C9F800805B1CD1F80080A4
:1018600028FA03F8B8F1000F7FF47CAEBDE8F887E2
:10187000000011100010024000080140000C01405F
:10188000001001400014014000180140001C0140FC
:101890000800014000040140024693680B400BB170
:1018A000012000E00020704710B5C26821EA020361
:1018B00002EA010443EA0443036110BD0AB1016175
:1018C00001E00B04036170470148006870470000A5
:1018D0001401002070B504460CB9012070BD94F8C5
:1018E0003D0028B9002084F83C00204600F03EFB73
:1018F000242084F83D002068006820F00100216861
:1019000008602068006840F4004021680860206892
:10191000006820F400402168086001F0E1FD054600
:101920005C496068884206D85B48854201D2012044
:1019300007E0002005E05948854201D2012000E07F
:101940000020012800D1C9E75548B5FBF0F6206812
:10195000406820F03F003043216848604D4960688E
:10196000884201D8701C07E04FF4967070434FF422
:101970007A71B0FBF1F0401C2168096A21F03F0147
:1019800008432168086243496068884214D8681E89
:1019900061684900B0FBF1F0401CC0F30B00042863
:1019A00001D204203DE0681E61684900B0FBF1F0FF
:1019B000401CC0F30B0034E0A06838B9681E6168B1
:1019C00001EB4101B0FBF1F0401C0AE0681E6168C8
:1019D00001EBC10202EB0111B0FBF1F0401C40F43D
:1019E0008040C0F30B0008B901201AE0A06848B994
:1019F000681E616801EB4101B0FBF1F0401CC0F3CF
:101A00000B000CE0681E616801EBC10202EB0111E2
:101A1000B0FBF1F0401CC0F30B0040F4804040F4F8
:101A200000402168C9694CF6FF7291430843216860
:101A3000C861D4E9070108432168096821F0C001A1
:101A4000084321680860D4E90310084321688968C5
:101A500048F2FF329143084321688860D4E90501C8
:101A600008432168C96821F0FF0108432168C86064
:101A70002068006840F001002168086000202064B0
:101A8000202084F83D000020206384F83E0000BF41
:101A900024E70000A086010080841E0000093D00AC
:101AA00040420F002DE9FC470446894617469846F8
:101AB0000A9E00200190FFF707FF054694F83D00BD
:101AC00020286FD119230122C8492046009502F031
:101AD000D7FE10B10220BDE8FC8700BF94F83C009F
:101AE000012801D10220F6E7012084F83C0000BF64
:101AF0002068006800F0010028B92068006840F004
:101B00000100216808602068006820F400602168F6
:101B10000860222084F83D00102084F83E00002058
:101B200020646762A4F82A80608D2085B048E06256
:101B30002B4632464946204602F078FD08B1012086
:101B4000C9E7208D88B900BF002000902068406957
:101B5000009020688069009000BF00BF2068006886
:101B600040F40070216808604BE0208D01281AD1F4
:101B70002068006820F480602168086072B600BFA9
:101B800000200090206840690090206880690090E3
:101B900000BF00BF2068006840F400702168086042
:101BA00062B62EE020E1208D022819D1206800685D
:101BB00040F400602168086072B600BF0020009009
:101BC00020684069009020688069009000BF00BFD5
:101BD0002068006820F480602168086062B610E028
:101BE0002068006840F480602168086000BF002021
:101BF000009020684069009020688069009000BFD4
:101C000000BFE2E0208D03287ED8208D012815D169
:101C10002A463146204602F0D8FE08B101205AE794
:101C200020680069616A0870606A401C6062208DEB
:101C3000401E2085608D401E6085C6E0208D0228F4
:101C40002CD1334600226B492046009502F018FE45
:101C500008B101203FE772B62068006840F40070C8
:101C60002168086020680069616A0870606A401C29
:101C70006062208D401E2085608D401E608562B6AA
:101C800020680069616A0870606A401C6062208D8B
:101C9000401E2085608D401E608596E03346002200
:101CA00054492046009502F0EBFD08B1012012E7EF
:101CB0002068006820F480602168086072B620689F
:101CC0000069616A0870606A401C6062208D401E75
:101CD0002085608D401E6085474800681921B0FB53
:101CE000F1F04FF47A71B0FBF1F0C0EBC00000EB03
:101CF0008000019000BF0198401E01900198A8B992
:101D000000202063202000E038E084F83D0000201F
:101D100084F83E00206C40F02000206462B600BFD2
:101D2000002084F83C0000BF0120D4E62068406910
:101D3000C0F380000028DED02068006840F4007006
:101D40002168086020680069616A0870606A401C48
:101D50006062208D401E2085608D401E608562B6C9
:101D600020680069616A0870606A401C6062208DAA
:101D7000401E2085608D401E608526E02A46314643
:101D8000204602F022FE08B10120A4E62068006986
:101D9000616A0870606A401C6062208D401E208568
:101DA000608D401E608520684069C0F3800060B18E
:101DB00020680069616A0870606A401C6062208D5A
:101DC000401E2085608D401E6085208D00287FF498
:101DD00019AF202084F83D00002084F83E0000BFA9
:101DE00084F83C0000BF76E6022074E60200100092
:101DF0000000FFFF04000100200100202DE9F8434E
:101E00000446894616461F46DDF82080FFF75CFD34
:101E1000054694F83D0020287ED11923012251491E
:101E20002046009502F02CFD10B10220BDE8F88399
:101E300000BF94F83C00012801D10220F6E7012000
:101E400084F83C0000BF2068006800F0010028B959
:101E50002068006840F00100216808602068006880
:101E600020F4006021680860212084F83D001020E3
:101E700084F83E000020206466626785608D2085BE
:101E80003948E0622B4642464946204602F06AFC49
:101E900008B10120CAE700BF002000902068406917
:101EA000009020688069009000BF00BF44E02A468F
:101EB0004146204602F0C9FD50B1206C042805D1EE
:101EC0002068006840F40070216808600120ADE7D8
:101ED000606A007821680861606A401C6062608DF9
:101EE000401E6085208D401E208520684069C0F31B
:101EF000800070B1208D60B1606A0078216808614F
:101F0000606A401C6062608D401E6085208D401EAE
:101F100020852A46414600E022E0204602F082FC6D
:101F200050B1206C042805D12068006840F400708E
:101F300021680860012079E7208D0028B7D120684A
:101F4000006840F4007021680860202084F83D009B
:101F5000002084F83E0000BF84F83C0000BF65E725
:101F6000022063E7020010000000FFFF10B586B0FA
:101F700004460020029003900490059015492068C3
:101F8000884225D100BF1448806940F008001249FA
:101F900088610846806900F00800019000BF00BF1A
:101FA000C0200290122003900320059002A90B4844
:101FB000FFF7D2FA00BF0848C06940F40010064994
:101FC000C8610846C06900F40010019000BF00BF5E
:101FD00006B010BD0054004000100240000C01404B
:101FE00070B504460CB9012070BD4CF6CC40216898
:101FF000086045F2555021680860D4E90010486037
:102000002168A0688860FFF75FFC05460BE0FFF7DA
:102010005BFC401B272806D92068C06800F003003D
:1020200008B10320E0E72068C06800F00300002842
:10203000EDD14AF6AA20216808600020D4E70146C5
:102040004AF6AA200A68106000207047034800681A
:1020500003490978084401490860704714010020C9
:102060001C01002010B50848006840F01000064927
:102070000860032000F0A8F80F2000F007F800F037
:102080002BF8002010BD00000020024070B504466F
:102090000E4800784FF47A71B1FBF0F00C490968F2
:1020A000B1FBF0F5284601F03EFF08B1012070BDFC
:1020B000102C07D200222146501E00F047F8054898
:1020C000046001E00120F2E70020F0E71C0100209D
:1020D000200100201801002008B500BF11488069C8
:1020E00040F001000F4988610846806900F0010056
:1020F000009000BF00BF00BF0846C06940F080509C
:10210000C8610846C06900F08050009000BF00BF61
:1021100000BF0549486820F0E06040F0007048606A
:1021200000BF08BD00100240000001400146084603
:10213000002809DB00F01F0301229A4043099B009D
:1021400003F1E023C3F8002100BF70472DE9F05FE1
:1021500080460D461646002706F0F8FF074639462A
:102160002A46334601F00700C0F1070ABAF1040F0E
:1021700002D94FF0040A01E0C0F1070AD14600F18C
:10218000040ABAF1070F02D24FF0000A01E0A0F1F1
:10219000030AD4464FF0010A0AFA09FAAAF1010A21
:1021A0000AEA020A0AFA0CFA4FF0010B0BFA0CFBCE
:1021B000ABF1010B0BEA030B4AEA0B042146404644
:1021C00006F0CCFFBDE8F09F00BF00F00702064B11
:1021D00019684FF6FF031940044B0B4343EA0221F1
:1021E000014B196000BF70470CED00E00000FA05DC
:1021F00070B505460C4604F08000802808D104F034
:10220000070000EB800605F1280000EBC60105E0A1
:1022100004EB840605F5B47000EBC6011AB9002082
:102220000873CB8004E0012008730B81180C4881EF
:10223000002070BD704770B504460D4605EB850360
:1022400004F1280101EBC3014A692946D4F8E802E8
:1022500004F0B0FD70BD70B504460D4605EB850376
:1022600004F5B47101EBC3014A692946D4F8E802C8
:1022700004F020FE70BD70B504460E4606F08000E6
:1022800080280AD106F0070000EB800104F1280045
:1022900000EBC1050120687009E006F0070000EBC3
:1022A000800104F5B47000EBC1050020687006F0F1
:1022B0000700287000BF94F8A802012801D102206D
:1022C00070BD012084F8A80200BF2946206805F0EF
:1022D000F7FD00BF002084F8A80200BF00BFEFE7B1
:1022E00070B504460E4606F00F006168884201D9B9
:1022F000012070BD06F0800080280AD106F007009A
:1023000000EB800104F1280000EBC105012068709A
:1023100009E006F0070000EB800104F5B47000EB63
:10232000C105002068700020A87006F00700287022
:1023300000BF94F8A802012801D10220D9E70120AA
:1023400084F8A80200BF2946206805F015FF00BFE9
:10235000002084F8A80200BF00BFCAE72DE9F041C1
:1023600005460C46174607F48040002850D02868E0
:10237000B0F85010207801EBC000801C296801F5EE
:10238000806131F81000C0F30906A069B04203D3A0
:10239000A069801BA06101E00020A061A069A8B92C
:1023A00000BF22785200296831F812104BF68F7264
:1023B00001EA020080F4005040F4004141F0800145
:1023C00023785B002A6822F8131000BF07F0400052
:1023D000A8B100BF00BF22785200296831F812105E
:1023E00048F68F7201EA020040F4004141F0C0015A
:1023F00023785B002A6822F8131000BF00BF002E6C
:1024000055D0228961693346286806F03DFD4EE0CB
:102410002868B0F85010207801EBC000801D2968B2
:1024200001F5806131F81000C0F30906A069B042DF
:1024300003D3A069801BA06101E00020A061A06916
:10244000A8B900BF22785200296831F812104BF663
:102450008F7201EA020080F4005040F4004141F024
:10246000800123785B002A6822F8131000BF07F070
:102470004000A8B900BF00BF22785200296831F897
:10248000121048F68F7201EA020040F4004141F058
:10249000C00123785B002A6822F8131000BF00BF38
:1024A0002EB1628961693346286806F0EDFC30463A
:1024B000BDE8F0812DE9F04705460C46904608F04E
:1024C0004000002871D02868B0F85010207801EB47
:1024D000C000801C296801F5806131F81000C0F34C
:1024E0000907A069B84203D9A069C01BA06101E037
:1024F0000020A061A06900287ED100BF6078C8B923
:1025000000BF29682A68B2F85020114422780223BB
:1025100003EBC20201F5806303EB420000BF0288B7
:1025200048F2FF331A400280028842F400420280DF
:1025300000BF13E06078012810D100BF28682A6826
:10254000B2F8502010442278022303EBC20200F5B7
:10255000806303EB420100220A8000BF00BF00BF7E
:102560002968607810BB00BF2B68D5F800C0BCF8A4
:1025700050C0634494F800C04FF0060909EBCC0C3E
:1025800003F5806909EB4C0000BFB0F800C048F2C9
:10259000FF390CEA090CA0F800C0B0F800C04CF4F8
:1025A000004CA0F800C000BF11E0C0E06078012836
:1025B0000DD12868B0F8500001442078062303EBC1
:1025C000C00001F5806303EB40020020108000BFD3
:1025D00021782846FFF72FFE08F48040002816D007
:1025E00000BF00BF22785200296831F8121048F667
:1025F0008F7201EA020000E00AE040F4004141F479
:10260000814123785B002A6822F8131000BFCAE1D9
:1026100008F48040A8B100BF00BF227852002968AA
:1026200031F8121048F68F7201EA020040F40041BE
:1026300041F4814223785B00296821F8132000BF10
:1026400000BF94F824000128E1D16069384460613A
:10265000E0693844E0612169206A884204D3266930
:10266000206A801B20620BE0206A20B93E460020D1
:1026700084F8240004E0002084F82400266A206204
:1026800000BF6078B8BB00BF2A682968B1F8501055
:102690000A442178022303EBC10102F5806303EBB6
:1026A0004101084600BF56B9038848F2FF3C03EADF
:1026B0000C030380038843F40043038019E03E2E9B
:1026C0000BD800BF710806F0010303B1491C4FF697
:1026D000FF7303EA812303800BE000BF710906F05A
:1026E0001F0303B9491E4FF4004343EA81230380CB
:1026F00000BF00BF13E0FFE7607801280FD100BFE3
:1027000028682A68B2F8502010442278022303EB8C
:10271000C20200F5806303EB42010E8000BF00BFE0
:10272000B3B222896169286806F0DDFB3BE12868C5
:10273000B0F85010207801EBC000801D296801F529
:10274000806131F81000C0F30907A069B84203D3D3
:10275000A069C01BA06101E00020A061A069002861
:102760007DD100BF6078C8B900BF29682A68B2F877
:10277000502011442278022303EBC20201F580634A
:1027800003EB420000BF028848F2FF331A40028088
:10279000028842F40042028000BF13E06078012802
:1027A00010D100BF28682A68B2F85020104422785F
:1027B000022303EBC20200F5806303EB4201002217
:1027C0000A8000BF00BF00BF2968607808BB00BF57
:1027D0002B68D5F800C0BCF850C0634494F800C022
:1027E0004FF0060909EBCC0C03F5806909EB4C00AE
:1027F00000BFB0F800C048F2FF390CEA090CA0F89D
:1028000000C0B0F800C04CF4004CA0F800C000BFFD
:1028100010E0607801280DD12868B0F8500001441C
:102820002078062303EBC00001F5806303EB400230
:102830000020108000BF21782846FFF7FCFC08F438
:102840008040002816D100BF00BF227852002968BE
:1028500031F8121048F68F7201EA020000E00AE037
:1028600040F4004141F4814123785B002A6822F85A
:10287000131000BF97E008F48040A8B900BF00BF64
:1028800022785200296831F8121048F68F7201EA56
:10289000020040F4004141F4814123785B002A6842
:1028A00022F8131000BF00BF94F8240001287AD149
:1028B000606938446061E0693844E0612169206AF8
:1028C000884204D32669206A801B20620BE0206ABC
:1028D00020B93E46002084F8240004E0266A002047
:1028E000206284F8240000BF2A68607890BB00BF93
:1028F000D5F800C02968B1F850108C4421784FF009
:10290000060909EBC1010CF5806909EB4101084694
:1029100000BF76B9B0F8009048F2FF3A09EA0A0918
:10292000A0F80090B0F8009049F40049A0F8009099
:1029300020E03E2E0FD800BF710806F00109B9F162
:10294000000F00D0491C4FF6FF7909EA8129A0F851
:1029500000900FE010E000BF710906F01F09B9F107
:10296000000F00D1491E4FF4004949EA8129A0F81F
:10297000009000BF00BF0FE0607801280CD12868EC
:10298000B0F8500002442078062101EBC00002F5A7
:10299000806101EB40031E8000BFB3B262896169B0
:1029A000286806F0A0FA00BF22785200296831F8A2
:1029B000121048F6BF7201EA020080F0100080F0A9
:1029C000200040F4004141F0800123785B002A6838
:1029D00022F8131000BF0020BDE8F08770B5044650
:1029E0000D4600BF94F8A802012801D1022070BD55
:1029F000012084F8A80200BF05F08000802805D1DE
:102A000005F00701206806F023FA02E0206806F0CE
:102A10001CFA00BF002084F8A80200BF00BFE6E750
:102A2000024601F0070000EB800302F5B47000EBF2
:102A3000C300C06970472DE9F04705460E46904631
:102A40001F464FF0000906F0800080280AD106F0EA
:102A5000070000EB800105F1280000EBC104012014
:102A6000607009E006F0070000EB800105F5B47026
:102A700000EBC1040020607006F007002070C4F86D
:102A80001080E770607808B12078E081022F01D1D2
:102A90000020207100BF95F8A802012802D1022071
:102AA000BDE8F087012085F8A80200BF214628680C
:102AB00004F0DCFF00BF002085F8A80200BF4846F4
:102AC000EEE72DE9F04105460E461746984606F01A
:102AD000070000EB800105F5B47000EBC1046761ED
:102AE000C4F818800020E061607006F007002070D4
:102AF00006F0070020B92146286805F0D8FB03E05E
:102B00002146286805F0D3FB0020BDE8F08170B5B0
:102B100004460D4605F007006168884201D901208E
:102B200070BD05F0800080280AD105F0070000EB99
:102B3000800104F1280000EBC1060120707007E05D
:102B400005EB850104F5B47000EBC1060020707040
:102B50000120B07005F00700307000BF94F8A802A3
:102B6000012801D10220DBE7012084F8A80200BF80
:102B70003146206805F06DFB05F0070020B904F52B
:102B80002C71206805F0F5FA00BF002084F8A80237
:102B900000BF00BFC4E72DE9F04105460E46904650
:102BA0001F4606F0070000EB800105F1280000EB4E
:102BB000C104C4F81480A761012084F824002762AE
:102BC0000020E0610120607006F00700207006F030
:102BD000070020B92146286805F069FB03E021467B
:102BE000286805F064FB0020BDE8F0817FB504464D
:102BF000206806F045F900F40040B0F5004F02D11E
:102C0000204602F0BFFA206806F03AF900F480602E
:102C1000B0F5806F0FD12068B0F844004FF6FF3157
:102C200008402168A1F84400204600F0A7F90021DF
:102C3000204600F0C8F9206806F022F900F4804030
:102C4000B0F5804F08D12068B0F844004BF6FF7112
:102C500008402168A1F84400206806F011F900F44A
:102C60000050B0F5005F08D12068B0F844004DF680
:102C7000FF7108402168A1F84400206806F000F9BF
:102C800000F48050B0F5805F1DD12068B0F840009E
:102C90004FF6FB7108402168A1F840002068B0F8A9
:102CA00040004FF6F77108402168A1F84000204627
:102CB00000F076F92068B0F844004EF6FF71084045
:102CC0002168A1F84400206806F0DAF800F40060FA
:102CD000B0F5006F55D1002507E06900206830F895
:102CE00011002DF81500681CC5B2082DF5D3206819
:102CF000B0F8400040F001002168A1F840002068D1
:102D0000B0F840004FF6FE7108402168A1F840007D
:102D100000BF2068B0F8440000F480600028F8D0BC
:102D20002068B0F844004FF6FF3108402168A1F850
:102D30004400002507E03DF815006A00216821F8ED
:102D40001200681CC5B2082DF5D32068B0F8400009
:102D500040F008002168A1F840002068B0F8440065
:102D60004FF2FF7108402168A1F844002068B0F8D4
:102D7000400040F004002168A1F84000204600F027
:102D800065F9206806F07CF800F40070B0F5007F6B
:102D90000BD12068B0F844004FF6FF51084021687D
:102DA000A1F84400204600F007F9206806F068F812
:102DB00000F48070B0F5807F08D12068B0F844003E
:102DC0004FF6FF6108402168A1F844007FBD30B58F
:102DD00085B0044614B9012005B030BD94F8A902AD
:102DE00028B9002084F8A802204600F09DF80320AE
:102DF00084F8A902206805F0B2F9142204F1100148
:102E00006846FDF7C1F994E80F0005F055F820B1C8
:102E1000022084F8A9020120DEE70021206806F0E4
:102E200058F8002531E0012105EB850204F1280066
:102E300000EBC200417005EB850104F1280000F8A9
:102E4000315005EB850100EBC100C581002105EB88
:102E5000850204F1280000EBC200C17005EB850279
:102E600004F1280000EBC200016105EB850204F1CA
:102E7000280000EBC200416105EB850204F1280047
:102E800000EBC2008161681CC5B26068A842CAD864
:102E900000252AE0002105EB850204F5B47000EB63
:102EA000C200417005EB850104F5B47000F83150A3
:102EB000002105EB850200EBC200C17005EB850225
:102EC00004F5B47000EBC200016105EB850204F566
:102ED000B47000EBC200416105EB850204F5B470EB
:102EE00000EBC2008161681CC5B26068A842D1D8FD
:102EF000142204F110016846FDF746F994E80F002A
:102F000005F022F920B1022084F8A902012063E72C
:102F1000002084F82400012084F8A902206805F02C
:102F200010F9002058E7000038B504461149206820
:102F300088421DD100BF1048C06940F400000E490E
:102F4000C8610846C06900F40000009000BF00BFDF
:102F5000002211461320FFF7F9F81320FFF7E6F8D7
:102F6000002211461420FFF7F1F81420FFF7DEF8D5
:102F700038BD0000005C00400010024070B50446FF
:102F80000125A068022801D0FDF7E1FE2946D4F80A
:102F9000E80204F0CFF8D4F8E80204F081F870BD3C
:102FA00010B50446012003490870D4F8E80204F083
:102FB000A5F810BD1001002010B50446D4F8E802B1
:102FC00004F0A7F810BD70B504460D4600BF94F894
:102FD000A802012801D1022070BD012084F8A802B6
:102FE00000BF84F824502946206805F075FF00BF13
:102FF000002084F8A80200BF00BFEDE710B504462A
:1030000004F52C71D4F8E80204F0ABF810BD10B54B
:10301000044600BF94F8A802012801D1022010BD87
:10302000012084F8A80200BF206805F005FF0121F7
:103030002046FFF7FFF8206805F080F800BF002069
:1030400084F8A80200BF00BFE9E7000010B50446FD
:10305000D4F8E80204F0DEF8A06928B1044800685A
:1030600040F006000249086000200249087010BDC7
:1030700010ED00E010010020002190FAA0F2B2FA59
:1030800082F2034B03EB8202C2F88010704700000B
:1030900000000E42012001490862704700000E4204
:1030A000012190FAA0F2B2FA82F2034B03EB820202
:1030B000C2F880107047000000000E420748006808
:1030C00040F00200054908600548006840F004002F
:1030D0000349086000BF00BF30BF70470070004068
:1030E00010ED00E02DE9F04385B0064642A30FCB7A
:1030F00001AC0FC444A0006800904FF00008002508
:1031000000270024A146042E36D004DC012E3BD03B
:10311000022E6BD15FE0082E32D0102E66D13B48D4
:103120004468006800F0807000B301A8C4F38341D4
:10313000475C04F4803070B134484068C0F34040CC
:103140001DF8008004F4803040B13148B0FBF8F045
:1031500000FB07F502E02F4807FB00F52B4840680D
:1031600000F48000B0F5800F01D1A94603E06800AB
:103170000321B0FBF1F93AE000F0D2F9814636E0E4
:1031800000F0CEF9814632E02048046A04F4407031
:10319000B0F5807F05D104F0020010B14FF4004972
:1031A00018E004F44070B0F5007F07D11748406A7A
:1031B00000F0020010B149F640490BE004F4407001
:1031C000B0F5407F06D11148006800F4003008B126
:1031D0004FF224490BE000F093F90C494968C1F320
:1031E0008131491C4900B0FBF1F900E000BF00BF8C
:1031F000484605B0BDE8F083020304050607080948
:103200000A0B0C0D0E0F10100102000000100240FE
:1032100000127A0000093D00F8B50446002600259A
:10322000207800F0010000286BD000274348C069D7
:1032300000F0805070B900BF4048C06940F0805035
:103240003E49C8610846C06900F08050009000BF48
:1032500000BF01273A48006800F48070B0B93848D0
:10326000006840F4807036490860FEF72DFB064682
:1032700006E0FEF729FB801B642801D90320F8BD76
:103280002F48006800F480700028F2D02B48006AB4
:1032900000F440752DB3A08800F44070A84220D0FF
:1032A0002648006A20F44075012026490860002065
:1032B00008602248056205F0010090B1FEF704FBAA
:1032C000064608E0FEF700FB801B41F28831884289
:1032D00001D90320D3E71948006A00F00200002852
:1032E000F0D01648006A20F4407061680843134922
:1032F0000862012F04D10846C06920F08050C861DF
:1033000000BF207800F00200022807D10B48406877
:1033100020F44040A168084308494860207800F044
:103320001000102807D10548406820F4800061692A
:103330000843024948600020A1E700000010024055
:10334000007000404004424270B504460D460CB97E
:10335000012070BD5A48006800F00700A8420ED254
:103360005748006820F00700284355490860084680
:10337000006800F00700A84201D00120E9E72078AA
:1033800000F0020002281DD1207800F0040004287B
:1033900005D14C48406840F4E0604A4948602078D4
:1033A00000F00800082805D14648406840F4605005
:1033B000444948604348406820F0F000A168084351
:1033C00040494860207800F0010078B36068012827
:1033D00006D13C48006800F4003090B90120B8E7FD
:1033E0006068022806D13748006800F0007040B9D4
:1033F0000120AEE73348006800F0020008B9012060
:10340000A7E73048406820F00300616808432D4971
:103410004860FEF759FA064609E0FEF755FA801BA8
:1034200041F28831884202D9032092E707E025481B
:10343000406800F00C006168B0EB810FEDD12048CE
:10344000006800F00700A8420ED91D48006820F06F
:10345000070028431A4908600846006800F0070082
:10346000A84201D0012074E7207800F0040004286D
:1034700007D11448406820F4E060E168084311492E
:103480004860207800F00800082808D10D484068FE
:1034900020F46050216940EAC1000A49486000F008
:1034A0003FF808494968C1F30311074A515CC84015
:1034B0000649086006480068FEF7E8FD002048E776
:1034C0000020024000100240BCD000082001002073
:1034D000180100200148006870470000200100200A
:1034E00000B5FFF7F7FF04494968C1F30221034A19
:1034F000515CC84000BD000000100240CCD0000864
:1035000000B5FFF7E7FF04494968C1F3C221034A48
:10351000515CC84000BD000000100240CCD0000843
:10352000F0B585B00FF26C0C9CE8E01001A8A0E8A3
:10353000E0101CA52D680095002100220023002426
:103540000020194D696801F00C05F5B1042D02D079
:10355000082D19D101E0154819E001ADC1F38346EA
:10356000AC5D01F4803555B10F4D6D68C5F3404534
:103570001DF805200D4D6543B5FBF2F302E00C4D3F
:1035800004FB05F3184602E000BF084800BF00BF77
:1035900005B0F0BD02030405060708090A0B0C0D6F
:1035A0000E0F1010010200000010024000127A00FD
:1035B00000093D00F8B504460CB90120F8BD20789B
:1035C00000F00100002878D0F848406800F00C00B6
:1035D00004280CD0F548406800F00C00082811D1F0
:1035E000F248406800F48030B0F5803F0AD1EF48DF
:1035F000006800F4003000285FD0606800285CD1CB
:103600000120DBE700BF6068B0F5803F06D1E748E6
:10361000006840F48030E549086028E0606858B9E7
:10362000E248006820F48030E049086008460068FD
:1036300020F4802008601AE06068B0F5A02F0BD15C
:10364000DA48006840F48020D849086008460068DD
:1036500040F4803008600AE0D448006820F48030EC
:10366000D24908600846006820F48020086000BF46
:10367000606888B1FEF728F9054606E0FEF724F9F0
:10368000401B642801D9032098E7C848006800F46B
:1036900000300028F2D010E0FEF716F9054606E0EB
:1036A000FEF712F9401B642801D9032086E7BF48C2
:1036B000006800F400300028F2D1207800F0020009
:1036C000022857D1B948406800F00C0050B1B74803
:1036D000406800F00C00082818D1B448406800F495
:1036E000803098B9B148006800F0020020B120692C
:1036F000012801D0012061E7AC48006820F0F80003
:10370000616940EAC100A949086033E02069E8B175
:103710000120A7490860FEF7D7F8054606E0FEF746
:10372000D3F8401B022801D9032047E79F480068CF
:1037300000F002000028F2D09C48006820F0F80059
:10374000616940EAC1009949086013E00020984986
:103750000860FEF7B9F8054606E0FEF7B5F8401B2D
:10376000022801D9032029E79048006800F00200F0
:103770000028F2D1207800F0080008282DD1A06997
:10378000B8B101208B490860FEF79EF8054606E0B7
:10379000FEF79AF8401B022801D903200EE7834860
:1037A000406A00F002000028F2D0012001F0E4FE9F
:1037B00013E000207F490860FEF786F8054606E022
:1037C000FEF782F8401B022801D90320F6E677486D
:1037D000406A00F002000028F2D1207800F00400D6
:1037E000042873D100277148C06900F0805070B977
:1037F00000BF6E48C06940F080506C49C8610846FF
:10380000C06900F08050009000BF00BF01276A48E7
:10381000006800F48070B0B96748006840F48070B8
:1038200065490860FEF750F8054606E0FEF74CF8DB
:10383000401B642801D90320C0E65F48006800F4FB
:1038400080700028F2D000BFE068012806D15748F8
:10385000006A40F001005549086227E0E06858B965
:103860005248006A20F00100504908620846006A88
:1038700020F00400086219E0E06805280BD14B48ED
:10388000006A40F00400494908620846006A40F0B6
:10389000010008620AE04548006A20F0010043493F
:1038A00008620846006A20F00400086200BFE06871
:1038B000A0B1FEF709F8054609E0FEF705F8401B40
:1038C00041F28831884202D9032077E622E0374866
:1038D000006A00F002000028EFD012E0FDF7F4FFCC
:1038E000054608E0FDF7F0FF401B41F288318842B1
:1038F00001D9032062E62D48006A00F0020000288A
:10390000F0D1012F05D12948C06920F08050274906
:10391000C86100BFE069C8B32448406800F00C00EB
:10392000082860D0E069022848D1002020490866B4
:10393000FDF7CAFF054606E0FDF7C6FF401B02285B
:1039400001D903203AE61948006800F00070002809
:10395000F2D1206AB0F5803F07D11448406820F4C6
:103960000030A168084311494860D4E908010843C0
:103970000E49496821F4741108430C49486001203C
:103980000B490866FDF7A0FF054607E03DE0FDF79F
:103990009BFF401B022801D903200FE60348006863
:1039A00000F000700028F2D02FE00000001002406C
:1039B000000042428004424200700040002014494E
:1039C0000866FDF781FF054606E0FDF77DFF401B19
:1039D000022801D90320F1E50E48006800F00070CC
:1039E0000028F2D111E0E069012800D1E6E509489C
:1039F000466806F48031206A814204D106F47011D1
:103A0000606A814201D00120D8E50020D6E500009F
:103A100000004242001002407047000010B504460A
:103A200020680068C0F3400068B120684068C0F3B7
:103A3000400040B12046FFF7EFFF2068406820F0CB
:103A40000200216848604FF40030024908600120FC
:103A5000607410BD1404014070B5044600250CB913
:103A6000012070BD607C20B900202074204600F049
:103A70005BF802206074204600F07EF818B1042044
:103A800060740120EDE7204601F092FD18B104209A
:103A900060740120E5E72068406820F00700216895
:103AA0004860A06828B11F48006820F001001D4947
:103AB00008601C48001F006820F46070A16808437B
:103AC0001849091F08606068401C08B1656809E072
:103AD0000120FFF707FB05461DB904206074012093
:103AE000BFE76D1E2068806820F00F0040EA154097
:103AF000216888602068C06865F30F002168C8608D
:103B0000204601F072FD18B1042060740120A8E77E
:103B10000021E17301216173A17301206074002011
:103B20009FE70000306C004038B504460F4920681C
:103B300088421AD1FFF7AEFA00BF0D48C06940F0C5
:103B400000600B49C8610846C06900F00060009041
:103B500000BF00BF0120074908600022114629204C
:103B6000FEF7F4FA2920FEF7E1FA38BD00280040FC
:103B7000001002403C04424270B5044600250CB9D6
:103B8000012070BD2068406820F00800216848606E
:103B9000FDF79AFE054607E0FDF796FE401BB0F5DF
:103BA0007A7F01D90320ECE72068406800F0080024
:103BB0000028F1D00020E4E710B504460CB901203C
:103BC00010BD606A38B96068B0F5827F00D105E049
:103BD0000021E16102E00021216161610021A16217
:103BE00094F8510028B9002084F85000204600F0D5
:103BF00043F8022084F851002068006820F040005B
:103C000021680860A08800F48270218901F40441D1
:103C10000843A18901F400610843217C01F00201FD
:103C20000843217D01F001010843218B01F400715B
:103C30000843217F01F0380108432021095D01F08C
:103C400080010843218D01F4005108432168086078
:103C50000421A06901EA1040216848602068C06919
:103C600020F400602168C86100206065012084F8AC
:103C700051000020A4E7000010B586B004460020E3
:103C800002900390049005901949206888422DD134
:103C900000BF1848806940F4805016498861084682
:103CA000806900F48050019000BF00BF00BF08464B
:103CB000806940F0040088610846806900F00400D3
:103CC000019000BF00BFA0200290022003900320BB
:103CD000059002A90848FDF73FFC40200290002013
:103CE0000390049002A90448FDF736FC06B010BD0D
:103CF0000030014000100240000801402DE9FF5F44
:103D00000446884691461D460E9E012002900020E2
:103D1000019000BF94F85000012803D1022004B0A4
:103D2000BDE8F09F012084F8500000BFFDF7CCFDF6
:103D3000074694F851B060680390AA46BBF1010FA2
:103D40000BD00398B0F5827F04D1A06810B9BBF105
:103D5000040F02D002200190DBE0B8F1000F03D085
:103D6000B9F1000F00D015B901200190D1E094F80D
:103D70005100042802D0052084F85100002060651D
:103D8000C4F83890E587A587C4F83080E586A58615
:103D9000206460642068006800F04000402805D07E
:103DA0002068006840F0400021680860E068B0F5D5
:103DB000006F4AD1606810B1BAF1010F09D1206BD0
:103DC00000882168C860206B801C2063E08E401E44
:103DD000E08633E02068806800F00200022810D1FD
:103DE000E08E70B1029801280BD1206B0088216809
:103DF000C860206B801C2063E08E401EE08600209F
:103E000002902068806800F0010068B1E08F58B12E
:103E10002068C068A16B0880A06B801CA063E08F45
:103E2000401EE08701200290FDF74EFDC01BB0420E
:103E300004D3701C10B1032001906AE0E08E0028CA
:103E4000C8D1E08F0028C5D14AE0606810B1BAF14E
:103E5000010F09D1206B007821680873206B401C8A
:103E60002063E08E401EE08634E02068806800F029
:103E70000200022810D1E08E70B1029801280BD107
:103E8000206B007821680873206B401C2063E08E53
:103E9000401EE086002002902068806800F001004B
:103EA00068B1E08F58B12068C068A16B0870A06B42
:103EB000401CA063E08F401EE08701200290FDF7C8
:103EC00003FDC01BB04201D3701C00B916B903201A
:103ED00001901EE0E08E0028C7D1E08F0028C4D1F9
:103EE0003A463146204602F0FFF920B10120019008
:103EF000202060650DE0A06850B900BF0020009050
:103F00002068C068009020688068009000BF00BFF3
:103F100000BF012084F8510000BF002084F8500049
:103F200000BF0198FBE670B504462546681EB0F157
:103F3000807F01D301200FE0681E4FF0E02148612F
:103F40000F214FF0FF3005F009F900204FF0E0217C
:103F5000886107200861002070BD7047704700002D
:103F600030B502460B4600BF92F83C00012801D153
:103F7000022030BD012082F83C0000BF022082F800
:103F80003D00106844681068816824F07004186867
:103F9000044310684460184D1068A8421BD0174DA8
:103FA0001068A84217D01068B0F1804F13D0144D9C
:103FB0001068A8420FD0134D1068A8420BD0124DC4
:103FC0001068A84207D0114D1068A84203D0104DC8
:103FD0001068A84205D121F080015868014310689B
:103FE0008160012082F83D0000BF002082F83C0083
:103FF00000BF00BFBDE70000002C014000340140BD
:104000000004004000080040000C0040004C01404B
:104010000018004010B504460CB9012010BD94F8FA
:104020003D0028B9002084F83C00204600F026F826
:10403000022084F83D00211D206802F085FA01204D
:1040400084F8460000BF84F83E0001213F2001555E
:10405000402001554120015500BF00BF012084F8D8
:10406000420043200155442001554520015500BF21
:10407000012084F83D000020D0E7000038B5044658
:104080000D492068884215D100BF0C48806940F472
:1040900000600A4988610846806900F40060009069
:1040A00000BF00BF002211461920FEF74FF819206B
:1040B000FEF73CF838BD0000002C01400010024023
:1040C000014691F83D00012801D0012070470220EF
:1040D00081F83D000868C06840F001000B68D860B6
:1040E0001A4B086898421BD0194B0868984217D0A1
:1040F0000868B0F1804F13D0164B086898420FD073
:10410000154B086898420BD0144B0868984207D0AA
:10411000134B0868984203D0124B086898420CD1A0
:104120000868806800F00702062A0CD0086800685A
:1041300040F001000B68186005E00868006840F076
:1041400001000B6818600020C0E70000002C01404F
:10415000003401400004004000080040000C004012
:10416000004C0140001800402DE9F04104460D4686
:1041700000BF94F83C00012802D10220BDE8F08184
:10418000012084F83C0000BF022084F83D00206834
:10419000866826F0770626F47F46206886602868C1
:1041A000502833D00CDC202850D004DC00284BD021
:1041B000102851D149E0302849D040284CD139E06D
:1041C00060282DD0702807D0B0F5805F03D0B0F5FF
:1041D000005F41D10DE040E0D5E902136A68206834
:1041E00002F01EFA2068866846F07706206886602E
:1041F00033E0D5E902136A68206802F011FA2068FA
:10420000806840F480402168886026E0EA68696838
:10421000206802F019FA5021206802F00CFA1CE024
:10422000EA686968206802F022FA6021206802F0DA
:1042300002FA12E0EA686968206802F005FA402193
:10424000206802F0F8F908E000BF00BF00BF29684D
:10425000206802F0F0F900E000BF00BF012084F800
:104260003D0000BF002084F83C0000BF00BF85E790
:10427000704710B5044620680069C0F34000D8B10B
:104280002068C068C0F34000B0B16FF00200216840
:104290000861012020772068806900F0030018B1D0
:1042A0002046FFF7E5FF05E0204600F0ADF8204688
:1042B00000F0ABF80020207720680069C0F3800090
:1042C000D8B12068C068C0F38000B0B16FF00400BE
:1042D00021680861022020772068806900F440701E
:1042E00018B12046FFF7C4FF05E0204600F08CF827
:1042F000204600F08AF80020207720680069C0F38B
:10430000C000D8B12068C068C0F3C000B0B16FF081
:10431000080021680861042020772068C06900F047
:10432000030018B12046FFF7A3FF05E0204600F088
:104330006BF8204600F069F80020207720680069BB
:10434000C0F30010D8B12068C068C0F30010B0B14D
:104350006FF0100021680861082020772068C0698C
:1043600000F4407018B12046FFF782FF05E02046B8
:1043700000F04AF8204600F048F800202077206836
:10438000006900F0010058B12068C06800F0010029
:1043900030B16FF0010021680861204600F036F866
:1043A00020680069C0F3C01058B12068C068C0F32D
:1043B000C01030B16FF08000216808612046FFF71F
:1043C000CCFD20680069C0F3801058B12068C06837
:1043D000C0F3801030B16FF04000216808612046C2
:1043E00000F01CF820680069C0F3401058B1206844
:1043F000C068C0F3401030B16FF020002168086140
:104400002046FFF7ABFD10BD7047704710B504465E
:104410000148FDF714FE10BDF02A0020704710B5CA
:1044200004460CB9012010BDA06900B100E000BF36
:1044300094F83D0028B9002084F83C00204600F0A4
:1044400027F8242084F83D002068C06820F400503C
:104450002168C860204602F01FF92068006920F436
:104460009040216808612068406920F02A00216896
:1044700048612068C06840F400502168C86000208E
:104480002064202084F83D0084F83E000020CAE724
:1044900010B586B004460020029003900490059069
:1044A0001A49206888422ED100BF1948806940F41B
:1044B0008040174988610846806900F48040019077
:1044C00000BF00BF00BF0846806940F0040088615B
:1044D0000846806900F00400019000BF00BF481545
:1044E0000290022003900320059002A90948FDF7DD
:1044F00033F84FF48060029000200390049002A9EA
:104500000448FDF729F806B010BD0000003801404E
:1045100000100240000801402DE9F84F04460E4605
:10452000174699464FF0000A94F83D0020285AD1CA
:1045300006B117B90120BDE8F88F00BF94F83C0020
:10454000012801D10220F6E7012084F83C0000BFD9
:1045500000202064212084F83D00FDF7B5F9824653
:10456000A784E784A068B0F5805F04D1206910B902
:104570000025B04602E035464FF0000800BF00209D
:1045800084F83C0000BF1BE05346002280212046F7
:10459000CDF8009002F0FEF808B10320CBE745B952
:1045A000B8F80000C0F308002168486008F102086C
:1045B00003E02878216848606D1CE08C401EE08490
:1045C000E08C0028E0D15346002240212046CDF85F
:1045D000009002F0DFF808B10320ACE7202084F857
:1045E0003D000020A7E70220A5E700BFFEE7014647
:1045F00008684069C0F38020B0B16FF480600A6839
:10460000506100200863202081F83D00002081F8DF
:104610003E00086C40F00400086400BF002081F8F0
:104620003C0000BF012070470020FCE72DE9F84363
:1046300004460D4690461E46E76A2068006840F42E
:10464000806021680860082F04D0012F02D017F580
:10465000803F06D12068006840F4807021680860BF
:1046600008E0206B112805D12068006840F48070B4
:1046700021680860434600224FF001112046009651
:1046800000F0FEF860B12068006800F48070B0F5BA
:10469000807F02D14FF4007020640320BDE8F883CE
:1046A0002069B0F5804F05D1E8B240F001002168E3
:1046B000086149E005F44070F02141EAE01021680A
:1046C0000861334642462649204600F01CF908B1ED
:1046D0000120E3E7E8B221680861334642462049F9
:1046E000891F204600F00FF908B10120D6E700BF6E
:1046F0000020009020684069009020688069009048
:1047000000BF00BF2068006840F480702168086026
:10471000434600224FF001112046009600F0B0F809
:1047200058B12068006800F48070B0F5807F02D135
:104730004FF4007020640320B0E705F44070F121CD
:1047400041EAE01021680861334642460449891F66
:10475000204600F0D8F808B101209FE700209DE72F
:10476000080001002DE9F84304460D461746984617
:10477000E66A082E04D0012E02D016F5803F06D13D
:104780002068006840F480702168086008E0206BB1
:10479000122805D12068006840F480702168086004
:1047A0003B4600224FF001112046CDF8008000F07A
:1047B00067F860B12068006800F48070B0F5807F11
:1047C00002D14FF4007020640320BDE8F883206913
:1047D000B0F5804F04D105F0FE002168086112E0B9
:1047E00005F44070F02141EAE01021680861434679
:1047F0003A460B49204600F086F808B10120E4E76C
:10480000E8B22168086143463A460549891F2046B7
:1048100000F079F808B10120D7E70020D5E70000C3
:104820000800010070B504460D46164620E02046FB
:10483000FFF7DDFE08B1012070BD681CC0B1FDF7B7
:1048400043F8801BA84200D895B90020206320209F
:1048500084F83D00002084F83E00206C40F02000E9
:10486000206400BF002084F83C0000BF0120E3E783
:1048700020684069C0F380000028D8D00020DBE722
:104880002DE9F04104460D4617461E46DDF8188016
:104890001CE0701CD0B1FDF717F8A0EB0800B04287
:1048A00000D89EB900202063202084F83D0000201D
:1048B00084F83E00206C40F02000206400BF0020FF
:1048C00084F83C0000BF0120BDE8F081C5F307403B
:1048D00001280AD120684069A9B20840A9B28842DB
:1048E00001D101200BE0002009E020688069A9B215
:1048F0000840A9B2884201D1012000E00020B8425E
:10490000C7D00020E0E72DE9F04104460D461646E9
:104910001F463DE020684069C0F38020E8B1206870
:10492000006840F40070216808606FF480602168BE
:10493000486100202063202084F83D00002084F896
:104940003E00206C40F00400206400BF002084F88A
:104950003C0000BF0120BDE8F081701CC0B1FCF735
:10496000B3FFC01BB04200D896B9002020632020BE
:1049700084F83D00002084F83E00206C40F02000C8
:10498000206400BF002084F83C0000BF0120E2E763
:10499000C5F3074001280AD120684069A9B2084040
:1049A000A9B2884201D101200BE0002009E0206873
:1049B0008069A9B20840A9B2884201D1012000E073
:1049C00000200028A6D00020C5E770B504460D469B
:1049D000164632E020684069C0F30010A0B16FF0C5
:1049E00010002168486100202063202084F83D00E9
:1049F000002084F83E00206C206400BF002084F872
:104A00003C0000BF012070BDFCF75EFF801BA84288
:104A100000D895B900202063202084F83D000020B4
:104A200084F83E00206C40F02000206400BF00208D
:104A300084F83C0000BF0120E5E720684069C0F32E
:104A400080100028C6D00020DDE770B504460D4672
:104A5000164620E02046FFF7CAFD08B1012070BDD0
:104A6000681CC0B1FCF730FF801BA84200D895B984
:104A700000202063202084F83D00002084F83E00C0
:104A8000206C40F02000206400BF002084F83C002F
:104A900000BF0120E3E720684069C0F3C010002890
:104AA000D8D00020DBE730B50B46002100BF16E070
:104AB0000A24B4EB107F05D9302404EB107403F8FA
:104AC000114005E0412404EB10740A3C03F8114046
:104AD000000100254C00641C1D554C1CE1B29142A4
:104AE000E6DB30BD0146CA1701EB92729210A1EBD2
:104AF000820292B9642091FBF0F200FB121050B9CF
:104B00004FF4C87091FBF0F200FB121008B90120BD
:104B100070470020FCE70120FAE70020F8E770B5B5
:104B20000546D5F8B84241F20C002044007B50B94C
:104B300041F20C002044806828B1607A18B9012144
:104B4000284602F045FB8121284602F041FB607AAD
:104B5000022807D11F2341F20C0022180121284608
:104B600002F086FA70BD000070B50546D5F8B8426F
:104B700041F20C002044406841F22C01214448607D
:104B800041F20C002044806841F22C0121448860ED
:104B90000121284602F0F4F91F2816D141F20C0039
:104BA00000592E49884210D141F20C002044407B2C
:104BB00001280AD841F20C002044807B28B141F240
:104BC0000C002044807B10280ED941F20C002044B8
:104BD000417B20230522284601F0F0F90220607273
:104BE0002846FFF79CFF36E041F20C002044417B51
:104BF00041F20C0022180F32284600F039FF00283D
:104C00000BDA207A052804D10121284600F0CAF8E1
:104C100021E02846FFF783FF1DE0207A022819D003
:104C2000207A012816D0207A032813D0608930B169
:104C3000628904F10C01284600F0D4F80BE0608989
:104C400020B90021284600F0ADF804E02846FFF71F
:104C500066FF00E070BD00BFFCE700005553424313
:104C600070B506460D46D6F8B842607A022806D1DD
:104C70008121304602F0ACFA002060720CE005F0B1
:104C80008000802807D1607A012804D001213046B5
:104C900000F088F800E070BD00BFFCE770B5054685
:104CA0000E46D5F8B842207A022804D0032815D041
:104CB000042818D111E041F20C002044417B41F25C
:104CC0000C0022180F32284600F0D2FE002803DA2A
:104CD0000121284600F066F806E000BF00212846C2
:104CE00000F060F800E000BF00BF70BD70B5054681
:104CF0000E46D5F8B842207A10B1012816D103E04B
:104D00002846FFF731FF12E041F20C002044417BBE
:104D100041F20C0022180F32284600F0A9FE0028AC
:104D200003DA0121284600F03DF800E000BF00BF93
:104D300070BDD0F8B81200220A72704770B50546EF
:104D4000D5F8B842002020726072002141F25D0067
:104D50000155401E0155D5F8BC0201680020884766
:104D60000121284602F0F9F88121284602F0F5F8E1
:104D70001F2341F20C0022180121284602F078F985
:104D800070BD70B50546D5F8B842002020720120EC
:104D900060721F2341F20C0022180121284602F004
:104DA00067F970BD70B505460E46D5F8B8420C4996
:104DB00041F22C00015120440673002020720D2383
:104DC00041F22C0022188121284602F02DFA1F23DF
:104DD00041F20C0022180121284602F049F970BD69
:104DE000555342532DE9F04106460F461546D6F875
:104DF000B84241F20C0020448068A84204D241F23B
:104E00000C002044806800E028461FFA80F841F238
:104E10002C0020448068401B41F22C012144886012
:104E2000002041F22C0121440873042020724346E3
:104E30003A468121304602F0F7F9BDE8F0810000E2
:104E40000EB50020009001900290114811490860B1
:104E5000002110488160017301754FF46021C16128
:104E600000200C49486001210A480161FCF700F963
:104E700008B1FBF76CFF0120009001900420029024
:104E800069460448FCF740F808B1FBF760FF0EBD27
:104E9000002401406C2A002010B503490348FBF7A9
:104EA00059FF0349087010BD9900002084000020BC
:104EB0009800002000B585B000200190029003907A
:104EC000049000BF3348806940F010003149886188
:104ED0000846806900F01000009000BF00BF00BFCE
:104EE0000846806940F0200088610846806900F02B
:104EF0002000009000BF00BF00BF0846806940F05E
:104F0000040088610846806900F00400009000BF3A
:104F100000BF00BF0846806940F00800886108466D
:104F2000806900F00800009000BF00BF012210213E
:104F30001948FCF7C3FC002210211848FCF7BEFCFE
:104F4000012220211548FCF7B9FC10200190012016
:104F5000029003900320049001A90F48FCF7FCFA8B
:104F6000102001900120029002200390049001A9DA
:104F70000A48FCF7F1FA202001900120029000205D
:104F800003900220049001A90448FCF7E5FA05B05B
:104F900000BD00000010024000080140000C01406C
:104FA00010B50B480B4908600B48486000210948C0
:104FB0008160C1604FF480410161002141618161E4
:104FC000C1610162FCF786FC08B1FBF7C0FE10BDB1
:104FD000005400409C2A0020A086010010B507481C
:104FE000074908600020486040F6FF71044881606E
:104FF000FCF7F6FF08B1FBF7AAFE10BD0030004039
:10500000F02A002010B50848084908604FF0FF302A
:1050100048604FF4807105488160FEF71DFD08B1BE
:10502000FBF795FE10BD000000280040FC2A002080
:1050300010B51348134908604FF48270486000218E
:1050400010488160C1600221016101214161490272
:1050500081610821C16100210162416281620A21EE
:10506000C162FEF7A9FD08B1FBF771FE05480068B3
:10507000006840F0400003490968086010BD000066
:1050800000300140102B002000B587B000200390B5
:10509000049005900690019002901548154908600B
:1050A000472048600021134881604FF6FF71C160BE
:1050B0000021016141618161FEF7ACFF08B1FBF79E
:1050C00046FE4FF48050039003A90A48FFF74CF8BE
:1050D00008B1FBF73CFE00200190029001A90548B1
:1050E000FEF73EFF08B1FBF732FE07B000BD00003F
:1050F000002C0140682B002010B50B480B490860BC
:105100004FF4E1304860002108488160C1600161CE
:105110000C21416100218161C161FFF780F908B173
:10512000FBF715FE10BD000000380140B02B002039
:1051300010B500220D490E4801F0FDFD08B1FBF746
:1051400006FE0C490A4802F00EFA08B1FBF7FFFD13
:105150000949074802F00BF908B1FBF7F8FD0448CC
:1051600002F0CAFA08B1FBF7F2FD10BDA000002062
:10517000F42B00202C010020F000002000BFFEE7EF
:1051800000BFFEE72DE9F0470546EAE12868B0F8E0
:1051900044A00AF00F06002E7ED10AF01000B0BB2A
:1051A00000BF2968098848F60F7201EA020040F43E
:1051B00000412A68118000BF05F128042868B0F872
:1051C0005010207801EBC000801C296801F5806137
:1051D00031F81000C0F30900E061E169606908443A
:1051E000606100212846FDF726F895F82400002884
:1051F000CBD0A0690028C8D195F8240040F08000E9
:105200002968A1F84C00002085F82400A9E1FFE7F7
:1052100005F5B4742868B0F8008008F4006030B375
:105220002868B0F85010207801EBC000801D296874
:1052300001F5806131F81000C0F30900E061A18B35
:105240008BB2E28805F52C71286803F01DFE00BFC3
:105250002968098840F68F7201EA020040F0800157
:105260002A68118000BF2846FDF7C8FE79E108F4DE
:105270000040002889D000BF2968098840F68F7255
:1052800001EA020040F080012A68118000BF28680E
:10529000B0F85010207800E06FE001EBC000801DF6
:1052A000296801F5806131F81000C0F30900E06160
:1052B000E06990B1606980B1B4F81CC01FFA8CF34A
:1052C000E2886169286803F0DFFDE16960690844EC
:1052D000606100212846FCF7BEFF2868008800F4C2
:1052E0000060002892D100BF2A682968B1F85010E8
:1052F0000A4402F20C41084600BF236953B90388EF
:1053000048F2FF3C03EA0C030380038843F40043A4
:1053100003801EE023693E2B0DD800BF2369590886
:10532000237C03F0010303B1491C4FF6FF7303EA2A
:10533000812303800DE000BF23695909237C03F01A
:105340001F0303B9491E4FF4004343EA812303803E
:1053500000BF00BF00BF00BF296809884BF68F72ED
:1053600001EA020080F4805080F4005040F40041D3
:1053700041F080012A681180F3E07100286830F85C
:10538000118008F4004000287ED000BF7200296818
:1053900031F8121040F68F7201EA020040F08001ED
:1053A00073002A6822F8131000BF06EB860105F58A
:1053B000B47000EBC104207BB0B92868B0F850107D
:1053C000207801EBC000801D296801F5806131F86B
:1053D0001000C0F30907002F5BD0E28861693B46EB
:1053E000286803F051FD54E0E078022806D14246D7
:1053F00021462846FCF7B2FF07464AE000BF00BF3F
:1054000022785200296831F8121048F68F7201EAAA
:10541000020040F4004141F0C00123785B002A689B
:1054200022F8131000BF00BF21784900286830F827
:10543000110000F48040A8B12868B0F8501020781E
:1054400001EBC000801C296801F5806131F8100073
:10545000C0F30907EFB1228961693B46286803F070
:1054600013FD16E02868B0F85010207801EBC0005A
:10547000801D296801F5806131F81000C0F309072B
:105480003FB16289616900E017E03B46286803F09C
:10549000FBFCE0693844E061606938446061A06900
:1054A00010B12069B84204D921782846FCF7D3FE10
:1054B00003E02146286802F0FAFE08F08000B0B34D
:1054C00006EB860105F1280000EBC10400BF720065
:1054D000296831F8121048F60F7201EA020040F410
:1054E000004173002A6822F8131000BFE0780328F7
:1054F00007D0E07828B1E07802282DD108F4807038
:1055000050BB2868B0F85010207801EBC000801C18
:10551000296801F5806131F81000C0F30909A0691C
:10552000484505D9A069A0EB0900A06102E018E098
:105530000020A061A06920B921782846FCF77BFEF5
:105540000FE0606948446061E0694844E0612146D9
:10555000286802F0ACFE04E0424621462846FCF7EB
:10556000A9FF2868B0F8440000F4004000287FF448
:105570000DAEBDE8F087704708B508490968C9084D
:105580004FF47A72B1FBF2F14143009100BF00BFCA
:1055900000994A1E00920029F9D108BD200100207F
:1055A00010B50248FEF73AFA10BD0000FC2A0020B0
:1055B00070B504460025FCF787F9054607E0FCF7BF
:1055C00083F9401BB0F57A7F01D9032070BD2068B4
:1055D000406800F020000028F1D02068406840F0CA
:1055E0001000216848600020F0E770B504460025EF
:1055F0002068406820F0100021684860FCF764F9DA
:10560000054607E0FCF760F9401BB0F57A7F01D949
:10561000032070BD2068406800F020000028F1D011
:105620000020F6E770B50026002400253A480668F9
:105630003604001D006806443848B6FBF0F43848CC
:105640000088A0423AD036490C8040F2B2750EE094
:105650002846FFF747FA30B1B4F5B77F02D3A4F577
:10566000B77402E006E0A4F26D14681C85B2B4F5CC
:10567000B67FEDD800BF2B488580002516E029496C
:105680008888FFF72FFA30B1012D04D11D2C01D3EA
:105690001D3C09E00CE02448405DA04203D82248AC
:1056A000405D241A00E003E0681C85B21C2CE6D2A1
:1056B00000BF681C1B498871601CC8711748B6FB85
:1056C000F0F100FB11644FF46160B4FBF0F0154998
:1056D00008704FF46160B4FBF0F100FB11403C2115
:1056E000B0FBF1F00F4948704FF46160B4FBF0F18A
:1056F00000FB11403C21B0FBF1F201FB1200094913
:1057000088700B46DA799979988800F00FF8054986
:105710000872002070BD0000182800408051010070
:10572000CE010020384A0020A3D10008F0B503467E
:105730000C461546642093FBF0F0C6B2642093FB40
:10574000F0F700FB1730C1B2132E02DD01F1640047
:10575000C1B20846CF1701EB977701EBA707BAB2A2
:10576000072092FBF0F700FB172082B25719601E4A
:10577000DFF82CC01CF80000384482B2CF1701EBD0
:105780009777BF10A1EB87071FB9032C01DA501ED2
:1057900082B2072092FBF0F700FB1720C0B2F0BDE9
:1057A00097D100082DE9F04F06460F4690469946DE
:1057B000DDE909AB002440F2B270864203DB40F61B
:1057C0003300864202DD0120BDE8F08F40F2B27561
:1057D0000AE02846FFF786F910B13048044401E09A
:1057E0002F480444681C85B2B542F2DB781EC7B26C
:1057F000002510E02B48405D40F2A321484304EB14
:10580000C0143046FFF76EF918B1012D01D12648BA
:105810000444681C85B2BD42ECDBA8F1010040F2F3
:10582000A321484304EBC014C9EB4910C0EB092085
:1058300004EB0014CAEB0A1004EB80045C441B4820
:10584000C06940F080501949C8610846C06940F0FD
:105850000060C8611648006840F480701449086010
:105860001448006840F0100012490860A0B21149C5
:1058700018310860200C091F08600E48006820F0ED
:1058800010000C49086000BF0A48006800F02000C2
:105890000028F9D0FFF7C6FE002095E70085E20159
:1058A0008033E101A3D100088051010000100240C3
:1058B000007000400428004001461C4A12681B4B3F
:1058C0001B1F1B6802EB03425018194AD26942F0B1
:1058D0008052174BDA611A46D26942F00062DA61EF
:1058E000144A126842F48072124B1A600F4A183A36
:1058F000126842F010020D4B183B1A6082B20B4B3B
:1059000008331A60020C1B1F1A60084A183A126802
:1059100022F01002054B183B1A6000BF034A183AE8
:10592000126802F02002002AF8D070471C280040BC
:1059300000100240007000402DE9F04106460C4680
:105940001746002503F06AFB032007F0A3FAC4F30F
:10595000074007F09FFAC4F3072007F09BFAE0B274
:1059600007F098FA04E007F083FA7055681C85B2D6
:10597000BD42F8DB03F048FBBDE8F0812DE9F041C2
:1059800004460F4615461E46D4F8B882A9194FF4AE
:10599000835050F80800814209D921230522394655
:1059A000204600F00BFB4FF0FF30BDE8F0810020F7
:1059B000FBE70000F0B504460E46D4F8B832507844
:1059C00000F0010060B10721598106E0481E81B254
:1059D0001048475C03F10C0047540029F6D116E04B
:1059E000D4F8BC02C06906EBC60700EB870528792E
:1059F000411D1079884200DC1179598105E0481E6B
:105A000081B26F5C03F10C0047540029F7D10020EC
:105A1000F0BD000080D1000870B503460C46154665
:105A20000821D3F8B822518106E0481E81B204480B
:105A3000465C02F10C0046540029F6D1002070BDEE
:105A40008FD1000870B503460C461546D3F8B8222E
:105A50000821518106E0481E81B20448465C02F1EB
:105A60000C0046540029F6D1002070BD87D10008F3
:105A700070B505460E4614462078232845D00DDC27
:105A80001A2836D005DCB0B103281AD012285AD112
:105A90001DE01B2821D01E2855D124E02A2846D0FD
:105AA00004DC252837D028284DD13AE02F2844D0CF
:105AB0005A2848D123E022463146284600F0ADFA64
:105AC0004AE022463146284600F029FA44E02246C0
:105AD00031462846FFF76EFF3EE022463146284613
