:020000040800F2
:1000000050390020450100080F3D0008BF340008AA
:100010000D3D00080D0C0008016200080000000002
:10002000000000000000000000000000054900087A
:100030003F0C0008000000002540000807490008A8
:100040005F0100085F0100085F0100085F01000810
:100050005F0100085F0100085F0100085F01000800
:100060005F0100085F0100085F0100085F010008F0
:100070005F0100085F0100085F0100085F010008E0
:100080005F0100085F0100085F010008FD600008D3
:10009000096100085F0100085F0100085F010008B6
:1000A0005F0100085F0100085F0100085F010008B0
:1000B0005F0100085F0100085F0100085F010008A0
:1000C0005F0100085F0100085F0100085F01000890
:1000D0005F0100085F0100085F0100085F01000880
:1000E0005F0100085F0100085F0100085F01000870
:1000F0005F0100085F0100085F0100085F01000860
:100100005F0100085F0100085F0100085F0100084F
:100110005F0100085F0100085F0100085F0100083F
:100120005F0100085F0100085F0100085F0100082F
:10013000DFF80CD000F068FC00480047098B00088D
:10014000503900200648804706480047FEE7FEE792
:10015000FEE7FEE7FEE7FEE7FEE7FEE7FEE7FEE777
:100160009349000831010008202A04DB203A21FAD3
:1001700002F00021704721FA02F3D040C2F12002C0
:10018000914008431946704740EA01039B0703D09A
:1001900009E008C9121F08C0042AFAD203E011F8C6
:1001A000013B00F8013B521EF9D27047D2B201E088
:1001B00000F8012B491EFBD270470022F6E710B56C
:1001C00013460A4604461946FFF7F0FF204610BDC5
:1001D000F0B480EA0102D40F4200B2EB410F02D228
:1001E0000246084611464A0042D0C30DDDB2C1F3B3
:1001F000C752AD1A202D35DAC1F3160141F40002C1
:1002000004B15242C5F1200602FA06F12A41104417
:10021000B3EBD05F23D0C4B1012DA0EBC35009DCF8
:10022000F0BC4FF0004202EAC352DBB200F500001E
:1002300000F000BB400000F1807000EBC350A0F163
:10024000807040EAD170490009E0490841EAC07174
:10025000A0EBC35000F50000400800EBC350F0BC19
:1002600000F0DFBA6142012202EB4101001BF6E718
:10027000F0BC704781F00041AAE780F00040A7E79A
:1002800080EA010210B502F00043400022D04A008B
:100290001FD0010E01EB1261C0F35600C2F35602EB
:1002A00040F4000042F40002A0FB022000047F3969
:1002B000140400D0401C50EA124001D44000491EF2
:1002C000C2B20C0604EBD010401C4008802A02D0B9
:1002D00003E0002010BD20F00100002900DA00201A
:1002E000184310BD30B480EA010202F0004530F03E
:1002F000004221F0004013D090B1C30DD40DC2F3E1
:100300001601C0F31600E41A41F4000140F40002A3
:100310007D34914201D3641C00E04900002C02DAD4
:1003200030BC002070474FF400000023914201D3FD
:10033000891A034340084FEA4101F7D151B1914274
:1003400002D14FF0004105E002D24FF0010101E07F
:100350006FF0010103EBC450284430BC00F061BAD7
:100360002DE9FE4F804681EA0300C00F0C46009045
:1003700021F0004123F00045B8EB0200A94105D26D
:100380004046214690461C460B46024623F000405C
:10039000104347D0270DC7F30A00C3F30A51029058
:1003A000401A019040286BDAC3F3130040F4801B1D
:1003B0000098924620B10023D2EB030A63EB0B0BAB
:1003C00001985946C0F14002504600F009FA06462D
:1003D0000D4650465946019A00F011FA10EB0800FC
:1003E0006141002487EA115284EAE7731A4340D03E
:1003F000009A62B3019A012A4FEA075215DC001BEA
:1004000061EB02014FF0004202EA0752CDE90042DF
:10041000001C41F5801132462B4600F048FA03B02B
:10042000BDE8F08F40462146F9E7001B61EB020171
:10043000001C41F5801300185B412018A2F500173D
:1004400047EB030140EAD570B6196D4111E06D0824
:100450004FEA360645EAC0754FEA0752001B61EBCA
:100460000201001C41F5801149084FEA30000019D3
:10047000514132462B4603B0BDE8F04F00F008BAB8
:100480000098012240000023D0EB020263EBE073EE
:10049000009821464FEAE074B8EB000061EB0401DC
:1004A000E9E783F000435BE781F0004158E72DE97D
:1004B000FE4F81EA030404F0004421F0004100945F
:1004C0004FF0000B23F0004350EA01045ED052EAE3
:1004D00003045BD0C3F30A54C1F30A552C44A4F2BD
:1004E000F3340194A0FB0254C1F3130141F48011D1
:1004F000C3F3130343F4801301FB024400FB034ED8
:10050000840A970A44EA815447EA8357A4FB0768A0
:1005100002958D0A05FB07854FEA932C04FB0C54CA
:100520002705029D4FEA065847EA1637B5EB08053E
:100530006EEB070C870E920E47EA811742EA831290
:10054000A7FB0201B6EB0B0164EB00042B0D43EAA1
:100550000C335E1844EB1C50DA465146E7FB0201AF
:10056000C5F313044FEA0B3343EA14534FEA043242
:10057000019C43EA0603A4F10C040294009CCDE91B
:1005800000B400F094F903B0BDE8F08F00200146FC
:10059000F9E72DE9F04D81EA030404F0004B21F066
:1005A000004514464FF0000A23F0004150EA0502CE
:1005B00020D054EA01021DD0C5F30A570246C5F304
:1005C0001303C1F31300C1F30A5640F4801543F43A
:1005D0008013A7EB0608101BD64608F2FD3873EB14
:1005E000050002D308F1010801E092185B41B8F15F
:1005F000000F03DA00200146BDE8F08D00204FF423
:100600008011064684460EE0171B73EB050705D3E1
:10061000121B63EB050306434CEA010C49084FEA41
:10062000300092185B4150EA0107EDD152EA030015
:1006300012D082EA040083EA0501084305D0101BAA
:10064000AB4106D20122002306E000224FF0004316
:1006500002E06FF0010253101AEB06004CEB085158
:1006600010EB0A0041EB0B01BDE8F04D00F010B9B2
:1006700096230022114600F0DDB80EB5C10F80EAC6
:10068000E0700844CA07002140F233438DE80E00B1
:100690000A460B4600F00BF903B000BD0EB540F260
:1006A000334102910021CDE900110A460B4600F0CA
:1006B000FEF803B000BD70B5C1F30A5201F0004569
:1006C0000024C1F3130140F2FF3341F480119A4238
:1006D00001DA002070BD40F233439A42A2F2334265
:1006E00003DC5242FFF740FD00E090402C43F1D084
:1006F000404270BD00F0004230F000400AD0C10D11
:1007000001F56071C0F3160042EA0151C2084007CA
:100710001143704700200146704701F0004330B498
:1007200021F0004150EA010206D00A0DA2F56072E4
:10073000C1F31301002A02DC30BC00207047440FD3
:1007400044EAC104C100E01830BC00EBC25000F024
:1007500068B830B50B46014600202022012409E08C
:1007600021FA02F59D4205D303FA02F5491B04FA6A
:1007700002F52844151EA2F10102F1DC30BD2DE97D
:10078000F05F0546002092469B4688460646814615
:1007900040241BE02846414647462246FFF7E4FC3A
:1007A00053465A46C01A914110D311461846224664
:1007B00000F016F82D1A67EB01084F46224601207B
:1007C000002100F00DF817EB00094E41201EA4F1A6
:1007D0000104DFDC484631462A464346BDE8F09F27
:1007E000202A04DB203A00FA02F1002070479140F1
:1007F000C2F1200320FA03F3194390407047202AE6
:1008000006DBCB17203A41FA02F043EAE07306E038
:1008100041FA02F3D040C2F1200291400843194648
:1008200070470029A8BF7047401C490008BF20F04E
:100830000100704710B4B0FA80FC00FA0CF050EAE6
:10084000010404BF10BC704749B1CCF1200421FA67
:1008500004F411FA0CF118BF012121430843A3EB62
:100860000C01CB1D4FEA00614FEA102042BF00206F
:1008700010BC704700EBC35010440029A4BF10BC4B
:100880007047401C490008BF20F0010010BC7047B1
:1008900010B5141E73F1000408DA401C41F1000188
:1008A00092185B411A4301D120F0010010BD2DE9DF
:1008B000F04D92469B4611B1B1FA81F202E0B0FAD6
:1008C00080F220329046FFF78BFF04460F4640EA45
:1008D0000A0041EA0B0153465A46084313D0114619
:1008E00053EA010019D0C8F140025046FFF73CFC22
:1008F00005460E46504659464246FFF771FF0843EB
:1009000005D0012004E020463946BDE8F08D0020E6
:10091000054346EAE0762C4337430A986305E40A28
:10092000A0EB08000022FD0A44EA47540A3002D531
:1009300000200146E9E7010510196941DDE9084594
:1009400000196941BDE8F04DA2E770B521F0004300
:1009500003430CD0C1F30A550024D5EB040564EB26
:100960000403D617AD1AB34102DB0020014670BD67
:10097000201841EB025170BDC1F30A52C1F31301BB
:1009800040F2FF3341F480119A4202DA002001461E
:10099000704740F233439A42A2F2334202DC5242A1
:1009A000FFF7E2BBFFF71CBF30B5041E71F1000476
:1009B00004DB4FF00044404264EB0101141E73F16C
:1009C000000405DB1C464FF00043524263EB040376
:1009D0008B4208BF824230BD30B5041E71F1000465
:1009E00004DB4FF00044404264EB0101141E73F13C
:1009F000000405DB1C464FF00043524263EB040346
:100A0000994208BF904230BD064C074D06E0E068B1
:100A100040F0010394E8070098471034AC42F6D345
:100A2000FFF78AFB9C8F0008BC8F000870B58C18FC
:100A300010F8015B15F0070301D110F8013B2A11F2
:100A400006D110F8012B03E010F8016B01F8016BDF
:100A50005B1EF9D12B0705D40023521E0DD401F8DB
:100A6000013BFAE710F8013BCB1A921C03E013F8A4
:100A7000015B01F8015B521EF9D5A142D8D30020D9
:100A800070BD000070B5044600688168C943C9079D
:100A900017D1816821F00101816000F0CDFE05468B
:100AA0000AE000BF00F0C8FE401B022804D92068FD
:100AB0008068C043C00706D020688068C043C00774
:100AC000F0D0002070BDA06A40F01000A062E06A83
:100AD00040F00100E062012070BD0000F8B5002682
:100AE0000446009600688168C943C9072DD0816813
:100AF00041F001018160164816490068B0FBF1F031
:100B000000E0401E00900028FBD100F095FE054655
:100B100016E000BF00F090FE401B022810D92068AC
:100B20008068C043C0070BD0A06A40F01000A062EC
:100B3000E06A40F00100E06284F824600120F8BD22
:100B400020688068C043C007E4D10020F8BD0000E1
:100B5000E000002040420F0010B500F013F80848F4
:100B600000F0A8FB4FF47A71054800F005FB04483B
:100B700000F042FA0446024800F0FCFB204610BD9B
:100B8000F81100200EB56946009001200190042064
:100B90000290044800F0B2F9002801D000F050F8AB
:100BA0000EBD0000F811002010B501784FF6FF725D
:100BB000407802EA0121084480B2FFF76FFD4FF050
:100BC0003332034BFFF7E5FCFFF775FD80B210BD34
:100BD0003333F33F08B54FF6FF710246009102230D
:100BE0004721024800F0F2FE08BD00002812002054
:100BF00001B582B04FF6FF700090012302AA462192
:100C0000014801F005F80EBD28120020FEE730B5BE
:100C10000346002208463124995C4840002105061D
:100C200002D584EA400000E04000491CC9B2C0B2CD
:100C30000829F4D3521CD2B2022AEDD330BD70473A
:100C400072B6FEE7002200F001B8000030B50E4B8E
:100C5000054601205C7A012C15D8587A00241C54D2
:100C6000587A03EB800045605D7A03F108002A544E
:100C7000587A421C5A72303008703A2048702F203F
:100C80008870CC70002030BD30290020134A00212C
:100C9000D161134903280AD0022815D0086940F011
:100CA00004000861086940F0400008617047086965
:100CB00040F004000861086D40F004000865086910
:100CC00040F04000086103E0086D40F00400086552
:100CD000086D40F04000086570470000F8280020CB
:100CE000002002400D4A0021D1610D4A0D49904279
:100CF00009D90A6D42F002020A654865086D40F0A4
:100D00004000086570470A6942F002020A614861C2
:100D1000086940F04000086170470000F828002092
:100D2000FFFF070800200240084B0022DA61084B51
:100D3000084A984204D8136943F00103136103E0A1
:100D4000136D43F00103136501807047F8280020FC
:100D5000FFFF0708002002401C480021C268D3069C
:100D60001B4A02D4C36CDB0605D5D16941F00201F0
:100D7000D1614FF01011C3685B0702D4C36C5B07ED
:100D800005D5D36943F00103D36141F00411C36970
:100D9000DB0707D0D36943F00403D361C26922F0B3
:100DA0000102C261A1F58072013A0AD011F0350F3B
:100DB00002D001F03502C2600A0C01D0090CC164F6
:100DC0007047C16921F00101C161704700200240F4
:100DD000F828002070B5054600F02EFD0646114C9F
:100DE00009E0681C07D025B100F026FD801BA84251
:100DF00001D9032070BDE068C007F2D1E068800629
:100E000001D52020E060E068C00605D4E069C00795
:100E100002D1E068400703D5FFF79EFF012070BDB7
:100E2000002070BD0020024070B5054600F004FDB2
:100E30000646104C09E0681C07D025B100F0FCFC08
:100E4000801BA84201D9032070BDE06CC007F2D11D
:100E5000E06C800601D52020E064E06CC00602D47E
:100E6000E06C400703D5FFF777FF012070BD00203D
:100E700070BD000000200240074B10B503EBC123FA
:100E8000002104E013F8014B00F8014B491CB1EBC1
:100E9000C22FF7DB002010BD000001082DE9F84348
:100EA00015460E46804600F09FFB1248124F002167
:100EB00007EBC6220160C0E902250091694600F0F7
:100EC00085FA10B10120BDE8F88300240AE000BFD4
:100ED00004EBC620C11958F804200023022000F0BA
:100EE0002FFB241DB4EBC52FF2D300F01BFB002019
:100EF000E9E700003C29002000000108F8B50024C3
:100F0000009490F824202546012A12D0012280F86E
:100F100024204A681F23072A0DD20668776B521EC9
:100F200002EB820293409F430B6893401F43776319
:100F300019E00220F8BD06680D2A0AD2376BD21FCD
:100F400002EB820293409F430B6893401F43376339
:100F500009E0F76A0D3A02EB820293409F430B6867
:100F600093401F43F7620A68072306680A2A0AD3D8
:100F7000F7680A3A02EB420293409F438B68934022
:100F80001F43F76008E0376902EB420293409F433A
:100F90008B6893401F4337610A68102A01D0112AD9
:100FA00020D1124B02689A4217D193681B0219D4C0
:100FB000936843F4000393600968102912D10C4927
:100FC0000C4A0968B1FBF2F101EB8101490000E034
:100FD000491E00910029FBD104E0816A41F0200103
:100FE0008162012480F824502046F8BD002401408D
:100FF000E000002040420F000068C06C7047000015
:101000002DE9F04104004FF000057FD0A06A0026D2
:1010100028B9E66284F82460204600F081F8204672
:10102000FFF730FDA16AC90600D420B1A06A40F0E4
:101030001000A0626AE0A16A21F4885141F0020127
:10104000A162334923688B42E16904D1B1F5402F95
:1010500001D14FF40021277B4FF4807C41EA470205
:1010600061680A43A168614508D0012906D00021C2
:1010700094F814E0BEF1010F02D00AE06146F7E7F0
:10108000C7B1A76A47F02007A762E76A47F00107E0
:10109000E7625F6827F469470F435F6023689968D8
:1010A0001C4F394011439960A16861450BD001295B
:1010B00009D00CE0DFF860E0A7690EEB47370F437B
:1010C00047F40061E5E7218A0D05A5F58015216843
:1010D000CB6A23F470032B43CB62216889680F4BE2
:1010E0001940914208D1E662A16A21F0020141F063
:1010F0000101A162BDE8F081A06A20F0020040F089
:101100001000A062E06A40F00100E0620120F1E717
:10111000003C0140FDF7E1FF00E0FFFFFE0E1FFF76
:1011200000B585B000210091019102910391006802
:101130000E49884218D10E48816941F400718161DD
:10114000816901F400710491816941F004018161B8
:101150008069694600F0040004900220009003209A
:101160000190044800F05EFA05B000BD0024014083
:1011700000100240000801402DE9F84300270D4609
:101180000446009700F058FB804620688168C90536
:1011900008D5A06A40F02000A06284F824700120E5
:1011A000BDE8F8834168C90503D4C06A10F4700F24
:1011B0002AD0022001F07EFB3B490968B1FBF0F622
:1011C0002068036939490B424FEA61014FEAA112D5
:1011D0001FD1C3684FEA611C13EA0C0F19D10369D0
:1011E0000B4225D1C068104222D1142023E0681C94
:1011F0000AD02DB100F020FBA0EB0800A84203D9D3
:1012000020680068800725D5206800688007EED533
:101210002DE003690B4202D1C168114206D0026978
:1012200023490A4206D1C068084203D1542002E093
:10123000292000E0FC204643009816E0681C11D0ED
:101240002DB100F0F9FAA0EB0800A8420AD90098E5
:10125000B04207D2A06A40F00400A06284F8247073
:1012600003209DE70098401C0090B042E6D321681F
:101270006FF012000860A06A40F40070A06220685D
:101280008068C0F3424007280CD1207B50B9A06A87
:1012900020F48070A062A06AC00403D4A06A40F069
:1012A0000100A06200207BE7E00000202449922496
:1012B0004992240070B5044690F8240001280DD00E
:1012C000012084F824002046FFF708FC02004FF0BC
:1012D000000005D084F82400104670BD022070BDC7
:1012E000A16A40F20123994341F48071A1621F4D2C
:1012F00023681F49AB4218D10E6816F4702F14D022
:10130000A66A46F48016A6620E68760505D5A66A1A
:1013100026F4005646F48056A662A66AF6040AD55C
:10132000E66A26F00606E66206E0A66A26F480165D
:10133000A6625E68E9E7E06284F824006FF00200CC
:10134000186020688368C3F34243072B05D1A84285
:1013500008D1096811F4702F04D0816841F480111C
:101360008160B9E7816841F4A001F9E700280140F4
:101370000424014010B5044690F82400012807D049
:10138000012084F824002046FFF77CFB10B107E021
:10139000022010BDA16A21F4885141F00101A1622F
:1013A000002184F8241010BD70B5044600F044FA02
:1013B0000546601C02D004480078044400F03CFA62
:1013C000401BA042FAD370BDD40000202DE9F047A5
:1013D000044651480E460125017E012913D0012102
:1013E000824601762068DFF834914CF250380228AA
:1013F0000CD04B49A068AF1E8842404668D9FFF721
:1014000013FDD8B382E00220BDE8F08760680328AE
:1014100006D00228404621D0FFF7DCFC78B375E007
:101420004046FFF7D7FC002870D14046FFF7FCFC90
:1014300000286BD10320FFF729FC4046FFF7CAFCC8
:1014400020B94046FFF7F0FC00B90025D9F810108C
:10145000484621F00401C9F810100AE0FFF7E4FC47
:10146000A8BB0220FFF712FC4046FFF7DDFC054653
:101470004846016D21F00401016547E00EE0FFE7F9
:101480000120FFF703FC4046FFF7A4FCD9F8101039
:10149000054621F00401C9F8101037E03760A7684D
:1014A0000FE03846FFF71EFC4046FFF7BDFCD9F8B9
:1014B0005010050021F00201C9F850101CD107F5A9
:1014C0000067D4E9020100EBC120B842E9D81DE071
:1014D000FFF780FCD0B93760A76811E03846FFF706
:1014E00001FC4046FFF776FCD9F81010050021F00A
:1014F0000201C9F8101001D0376007E007F5006756
:10150000D4E9020100EBC120B842E7D800218AF8F3
:101510001810284678E70000F82800200020024034
:10152000FFFF07080548016941F080010161016D75
:1015300041F080010165002070470000002002405A
:101540002DE9F05F074625480E460024017E15462A
:10155000984601290BD00121DFF88490824601765C
:101560004E454CF2503005D8FFF734FC04E0022021
:10157000BDE8F09FFFF758FC58BB012F02D0022FA7
:1015800000D00427CB46DFF85C9022014146284674
:10159000FEF7EAFD81B206EB4400FFF7C5FB5E45AE
:1015A0004CF2503008D8FFF715FCD9F8102022F083
:1015B0000102C9F8102007E0FFF736FCD9F85020E7
:1015C00022F00102C9F8502018B9641CE4B2BC42F0
:1015D000DBD300228AF81820CAE70000F828002090
:1015E000FFFF0708002002400B4910B50A690020E0
:1015F00014060A4B0A4A05D54B604A600C6924065A
:1016000000D501200C6D240605D54B644A64096D94
:10161000090600D5012010BD0020024023016745C6
:10162000AB89EFCD2DE9F84FDFF8C891002409F11F
:10163000040A0AF1040B23460F270BF1040ED1E034
:101640000125A54006EA0502AA4276D1DFF8A8C125
:101650004E68A6EB0C0866452BD00DDC032E34D06B
:1016600005DC36B3012E19D0022E2FD11BE0112E2E
:1016700016D0122E2AD119E0B8F5881F19D006DC31
:10168000B8F5803F15D0B8F5801F1FD111E0B8F52F
:10169000001F0ED0B8F5041F18D10AE0CB6815E082
:1016A000CB681B1D12E0CB6808330FE0CB680C330E
:1016B0000CE08B682BB1012B4FF0080303D0456180
:1016C00004E0042302E0056100E00023FF2A01D8C2
:1016D000064601E000F104064FEA840501D9A5F1B0
:1016E0002005D6F8008007FA05FC28EA0C0803FA62
:1016F00005F548EA0508C6F800804D68ED0070D58C
:101700003E4DAE6946F00106AE61AD6924F00306B8
:1017100005F0010500953A4D06EB050CDCF8085084
:10172000A607360F07FA06F825EA0805DFF8D48081
:10173000404503D14FF0000825E052E0DFF8C880B3
:10174000404502D14FF001081DE0DFF8C080404560
:1017500002D14FF0020816E0DFF8B480404502D114
:101760004FF003080FE0DFF8AC80404502D14FF0A6
:10177000040808E0DFF8A080404502D14FF00508DA
:1017800001E04FF0060808FA06F848EA0508CCF828
:1017900008804D68D9F80060ED034D4601D5164329
:1017A00000E096432E604D68DAF80060AD035546C0
:1017B00001D5164300E096432E604D68DBF80060CB
:1017C000ED025D4601D5164300E096432E604D685C
:1017D000DEF80060AD02754601D5164300E0964381
:1017E0002E60641C0A681646E2407FF429AFBDE80B
:1017F000F88F0000000401400000111000100240AA
:101800000000014000080140000C014000100140B0
:101810000014014000180140001C0140C26821EA88
:1018200002030A4043EA0241016170470AB10161C3
:1018300070470904FBE7000001488068704700001A
:10184000D400002070B5040025D094F83D00002598
:1018500020B984F83C50204600F070FA242084F827
:101860003D002068016821F00101016020680168E5
:1018700041F4004101602068016821F400410160E9
:1018800001F08EF94D4A6168914201D84C4900E05F
:101890004C49884201D2012070BD4B492368B0FBFE
:1018A000F1F15E6826F03F060E435E606368934286
:1018B00006D94FF4967359434FF47A73B1FBF3F1A1
:1018C0002368491C1E6A26F03F063143196261688D
:1018D000914210D84900401EB0FBF1F2521CC2F3F5
:1018E0000B02042A01D2042022E0B0FBF1F0401CDC
:1018F000C0F30B001CE0A268F2B301EBC10303EBE1
:101900000116431EB3FBF6F35B1C43F480431B0537
:1019100049D092B301EBC10202EB0111401EB0FBB2
:10192000F1F0401CC0F30B0040F4804040F4004054
:101930002168CA694CF6FF739A431043C861D4E921
:10194000071001432068026822F0C00211430160C1
:10195000D4E9030101432068826848F2FF339A43C7
:1019600011438160D4E9050108432168CA6822F067
:10197000FF021043C86001E00EE016E02068016835
:1019800041F0010101602564202084F83D002563B9
:1019900084F83E50002070BD01EB4106431EB3FBAE
:1019A000F6F35B1CB3E70120C2E701EB4101401EE7
:1019B000B0FBF1F0401CC0F30B00B7E7A0860100BC
:1019C00080841E0000093D0040420F002DE9F84FC1
:1019D0000025DDF82890984617468A46044600956B
:1019E000FFF72AFF064694F83D0020287AD11923F4
:1019F000012283492046009601F064FE0028F5D1BB
:101A000094F83C0001286DD0012084F83C00206847
:101A10000168C90703D1016841F001010160206834
:101A2000016821F400610160222084F83D0010204B
:101A300084F83E0025646762A4F82A80608D2085C2
:101A40007048E06233464A465146204601F050FD58
:101A500000287DD1208DDFF8B081202768B10128D2
:101A600014D00228206801681ED041F48061016012
:101A70002068416980690090B5E02068416981690A
:101A80000091016841F400710160ACE020680168D8
:101A900021F48061016072B620684169816900911A
:101AA000016841F400710AE041F40061016072B61E
:101AB0002068416981690091016821F480610160B9
:101AC00062B690E0032868D801280CD002284B4663
:101AD0004FF000024146204600960FD001F0F2FD83
:101AE000B0BB10E08AE032464946204601F069FE6C
:101AF00070BB20680069616A08706BE001F0E2FD6C
:101B000030BB72B634E02068016821F48061016066
:101B100072B620680069616A0870606A401C606281
:101B2000208D401E2085608D401E6085374846F21E
:101B3000A8110068B0FBF1F0C0EBC00000EB800022
:101B40000090401E009008D020684069C04300E02B
:101B500029E040070CD50098F3E744F8305F67733D
:101B6000A573206940F02000206162B625731AE059
:101B70002068016841F40071016020680069616AB1
:101B80000870606A401C6062218D491E2185618D4C
:101B9000491E618562B621681AE0324649462046F0
:101BA00001F00FFE10B10120BDE8F88F2068006938
:101BB000616A0870606A401C6062218D491E21853F
:101BC000618D491E618521684A69D24352070AD452
:101BD00009690170606A401C6062208D401E20858A
:101BE000608D401E6085208D00287FF46BAF84F8E7
:101BF0003D7084F83E5084F83C50D5E70220D3E78E
:101C0000020010000000FFFF04000100E0000020BF
:101C10002DE9F84F1F4690468A460446DDF8289085
:101C2000FFF70AFE054694F83D0020287FD11923CE
:101C3000012240492046009501F044FD002876D15C
:101C400094F83C00012872D0012084F83C00206800
:101C50000168C90703D1016841F0010101602068F2
:101C6000016821F400610160212084F83D0010200A
:101C700084F83E0000262664C4F824806785608DC1
:101C800020852D48E0622B464A465146204601F009
:101C9000A5FC90B9206841698069009036E02A4629
:101CA0004946204601F0C0FD50B1206C042804D103
:101CB0002068016841F4007101600120BDE8F88FDF
:101CC000606A216800780861606A401C6062618D0A
:101CD000491E6185218D491E89B22185226853697B
:101CE000DB435B070BD451B100781061606A401C84
:101CF0006062608D401E6085208D401E20852A46D2
:101D00004946204601F0B8FC0028CED1208D00289D
:101D1000C5D154F83D0B016841F4007101602020E9
:101D200004F81E09E67766770020C7E7FFE7022080
:101D3000C4E70000020010000000FFFF10B586B0ED
:101D40000021009101910291039100680F4988429E
:101D50001AD10F4CA06940F00800A061A069694643
:101D600000F008000490C020009012200190032091
:101D700003900848FFF756FCE06940F40010E0616A
:101D8000E06900F40010049006B010BD005400405B
:101D900000100240000C01400248816802781144A2
:101DA00081607047D4000020074810B5016841F0F9
:101DB00010010160032000F075F80F2000F006F814
:101DC00000F024F8002010BD0020024070B50D4D39
:101DD00004464FF47A712878B1FBF0F00A4909689B
:101DE000B1FBF0F001F095FA48B9102C07D20022AF
:101DF0002146501E00F036F800206C6070BD0120B6
:101E000070BD0000D4000020E00000200C4808B5A0
:101E1000816941F001018161816901F00101009155
:101E2000C16941F08051C161C06900F080500090EB
:101E30000448416821F0E06141F00071416008BD53
:101E40000010024000000140002809DB00F01F02E2
:101E5000012191404009800000F1E020C0F800110C
:101E600070470000F0B40E4B1B680C46C3F302230E
:101E7000C3F10705042D00D90425191D072901D236
:101E8000002300E0DB1E012606FA05F1491E214071
:101E900099409E40761E16403143F0BC04F0D6B9FE
:101EA0000CED00E0064900F0070208684FF6FF035A
:101EB000184040EA0220034A1043086070470000BF
:101EC0000CED00E00000FA0510B50C0607D501F096
:101ED000070101EB810100EBC100283005E001EBB7
:101EE000810100EBC10000F5B47099B232B101225A
:101EF00002730181190C4181002010BD0022027380
:101F0000C180F9E7704701EB810200EBC202D0F813
:101F1000E802D26B02F04FBF01EB810200EBC2027C
:101F2000D0F8E802D2F87C2102F0A8BF70B50446D0
:101F30000B0601F0070000EB800104EBC1014FF03C
:101F400001024FF0000503D581F82920283103E074
:101F500081F8695101F5B471087094F8A80201285C
:101F600008D084F8A822206803F0C2FC84F8A852A4
:101F7000002070BD022070BD70B5044601F00F0056
:101F80006268904201D9012070BD0B0601F0070084
:101F900000EB800104EBC1014FF001024FF000059E
:101FA00003D581F82920283103E081F8695101F532
:101FB000B4718D70087094F8A802012808D084F8D4
:101FC000A822206803F031FD84F8A852002070BDDB
:101FD000022070BD2DE9F05F04685FEA424C0B7887
:101FE0008D69B4F850C04FF000064BF68F7948F277
:101FF000800A48F68F7B48F2C00E4FF480672AD5DE
:102000004FF0020808EBC308C44407EB4C07E45B3D
:10201000C4F30904A54203D32D1B8D6101D00BE04D
:102020008E61066836F8235005EA090585F40055E7
:1020300045EA0A0526F82350520609D50D780368AB
:1020400033F8252002EA0B0242EA0E0223F825208B
:1020500084B30A8929E04FF0060808EBC308C4449A
:1020600007EB4C07E45BC4F30904A54203D32D1B23
:102070008D6101D00BE08E61066836F8235005EAC9
:10208000090585F4005545EA0A0526F8235052064D
:1020900009D40B78056835F8232002EA0B0242EADE
:1020A0000E0225F823202CB14A894969006823468D
:1020B00004F042F82046BDE8F09F2DE9F05F0546A8
:1020C00000680C465FEA426C16468B692278B0F8CD
:1020D00050C048F68F774CF280094FF6FF7B4FF4E3
:1020E000004E4FF4806A4FF000017BD54FF002089C
:1020F00008EBC208E0440AEB480C30F80C00C0F3CF
:102100000900834211D91B1AA3610FD0730407D5AC
:102110002E6836F822303B4043EA090326F8223085
:1021200094F82420012A50D04EE1A161607810B1CA
:10213000012813D01AE02868B0F85030184400EB9A
:102140000210B0F8042422F4F842A0F80424B0F8F5
:10215000042442F40042A0F8042407E02868B0F800
:102160005030184400EB0210A0F80414627828687C
:1021700012B1012A11D018E0B0F8501008442178AB
:1021800000EB0110B0F80C1421F4F841A0F80C1485
:10219000B0F80C1441F4004105E0B0F850201044B0
:1021A000227800EB0210A0F80C1421782846FFF7E3
:1021B000AAFE7004B8D521782A6832F82100384088
:1021C00040EA090022F82100FEE0626902446261EF
:1021D000E2690244E2612369226A9A4203D3184603
:1021E000111A04E038E084F824100AB11046216284
:1021F000617811B1012923D02BE02968B1F8502072
:102200001144227801EB021101F2044148B13E2849
:102210000FD84208C30700D0521C0BEA82220A8062
:1022200017E00A8822F4F8420A800A8842F4004241
:10223000F5E74209C30600D1521E4EEA8222EEE7BC
:102240002968B1F850201144227801EB0211A1F85D
:10225000040483B22289B3E04FF0060808EBC208F9
:10226000E0440AEB480C30F80C00C0F3090083424C
:1022700011D31B1AA3610FD0730407D42E6836F84C
:1022800022303B4043EA090326F8223094F8242008
:10229000012A50D098E0A161607810B1012813D0D4
:1022A0001AE02868B0F85030184400EB0210B0F87B
:1022B000042422F4F842A0F80424B0F8042442F4E0
:1022C0000042A0F8042407E02868B0F85030184411
:1022D00000EB0210A0F804146278286812B1012AF9
:1022E00011D018E0B0F850100844217800EB01102C
:1022F000B0F80C1421F4F841A0F80C14B0F80C1448
:1023000041F4004105E0B0F850201044227800EB81
:102310000210A0F80C1421782846FFF7F4FD700491
:1023200052D42278296831F82200384040EA090066
:1023300021F8220048E0626902446261E2690244D5
:10234000E2612369226A9A4203D31846111A216274
:1023500004E00AB11046216284F8241062782968EA
:1023600012B1012A22D029E0B1F85020114422787C
:1023700001EB021101F20C4148B13E280FD842088E
:10238000C30700D0521C0BEA82220A8016E00A889A
:1023900022F4F8420A800A8842F40042F5E7420932
:1023A000C30600D1521E4EEA8222EEE7B1F8502059
:1023B0001144227801EB0211A1F80C04628983B266
:1023C0006169286803F0D6FE21782A6832F8210076
:1023D00048F6BF73184080F0300048F2800318437D
:1023E00022F821000020BDE8F09F10B5044690F8C7
:1023F000A80201280AD0012084F8A802080607D5FF
:1024000001F00701206803F076FE04E0022010BD11
:10241000206803F06EFE002084F8A80210BD01F0D1
:10242000070101EB810100EBC100D0F88401704786
:102430002DE9F04104460F0601F0070000EB800192
:1024400004EBC1014FF001064FF0000503D581F800
:102450002960283103E081F8695101F5B4710870F1
:102460000A61CB704A7802B1C881022B00D10D718C
:1024700094F8A802012809D084F8A862206803F023
:1024800009F9284684F8A852BDE8F0810220FBE74C
:1024900070B50C4601F0070505EB850100EBC101A5
:1024A000C1E95F230022C1F8842181F8692181F804
:1024B000685101F5B4716207006803F00BFB00205E
:1024C00070BD70B504460D4601F007006168884292
:1024D00001D9012070BD29064FF000064FF001021E
:1024E00007D500EB800104EBC10181F829202831D8
:1024F00007E005EB850104EBC10181F8696101F595
:10250000B4718A70087094F8A802012807D084F882
:10251000A822206803F0C5FA680702D006E002206E
:1025200070BD04F52C71206803F07DFA84F8A86270
:10253000002070BD70B50C4601F0070505EB850164
:1025400000EBC101C1E90F23012281F84C208B640B
:1025500000234B6481F8292001F8285F6207006896
:1025600003F0B8FA002070BD1FB50446006803F000
:10257000DFFD000402D5204601F0CAFB206803F00D
:10258000D7FD40050CD5206830F8441F21F4806148
:102590000180204600F026F90021204600F03DF998
:1025A000206803F0C5FD400405D5206830F8441FBD
:1025B00021F480410180206803F0BAFD800405D534
:1025C000206830F8441F21F400510180206803F096
:1025D000AFFDC00414D5206830F8401F21F004017D
:1025E0000180206830F8401F21F00801018020465A
:1025F00000F00BF9206830F8441F21F4805101806D
:10260000206803F095FD00053ED52268002069464C
:1026100032F8203021F81030401CC0B20828F7D31F
:1026200032F8400F40F001001080206830F8402F51
:1026300022F0010202802068B0F844205205FBD548
:1026400030F8442F22F4806202800020236831F8A1
:10265000102023F82020401CC0B20828F6D32068A0
:1026600030F8401F41F008010180206830F8441F15
:1026700021F400610180206830F8401F41F004011E
:102680000180204600F0FEF8206803F051FD80052F
:1026900008D5206830F8441F21F4007101802046DD
:1026A00000F0B7F8206803F043FDC00505D52068A9
:1026B00030F8441F21F4807101801FBD2DE9F041E5
:1026C00086B0040004D094F8A902002520B108E0E7
:1026D000012006B0BDE8F08184F8A852204600F041
:1026E0005BF8032084F8A902206803F095F904F14F
:1026F0001001142288466846FDF746FD94E80F0055
:1027000003F0F4F80226D0BB0021206803F02AFD74
:10271000002001270FE000BF00EB800104EBC101A6
:1027200081F8297001F8280FC881CD700D614D61C5
:10273000401CC0B28D6161688142EDD8002011E07B
:1027400000EB800104EBC10181F8695181F8680157
:1027500081F86B51C1F87851C1F87C51401CC0B26E
:10276000C1F8805161688142EAD814224146684626
:10277000FDF70AFD94E80F0003F045F910B184F865
:10278000A962A5E784F8245084F8A972206803F0B0
:1027900038F900209DE7000008B500680F4988421D
:1027A0001AD10F48C16941F40001C161C06900221A
:1027B00000F40000009011461320FFF753FB132094
:1027C000FFF742FB002211461420FFF74BFBBDE848
:1027D00008401420FFF738BB08BD0000005C004033
:1027E0000010024070B5044680680125022801D01F
:1027F000FEF726FA2946D4F8E80202F028FCD4F8BD
:10280000E802BDE8704002F0E4BBD0F8E80202F054
:1028100008BCD0F8E80202F00EBC10B5044690F8EF
:10282000A80201280BD0012084F8A80284F8241003
:10283000206803F099FC002084F8A80210BD022053
:1028400010BDD0F8E82200F52C71104602F00BBC48
:1028500010B5044690F8A802012810D0012084F891
:10286000A802206803F03CFC01212046FFF74AFB48
:10287000206803F0C4F8002084F8A80210BD0220EC
:1028800010BD000010B50446D0F8E80202F02AFCA2
:10289000A069002804D00348016841F006010160E6
:1028A00010BD000010ED00E00149012008627047F2
:1028B00000000E4210B52CA401461DCC86B08DE858
:1028C0001D002DA02D4C00680490002004292FD05D
:1028D0000BDC01292FD0022928D100F071F96168A1
:1028E000C1F38131491C49001EE0082920D010297C
:1028F0001CD161682268D20118D5C1F38342C90393
:102900001DF8020009D5616804AAC1F34041515C79
:102910001B4AB2FBF1F1484301E01A4948436168A0
:10292000490203D440000321B0FBF1F006B010BD12
:1029300000F056F9FAE7226AC2F30121012903D116
:10294000920701D5C803F1E7022905D1626A92070F
:1029500002D549F64040E9E70329E7D12168890318
:10296000E4D54FF22440E1E7020304050607080915
:102970000A0B0C0D0E0F1010010200000010024097
:1029800000127A0000093D002DE9F8430546007861
:10299000354CC00754D0E0690026C00008D4E06977
:1029A00040F08050E061E069012600F08050009026
:1029B0002E480168C90512D40168804641F480712F
:1029C0000160FEF739FF074605E000BFFEF734FF60
:1029D000C01B642823D8D8F80000C005F6D5206AAB
:1029E00010F4407021D0A98801F4407181421CD0BC
:1029F000206A1F49012220F440700A6000220A6008
:102A00002062C00711D0FEF717FF074641F2883851
:102A100008E000BFFEF710FFC11B414502D90320AB
:102A2000BDE8F883206A8007F4D5206A696820F43D
:102A30004070084320621EB1E06920F08050E061E0
:102A40002878800705D56068A96820F440400843CD
:102A500060602878C00605D56068696920F4800048
:102A6000084360600020DBE7001002400070004077
:102A7000400442422DE9F0470F46050061D0434E25
:102A8000306800F00700B84209D2306820F0070033
:102A900038433060306800F00700B84251D12868F0
:102AA0003B4C810712D5400703D5606840F4E060D5
:102AB00060602878000703D5606840F4605060606B
:102AC0006068A96820F0F000084360602878C007BB
:102AD00028D06868012810D02168022810D0890702
:102AE00000292EDA616821F0030101436160FEF7DD
:102AF000A3FE804641F288390DE021688903EFE7A3
:102B00008901EDE7FEF798FEA0EB0801494502D9DF
:102B10000320BDE8F0876068696800F00C00B0EB46
:102B2000810FEFD1306800F00700B8420BD9306850
:102B300020F0070038433060306800F00700B842EA
:102B400001D00120E5E72878400705D56068E968ED
:102B500020F4E060084360602878000706D56068CC
:102B6000296920F4605040EAC100606000F038F844
:102B70006168084AC1F30311515CC8400649086006
:102B800006480068FFF722F90020C2E70020024053
:102B900000100240768E0008E0000020D8000020DF
:102BA0000448054900684968044AC1F30221515CA0
:102BB000C8407047E000002000100240868E0008E8
:102BC0000448054900684968044AC1F3C221515CC0
:102BD000C8407047E000002000100240868E0008C8
:102BE00012A185B00FC98DE80F0014A0144A006827
:102BF00004905168134801F00C03042B10D0082BEB
:102C00000ED1C1F38343C9031DF803000AD55168EF
:102C100004AAC1F34041515C0A4A5043B0FBF1F0B1
:102C200005B0704708494843FAE70000020304056D
:102C3000060708090A0B0C0D0E0F10100102000008
:102C40000010024000127A0000093D002DE9F84F03
:102C5000040070D02078C04DC00749D06868C0F328
:102C60008100012807D06868C0F38100022809D1DB
:102C70006868C00306D52868800339D560680028D5
:102C8000E7D035E06068B0F5803F0BD010B1B0F50B
:102C9000A02F11D0286820F480302860286820F404
:102CA000802002E0286840F480302860606890B19D
:102CB000FEF7C2FD06460AE0286840F4802028603E
:102CC000F0E700BFFEF7B8FD801B642873D82868C2
:102CD0008003F7D50CE0FEF7AFFD064605E000BF28
:102CE000FEF7AAFD801B6428F0D828688003F7D47B
:102CF00020789A4E80074FF001094FF0000839D52F
:102D0000686810F00C0F07D06868C0F381000228D3
:102D100009D16868C00306D42868800714D52069E3
:102D2000012808D110E02069B0B1C6F80090FEF784
:102D300083FD074605E00AE1FEF77EFDC01B022881
:102D4000C4D828688007F7D52868616920F0F800A2
:102D500040EAC10028600DE0C6F80080FEF76CFD77
:102D6000074604E0FEF768FDC01B022823D8286848
:102D70008007F7D4207800072CD57948A169D9B10C
:102D8000C0F80090FEF758FD074604E0FEF754FD3A
:102D9000C01B02280FD8686A8007F7D571484FF426
:102DA000FA510068B0FBF1F0009000BF0098411E9E
:102DB0000091FAD20EE080E0C0F80080FEF73CFD02
:102DC000074604E0FEF738FDC01B022875D8686A84
:102DD0008007F7D42078400760D5E8690027C00055
:102DE00008D4E86940F08050E861E869012700F004
:102DF000805000905C480168C90513D4016883467F
:102E000041F480710160FEF717FD824606E000BFC5
:102E1000FEF712FDA0EB0A0064284ED8DBF8000094
:102E2000C005F5D5E06801280AD008B1052813D0FF
:102E3000286A20F001002862286A20F0040002E0DD
:102E4000286A40F001002862E06841F2883B98B1AE
:102E5000FEF7F2FC82460BE0286A40F0040028628C
:102E6000EEE700BFFEF7E8FCA0EB0A0159455AD88F
:102E7000286A8007F6D50CE0FEF7DEFC824605E006
:102E8000FEF7DAFCA0EB0A0159454CD8286A800706
:102E9000F6D41FB1E86920F08050E861E06988B39A
:102EA0006968C1F38101022944D00228C6F8608014
:102EB00004D0FEF7C1FC044638E034E0FEF7BCFC69
:102EC000074604E0FEF7B8FCC01B02282BD8286890
:102ED0008001F7D4206AB0F5803F05D16868A16809
:102EE00020F4003008436860D4E9080108436968A9
:102EF00021F4741108436860C6F86090FEF79CFCEA
:102F0000044606E025E000BFFEF796FC001B022801
:102F100009D828688001F7D51BE000BFFEF78CFCBC
:102F2000001B022802D90320BDE8F88F2868800121
:102F3000F4D40EE00128F7D06868226A00F48031EA
:102F4000914204D1616A00F47010884201D00120DE
:102F5000EAE70020E8E700000010024000004242DB
:102F600080044242E000002000700040F8B50500F7
:102F70004FF0000016460C46009006D02CB10022FF
:102F80006946284600F019F808B10120F8BD287BF1
:102F90002070E87BE070697B6170A97BA17056B1FD
:102FA00001F04AF8E070607801F046F86070A078AF
:102FB00001F042F8A0700020F8BD2DE9F0479146DD
:102FC0000C465FEA00084AD084B3D8F80000406895
:102FD000400744D4404601F0CDF84FF46162054605
:102FE000B0FBF2F1B0FBF2F302FB13503C23B0FB59
:102FF000F3F0B5FBF2F6607002FB1650B0FBF3F293
:1030000003FB1200A070182931D31820B1FBF0F790
:10301000B1FBF0F200FB12102070404601F0A3F863
:10302000411C04D0A84202D9461B02E017E04FF031
:10303000FF36A7EB071000EB4000C0EB001005EBDC
:10304000C0152946404601F0E4F840B9701C01D093
:10305000711900E03146404601F0C7F810B1012077
:10306000BDE8F0873946404600F0F1FF00E02170EE
:10307000B9F1000F0BD0207800F0DEFF20706078EF
:1030800000F0DAFF6070A07800F0D6FFA07000209A
:10309000E6E7000070B5040003D0607C002610B1A4
:1030A00005E0012070BD2674204600F043F80220A0
:1030B0006074204600F010F9042578BB204601F02A
:1030C0001DF858BB2068416821F007014160A068E5
:1030D00020B11748016821F0010101601448001F68
:1030E0000168A26821F46071114301606068411CAD
:1030F00004D10120FFF7DEFB80B1401E21688A6801
:1031000022F00F0242EA10428A602168CA6860F326
:103110000F02CA60204601F00BF808B16574C0E7E1
:10312000E67301206073A0736074002070BD00001E
:10313000306C004008B50068084988420DD1FFF79F
:10314000B3FB0748C16941F00061C161C06905492D
:1031500000F0006000900120086008BD00280040D9
:10316000001002403C0442422DE9F0410D460400AB
:103170003BD0C5B3207C01283AD04FF0010884F839
:10318000108002206074E87872B300F04CFFE073A6
:10319000687800F048FF6073A87800F044FFA073DF
:1031A000C2B2617BE07B00F0F5FF207328702046FF
:1031B00000F0E0FF4FF46161B0FBF1F10025182948
:1031C0002DD91822B1FBF2F1A1EB011101EB410164
:1031D000C1EB011100EBC1163146204601F019F890
:1031E0000427C8B90BE000E004E00120BDE8F0814D
:1031F0000220FBE7E07368786073A878CFE7204689
:1032000000F0B1FF411C0AD0B04208D20649014487
:10321000204600F0EAFF10B167742574E5E784F8F2
:10322000118025740020E1E7805101002DE9F04173
:103230000D46040024D01DB3207C012823D04FF07C
:10324000010884F81080022060742878EAB100F048
:10325000EAFE4FF4616100FB01F6687800F0E3FEDE
:10326000C0EB001006EB8006A87800F0DCFE3518F5
:103270002946204600F0CDFF0026042710BB0FE0B2
:103280000120BDE8F0810220FBE74FF46161484373
:103290006978C1EB011100EB8100A9784518E7E7D7
:1032A0002068416821F005014160204600F05BFF85
:1032B000411C0AD0A84208D206490144204600F029
:1032C00094FF10B167742674DAE784F811802674CD
:1032D0000020D6E78051010070B504000AD02068B4
:1032E000416821F008014160FEF7A6FA05464FF457
:1032F0007A7608E0012070BDFEF79EFA401BB042CE
:1033000001D9032070BD206840680007F4D5002073
:1033100070BD10B5401EB0F1807F01D3012010BDFB
:103320004FF0E02460610F21601702F08FFF002052
:10333000A06107202061002010BD70B5040004D0FA
:1033400094F83D00002510B106E0012070BD84F81E
:103350003C50204600F022F8242084F83D002068EC
:10336000C16821F40051C160204601F013FB2068C0
:10337000016921F4904101612068416921F02A012D
:1033800041612068C16841F40051C160256420207A
:1033900084F83D0084F83E00002070BD30B585B053
:1033A0000024009401940294039400681449884214
:1033B00024D11448816941F480418161816901F41B
:1033C00080410491816941F00401816180690E4D61
:1033D00000F0040004904FF400700090022001906F
:1033E0000320039069462846FEF71CF92815CDE90D
:1033F0000004694628460294FEF714F905B030BD72
:103400000038014000100240000801402DE9F84357
:10341000044690F83D001F4616460D4620284CD124
:10342000C5B1BEB194F83C00012846D0012084F813
:103430003C004FF00008C4F84080212084F83D0093
:10344000FEF7FAF9A6848146E684A068B0F5805FAD
:1034500003D004E00120BDE8F883206928B12E469E
:103460005FF0000584F83C800EE00026FAE780213A
:10347000204601F0EBFAA0B9AEB116F8010B2168B5
:103480004860E08C401EE084E08C4B464FF0000228
:1034900000970028EBD14FF04001204601F0D6FA0A
:1034A00030B10320D7E735F8020BC0F30800E6E798
:1034B000202084F83D000020CDE70220CBE7FEE786
:1034C00001684A69D24352050FD46FF480624A61A1
:1034D000002140F8301F202242738173026942F0BC
:1034E0000402026101730120704700207047000050
:1034F0002DE9F84F0446C06A1E4693460D462168E2
:103500000A6842F480620A60082807D0012805D0C2
:1035100010F5803F02D0206B112804D1206801688B
:1035200041F4807101604FF001195B460022494669
:103530002046009600F0C6F84FF4007840B12068AD
:103540000068C00501D5C4F840800320BDE8F88FAD
:103550002069DFF884A0B0F5804F0FD006202168E5
:1035600000EAD51747F0F000086133465A460AF1E1
:103570000601204600F0DAF858BB03E0E8B240F05C
:1035800001001CE02168E8B2086133465A46514602
:10359000204600F0CBF8E0B92068416981690091CC
:1035A000016841F4807101605B4600224946204673
:1035B000009600F087F80028C1D147F0F10021689B
:1035C000086133465A465146204600F0AFF80028BD
:1035D000BCD00120BAE7000002000100F8B50446A3
:1035E000C06A1E460D461746082807D0012805D098
:1035F00010F5803F02D0206B122804D120680168AA
:1036000041F480710160134600224FF00111204601
:10361000009600F057F840B120680068C00502D558
:103620004FF4007020640320F8BD2069B0F5804F8E
:103630000ED00620216800EAD51040F0F0000861A5
:1036400033463A460B49204600F070F878B902E05C
:1036500005F0FE0000E0E8B2216808610549334644
:103660003A46891F204600F061F80028DCD001208E
:10367000F8BD00000800010070B516460D4604466E
:103680000DE02046FFF71CFF08B1012070BD681C4B
:1036900005D0FEF7D1F8801BA84207D835B12068C5
:1036A0004069C0434007ECD4002070BD002044F8BE
:1036B000300F20216173A073216941F02001216145
:1036C0002073E2E72DE9F0471E4690460D4604467A
:1036D000C1F30747DDF8209008E0701C06D0FEF724
:1036E000ABF8A0EB0900B0420FD876B12068012FEB
:1036F00018D0806925EA00000004000C14D00021D5
:103700004145EAD00020BDE8F087002044F8300FA2
:1037100020216173A073216941F020012161207390
:103720000120F0E74069E5E70121E9E72DE9F047ED
:103730009A4691460E46044600254FF02008C1F3F4
:10374000074725E020684069C043400514D420683D
:10375000016841F40071016021686FF48060486184
:10376000256384F83D8084F83E50206C40F00400CE
:10377000206484F83C501FE0B9F1FF3F08D0FEF709
:103780005BF8A0EB0A0149450CD8B9F1000F09D04C
:103790002068012F13D0806926EA00000004000C85
:1037A0000BD0CFE744F8305F84F80D80A573206913
:1037B00040F02000206125730120BDE8F0874069BA
:1037C000EAE72DE9F041002590460E460446202701
:1037D00017E04069C043C0060CD454F8301B6FF0AA
:1037E0001000486144F810596777A577206A206275
:1037F000257717E0FEF720F8A0EB0800B04208D8C4
:103800003EB120684169C9434906E2D40020BDE8C1
:10381000F08144F8305F6773A573206940F02000A1
:10382000206125730120F2E770B516460D46044667
:103830000DE02046FFF744FE08B1012070BD681C72
:1038400005D0FDF7F9FF801BA84207D835B12068E5
:103850004069C0430006ECD4002070BD002044F84D
:10386000300F20216173A073216941F02001216193
:103870002073E2E7F0B500230A24302537261F46DF
:1038800011E000BFB4EB107F02D905EB107C01E022
:1038900006EB107C01F813C001EB430C00015B1C2C
:1038A0008CF80170DBB29342ECD3F0BD70B5D0F868
:1038B000B842054694F8180840B9D4F8140828B15D
:1038C000607A18B90121284601F0FAFB81212846C7
:1038D00001F0F6FB607A022808D104F60C022846B3
:1038E000BDE870401F23012101F06ABB70BD0000DC
:1038F00070B5D0F8B84205460121D4F81008C4F8D4
:103900003008D4F81408C4F83408284601F000FB45
:103910001F280DD12849D4F80C08884208D194F802
:103920001918012904D894F81A0808B1102809D9DF
:1039300094F8191820230522284600F0C5FE02201D
:10394000607209E004F61B02284600F087FC00289C
:10395000207A08DA052804D02846BDE87040FFF731
:10396000A5BF012122E0022825D0012823D0032869
:1039700021D06689CEB1D5F8B812284604F10C02E0
:10398000D1F81438B34200D33346D1F834489BB24F
:10399000A41BC1F83448002481F8384804240C7270
:1039A000BDE87040812101F0A6BB00212846BDE89A
:1039B000704000F083B870BD5553424310B5D0F845
:1039C000B842627A022A08D009060BD5012A09D02A
:1039D000BDE81040012100F071B8812101F070FBB9
:1039E0000020607210BD10B5D0F8B8220446107ADD
:1039F000022805D0032801D0042810D1002109E0B5
:103A000092F81918204602F61B0200F027FC002845
:103A100005DA01212046BDE8104000F04FB810BD86
:103A200010B5D0F8B8220446107A80B1012813D11D
:103A300092F81918204602F61B0200F00FFC00282D
:103A40000ADA2046BDE81040012100F037B82046D0
:103A5000BDE81040FFF74CBF10BDD0F8B802002100
:103A60000172704770B5D0F8B84200210546217246
:103A7000617284F85D1884F85C18D0F8BC020168A3
:103A8000002088470121284601F039FA8121284683
:103A900001F035FA04F60C022846BDE870401F23F9
:103AA000012101F08DBAD0F8B82200211172012154
:103AB00051721F2302F60C0201F082BA70B5D0F8E1
:103AC000B84205460B48C4F82C0884F83818002082
:103AD00020720D2304F62C028121284601F00BFBF5
:103AE00004F60C022846BDE870401F23012101F0B6
:103AF00067BA0000555342533EB50021114800916A
:103B000001910F4A029102608160017301750124E5
:103B10004FF460220461C2614160FDF771FA08B19F
:103B2000FDF78EF804200094CDE901406946054870
:103B3000FDF7E4F9002801D0FDF782F83EBD000052
:103B400000240140F811002010B504490448FDF795
:103B500079F80249491E087010BD00005D00002080
:103B60004800002030B585B0002418480094019426
:103B700002940394816941F020018161816901F01F
:103B800020010491816941F004018161816901F0A2
:103B900004010491816941F00801816180690C4D43
:103BA00000F008000490002230212846FDF73EFE78
:103BB000302000900120CDE90104022003906946E5
:103BC0002846FDF72FFD05B030BD00000010024073
:103BD000000C01400D4810B50B4901600C494160D3
:103BE00000214FF480428160C0E90312416181618C
:103BF000C1610162FDF726FE002803D0BDE8104038
:103C0000FDF71EB810BD000000540040281200202F
:103C1000A08601001CB500241848019416490094A0
:103C20000160611E41604FF480718160FFF732FADC
:103C300008B1FDF705F88DF804408DF805408DF8C2
:103C40000640012201A90D48FFF7F0FA08B1FCF780
:103C5000F7FF01208DF800008DF801008DF80200BB
:103C600002468DF8034069460448FFF77DFA0028B4
:103C700001D0FCF7E5FF1CBD002800407C120020AD
:103C80000C4810B50A4901604FF4E1314160002150
:103C900081600C22C160C0E904128161C161FFF73B
:103CA0004CFB002803D0BDE81040FCF7C9BF10BD95
:103CB000003801409012002010B500220F49104832
:103CC00001F052F808B1FCF7BBFF0E490C4801F0B7
:103CD00029FB08B1FCF7B4FF0B49094801F07EFA53
:103CE00008B1FCF7ADFF064801F072FB002803D0D5
:103CF000BDE81040FCF7A4BF10BD00006400002028
:103D0000D4120020F0000020B4000020FEE7FEE7FF
:103D10002DE9F84F044640F68F7B48F60F7A4FF0B6
:103D200002094FF4806874E1B0F8441011F00F06F6
:103D30003AD030F8267039047DD530F8261001EAE3
:103D40000B0141F0800120F8261006EB860004EB01
:103D5000C00595F8740105F5B47500286CD0E878B5
:103D600002286AD02878226832F8201048F68F732B
:103D7000194048F2C003194322F820102878D4F8DB
:103D800000C03CF82010BCF8502049047ED509EB57
:103D9000C000111808EB41003CF800008005800DC0
:103DA000009074D02A89D8E0C9062DD4018801EA90
:103DB0000A0141F400410180216804F12805B1F8AD
:103DC00050202B7809EBC300024408EB4200085A4C
:103DD000C0F309006064E16B0844E0630021204601
:103DE000FEF791F894F8240000289CD0A8690028D8
:103DF00099D194F82400216840F08000A1F84C008B
:103E0000002084F8240004E1018804F5B4750A0553
:103E100021D5B0F850202B78062101EBC3010A44CC
:103E200008EB4201405A04F52C71C0F30903EB6121
:103E3000EA88206802E0ACE068E07AE002F07CF911
:103E40002168088800EA0B0040F0800008802046C6
:103E5000FEF7F7FCDDE00904D5D5018801EA0B0186
:103E600041F0800101802068B0F850202B780621B5
:103E700001EBC3010A4408EB4201405A83059B0D44
:103E8000EB6110D0696971B1EA8801E058E056E051
:103E9000206802F051F9E969686908446861002105
:103EA0002046FEF739F82068018809052DD4B0F8BE
:103EB00050100844296900F20C4051B13E2910D835
:103EC0004A08C90700D0521C4FF6FF7101EA82214F
:103ED0000FE0018821F4F8410180018841F400419C
:103EE00007E04A09C90600D1521E4FF4004141EAD9
:103EF00082210180206801884BF68F72114081F485
:103F0000405148F280021143018082E0D4F800C0A1
:103F1000BCF850102A78062000EBC200014408EBE0
:103F200041003CF800008005800D00901AD0EA881E
:103F300013E03A4629462046FEF74CF8009011E07F
:103F4000062101EBC000111808EB41003CF800000D
:103F50008005800D009005D06A8903466046696936
:103F600002F0EAF8E96900980844E8616969009894
:103F700008446861A86918B129690098814204D988
:103F800029782046FDF7C8FF03E02946206801F0A4
:103F9000A1FD38063DD506EB860004EBC001206884
:103FA00030F8262002EA0A0242F4004220F82620D5
:103FB00091F82B002831032804D018B1022824D10D
:103FC000F80522D42368B3F850200D7809EBC5001A
:103FD000024408EB4200185A8A69C0F30900824281
:103FE0000CD9121A8A610BD04A6902444A61CA6923
:103FF0001044C861206801F06DFD0AE0002088616E
:10400000E9B22046FDF77FFF03E03A462046FEF77F
:1040100054F82068B0F8441009043FF585AE00203C
:10402000BDE8F88F7047010901EB810100F00F0036
:1040300000EB4100C0B27047002102E00A38C0B274
:10404000491C0A28FAD2090740EA116070472DE995
:10405000F04104460025C07B627BA37B42E0012A3D
:1040600016D0032A14D0052A12D0072A10D0082A05
:104070000ED00A2A0CD00C2A0AD0042A10D0062A04
:104080000ED0092A0CD00B2A0AD0022A0DD028E023
:104090001F2B0CD30C2A05D101221346401C20E013
:1040A0001E2B04D30123521C1BE01C2B02D203F154
:1040B000010316E011D183B29E0710D16426B3FB31
:1040C000F6F706FB173636B94FF4C876B3FBF6F7AA
:1040D00006FB17331BB91D2303E01D2B01D103225F
:1040E00001236D1C8D42BAD3D1B2E0736173DAB291
:1040F000A27300F04FF82073BDE8F08170B504465C
:10410000FDF79AFB05464FF47A7606E0FDF794FB3F
:10411000401BB04201D9032070BD20684068800672
:10412000F4D52068416841F010014160002070BD65
:1041300070B504460068416821F010014160FDF748
:104140007BFB05464FF47A7607E000BFFDF774FB72
:10415000401BB04201D9032070BD20684068800632
:10416000F4D5002070BD0168086A496A89B241EA45
:1041700000407047006881698AB2C1698BB2816969
:1041800089B28A4203D0C06961F31F40704743EA95
:1041900002407047F0B56424C1EBC1030927A500B4
:1041A000072603EB01130329B3FBF7F100F5FA60CF
:1041B000114401440AD2401EB0FBF4F201EB90011D
:1041C000B0FBF5F0891A0844001D08E0B0FBF4F2DA
:1041D00001EB9001B0FBF5F0891A0844801CB0FB9C
:1041E000F6F106FB1100C0B2F0BD70B50D460646F3
:1041F0000024FFF783FF48B93168280C0862316852
:10420000A8B248623046FFF793FF00B10124204670
:1042100070BD70B50D4606460024FFF76FFF48B924
:104220003168280C88613168A8B2C8613046FFF750
:104230007FFF00B10124204670BD10B5D0F8B84210
:104240001A44D4F860389A4206D92123052200F096
:104250003BFA4FF0FF3010BD002010BD2DE9F041BA
:1042600013780024232B7DD00DDC1A2B7BD005DCAA
:10427000EBB1032B39D0122B11D163E01B2B01D0F2
:104280001E2B0CD18DE02A2B6ED004DC252B6CD09C
:10429000282B04D1ABE02F2B68D05A2B67D02023DA
:1042A000052200F011FA4FF0FF30BDE8F081D0F8A0
:1042B000B87205460E46D7F8140828B1202397F89F
:1042C0001918052228469FE0D5F8BC0281683046BF
:1042D000884740B13A2302223146284600F0F4F9DB
:1042E000052038729BE07C8199E0D0F8B80200216B
:1042F0004318491CC9B21C731229F9D370210173E8
:104300000C21C17490F85C1890F85D38994212D075
:1043100000EBC103491C93F83C58857393F841584E
:10432000057693F84038C9B2437680F85C180429C2
:1043300001D180F85C4812214181117912296ED88F
:1043400041816CE05478D0F8B832E40712D00720ED
:1043500034495881401E0004000C03EB00040A5C41
:10436000227305E03DE020E044E03DE045E02AE046
:10437000F0D154E0D0F8BC0201EBC1011279C06960
:1043800000EB81010879401D824200D81046588117
:1043900004E0401E80B21C180A5C22730028F8D189
:1043A0003DE0D0F8B802448139E0D0F8B8120820D6
:1043B0001D4A4881401E0004000C01EB0004135C00
:1043C0002373F7D12BE0D0F8B8020821174A4181B6
:1043D000491E0904090C00EB0104535C2373F7D157
:1043E0001DE000F03AF91AE000F00CF917E000F0D7
:1043F000BCF814E000F082F911E05278D0F8B8521D
:10440000920704D52423052200F05EF907E005F6A3
:1044100064020CCAFFF711FF002800DB6C8100204A
:1044200043E700003A8F0008418F0008498F0008D9
:104430002DE9F041D0F8B84206460F46B4F85E08C0
:10444000D4F868584FF4006145438D4200D30D46BF
:10445000B5FBF0F083B2D6F8BC0204F10C01D4F83D
:104460006428D0F810C088463846E047002809DAAA
:10447000112304223946304600F026F94FF0FF3070
:10448000BDE8F081ABB242468121304600F033FEF8
:10449000B4F85E08D4F86428B5FBF0F1B5FBF0F091
:1044A0001144C4F86418D4F86818081AC4F86808E5
:1044B000D4F83418A1EB0501C4F8341801D1032055
:1044C00020720020DCE72DE9F047D0F8B84207461B
:1044D0004FF40065B4F85E08D4F86868884646432F
:1044E000AE4200D32E46B6FBF0F083B2D7F8BC0242
:1044F00004F10C01D4F86428D0F814C08946404671
:10450000E047002809DA032304224146384600F038
:10451000DBF84FF0FF30BDE8F087B4F85E18D4F850
:104520006428B6FBF1F01044C4F86408B6FBF1F05F
:10453000D4F86828101AC4F86808D4F83428A2EB14
:104540000602C4F834280BD04843A84200D32846BA
:1045500083B24A460121384600F032FD0020DAE7F6
:1045600000213846FFF7AAFAF8E72DE9F041D0F824
:10457000B84206461546207A8846C8BB94F8180803
:104580004FF0FF3700062ED5D6F8BC0281684046B2
:10459000884730B13A2302224146304600F094F871
:1045A00013E0D5F80200414600BA20F0FF02687916
:1045B0000243C4F86428B5F8070043BA3046C4F88B
:1045C0006838FFF73AFE002802DA3846BDE8F08185
:1045D00002202072B4F85E18D4F868084843D4F872
:1045E0001418884205D0202394F819180522D4E71E
:1045F000FFE74FF40060608141463046BDE8F0417E
:10460000FFF716BF70B505460E46D5E9AE4004F675
:104610005E024368911C3046984740B13A2302221B
:104620003146284600F050F84FF0FF3070BDD4F806
:104630006008401E010E2173010C6173010AA17311
:10464000E073002020746074B4F85E08010AA1745D
:10465000E07408206081002070BD2DE9FC41054612
:10466000D0F8B84200200F4606462118401C80B200
:104670000E730C28F9D3D5F8BC026A4601A9436829
:104680003846984748B13A2302223946284600F076
:104690001BF84FF0FF30BDE8FC810820E073019863
:1046A000401E010E2174010C6174010AA174E074B2
:1046B000022020756675BDF80000010AA175E0753D
:1046C0000C2060810020E6E7D0F8B80290F85D1871
:1046D00000EBC10181F83C2890F85D28002100EB37
:1046E000C20282F8401890F85D28521CD2B280F8BD
:1046F0005D28042A01D180F85D1870472DE9F0414A
:10470000D0F8B84205461746207A884620B1284698
:10471000BDE8F041FFF7D7BE94F818084FF0FF3618
:10472000000635D4D5F8BC0281684046884728B1D8
:104730003A230AE02846FFF7C7FF1DE0D5F8BC0280
:10474000C1684046884718B1272302224146F1E755
:10475000D7F80200414600BA20F0FF027879024300
:10476000C4F86428B7F8070043BA2846C4F8683884
:10477000FFF763FD002802DA3046BDE8F081B4F8A7
:104780005E08D4F868184143D4F81408884204D06D
:10479000202394F819180522CCE74FF400608142D9
:1047A00000D3014601208BB22072014604F10C02B5
:1047B000284600F005FC0020DFE700002DE9F0416D
:1047C0000E4615460446FF21FCF721FAA1788842DF
:1047D00006D1FF21E01CFCF71AFA6179884202D069
:1047E0000120BDE8F081208840BAFBF741FF0C4F63
:1047F0003946FBF777FD0B49FBF742FD0A49FBF70A
:10480000E7FC3060B4F8030040BAFBF731FF3946EB
:10481000FBF768FD0549FBF733FD28600020E0E762
:1048200000FF7F4700002F43000034C20000C84251
:1048300042F2202000F020B838B504464FF4604022
:1048400000F01AF81420FCF7AFFD4FF6FF7000904F
:104850000623224689210248FDF7B8F838BD00003A
:104860002812002010B543F2A20000F005F8BDE8C0
:1048700010401420FCF798BD1CB5010A8DF80410F7
:104880008DF805004FF6FF700090022301AA8821E1
:104890000148FDF7BDF91CBD281200204FF4F0704F
:1048A00008604FF4006010800020704700207047BF
:1048B000002070470148007840B27047B2000020E5
:1048C0000020704770B5064C08461546012121703E
:1048D0001A462946FCF7D0FA0020207070BD00006F
:1048E000B200002070B5064C084615460121217023
:1048F0001A462946FCF7D2FA0021217040B270BD59
:10490000B20000207047FDF747BA30B595B02821B6
:104910006846FBF752FC14210AA8FBF74EFC18214D
:104920000FA8FBF74AFC0920012100904FF48030CA
:10493000002404910691CDE901040225CDE9075038
:104940004FF4E01009906846FEF780F908B172B69E
:10495000FEE70F20CDE90A054FF48060CDE90C4059
:1049600002210AA80E94FEF785F808B172B6FEE798
:1049700013200F904FF40070109080011190149448
:104980000FA8FEF701F8002801D072B6FEE715B0B7
:1049900030BD704770B5044600680169E26821F4D3
:1049A0004051114301612169A068084361690843CE
:1049B0002168CA6841F20C639A430243CA602068C6
:1049C0004169A26921F44071114341611E49206887
:1049D000884202D1FEF7F4F801E0FEF7E1F800EBBF
:1049E000C00101EB0012606864218000B2FBF0F3AB
:1049F000B3FBF1F36FF018067343B2FBF0F5B2FBB3
:104A0000F0F605EB8305322303EB0515B5FBF1F555
:104A1000B6FBF1F605F0F00505EB0615B2FBF0F676
:104A2000B2FBF0F0B0FBF1F06FF01802504306EB70
:104A3000800003EB0010B0FBF1F0216800F00F00E4
:104A40002844886070BD0000003801402DE9F04125
:104A5000984617460E460446069D1DE0681C1BD06E
:104A60002DB1FCF7E9FEA0EB0800A84214D920689C
:104A7000C16821F4D071C1602068416921F0010151
:104A80004161202084F83D0084F83E00002084F835
:104A90003C000320BDE8F0812068006836EA000091
:104AA00004D00020B842D9D00020F3E70120F9E774
:104AB00010B5D0F8B42252689047002010BD1346BC
:104AC00010B50A46002100F07BFA002010BD134605
:104AD00010B50A46002100F00EFB002010BD10B5F5
:104AE0000446802100F0ECFA2046BDE81040002189
:104AF00000F0E6BA10B505210023C0F894121A465A
:104B0000194600F05DFA002010BD10B50223C26105
:104B1000C0F89432026213460A46002100F0EBFA14
:104B2000002010BD10B504210023C0F894121A46CD
:104B3000194600F0E0FA002010BD000010B50A464A
:104B4000024903A000F0E0F8004810BD98150020CD
:104B50004D534320436F6E66696700001220088042
:104B6000004870478400002010B50A46024903A09F
:104B700000F0CAF8004810BD981500204D5343209E
:104B8000496E7465726661636500000004200880E8
:104B9000004870478000002010B50A46024903A073
:104BA00000F0B2F8004810BD9815002053544D692C
:104BB00063726F656C656374726F6E696373000016
:104BC00010B50A46024903A000F09EF8004810BD47
:104BD0009815002053544D3332204D617373205388
:104BE000746F72616765000010B51A2008800A486A
:104BF0000168001D0468001D0068081809D008221B
:104C00000649FEF737FE0549042210312046FEF71B
:104C100031FE0248801E10BDE8F7FF1F9A000020F9
:104C2000F8B504460020ADF8000048880D46010A9A
:104C3000082948D2DFE801F04704091747473C45F7
:104C4000D4F8B012207C0A6819E0207C02260028E3
:104C5000D4F8B40205D0C16A684688470146467058
:104C60003EE0816AF8E7C0B206282CD2DFE800F007
:104C7000030A1014181CD4F8B002426805E0694613
:104C800090471CE0D4F8B0028268E2B1207CF6E7DD
:104C9000D4F8B002C268F8E7D4F8B0020269F4E7C9
:104CA000D4F8B0024269F0E7D4F8B0028269ECE7C8
:104CB000207C40B9D4F8B402416B6846884701466D
:104CC0000EE0207C20B129462046FFF708FFF8BD02
:104CD000D4F8B402016B6846884701460720487043
:104CE000BDF8000048B1EA8852B1824200D90246BC
:104CF000ADF800202046FFF708FFE8880028E6D13D
:104D00002046FFF70FFFF8BD70B5002300281ED026
:104D10000446002502E06D1CEDB2641C2678002ECE
:104D2000F9D1022404EB450414801278CA545B1CA8
:104D30000322CA5400245B1C06E0CA545B1CDAB28E
:104D40008C54521CD3B2401C0278002AF5D170BD9D
:104D500001004FF0000004D0012901D0022901D048
:104D6000022070470120704710B580B1D0F8B432EE
:104D700013B10023C0F8B43209B1C0F8B012012158
:104D800080F89C12027000F0C7F8002010BD0220CD
:104D900010BD10B5D0F8C002FDF7EEF8BDE8104028
:104DA000FFF7D6BF10B5D0F8C002FDF7BFF8BDE8D9
:104DB0001040FFF7CDBF2DE9F0411746044651B131
:104DC000D4F8B40242691AB194F89C02032851D075
:104DD0000220BDE8F081D4F89432002504F11400DB
:104DE000022B03D0042B3AD0C3B33CE0D0E90363D9
:104DF0009E4207D9F11AC1608AB239462046FFF7B0
:104E000066FE12E08068B0FBF3F103FB110199B973
:104E1000984211D3D4F8981288420DD2002211463C
:104E20002046FFF754FEC4F8985200231A4619464C
:104E3000204600F0C5F816E0D4F8B402C16829B1E4
:104E400094F89C02032801D12046884780212046FF
:104E500000F036F92046FFF74DFE04E0FFE7802121
:104E6000204600F02DF994F8A002012804D184F81E
:104E7000A05201E0204690470020AAE770B51546F1
:104E8000044649B1D4F8B40282691AB194F89C027C
:104E9000032830D0022070BDD4F8941204F5AA7013
:104EA000032902D005291ED027E0D0E903218A4238
:104EB0000BD9531AC3600846834200D303469AB203
:104EC00029462046FFF7FBFD17E0D4F8B40201693C
:104ED00029B194F89C02032801D120468847204636
:104EE000FFF720FE09E000200146C4F894022046A6
:104EF00000F0E6F801E020469047002070BD10B5B4
:104F0000D0F8C002FDF771FABDE81040FFF720BFEE
:104F1000D0F8C002FDF783BA10B519490446C1F8AC
:104F2000E802C0F8C0121748086008204860022054
:104F3000886000208861C86108620846FDF7BEFBF2
:104F400008B1FBF77DFE0022D4F8C00218231146F9
:104F500004F53074FCF7B8FF582300228021206844
:104F6000FCF7B2FF9823002281212068FCF7ACFFF8
:104F7000D823002201212068FCF7A6FF002010BDE5
:104F800008260020005C00400A0601F07F01D0F8EE
:104F9000C00201EB810100EBC10002D590F82A00AC
:104FA000704790F86A01704710B51C461346D0F858
:104FB000C0022246FDF73CFABDE81040FFF7C8BE2C
:104FC00010B5D0F8C002FDF763FABDE81040FFF756
:104FD000BFBE70B50022044640231146FFF7E4FF30
:104FE00040260125C4F86461334600228021204612
:104FF000C4F85851FFF7D8FF6662A56184F89C5247
:105000000020C4F894026060C4F8A402D4F8B80286
:1050100028B1D4F8B402002142682046904700200D
:1050200070BD90F89C12042903D190F89D1280F86D
:105030009C120020704710B590F89C12032904D1EF
:10504000D0F8B412C96901B18847002010BD0174BD
:105050000020704710B5D0F8C002FDF7DEFBBDE8B8
:105060001040FFF775BE70B5044600F52A7005467E
:1050700000F044F90120C4F89402B4F8AE02C4F878
:10508000980294F8A80210F01F010AD001290DD04F
:10509000022910D000F08001204600F011F8002015
:1050A00070BD2946204600F098F9F8E729462046C9
:1050B00000F0C4FAF3E72946204600F017FAEEE7BD
:1050C00010B5D0F8C002FDF7FCF9BDE81040FFF7BD
:1050D0003FBE10B5D0F8C002FDF7BAFBBDE81040E6
:1050E000FFF736BE90F89C1280F89D12042180F8DC
:1050F0009C120020704710B5D0F8C002FDF71AFAD4
:10510000BDE81040FFF724BE10B5FEF76CFC002090
:1051100010BD10B5FEF784FC002010BD70B504462C
:105120000121FFF73FFE002581212046C4F86C5184
:10513000FFF738FE2046E562FEF78FFCD4F8B80290
:1051400018B100F0A2FAC4F8B852002070BD0000F7
:105150000A21018000487047880100202021018039
:105160000048704748010020202101800048704716
:10517000280100202021018000487047680100209C
:1051800070B50446007C0125D0B1402302220121E4
:105190002046FFF709FF4023C4F86C510222812109
:1051A0002046FFF701FF40F66C00E56200F06EFA62
:1051B000C4F8B80280B12046FEF754FC002070BD50
:1051C0004FF400763346022201212046FFF7ECFE21
:1051D0003346C4F86C51E1E7022070BD09B1C0F854
:1051E000BC12002070472DE9F8430026D0F8B872B1
:1051F0000546ADF8006008780C46B04610F0600136
:1052000020D020293DD16178FE2902D0FF2938D154
:105210000EE0618881BBE188012932D1000630D5DA
:10522000D5F8BC02806980470122394638601FE00A
:10523000618809BBE188F9B9000622D42846FEF747
:1052400032FC23E0607830B1012825D00A2809D04B
:105250000B2816D111E095F89C02032811D10222E7
:10526000694605E095F89C0203280AD10122391D00
:105270002846FFF74AFC09E003E095F89C02032862
:1052800007D021462846FFF72AFC02263046BDE813
:10529000F883A0787860F9E721792846FFF72FFE98
:1052A00021792846FFF77EFDA0884FF0010701060F
:1052B00000F00F0000EB80004FF4007305EB80005E
:1052C0000BD5C0F81880287C00B140230222812130
:1052D0002846FFF769FEEF620BE0C0F85881287C92
:1052E00000B14023022201212846FFF75DFEC5F8E8
:1052F0006C7121792846FEF761FBC7E70A780270D6
:105300004A7842708A78CB7802EB032242800A798D
:105310004B7902EB032282808A79C97902EB012161
:10532000C18070470246002011B1C2F8B412704724
:105330000220704710B5D0F8B42202241AB11268C6
:10534000904700B90024204610BD000070B50E46FD
:105350001E4D897804462970012931D894F89C02A1
:1053600002280BD003280FD031462046FFF7B7FBA9
:1053700029782046BDE87040FFF79ABBD9B10320D9
:10538000616084F89C0209E071B16068884212D0C3
:10539000C1B22046FFF78CFB297861602046FFF7F9
:1053A000C9FF02280CD006E0022084F89C022046A7
:1053B0006160FFF77DFB2046BDE87040FFF7B2BBA0
:1053C00031462046BDE87040FFF789BBEC00002065
:1053D00010B5FFF77EFE002010BD2DE9F0410A78E0
:1053E000002612F0600208D0202A01D0402A70D195
:1053F000D0F8B422926890476DE04B7800220125E6
:105400000A2B66D2DFE803F0405D65576508056545
:105410002C29FFF705FC5EE004468888D8B9C888C7
:10542000C8B94888802816D200F07F0794F89C02FB
:10543000032810D084F89E7239462046FFF70AFEF2
:105440002046FFF76FFB1FB1022084F89C0242E068
:1054500084F89C523FE020463BE0FFF777FF3AE0BC
:10546000CB88012B35D190F89C32012B04D0022B34
:1054700002D0032B2DD104E08260012200F108014B
:1054800016E00122011D13E090F89C22012A03D0AE
:10549000022A01D0032A1CD1CA88022A19D1C56068
:1054A000D0F8A41209B10321C160022200F10C015D
:1054B000FFF72BFB0FE0498801290CD1C0F8A4525B
:1054C00011E090F89C32012B08D0022B06D0032B60
:1054D00004D0FFF704FB3046BDE8F081498801297C
:1054E000F9D1C0F8A422FFF71DFBF4E72DE9F04144
:1054F0000A46044610780027097910F060030AD0A4
:10550000202B01D0402B50D1D4F8B402114683682F
:10551000204698478FE0C0F34110012806D050780C
:10552000D0B301282AD003283FD107E0D4F8B40231
:10553000114683682046BDE8F041184794F89C0264
:10554000022802D0032872D10AE071B380296ED0FC
:105550002046FFF7B5FD80212046FFF7B1FD6AE048
:10556000508838B931B1802904D0D08810B920468C
:10557000FFF7A6FD2046FFF7D5FA5CE094F89C0201
:105580000228E2D0032852D1508898BB4806F1D0B7
:105590002046FFF7FEFBEDE7FFE794F89C020026AC
:1055A000022803D0032842D112E040E009B180294B
:1055B0003DD1080601F07F0000EB800004EB800184
:1055C00001D5143101E001F5AA7102220E602AE032
:1055D000080601F00F0000EB800004EB80000AD504
:1055E000806920B301F07F0000EB800004EB8005B0
:1055F00014350BE01FE0D0F85801C0B101F07F0076
:1056000000EB800004EB800505F5AA7541B1802907
:1056100006D02046FFF7B8FC10B10120286000E05A
:105620002E60022229462046FFF76FFA03E011465A
:105630002046FFF754FA3846BDE8F08170B50546BC
:1056400008780C4610F0600003D0202801D04028D4
:1056500016D195F89C02012803D0022801D0032816
:105660000ED1207901280BD8D5F8B40282682846DB
:105670009047E188014306D12846FFF753FA02E03C
:105680002846FFF72CFA002070BD7047004870478D
:10569000981D00202DE9F0470C78002630F82430C2
:1056A00048F68F121340CA78002A7DD0012A7CD098
:1056B000022A02D0032A7FD0012648F28002134337
:1056C00020F824300D7830F8254048F68F731C40C0
:1056D0002C43144320F825400D7B48F2C00C48F6BB
:1056E000BF744CF280074BF68F79EDB391F80080D0
:1056F000C24630F8285048F280181D4045EA080597
:1057000020F82A50B0F8505091F80080054405EB7D
:105710000815B1F8088028F00108A5F80084B0F851
:10572000505091F80080054405EB0815B1F80A8047
:1057300028F00108A5F808844D78002D0D7830F880
:1057400025804FEA48487DD0B8F1000F07DA30F8DD
:10575000258008EA030848EA070820F825800F7822
:1057600030F827506D0600E02CE006D530F82750C1
:105770001D4045EA0C0520F82750CB780D78012B09
:1057800030F8253003EA040301D083F020031343EB
:1057900020F825300B7830F8231001EA0901114375
:1057A00020F82310304602E003E008E004E0BDE802
:1057B000F08743F4007380E743F4C0637DE743F46C
:1057C00080637AE74D782DB3B0F850500F780544D8
:1057D00005EB0715CF8827F00107A5F800740F78AF
:1057E00030F827506D0606D530F827501D4045EAA1
:1057F0000C0520F82750CB78012B06D00B7830F819
:105800002310214081F02001C9E70B7830F82310E4
:105810002140C4E7B0F850400D78044404EB05146F
:10582000CD8825F00105A4F80854B0F850400D7853
:10583000044404EB05140D6904F20C4475B13E2DCB
:1058400014D800E030E04FEA550CED0701D00CF120
:10585000010C4FF6FF7505EA8C2511E0258825F42B
:10586000F8452580258845F4004509E04FEA551C98
:10587000ED0601D1ACF1010C4FF4004545EA8C2551
:1058800025800D7830F82540640405D530F8254092
:105890001C403C4320F825400B7830F8231001EAE7
:1058A000090181F440517AE7B8F1000F07DA30F8C6
:1058B000258008EA030848EA070820F825800F78C1
:1058C00030F827506D0606D530F827501D4045EAC0
:1058D0000C0520F827500D7830F8253003EA09032D
:1058E00083F44053134320F825308EE7002070479F
:1058F0002DE9F04391F80C804F780A7848F6BF7C88
:105900004BF68F7948F2800348F2C0054CF28006CE
:1059100048F68F74B8F1000F28D0002F30F82270AD
:105920004FEA474748D0002F05DA30F82270274069
:10593000374320F822700A7830F822707F0605D5A8
:1059400030F8227027402F4320F822700D7830F86D
:1059500025202240324320F825200C7830F82420DE
:1059600002EA0C021A4320F824201AE07FB130F832
:105970002260760605D530F8226026402E4320F8B6
:1059800022600A7830F8221001EA0C010EE030F8AB
:1059900022506D0405D530F822502540354320F8BB
:1059A00022500A7830F8221001EA0901194320F840
:1059B00022100020BDE8F083002F05DA30F82270B5
:1059C0002740374320F822700A7830F822607606A4
:1059D00005D530F8226026402E4320F822600E784C
:1059E00030F8262022402A4320F826200C7830F870
:1059F000242002EA09021A4320F82420C1E70020EB
:105A0000704700207047012120F8401F00210180CD
:105A1000818001820846704730F8401F21F43F41E1
:105A20000180002070470020704730B50A7BB2BB70
:105A30004A7848F68F7548F28004C2B10B7830F886
:105A40002320520607D530F823202A4048F2C0050B
:105A50002A4320F82320CA78012A20D00A7830F877
:105A6000221048F6BF73194081F0200114E00A7833
:105A700030F822305B0407D530F822302B404CF24E
:105A800080052B4320F822300A7830F822104BF69C
:105A90008F73194081F44051214320F822100020D7
:105AA00030BD10B54A780978002A48F2800330F8F2
:105AB000212005D048F6BF74224082F0100204E095
:105AC0004BF68F74224082F480521A4320F8212032
:105AD000002010BD2DE9F0470E464B78097B0446A7
