:020000040800F2
:10000000F020002001010008B33100085729000842
:10001000B131000805070008455A0008000000003B
:100020000000000000000000000000008540000803
:100030003707000800000000C934000887400008A6
:100040001B0100081B0100081B0100081B01000820
:100050001B0100081B0100081B0100081B01000810
:100060001B0100081B0100081B0100081B01000800
:100070001B0100081B0100081B0100081B010008F0
:100080001B0100081B0100081B0100081B010008E0
:10009000715800081B0100081B0100081B01000823
:1000A0001B0100081B0100081B0100081B010008C0
:1000B0001B0100081B0100081B0100081B010008B0
:1000C0001B0100081B0100081B0100081B010008A0
:1000D0001B0100081B0100081B0100081B01000890
:1000E0001B0100081B0100081B010008DFF80CD0F1
:1000F00000F05EFA0048004765740008F020002018
:100100000648804706480047FEE7FEE7FEE7FEE7B1
:10011000FEE7FEE7FEE7FEE7FEE7FEE70741000831
:10012000ED000008202A04DB203A21FA02F0002129
:10013000704721FA02F3D040C2F1200291400843F7
:100140001946704740EA01039B0703D009E008C93C
:10015000121F08C0042AFAD203E011F8013B00F88C
:10016000013B521EF9D27047D2B201E000F8012BD8
:10017000491EFBD270470022F6E710B513460A4627
:1001800004461946FFF7F0FF204610BDF0B480EAA0
:100190000102D40F4200B2EB410F02D202460846E0
:1001A00011464A0042D0C30DDDB2C1F3C752AD1AA9
:1001B000202D35DAC1F3160141F4000204B1524298
:1001C000C5F1200602FA06F12A411044B3EBD05FD4
:1001D00023D0C4B1012DA0EBC35009DCF0BC4FF01B
:1001E000004202EAC352DBB200F5000000F055B94C
:1001F000400000F1807000EBC350A0F1807040EA35
:10020000D170490009E0490841EAC071A0EBC35030
:1002100000F50000400800EBC350F0BC00F034B91A
:100220006142012202EB4101001BF6E7F0BC70477E
:1002300081F00041AAE780F00040A7E780EA0102D0
:1002400010B502F00043400022D04A001FD0010E3A
:1002500001EB1261C0F35600C2F3560240F40000F5
:1002600042F40002A0FB022000047F39140400D0F5
:10027000401C50EA124001D44000491EC2B20C0694
:1002800004EBD010401C4008802A02D003E000207C
:1002900010BD20F00100002900DA0020184310BD35
:1002A00030B480EA010202F0004530F0004221F053
:1002B000004013D090B1C30DD40DC2F31601C0F3AA
:1002C0001600E41A41F4000140F400027D3491422A
:1002D00001D3641C00E04900002C02DA30BC00208D
:1002E00070474FF400000023914201D3891A034361
:1002F00040084FEA4101F7D151B1914202D14FF08C
:10030000004105E002D24FF0010101E06FF0010170
:1003100003EBC450284430BC00F0B6B82DE9F04DD2
:1003200081EA030404F0004B21F0004514464FF02D
:10033000000A23F0004150EA050220D054EA0102ED
:100340001DD0C5F30A570246C5F31303C1F31300CA
:10035000C1F30A5640F4801543F48013A7EB060856
:10036000101BD64608F2FD3873EB050002D308F1E6
:10037000010801E092185B41B8F1000F03DA002098
:100380000146BDE8F08D00204FF4801106468446FA
:100390000EE0171B73EB050705D3121B63EB050378
:1003A00006434CEA010C49084FEA300092185B41C1
:1003B00050EA0107EDD152EA030012D082EA0400AC
:1003C00083EA0501084305D0101BAB4106D2012288
:1003D000002306E000224FF0004302E06FF001022C
:1003E00053101AEB06004CEB085110EB0A0041EBDE
:1003F0000B01BDE8F04D00F07EB8962300221146B7
:1004000000F04BB80EB540F2334102910021CDE926
:1004100000110A460B4600F07DF803B000BD70B530
:10042000C1F30A5201F000450024C1F3130140F268
:10043000FF3341F480119A4201DA002070BD40F28E
:1004400033439A42A2F2334203DC5242FFF76AFE80
:1004500000E090402C43F1D0404270BD30B50B46D7
:10046000014600202022012409E021FA02F59D42E4
:1004700005D303FA02F5491B04FA02F52844151EB8
:10048000A2F10102F1DC30BD0029A8BF7047401C79
:10049000490008BF20F00100704710B4B0FA80FC9A
:1004A00000FA0CF050EA010404BF10BC704749B1D7
:1004B000CCF1200421FA04F411FA0CF118BF012147
:1004C00021430843A3EB0C01CB1D4FEA00614FEA27
:1004D000102042BF002010BC704700EBC3501044F6
:1004E0000029A4BF10BC7047401C490008BF20F081
:1004F000010010BC704710B5141E73F1000408DA37
:10050000401C41F1000192185B411A4301D120F0D7
:10051000010010BD2DE9F04D92469B4611B1B1FA94
:1005200081F202E0B0FA80F22032904600F052F8F8
:1005300004460F4640EA0A0041EA0B0153465A4678
:10054000084313D0114653EA010019D0C8F1400204
:100550005046FFF7E7FD05460E46504659464246CF
:1005600000F038F8084305D0012004E02046394661
:10057000BDE8F08D0020054346EAE0762C43374382
:100580000A986305E40AA0EB08000022FD0A44EA89
:1005900047540A3002D500200146E9E70105101949
:1005A0006941DDE9084500196941BDE8F04DA2E760
:1005B000064C074D06E0E06840F0010394E80700B0
:1005C00098471034AC42F6D3FFF794FDE478000866
:1005D00004790008202A04DB203A00FA02F1002006
:1005E00070479140C2F1200320FA03F31943904071
:1005F000704770B58C1810F8015B15F0070301D136
:1006000010F8013B2A1106D110F8012B03E010F875
:10061000016B01F8016B5B1EF9D12B0705D4002398
:10062000521E0DD401F8013BFAE710F8013BCB1A3A
:10063000921C03E013F8015B01F8015B521EF9D52F
:10064000A142D8D3002070BD70B50446006881680F
:10065000C943C90717D1816821F00101816000F009
:10066000FFFB05460AE000BF00F0FAFB401B022832
:1006700004D920688068C043C00706D0206880681D
:10068000C043C007F0D0002070BDA06A40F0100049
:10069000A062E06A40F00100E062012070BD00004D
:1006A00010B501784FF6FF72407802EA0121084444
:1006B00080B2FFF7A7FE4FF03332034BFFF72EFE59
:1006C000FFF7ADFE80B210BD3333F33F08B54FF6F0
:1006D000FF710246009102234721024800F08AFC84
:1006E00008BD0000B801002001B582B04FF6FF70D0
:1006F0000090012302AA4621014800F09DFD0EBD95
:10070000B8010020FEE730B5034600220846312438
:10071000995C48400021050602D584EA400000E0CB
:100720004000491CC9B2C0B20829F4D3521CD2B24D
:10073000022AEDD330BD704772B6FEE7002200F00A
:1007400001B8000030B50E4B054601205C7A012C43
:1007500015D8587A00241C54587A03EB8000456061
:100760005D7A03F108002A54587A421C5A723030DC
:1007700008703A2048702F208870CC70002030BD5F
:10078000E00C0020F0B5ADF2644D15460E4607466C
:1007900003F0B8F9012819D03BA000BF05F054F9C7
:1007A00001223EA18BA806F079F93DA005F04CF995
:1007B0004FF40072012139A005F0C8FE044601463D
:1007C0003CA005F041F91CB13EA024E040A0E5E7C3
:1007D00043A005F039F9012230A1002006F05EF9AE
:1007E000014643A005F030F903F08CF9014645A01D
:1007F00005F02AF9012229A18BA806F04FF9044639
:10080000014644A005F020F924B1214645A005F099
:100810001BF902E048A005F017F912223946684694
:1008200006F06AF90446014646A005F00DF9E043DA
:10083000400702D147A005F007F96846839905F003
:1008400043FD214647A005F0FFF80CB149A00BE09D
:100850004DA005F0F9F80DF25C432A463146684692
:1008600006F076FA68B14FA005F0EEF8684605F09C
:1008700015FD012209A1002006F010F90DF2644DCA
:10088000F0BD4DA0F0E70000534420696E6974206C
:10089000737563636573730D0A000000303A0000DE
:1008A0006E6F2066696C652073797374656D0D0ACF
:1008B000000000007265735F6D6B66733A25640D0E
:1008C0000A0000006D6B6673206661696C0D0A009A
:1008D000534420696E6974206661696C0D0A0000DA
:1008E0006D6B667320737563636573730D0A000027
:1008F0007265735F64656D6F756E743A25640D0A79
:10090000000000007265735F7265696E69743A2554
:10091000640D0A007265735F72656D6F756E743A6F
:10092000256400006D6F756E74206661696C202807
:100930002564290D0A0000006D6F756E74204F4B01
:100940000D0A00007265735F6F70656E3A25640D65
:100950000A0000005344206E6F2073746F72616749
:10096000650D0A007265735F7365656B3A25640DEA
:100970000A0000006F70656E2066696C6520666114
:10098000696C0D0A000000006F70656E2F63726560
:100990006174652066696C65207375636365737344
:1009A0000D0A000077726974652066696C652066BF
:1009B00061696C0D0A0000007772697465206669D0
:1009C0006C6520737563636573730D0A0000000026
:1009D000F8B50024009490F824202546012A12D06E
:1009E000012280F824204A681F23072A0DD20668B6
:1009F000776B521E02EB820293409F430B68934039
:100A00001F43776319E00220F8BD06680D2A0AD259
:100A1000376BD21F02EB820293409F430B689340D7
:100A20001F43376309E0F76A0D3A02EB82029340F5
:100A30009F430B6893401F43F7620A6807230668C9
:100A40000A2A0AD3F7680A3A02EB420293409F430C
:100A50008B6893401F43F76008E0376902EB42025E
:100A600093409F438B6893401F4337610A68102A65
:100A700001D0112A20D1124B02689A4217D19368F3
:100A80001B0219D4936843F400039360096810298A
:100A900012D10C490C4A0968B1FBF2F101EB81015A
:100AA000490000E0491E00910029FBD104E0816A61
:100AB00041F020018162012480F824502046F8BDD5
:100AC00000240140C000002040420F002DE9F04109
:100AD0004FF0000704003D467ED0A06A002628B9EA
:100AE000E66284F82460204600F07EF82046FFF796
:100AF000ABFDA16AC90600D420B1A06A40F0100085
:100B0000A06269E0A16A21F4885141F00201A1626A
:100B10006268E169237B0A4347EA43010A43A1680B
:100B20004FF48077B94209D0012907D05FF0000166
:100B300094F814C0BCF1010F02D00AE03946F7E77F
:100B4000F3B1A36A43F02003A362E36A43F0010315
:100B5000E3622368D3F804C02CF4694C4CEA010C1E
:100B6000C3F804C021688B68DFF870C003EA0C0387
:100B700013438B60A168B9420BD0012909D00CE066
:100B8000DFF85CC0A3690CEB43330B4343F4006113
:100B9000DFE7218A0D05A5F580152168CB6A23F4CE
:100BA00070032B43CB62216889680E4B1940914238
:100BB00008D1E662A16A21F0020141F00101A162BF
:100BC000BDE8F081A06A20F0020040F01000A062B1
:100BD000E06A40F00100E0620120F1E7FDF7E1FF8B
:100BE00000E0FFFFFE0E1FFF00B585B00021009161
:100BF00001910291039100680E49884218D10E4874
:100C0000816941F400718161816901F4007104918D
:100C1000816941F0040181618069694600F0040046
:100C200004901F20009003200190044800F01AF85F
:100C300005B000BD00240140001002400008014042
:100C400070B5044600F00CF90546601C02D004485B
:100C50000078044400F004F9401BA042FAD370BDB0
:100C6000B40000202DE9F84FDFF8B891002409F115
:100C7000040A0AF1040B23460F270BF1040EC9E006
:100C80000125A5402A40AA427DD1674ED1F804C073
:100C9000ACEB0608B44532D014DCBCF1030F3AD0FB
:100CA00009DCBCF1000F2AD0BCF1010F1CD0BCF153
:100CB000020F31D11DE0BCF1110F17D0BCF1120FA2
:100CC0002AD119E0B8F5881F19D006DCB8F5803FA5
:100CD00015D0B8F5801F1FD111E0B8F5001F0ED058
:100CE000B8F5041F18D10AE0CB6815E0CB681B1DCE
:100CF00012E0CB6808330FE0CB680C330CE08B6854
:100D00002BB1012B4FF0080303D0456104E004230D
:100D100002E0056100E00023FF2A01D8064601E059
:100D200000F104064FEA840501D9A5F12005D6F8A3
:100D3000008007FA05FC28EA0C0803FA05F548EAE2
:100D40000508C6F800804D68ED0062D5374DAE69E4
:100D500046F00106AE61AD6924F0030605F0010519
:100D60000095334D06EB050CDCF80850A607360F4E
:100D700007FA06F825EA0805DFF8B880404503D1F0
:100D80004FF0000817E044E0DFF8AC80404502D1A6
:100D90004FF001080FE0DFF8A480404502D14FF08A
:100DA000020808E0DFF89880404502D14FF00308C0
:100DB00001E04FF0040808FA06F848EA0508CCF804
:100DC00008804D68D9F80060ED034D4601D5164303
:100DD00000E096432E604D68DAF80060AD0355469A
:100DE00001D5164300E096432E604D68DBF80060A5
:100DF000ED025D4601D5164300E096432E604D6836
:100E0000DEF80060AD02754601D5164300E096435A
:100E10002E60641C0D682A46E5407FF431AFBDE8C2
:100E2000F88F000000040140000011100010024083
:100E30000000014000080140000C0140001001408A
:100E400000140140C26821EA02030A4043EA024159
:100E5000016170470AB1016170470904FBE70000B6
:100E60000148806870470000B400002070B504009D
:100E700025D094F83D00002520B984F83C50204648
:100E800000F070FA242084F83D002068016821F009
:100E9000010101602068016841F40041016020689F
:100EA000016821F40041016001F016F94D4A6168C2
:100EB000914201D84C4900E04C49884201D20120BE
:100EC00070BD4B492368B0FBF1F15E6826F03F0628
:100ED0000E435E606368934206D94FF4967359439C
:100EE0004FF47A73B1FBF3F12368491C1E6A26F0B4
:100EF0003F06314319626168914210D84900401E93
:100F0000B0FBF1F2521CC2F30B02042A01D20420FE
:100F100022E0B0FBF1F0401CC0F30B001CE0A26823
:100F2000F2B301EBC10303EB0116431EB3FBF6F36F
:100F30005B1C43F480431B0549D092B301EBC10213
:100F400002EB0111401EB0FBF1F0401CC0F30B009E
:100F500040F4804040F400402168CA694CF6FF73B9
:100F60009A431043C861D4E907100143206802681E
:100F700022F0C00211430160D4E90301014320685B
:100F8000826848F2FF339A4311438160D4E9050136
:100F900008432168CA6822F0FF021043C86001E0DC
:100FA0000EE016E02068016841F00101016025644F
:100FB000202084F83D00256384F83E50002070BD59
:100FC00001EB4106431EB3FBF6F35B1CB3E70120C4
:100FD000C2E701EB4101401EB0FBF1F0401CC0F341
:100FE0000B00B7E7A086010080841E0000093D00C9
:100FF00040420F002DE9F84F0025DDF82890984673
:1010000017468A4604460095FFF72AFF064694F8DD
:101010003D0020287AD119230122834920460096D9
:1010200001F09CFD0028F5D194F83C0001286DD01A
:10103000012084F83C0020680168C90703D10168D9
:1010400041F0010101602068016821F40061016044
:10105000222084F83D00102084F83E002564676259
:10106000A4F82A80608D20857048E06233464A46A5
:101070005146204601F088FC00287DD1208DDFF804
:10108000B081202768B1012814D0022820680168A7
:101090001ED041F480610160206841698069009040
:1010A000B5E02068416981690091016841F40071EF
:1010B0000160ACE02068016821F48061016072B6D3
:1010C0002068416981690091016841F400710AE07A
:1010D00041F40061016072B6206841698169009144
:1010E000016821F48061016062B690E0032868D84D
:1010F00001280CD002284B464FF000024146204602
:1011000000960FD001F02AFDB0BB10E08AE0324615
:101110004946204601F0A1FD70BB20680069616A64
:1011200008706BE001F01AFD30BB72B634E0206845
:10113000016821F48061016072B620680069616A0B
:101140000870606A401C6062208D401E2085608DA2
:10115000401E6085374846F2A8110068B0FBF1F0E8
:10116000C0EBC00000EB80000090401E009008D053
:1011700020684069C04300E029E040070CD5009892
:10118000F3E744F8305F6773A573206940F02000EF
:10119000206162B625731AE02068016841F400718D
:1011A000016020680069616A0870606A401C6062C2
:1011B000218D491E2185618D491E618562B6216898
:1011C0001AE032464946204601F047FD10B10120A1
:1011D000BDE8F88F20680069616A0870606A401C89
:1011E0006062218D491E2185618D491E61852168BE
:1011F0004A69D24352070AD409690170606A401CE7
:101200006062208D401E2085608D401E6085208D8F
:1012100000287FF46BAF84F83D7084F83E5084F86A
:101220003C50D5E70220D3E7020010000000FFFF8A
:1012300004000100C00000202DE9F84F1F46904631
:101240008A460446DDF82890FFF70AFE054694F822
:101250003D0020287FD119230122404920460095D6
:1012600001F07CFC002876D194F83C00012872D073
:10127000012084F83C0020680168C90703D1016897
:1012800041F0010101602068016821F40061016002
:10129000212084F83D00102084F83E0000262664BA
:1012A000C4F824806785608D20852D48E0622B4638
:1012B0004A465146204601F0DDFB90B9206841695D
:1012C0008069009036E02A464946204601F0F8FC45
:1012D00050B1206C042804D12068016841F40071E9
:1012E00001600120BDE8F88F606A2168007808611C
:1012F000606A401C6062618D491E6185218D491EB6
:1013000089B2218522685369DB435B070BD451B155
:1013100000781061606A401C6062608D401E6085CC
:10132000208D401E20852A464946204601F0F0FBCC
:101330000028CED1208D0028C5D154F83D0B01687E
:1013400041F400710160202004F81E09E6776677F9
:101350000020C7E7FFE70220C4E7000002001000FA
:101360000000FFFF10B586B00021009101910291AD
:10137000039100680F4988421AD10F4CA06940F0D0
:101380000800A061A069694600F008000490C02030
:10139000009012200190032003900848FFF762FCA0
:1013A000E06940F40010E061E06900F4001004908E
:1013B00006B010BD0054004000100240000C014077
:1013C000024881680278114481607047B4000020AF
:1013D000074810B5016841F010010160032000F0DA
:1013E00075F80F2000F006F800F024F8002010BD7A
:1013F0000020024070B50D4D04464FF47A712878F4
:10140000B1FBF0F00A490968B1FBF0F001F0CDF949
:1014100048B9102C07D200222146501E00F036F8A1
:1014200000206C6070BD012070BD0000B400002081
:10143000C00000200C4808B5816941F001018161BC
:10144000816901F001010091C16941F08051C161E0
:10145000C06900F0805000900448416821F0E061CC
:1014600041F00071416008BD0010024000000140E1
:10147000002809DB00F01F02012191404009800093
:1014800000F1E020C0F8001170470000F0B40E4BEE
:101490001B680C46C3F30223C3F10705042D00D9D2
:1014A0000425191D072901D2002300E0DB1E0126B7
:1014B00006FA05F1491E214099409E40761E1640CD
:1014C0003143F0BC04F0D0BA0CED00E0064900F066
:1014D000070208684FF6FF03184040EA0220034A5B
:1014E00010430860704700000CED00E00000FA05B2
:1014F00010B50C0607D501F0070101EB810100EBE7
:10150000C100283005E001EB810100EBC10000F5CE
:10151000B47099B232B1012202730181190C418178
:10152000002010BD00220273C180F9E7704701EB73
:10153000810200EBC202D0F8E802D26B02F0F5BFE4
:1015400001EB810200EBC202D0F8E802D2F87C2164
:1015500003F04EB870B504460B0601F0070000EB2F
:10156000800104EBC1014FF001024FF0000503D5EB
:1015700081F82920283103E081F8695101F5B4711F
:10158000087094F8A802012808D084F8A8222068DE
:1015900003F068FD84F8A852002070BD022070BDE1
:1015A00070B5044601F00F006268904201D9012035
:1015B00070BD0B0601F0070000EB800104EBC101D8
:1015C0004FF001024FF0000503D581F829202831A2
:1015D00003E081F8695101F5B4718D70087094F8D9
:1015E000A802012808D084F8A822206803F0D7FDBB
:1015F00084F8A852002070BD022070BD2DE9F05F74
:1016000004685FEA424C0B788D69B4F850C04FF023
:1016100000064BF68F7948F2800A48F68F7B48F235
:10162000C00E4FF480672AD54FF0020808EBC308BC
:10163000C44407EB4C07E45BC4F30904A54203D39D
:101640002D1B8D6101D00BE08E61066836F82350AA
:1016500005EA090585F4005545EA0A0526F82350F0
:10166000520609D50D78036833F8252002EA0B02EB
:1016700042EA0E0223F8252084B30A8929E04FF0BC
:10168000060808EBC308C44407EB4C07E45BC4F34B
:101690000904A54203D32D1B8D6101D00BE08E619F
:1016A000066836F8235005EA090585F4005545EA31
:1016B0000A0526F82350520609D40B78056835F838
:1016C000232002EA0B0242EA0E0225F823202CB165
:1016D0004A8949690068234604F0D4F82046BDE8E9
:1016E000F09F2DE9F05F054600680C465FEA426C0A
:1016F00016468B692278B0F850C048F68F774CF2C6
:1017000080094FF6FF7B4FF4004E4FF4806A4FF094
:1017100000017BD54FF0020808EBC208E0440AEB59
:10172000480C30F80C00C0F30900834211D91B1A91
:10173000A3610FD0730407D52E6836F822303B40E2
:1017400043EA090326F8223094F82420012A50D0D5
:101750004EE1A161607810B1012813D01AE0286829
:10176000B0F85030184400EB0210B0F8042422F412
:10177000F842A0F80424B0F8042442F40042A0F88F
:10178000042407E02868B0F85030184400EB021039
:10179000A0F804146278286812B1012A11D018E068
:1017A000B0F850100844217800EB0110B0F80C1488
:1017B00021F4F841A0F80C14B0F80C1441F40041E5
:1017C00005E0B0F850201044227800EB0210A0F899
:1017D0000C1421782846FFF7AAFE7004B8D52178AA
:1017E0002A6832F82100384040EA090022F8210036
:1017F000FEE0626902446261E2690244E2612369D7
:10180000226A9A4203D31846111A04E038E084F899
:1018100024100AB110462162617811B1012923D048
:101820002BE02968B1F850201144227801EB021115
:1018300001F2044148B13E280FD84208C30700D046
:10184000521C0BEA82220A8017E00A8822F4F8422E
:101850000A800A8842F40042F5E74209C30600D133
:10186000521E4EEA8222EEE72968B1F85020114458
:10187000227801EB0211A1F8040483B22289B3E0BB
:101880004FF0060808EBC208E0440AEB480C30F8B9
:101890000C00C0F30900834211D31B1AA3610FD0BF
:1018A000730407D42E6836F822303B4043EA09031C
:1018B00026F8223094F82420012A50D098E0A16123
:1018C000607810B1012813D01AE02868B0F85030C1
:1018D000184400EB0210B0F8042422F4F842A0F8F7
:1018E0000424B0F8042442F40042A0F8042407E0E1
:1018F0002868B0F85030184400EB0210A0F8041427
:101900006278286812B1012A11D018E0B0F850109E
:101910000844217800EB0110B0F80C1421F4F841D0
:10192000A0F80C14B0F80C1441F4004105E0B0F834
:1019300050201044227800EB0210A0F80C142178FB
:101940002846FFF7F4FD700452D42278296831F854
:101950002200384040EA090021F8220048E062698C
:1019600002446261E2690244E2612369226A9A42A6
:1019700003D31846111A216204E00AB1104621620D
:1019800084F824106278296812B1012A22D029E053
:10199000B1F850201144227801EB021101F20C4100
:1019A00048B13E280FD84208C30700D0521C0BEAAA
:1019B00082220A8016E00A8822F4F8420A800A8805
:1019C00042F40042F5E74209C30600D1521E4EEA36
:1019D0008222EEE7B1F850201144227801EB021187
:1019E000A1F80C04628983B26169286803F068FF7A
:1019F00021782A6832F8210048F6BF73184080F039
:101A0000300048F28003184322F821000020BDE88E
:101A1000F09F10B5044690F8A80201280AD00120D2
:101A200084F8A802080607D501F00701206803F032
:101A30001CFF04E0022010BD206803F014FF00200A
:101A400084F8A80210BD01F0070101EB810100EB51
:101A5000C100D0F8840170472DE9F04104460F061B
:101A600001F0070000EB800104EBC1014FF001061B
:101A70004FF0000503D581F82960283103E081F893
:101A8000695101F5B47108700A61CB704A7802B1EE
:101A9000C881022B00D10D7194F8A802012809D049
:101AA00084F8A862206803F0AFF9284684F8A852A9
:101AB000BDE8F0810220FBE770B50C4601F0070598
:101AC00005EB850100EBC101C1E95F230022C1F8EC
:101AD000842181F8692181F8685101F5B4716207A8
:101AE000006803F0B1FB002070BD70B504460D46E0
:101AF00001F007006168884201D9012070BD290604
:101B00004FF000064FF0010207D500EB800104EB17
:101B1000C10181F82920283107E005EB850104EB9C
:101B2000C10181F8696101F5B4718A70087094F897
:101B3000A802012807D084F8A822206803F06BFBD4
:101B4000680702D006E0022070BD04F52C71206801
:101B500003F023FB84F8A862002070BD70B50C462A
:101B600001F0070505EB850100EBC101C1E90F2379
:101B7000012281F84C208B6400234B6481F82920DA
:101B800001F8285F6207006803F05EFB002070BD6B
:101B90001FB50446006803F071FE000402D520461C
:101BA00001F008FB206803F069FE40050CD52068B1
:101BB00030F8441F21F480610180204600F01EF9B6
:101BC0000021204600F035F9206803F057FE40045C
:101BD00005D5206830F8441F21F480410180206839
:101BE00003F04CFE800405D5206830F8441F21F432
:101BF00000510180206803F041FEC00414D5206824
:101C000030F8401F21F004010180206830F8401FA7
:101C100021F008010180204600F003F9206830F827
:101C2000441F21F480510180206803F027FE000545
:101C30003ED522680020694632F8203021F8103065
:101C4000401CC0B20828F7D332F8400F40F0010022
:101C50001080206830F8402F22F0010202802068B6
:101C6000B0F844205205FBD530F8442F22F48062AE
:101C700002800020236831F8102023F82020401C27
:101C8000C0B20828F6D3206830F8401F41F00801A0
:101C90000180206830F8441F21F400610180206831
:101CA00030F8401F41F004010180204600F0F6F8B2
:101CB000206803F0E3FD800508D5206830F8441F54
:101CC00021F400710180204600F0AFF8206803F095
:101CD000D5FDC00505D5206830F8441F21F480717A
:101CE00001801FBD2DE9F04186B0040004D094F8B6
:101CF000A902002520B108E0012006B0BDE8F0816E
:101D000084F8A852204600F05BF8032084F8A9026A
:101D1000206803F03BFA04F110011422884668465B
:101D2000FEF710FA94E80F0003F09AF90226D0BBF0
:101D30000021206803F0BCFD002001270FE000BF58
:101D400000EB800104EBC10181F8297001F8280F34
:101D5000C881CD700D614D61401CC0B28D6161685C
:101D60008142EDD8002011E000EB800104EBC101BD
:101D700081F8695181F8680181F86B51C1F8785197
:101D8000C1F87C51401CC0B2C1F8805161688142E9
:101D9000EAD8142241466846FEF7D4F994E80F00C9
:101DA00003F0EBF910B184F8A962A5E784F8245098
:101DB00084F8A972206803F0DEF900209DE7000096
:101DC00008B500680B49884212D10B48C16941F43B
:101DD0000001C161C069002200F4000000901146BA
:101DE0001420FFF753FBBDE808401420FFF740BB69
:101DF00008BD0000005C00400010024070B50446C1
:101E000080680125022801D0FEF796FC2946D4F807
:101E1000E80202F0D6FCD4F8E802BDE8704002F017
:101E200092BCD0F8E80202F0B6BCD0F8E80202F0AA
:101E3000BCBC10B5044690F8A80201280BD00120C4
:101E400084F8A80284F82410206803F033FD0020F1
:101E500084F8A80210BD022010BDD0F8E82200F5D9
:101E60002C71104602F0B9BC10B5044690F8A802D7
:101E7000012810D0012084F8A802206803F0EAFCB1
:101E800001212046FFF752FB206803F072F9002081
:101E900084F8A80210BD022010BD000010B5044651
:101EA000D0F8E80202F0D8FCA069002804D003486A
:101EB000016841F00601016010BD000010ED00E076
:101EC0002DE9F84305460078354CC00754D0E06949
:101ED0000026C00008D4E06940F08050E061E0696D
:101EE000012600F0805000902E480168C90512D4E8
:101EF0000168804641F480710160FEF7B1FF07463A
:101F000005E000BFFEF7ACFFC01B642823D8D8F85B
:101F10000000C005F6D5206A10F4407021D0A988D1
:101F200001F4407181421CD0206A1F49012220F433
:101F300040700A6000220A602062C00711D0FEF7DC
:101F40008FFF074641F2883808E000BFFEF788FFA0
:101F5000C11B414502D90320BDE8F883206A8007F0
:101F6000F4D5206A696820F44070084320621EB1ED
:101F7000E06920F08050E0612878800705D560682E
:101F8000A96820F44040084360602878C00605D561
:101F90006068E96820F48000084360600020DBE7A7
:101FA0000010024000700040400442422DE9F0471A
:101FB0000F46050061D0434E306800F00700B8427C
:101FC00009D2306820F0070038433060306800F0F4
:101FD0000700B84251D128683B4C810712D5400711
:101FE00003D5606840F4E06060602878000703D59E
:101FF000606840F4605060606068A96820F0F0009C
:10200000084360602878C00728D06868012810D08D
:102010002168022810D0890700292EDA616821F092
:10202000030101436160FEF71BFF804641F28839DE
:102030000DE021688903EFE78901EDE7FEF710FF66
:10204000A0EB0801494502D90320BDE8F08760688C
:10205000696800F00C00B0EB810FEFD1306800F040
:102060000700B8420BD9306820F0070038433060D1
:10207000306800F00700B84201D00120E5E7287879
:10208000400705D56068E96820F4E06008436060B7
:102090002878000706D56068296920F4605040EA76
:1020A000C100606000F038F86168084AC1F30311AC
:1020B000515CC8400649086006480068FFF79AF975
:1020C0000020C2E70020024000100240FA7700081A
:1020D000C0000020B8000020044805490068496895
:1020E000044AC1F30221515CC8407047C00000207F
:1020F000001002400A780008044805490068496851
:10210000044AC1F3C221515CC8407047C00000209E
:10211000001002400A78000812A185B00FC98DE8AE
:102120000F0014A0144A006804905168134801F08D
:102130000C03042B10D0082B0ED1C1F38343C90329
:102140001DF803000AD5516804AAC1F34041515C4F
:102150000A4A5043B0FBF1F005B0704708494843C4
:10216000FAE7000002030405060708090A0B0C0D34
:102170000E0F1010010200000010024000127A0041
:1021800000093D002DE9F84F040070D02078C04DC3
:10219000C00749D06868C0F38100012807D068688B
:1021A000C0F38100022809D16868C00306D52868F9
:1021B000800339D560680028E7D035E06068B0F565
:1021C000803F0BD010B1B0F5A02F11D0286820F4BB
:1021D00080302860286820F4802002E0286840F4DD
:1021E00080302860606890B1FEF73AFE06460AE04B
:1021F000286840F480202860F0E700BFFEF730FE3A
:10220000801B642873D828688003F7D50CE0FEF79C
:1022100027FE064605E000BFFEF722FE801B64286D
:10222000F0D828688003F7D420789A4E80074FF0C2
:1022300001094FF0000839D5686810F00C0F07D07D
:102240006868C0F38100022809D16868C00306D419
:102250002868800714D52069012808D110E020697A
:10226000B0B1C6F80090FEF7FBFD074605E00AE1B5
:10227000FEF7F6FDC01B0228C4D828688007F7D5F2
:102280002868616920F0F80040EAC10028600DE08C
:10229000C6F80080FEF7E4FD074604E0FEF7E0FD27
:1022A000C01B022823D828688007F7D420780007AD
:1022B0002CD57948A169D9B1C0F80090FEF7D0FDBE
:1022C000074604E0FEF7CCFDC01B02280FD8686A61
:1022D0008007F7D571484FF4FA510068B0FBF1F070
:1022E000009000BF0098411E0091FAD20EE080E0FD
:1022F000C0F80080FEF7B4FD074604E0FEF7B0FD2D
:10230000C01B022875D8686A8007F7D42078400778
:1023100060D5E8690027C00008D4E86940F0805023
:10232000E861E869012700F0805000905C4801688E
:10233000C90513D40168834641F480710160FEF73A
:102340008FFD824606E000BFFEF78AFDA0EB0A0083
:1023500064284ED8DBF80000C005F5D5E0680128F8
:102360000AD008B1052813D0286A20F0010028629D
:10237000286A20F0040002E0286A40F00100286288
:10238000E06841F2883B98B1FEF76AFD82460BE0B7
:10239000286A40F004002862EEE700BFFEF760FD07
:1023A000A0EB0A0159455AD8286A8007F6D50CE0F7
:1023B000FEF756FD824605E0FEF752FDA0EB0A014E
:1023C00059454CD8286A8007F6D41FB1E86920F037
:1023D0008050E861E06988B36968C1F3810102292E
:1023E00044D00228C6F8608004D0FEF739FD0446C8
:1023F00038E034E0FEF734FD074604E0FEF730FD38
:10240000C01B02282BD828688001F7D4206AB0F5B9
:10241000803F05D16868A16820F4003008436860F7
:10242000D4E908010843696821F47411084368601D
:10243000C6F86090FEF714FD044606E025E000BFF4
:10244000FEF70EFD001B022809D828688001F7D589
:102450001BE000BFFEF704FD001B022802D9032089
:10246000BDE8F88F28688001F4D40EE00128F7D089
:102470006868226A00F48031914204D1616A00F4F4
:102480007010884201D00120EAE70020E8E7000050
:10249000001002400000424280044242C00000207E
:1024A0000070004070B5040009D0606A002540B19A
:1024B00025616561A56294F8510040B10CE00120EE
:1024C00070BD6068B0F5827FF4D0E561F2E784F812
:1024D0005050204600F040F8022084F85100206857
:1024E000016821F040010160A088218900F4827018
:1024F00001F404410843A18901F400610843217CEF
:1025000001F002010843217D01F001010843218B04
:1025100001F400710843217F01F03801084394F869
:10252000201001F080010843218D01F4005108437F
:1025300021680860A069042101EA10402168486010
:102540002068C16921F40061C1616565012084F8DA
:102550005100002070BD000030B585B0002400940B
:1025600001940294039400681449884223D11448CA
:10257000816941F480518161816901F48051049144
:10258000816941F00401816180690E4D00F0040011
:102590000490A0200090022001900320039069463F
:1025A0002846FEF75FFB4020CDE900046946284637
:1025B0000294FEF757FB05B030BD0000003001402B
:1025C00000100240000801402DE9F84F044690F841
:1025D000500000270A9E1D4692468B464FF0010987
:1025E00001280ED0012084F85000FEF739FC804607
:1025F00094F85100616801280CD0B1F5827F07D1B1
:1026000002E00220BDE8F88FA16809B9042801D0D2
:102610000227C2E0BBF1000F27D0BAF1000F24D08F
:102620001DB394F85100042802D0052084F851000D
:1026300000206065C4F838A0E587A587C4F830B0ED
:10264000E586A5862064606420680168490603D495
:10265000016841F040010160E068B0F5006F60681A
:1026600005D0E8B3012D46D07FE0012795E008B101
:10267000012D39D1206B21680088C860206B801C37
:102680002063E08E401EE0862EE020688168890786
:102690000FD5E18E69B1B9F1010F0AD1216B09881B
:1026A000C160206B801C2063E08E401EE0864FF0EE
:1026B000000920688168C9070CD0E18F51B1C0685A
:1026C000A16B0880A06B801CA063E08F401EE08798
:1026D0004FF00109FEF7C4FBA0EB0800B04200E098
:1026E00009E001D3701C50D1E08E0028CDD1E08FDD
:1026F0000028CAD13FE0206B216800780873206B66
:10270000401C2063E08E401EE0862EE02068816839
:1027100089070FD5E18E69B1B9F1010F0AD1216B9B
:1027200009780173206B401C2063E08E401EE08618
:102730004FF0000920688168C9070CD0E18F51B1C2
:10274000C068A16B0870A06B401CA063E08F401EA6
:10275000E0874FF00109FEF783FBA0EB0800B042D1
:1027600002D3701C01D010E07EB1E08E0028CDD1E4
:10277000E08F0028CAD142463146204601F0C0FB16
:1027800028B101272020606507E0032705E0A06845
:1027900018B92068C16880680090012084F8510051
:1027A000002084F8500038462CE710B5401EB0F1E8
:1027B000807F01D3012010BD4FF0E02460610F2124
:1027C000601703F051F90020A0610720206100206C
:1027D00010BD70B5040004D094F83D00002510B180
:1027E00006E0012070BD84F83C50204600F022F83D
:1027F000242084F83D002068C16821F40051C160A4
:10280000204601F081FC2068016921F490410161BA
:102810002068416921F02A0141612068C16841F4C2
:102820000051C1602564202084F83D0084F83E00FA
:10283000002070BD30B585B000240094019402944E
:10284000039400681449884224D11448816941F4F2
:1028500080418161816901F480410491816941F085
:102860000401816180690E4D00F0040004904FF472
:1028700000700090022001900320039069462846D2
:10288000FEF7F0F92815CDE90004694628460294C0
:10289000FEF7E8F905B030BD0038014000100240F5
:1028A000000801402DE9F843044690F83D001F461A
:1028B00016460D4620284CD1C5B1BEB194F83C0057
:1028C000012846D0012084F83C004FF00008C4F8ED
:1028D0004080212084F83D00FEF7C2FAA68481469C
:1028E000E684A068B0F5805F03D004E00120BDE875
:1028F000F883206928B12E465FF0000584F83C80FB
:102900000EE00026FAE78021204601F059FCA0B92C
:10291000AEB116F8010B21684860E08C401EE084DF
:10292000E08C4B464FF0000200970028EBD14FF0AF
:102930004001204601F044FC30B10320D7E735F8D0
:10294000020BC0F30800E6E7202084F83D000020D9
:10295000CDE70220CBE7FEE701684A69D243520582
:102960000FD46FF480624A61002140F8301F2022AA
:1029700042738173026942F0040202610173012013
:1029800070470020704700002DE9F84F0446C06AE8
:102990001E4693460D4621680A6842F480620A602A
:1029A000082807D0012805D010F5803F02D0206B01
:1029B000112804D12068016841F4807101604FF052
:1029C00001195B46002249462046009600F0C6F8F1
:1029D0004FF4007840B120680068C00501D5C4F804
:1029E00040800320BDE8F88F2069DFF884A0B0F5AF
:1029F000804F0FD00620216800EAD51747F0F0007D
:102A0000086133465A460AF10601204600F0DAF81A
:102A100058BB03E0E8B240F001001CE02168E8B2D6
:102A2000086133465A465146204600F0CBF8E0B9DB
:102A30002068416981690091016841F480710160F9
:102A40005B46002249462046009600F087F80028A1
:102A5000C1D147F0F1002168086133465A4651461A
:102A6000204600F0AFF80028BCD00120BAE70000F3
:102A700002000100F8B50446C06A1E460D4617461E
:102A8000082807D0012805D010F5803F02D0206B20
:102A9000122804D12068016841F480710160134656
:102AA00000224FF001112046009600F057F840B187
:102AB00020680068C00502D54FF400702064032030
:102AC000F8BD2069B0F5804F0ED00620216800EADD
:102AD000D51040F0F000086133463A460B492046D5
:102AE00000F070F878B902E005F0FE0000E0E8B20E
:102AF00021680861054933463A46891F204600F09F
:102B000061F80028DCD00120F8BD000008000100B9
:102B100070B516460D4604460DE02046FFF71CFF33
:102B200008B1012070BD681C05D0FEF799F9801B23
:102B3000A84207D835B120684069C0434007ECD4AB
:102B4000002070BD002044F8300F20216173A07375
:102B5000216941F0200121612073E2E72DE9F0476E
:102B60001E4690460D460446C1F30747DDF8209007
:102B700008E0701C06D0FEF773F9A0EB0900B04224
:102B80000FD876B12068012F18D0806925EA00009F
:102B90000004000C14D000214145EAD00020BDE81B
:102BA000F087002044F8300F20216173A073216961
:102BB00041F02001216120730120F0E74069E5E741
:102BC0000121E9E72DE9F0479A4691460E46044671
:102BD00000254FF02008C1F3074725E02068406931
:102BE000C043400514D42068016841F400710160BD
:102BF00021686FF480604861256384F83D8084F823
:102C00003E50206C40F00400206484F83C501FE0EB
:102C1000B9F1FF3F08D0FEF723F9A0EB0A014945BF
:102C20000CD8B9F1000F09D02068012F13D08069AA
:102C300026EA00000004000C0BD0CFE744F8305F18
:102C400084F80D80A573206940F020002061257371
:102C50000120BDE8F0874069EAE72DE9F041002551
:102C600090460E460446202717E04069C043C00640
:102C70000CD454F8301B6FF01000486144F8105920
:102C80006777A577206A2062257717E0FEF7E8F8D6
:102C9000A0EB0800B04208D83EB120684169C943A2
:102CA0004906E2D40020BDE8F08144F8305F677344
:102CB000A573206940F02000206125730120F2E710
:102CC00070B516460D4604460DE02046FFF744FE5B
:102CD00008B1012070BD681C05D0FEF7C1F8801B4B
:102CE000A84207D835B120684069C0430006ECD43B
:102CF000002070BD002044F8300F20216173A073C4
:102D0000216941F0200121612073E2E7F0B5002341
:102D10000A24302537261F4611E000BFB4EB107F90
:102D200002D905EB107C01E006EB107C01F813C022
:102D300001EB430C00015B1C8CF80170DBB2934289
:102D4000ECD3F0BD70B5D0F8B842054694F818023F
:102D500040B9D4F8140228B1607A18B90121284684
:102D600001F068FD8121284601F064FD607A0228A7
:102D700008D104F503722846BDE870401F230121E5
:102D800001F0D8BC70BD000070B5D0F8B84205465F
:102D90000121D4F81002C4F83002D4F81402C4F8A7
:102DA0003402284601F06EFC1F280DD12849D4F8C2
:102DB0000C02884208D194F81912012904D894F819
:102DC0001A0208B1102809D994F8191220230522F3
:102DD000284600F0BFFD0220607209E004F21B22C9
:102DE000284600F083FB0028207A08DA052804D062
:102DF0002846BDE87040FFF7A5BF012122E0022868
:102E000025D0012823D0032821D06689CEB1D5F85A
:102E1000B812284604F10C02D1F81432B34200D3A0
:102E20003346D1F834429BB2A41BC1F8344200248B
:102E300081F8384204240C72BDE87040812101F011
:102E400014BD00212846BDE8704000F083B870BD75
:102E50005553424310B5D0F8B842627A022A08D0DE
:102E600009060BD5012A09D0BDE81040012100F068
:102E700071B8812101F0DEFC0020607210BD10B538
:102E8000D0F8B8220446107A022805D0032801D0D1
:102E9000042810D1002109E092F81912204602F20C
:102EA0001B2200F023FB002805DA01212046BDE8A3
:102EB000104000F04FB810BD10B5D0F8B82204464D
:102EC000107A80B1012813D192F81912204602F22B
:102ED0001B2200F00BFB00280ADA2046BDE8104058
:102EE000012100F037B82046BDE81040FFF74CBF85
:102EF00010BDD0F8B80200210172704770B5D0F84B
:102F0000B842002105462172617284F85D1284F88E
:102F10005C12D0F8BC0201680020884701212846D5
:102F200001F0A7FB8121284601F0A3FB04F5037201
:102F30002846BDE870401F23012101F0FBBBD0F8FB
:102F4000B82200211172012151721F2302F5037270
:102F500001F0F0BB70B5D0F8B84205460B48C4F894
:102F60002C0284F83812002020720D2304F50B7215
:102F70008121284601F079FC04F503722846BDE85A
:102F800070401F23012101F0D5BB0000555342536F
:102F90003EB5002410480094019402940D498460C9
:102FA000016004730475012505614FF460214460DC
:102FB000C161FDF78BFD08B1FDF7BEFBCDE9004512
:102FC000694605480294FDF703FD002801D0FDF78E
:102FD000B3FB3EBD002401408801002010B5044928
:102FE0000448FDF7ABFB0249491E087010BD000004
:102FF0003D00002028000020F0B585B000242448C2
:103000000094019402940394816941F0100181615C
:10301000816901F010010491816941F02001816111
:10302000816901F020010491816941F0040181610D
:10303000816901F004010491816941F00801816115
:103040008069144E00F008004FF4005504900022EF
:1030500029463046FDF7FEFE0F4F01221146384645
:10306000FDF7F8FE0220CDE90240009501256946F2
:1030700001953046FDF7F6FD0320CDE902400095AD
:10308000694601953846FDF7EDFD05B0F0BD00003D
:103090000010024000100140000C01400D4810B526
:1030A0000B4901600C49416000214FF4804281606E
:1030B000C0E9031241618161C1610162FDF7D6FE81
:1030C000002803D0BDE81040FDF736BB10BD00005E
:1030D00000540040B8010020A0860100104810B53F
:1030E0000E4901604FF4827141600021022281602B
:1030F000C0E9031201224261520282613822C0E912
:103100000721416281620A21C162FFF7CBF90028E1
:1031100003D0BDE81040FDF70FBB10BD00300140EB
:103120000C0200200C4810B50A4901604FF4E1314F
:103130004160002181600C22C160C0E904128161FC
:10314000C161FFF746FB002803D0BDE81040FDF742
:10315000F3BA10BD003801406402002010B500220F
:103160000F49104801F0BAF908B1FDF7E5FA0E4928
:103170000C4801F091FC08B1FDF7DEFA0B49094853
:1031800001F0E6FB08B1FDF7D7FA064801F0DAFCDA
:10319000002803D0BDE81040FDF7CEBA10BD0000F6
:1031A00044000020A8020020D0000020940000204D
:1031B000FEE7FEE72DE9F84F044640F68F7B48F620
:1031C0000F7A4FF002094FF4806874E1B0F84410B0
:1031D00011F00F063AD030F8267039047DD530F85A
:1031E000261001EA0B0141F0800120F8261006EBC1
:1031F000860004EBC00595F8740105F5B475002848
:103200006CD0E87802286AD02878226832F820103A
:1032100048F68F73194048F2C003194322F8201072
:103220002878D4F800C03CF82010BCF8502049049D
:103230007ED509EBC000111808EB41003CF80000F6
:103240008005800D009074D02A89D8E0C9062DD45D
:10325000018801EA0A0141F400410180216804F17A
:103260002805B1F850202B7809EBC300024408EB85
:103270004200085AC0F309006064E16B0844E0634F
:1032800000212046FEF753F994F8240000289CD032
:10329000A869002899D194F82400216840F08000A2
:1032A000A1F84C00002084F8240004E1018804F512
:1032B000B4750A0521D5B0F850202B78062101EB12
:1032C000C3010A4408EB4201405A04F52C71C0F3D3
:1032D0000903EB61EA88206802E0ACE068E07AE08C
:1032E00002F0D0FA2168088800EA0B0040F0800064
:1032F00008802046FEF7B1FDDDE00904D5D5018840
:1033000001EA0B0141F0800101802068B0F85020F3
:103310002B78062101EBC3010A4408EB4201405A15
:1033200083059B0DEB6110D0696971B1EA8801E0FA
:1033300058E056E0206802F0A5FAE9696869084497
:10334000686100212046FEF7FBF820680188090526
:103350002DD4B0F850100844296900F20C4051B146
:103360003E2910D84A08C90700D0521C4FF6FF71F9
:1033700001EA82210FE0018821F4F84101800188EF
:1033800041F4004107E04A09C90600D1521E4FF43A
:10339000004141EA82210180206801884BF68F724A
:1033A000114081F4405148F280021143018082E0D3
:1033B000D4F800C0BCF850102A78062000EBC200F8
:1033C000014408EB41003CF800008005800D0090AE
:1033D0001AD0EA8813E03A4629462046FEF70EF94D
:1033E000009011E0062101EBC000111808EB41002C
:1033F0003CF800008005800D009005D06A890346E6
:103400006046696902F03EFAE96900980844E8619B
:103410006969009808446861A86918B12969009829
:10342000814204D929782046FEF78AF803E029462C
:10343000206801F009FF38063DD506EB860004EB55
:10344000C001206830F8262002EA0A0242F4004255
:1034500020F8262091F82B002831032804D018B139
:10346000022824D1F80522D42368B3F850200D781F
:1034700009EBC500024408EB4200185A8A69C0F300
:10348000090082420CD9121A8A610BD04A6902449F
:103490004A61CA691044C861206801F0D5FE0AE09B
:1034A00000208861E9B22046FEF741F803E03A4681
:1034B0002046FEF716F92068B0F8441009043FF5DD
:1034C00085AE0020BDE8F88F704710B5D0F8B8423F
:1034D0001A44D4F860329A4206D92123052200F01A
:1034E00039FA4FF0FF3010BD002010BD2DE9F0413A
:1034F00013780024232B7DD00DDC1A2B7BD005DC28
:10350000EBB1032B39D0122B11D163E01B2B01D06F
:103510001E2B0CD18DE02A2B6ED004DC252B6CD019
:10352000282B04D1ABE02F2B68D05A2B67D0202357
:10353000052200F00FFA4FF0FF30BDE8F081D0F81F
:10354000B87205460E46D7F8140228B1202397F822
:103550001912052228469FE0D5F8BC028168304642
:10356000884740B13A2302223146284600F0F2F95A
:10357000052038729AE07C8198E0D0F8B8020021EA
:103580004318491CC9B21C731229F9D37021017365
:103590000C21C17490F85C1290F85D32994212D0FF
:1035A00000EBC103491C93F83C52857393F84152D8
:1035B000057693F84032C9B2437680F85C1204294C
:1035C00001D180F85C4212214181117912296DD814
:1035D00041816BE05478D0F8B832E40712D007206C
:1035E00033495881401E0004000C03EB00040A5CC0
:1035F000227305E03DE020E044E03DE045E02AE0C4
:10360000F0D153E0D0F8BC0201EBC1011279C069DE
:1036100000EB81010879401D824200D81046588194
:1036200004E0401E80B21C180A5C22730028F8D106
:103630003CE0D0F8B802448138E0D0F8B812082055
:103640001C4A4881401E0004000C01EB0004135C7E
:103650002373F7D12AE0D0F8B8020821164A418135
:10366000491E0904090C00EB0104535C2373F7D1D4
:103670001CE000F038F919E000F00AF916E000F05B
:10368000BAF813E000F080F910E05278D0F8B852A0
:10369000920704D52423052200F05CF906E0D5E961
:1036A0009923FFF712FF002800DB6C81002044E71C
:1036B000BE780008C5780008CD7800082DE9F041F3
:1036C000D0F8B84206460F46B4F85E02D4F8685205
:1036D0004FF4007145438D4200D30D46B5FBF0F029
:1036E00083B2D6F8BC0204F10C01D4F86422D0F8FD
:1036F00010C088463846E047002809DA1123042222
:103700003946304600F026F94FF0FF30BDE8F08131
:10371000ABB242468121304601F0A7F8B4F85E0210
:10372000D4F86422B5FBF0F1B5FBF0F01144C4F815
:103730006412D4F86812081AC4F86802D4F8341273
:10374000A1EB0501C4F8341201D10320207200203E
:10375000DCE72DE9F047D0F8B84207464FF4007592
:10376000B4F85E02D4F8686288464643AE4200D39D
:103770002E46B6FBF0F083B2D7F8BC0204F10C0180
:10378000D4F86422D0F814C089464046E0470028A7
:1037900009DA032304224146384600F0DBF84FF0F3
:1037A000FF30BDE8F087B4F85E12D4F86422B6FBAF
:1037B000F1F01044C4F86402B6FBF1F0D4F86822CA
:1037C000101AC4F86802D4F83422A2EB0602C4F836
:1037D00034220BD04843A84200D3284683B24A463D
:1037E0000121384600F0A6FF0020DAE70021384624
:1037F000FFF7B0FBF8E72DE9F041D0F8B8420646F4
:103800001546207A8846C8BB94F818024FF0FF3757
:1038100000062ED5D6F8BC0281684046884730B1F4
:103820003A2302224146304600F094F813E0D5F8DE
:103830000200414600BA20F0FF0268790243C4F852
:103840006422B5F8070043BA3046C4F86832FFF77F
:103850003CFE002802DA3846BDE8F08102202072E2
:10386000B4F85E12D4F868024843D4F814128842BF
:1038700005D0202394F819120522D4E7FFE74FF46E
:103880000070608141463046BDE8F041FFF716BF49
:1038900070B505460E46D5E9AE4004F25E22436897
:1038A000911C3046984740B13A23022231462846BF
:1038B00000F050F84FF0FF3070BDD4F86002401EA9
:1038C000010E2173010C6173010AA173E0730020E2
:1038D00020746074B4F85E02010AA174E0740820D8
:1038E0006081002070BD2DE9FC410546D0F8B8424A
:1038F00000200F4606462118401C80B20E730C288B
:10390000F9D3D5F8BC026A4601A9436838469847FE
:1039100048B13A2302223946284600F01BF84FF0FE
:10392000FF30BDE8FC810820E0730198401E010EC5
:103930002174010C6174010AA174E07402202075E5
:103940006675BDF80000010AA175E0750C20608164
:103950000020E6E7D0F8B80290F85D1200EBC10154
:1039600081F83C2290F85D22002100EBC20282F82F
:10397000401290F85D22521CD2B280F85D22042AD7
:1039800001D180F85D1270472DE9F041D0F8B842BE
:1039900005461746207A884620B12846BDE8F04102
:1039A000FFF7D7BE94F818024FF0FF36000635D463
:1039B000D5F8BC0281684046884728B13A230AE01E
:1039C0002846FFF7C7FF1DE0D5F8BC02C168404696
:1039D000884718B1272302224146F1E7D7F80200B1
:1039E000414600BA20F0FF0278790243C4F864220D
:1039F000B7F8070043BA2846C4F86832FFF765FDF8
:103A0000002802DA3046BDE8F081B4F85E02D4F84E
:103A100068124143D4F81402884204D0202394F859
:103A200019120522CCE74FF40070814200D3014601
:103A300001208BB22072014604F10C02284600F0EE
:103A400079FE0020DFE710B504460122002109209D
:103A500000F050F928B91021204600F02FF9002875
:103A600000D0012010BD000070B505464FF6FF7470
:103A700000E0641E064800F053FAA84202D0002C71
:103A8000F7D102E00CB1002070BDFF2070BD000036
:103A9000780100201FB56846FFF7D5FF10B1002060
:103AA00004B010BD9DF800100120B0EB911F08D1AB
:103AB0009DF808209DF8091000EB022008448002C0
:103AC0001DE09DF805009DF80A1000F00F0000EBC6
:103AD000D1109DF809109DF8072001F0030100EBBB
:103AE00041019DF80800800900EB82009DF8062046
:103AF00002F0030200EB8220401CC91F88404009ED
:103B0000CEE700002DE9F8433821504800F02AFAAA
:103B100000244E4800F004FA641C0A2CF9D3142542
:103B200000219522084600F0E5F80446012801D05E
:103B30006D1EF5D2454E0027361F012C377077D108
:103B400087224FF4D571082000F0D4F84FF6FE78A4
:103B500001281DD001220021372000F0CBF80122DE
:103B60000021292000F0C6F801284CD8022030702E
:103B7000454601220021372000F0BCF80122002137
:103B8000292000F0B7F804004AD06D1EF1D248E0B9
:103B900000256F462D4800F0C3F978556D1C042DA3
:103BA000F8D39DF80200012842D19DF80300AA280D
:103BB0003ED145464FF0804801220021372000F0D9
:103BC00099F801224146292000F094F8040002D01F
:103BD0006D1EF1D200E0ADB1012200213A2000F0CB
:103BE00089F878B90025194800F09AF978556D1CC4
:103BF000042DF8D39DF80000400601D5062000E012
:103C00000420307014E0012030704546012200216C
:103C1000104600F06FF8040002D06D1EF6D200E0EE
:103C20002DB101225102102000F064F800B137706C
:103C30000821064800F096F9307810B10020BDE860
:103C4000F8830CB12046FAE7AA20F8E778010020B3
:103C50002DE9F0470646002415468946A046FF2078
:103C6000FFF702FF10B10120BDE8F0874FF40077A5
:103C7000012D4FF00102494603D0122000F03AF81E
:103C800010E0112000F036F83946304600F016F802
:103C900080460EE03946304600F010F88046641C3D
:103CA00006F50076AC42F5D3012200210C2000F08D
:103CB00021F80120FCF7C4FF4046D5E770B5044663
:103CC0000D46FE20FFF7D0FE30B1012070BD084840
:103CD00000F026F904F8010B6D1EF8D2FF2104480C
:103CE00000F0AAF9FF21024800F0A6F9002070BDFB
:103CF0007801002070B50C46054640F0400116469C
:103D0000144800F099F9210E124800F095F9C4F317
:103D10000741104800F090F9C4F307210D4800F066
:103D20008BF9E1B20B4800F087F93146094800F001
:103D300083F90C2D03D1FF21064800F07DF91F24E3
:103D4000044800F0EDF8010602D5641EE4B2F7D293
:103D500070BD00007801002070B505460C46FF20BC
:103D6000FFF782FE08B1012070BD21460E4800F029
:103D700063F9FD2C15D000244FF40076295D0A4824
:103D800000F05AF9641CB442F8D3FF21064800F051
:103D900053F9FF21044800F04FF9FF21024800F0D9
:103DA0004BF9002070BD0000780100202DE9F041A2
:103DB000064615460F460024FF20FFF755FE10B1BA
:103DC0000120BDE8F081012D4FF001020ED000214D
:103DD0003720FFF78FFF012229461720FFF78AFFC0
:103DE000012239461920FFF785FF0DE039461820DA
:103DF000FFF780FFFE2130460AE0FC213046FFF746
:103E0000ABFF641C06F50076AC42F6D3FD21002022
:103E1000FFF7A2FF04460120FCF712FF2046D0E77F
:103E20002DE9F0410E4615460446FF21FCF76BFCD8
:103E3000A178884206D1FF21E01CFCF764FC61797F
:103E4000884202D00120BDE8F081208840BAFCF70A
:103E5000D4FA0C4F3946FCF723FA0B49FCF7EEF97C
:103E60000A49FCF793F93060B4F8030040BAFCF754
:103E7000C4FA3946FCF714FA0549FCF7DFF9286063
:103E80000020E0E700FF7F4700002F43000034C21E
:103E90000000C84242F2202000F020B838B50446A5
:103EA0004FF4604000F01AF81420FCF7C9FE4FF6FA
:103EB000FF7000900623224689210248FDF79AF8F8
:103EC00038BD0000B801002010B543F2A20000F098
:103ED00005F8BDE810401420FCF7B2BE1CB5010A7D
:103EE0008DF804108DF805004FF6FF700090022346
:103EF00001AA88210148FDF79FF91CBDB8010020E7
:103F000038B50B46009204460022802100F038F8B4
:103F1000002804D0606D40F020006065032038BDAB
:103F200070B50446018940680022FCF793FFFF2129
:103F3000204600F008F80546218901226068FCF758
:103F400089FF284670BD03B583B04FF47A710091A4
:103F50000068012301AA04A9FEF736FB9DF80400BE
:103F600005B000BD10B50268D1610068FEF79AFA8D
:103F7000002803D0BDE81040FCF7DEBB10BD0000F8
:103F80002DE9F8431E46914688460446089DFCF7F5
:103F900067FF401B351AFCF763FF0746254800689A
:103FA000C0F3CB30684338E0701C37D0FCF758FFC3
:103FB000C01BA84203D215B1009860B32CE0206862
:103FC000416821F0E00141606068B0F5827F0BD16B
:103FD000A068B0F5004F02D0B0F5806F04D1206822
:103FE000016821F040010160A06AB0F5005F09D1CD
:103FF0002068016821F4005101602068016841F4E3
:1040000000510160012084F85100002084F8500024
:104010000320BDE8F8830025401E009020688168D9
:1040200038EA010004D000214945BDD10020F0E765
:104030000121F9E7C000002070B50D460446018952
:1040400040680022FCF706FF29462046FFF77BFF69
:1040500021896068BDE870400122FCF7FBBE4FF487
:1040600080300860C0111080002070470020704729
:1040700000207047002070470020704700207047E4
:10408000002070477047FDF79BB930B593B02821E9
:104090006846FCF770F814210AA8FCF76CF80024B5
:1040A00001200F9410941194010412948DE81300D0
:1040B00004904FF4E010CDE90810022507956846FA
:1040C000FEF760F808B172B6FEE70F20CDE90A05E9
:1040D0004FF48060CDE90C4002210AA80E94FDF750
:1040E00065FF08B172B6FEE712200F904FF4004052
:1040F000CDE911040FA8FDF7E3FE002801D072B648
:10410000FEE713B030BD704770B504460068016922
:10411000E26821F44051114301612169A06808431C
:10412000616908432168CA6841F20C639A430243FB
:10413000CA6020684169A26921F44071114341615C
:104140001E492068884202D1FDF7D6FF01E0FDF745
:10415000C3FF00EBC00101EB001260686421800026
:10416000B2FBF0F3B3FBF1F36FF018067343B2FB4D
:10417000F0F5B2FBF0F605EB8305322303EB0515F2
:10418000B5FBF1F5B6FBF1F605F0F00505EB06150C
:10419000B2FBF0F6B2FBF0F0B0FBF1F06FF01802FA
:1041A000504306EB800003EB0010B0FBF1F02168F8
:1041B00000F00F002844886070BD00000038014006
:1041C0002DE9F041984617460E460446069D1DE02F
:1041D000681C1BD02DB1FCF743FEA0EB0800A842E1
:1041E00014D92068C16821F4D071C1602068416988
:1041F00021F001014161202084F83D0084F83E0057
:10420000002084F83C000320BDE8F08120680068AD
:1042100036EA000004D00020B842D9D00020F3E7ED
:104220000120F9E710B5D0F8B42252689047002079
:1042300010BD134610B50A46002100F07BFA00209D
:1042400010BD134610B50A46002100F00EFB0020F9
:1042500010BD10B50446802100F0ECFA2046BDE800
:104260001040002100F0E6BA10B505210023C0F887
:1042700094121A46194600F05DFA002010BD10B5E0
:104280000223C261C0F89432026213460A4600213A
:1042900000F0EBFA002010BD10B504210023C0F897
:1042A00094121A46194600F0E0FA002010BD0000F2
:1042B00010B50A46024903A000F0E0F8004810BD1E
:1042C0006C0500204D534320436F6E666967000004
:1042D00012200880004870476400002010B50A468C
:1042E000024903A000F0CAF8004810BD6C05002088
:1042F0004D534320496E746572666163650000002A
:1043000004200880004870476000002010B50A466D
:10431000024903A000F0B2F8004810BD6C0500206F
:1043200053544D6963726F656C656374726F6E6927
:104330006373000010B50A46024903A000F09EF81E
:10434000004810BD6C05002053544D3332204D61A0
:1043500073732053746F72616765000010B51A2083
:1043600008800A480168001D0468001D00680818DC
:1043700009D008220649FEF7C9FC0549042210317C
:104380002046FEF7C3FC0248801E10BDE8F7FF1F61
:104390007A000020F8B504460020ADF800004888F7
:1043A0000D46010A082948D2DFE801F04704091741
:1043B00047473C45D4F8B012207C0A6819E0207CBD
:1043C00002260028D4F8B40205D0C16A684688479E
:1043D000014646703EE0816AF8E7C0B206282CD25A
:1043E000DFE800F0030A1014181CD4F8B002426889
:1043F00005E0694690471CE0D4F8B0028268E2B15B
:10440000207CF6E7D4F8B002C268F8E7D4F8B0022E
:104410000269F4E7D4F8B0024269F0E7D4F8B002D8
:104420008269ECE7207C40B9D4F8B402416B68465D
:10443000884701460EE0207C20B129462046FFF740
:1044400008FFF8BDD4F8B402016B684688470146FE
:1044500007204870BDF8000048B1EA8852B1824296
:1044600000D90246ADF800202046FFF708FFE88893
:104470000028E6D12046FFF70FFFF8BD70B50023F6
:1044800000281ED00446002502E06D1CEDB2641C1D
:104490002678002EF9D1022404EB4504148012780A
:1044A000CA545B1C0322CA5400245B1C06E0CA5495
:1044B0005B1CDAB28C54521CD3B2401C0278002A26
:1044C000F5D170BD01004FF0000004D0012901D0EA
:1044D000022901D0022070470120704710B580B139
:1044E000D0F8B43213B10023C0F8B43209B1C0F827
:1044F000B012012180F89C12027000F0C7F8002071
:1045000010BD022010BD10B5D0F8C002FDF748F86C
:10451000BDE81040FFF7D6BF10B5D0F8C002FDF7D8
:1045200019F8BDE81040FFF7CDBF2DE9F04117465F
:10453000044651B1D4F8B40242691AB194F89C020D
:10454000032851D00220BDE8F081D4F89432002530
:1045500004F11400022B03D0042B3AD0C3B33CE087
:10456000D0E903639E4207D9F11AC1608AB2394685
:104570002046FFF766FE12E08068B0FBF3F103FB14
:10458000110199B9984211D3D4F8981288420DD2EA
:10459000002211462046FFF754FEC4F8985200232B
:1045A0001A461946204600F0C5F816E0D4F8B402C1
:1045B000C16829B194F89C02032801D1204688479C
:1045C0008021204600F036F92046FFF74DFE04E03A
:1045D000FFE78021204600F02DF994F8A002012881
:1045E00004D184F8A05201E0204690470020AAE7B9
:1045F00070B51546044649B1D4F8B40282691AB1BF
:1046000094F89C02032830D0022070BDD4F8941294
:1046100004F5AA70032902D005291ED027E0D0E9AD
:1046200003218A420BD9531AC3600846834200D340
:1046300003469AB229462046FFF7FBFD17E0D4F85F
:10464000B402016929B194F89C02032801D12046E3
:1046500088472046FFF720FE09E000200146C4F805
:104660009402204600F0E6F801E020469047002042
:1046700070BD10B5D0F8C002FDF7CBF9BDE8104011
:10468000FFF720BFD0F8C002FDF7DDB910B519491A
:104690000446C1F8E802C0F8C012174808600820B4
:1046A00048600220886000208861C861086208466E
:1046B000FDF718FB08B1FCF73FF80022D4F8C00260
:1046C0001823114604F53074FCF712FF582300221A
:1046D00080212068FCF70CFF9823002281212068AC
:1046E000FCF706FFD823002201212068FCF700FF19
:1046F000002010BDDC090020005C00400A0601F02B
:104700007F01D0F8C00201EB810100EBC10002D5AE
:1047100090F82A00704790F86A01704710B51C465F
:104720001346D0F8C0022246FDF796F9BDE81040C6
:10473000FFF7C8BE10B5D0F8C002FDF7BDF9BDE85F
:104740001040FFF7BFBE70B500220446402311465B
:10475000FFF7E4FF40260125C4F8646133460022D8
:1047600080212046C4F85851FFF7D8FF6662A56142
:1047700084F89C520020C4F894026060C4F8A4023B
:10478000D4F8B80228B1D4F8B40200214268204617
:104790009047002070BD90F89C12042903D190F836
:1047A0009D1280F89C120020704710B590F89C1262
:1047B000032904D1D0F8B412C96901B18847002097
:1047C00010BD01740020704710B5D0F8C002FDF78D
:1047D00030FBBDE81040FFF775BE70B5044600F52C
:1047E0002A70054600F044F90120C4F89402B4F898
:1047F000AE02C4F8980294F8A80210F01F010AD083
:1048000001290DD0022910D000F08001204600F0CF
:1048100011F8002070BD2946204600F098F9F8E70D
:104820002946204600F0C4FAF3E72946204600F066
:1048300017FAEEE710B5D0F8C002FDF756F9BDE85B
:104840001040FFF73FBE10B5D0F8C002FDF70CFBDB
:10485000BDE81040FFF736BE90F89C1280F89D121C
:10486000042180F89C120020704710B5D0F8C002D7
:10487000FDF774F9BDE81040FFF724BE10B5FEF750
:10488000FEFA002010BD10B5FEF716FB002010BD8B
:1048900070B504460121FFF73FFE00258121204627
:1048A000C4F86C51FFF738FE2046E562FEF721FBA5
:1048B000D4F8B80218B100F0A2FAC4F8B852002037
:1048C00070BD00000A210180004870476801002087
:1048D000202101800048704728010020202101800C
:1048E00000487047080100202021018000487047DF
:1048F0004801002070B50446007C0125D0B140235A
:10490000022201212046FFF709FF4023C4F86C5121
:10491000022281212046FFF701FF4FF41B70E56260
:1049200000F06EFAC4F8B80280B12046FEF7E6FA4D
:10493000002070BD4FF4007633460222012120464C
:10494000FFF7ECFE3346C4F86C51E1E7022070BD7E
:1049500009B1C0F8BC12002070472DE9F8430026C9
:10496000D0F8B8720546ADF8006008780C46B0463D
:1049700010F0600120D020293DD16178FE2902D0BD
:10498000FF2938D10EE0618881BBE188012932D14D
:10499000000630D5D5F8BC0280698047012239462F
:1049A00038601FE0618809BBE188F9B9000622D4AC
:1049B0002846FEF7C4FA23E0607830B1012825D0FC
:1049C0000A2809D00B2816D111E095F89C0203287B
:1049D00011D10222694605E095F89C0203280AD10C
:1049E0000122391D2846FFF74AFC09E003E095F84B
:1049F0009C02032807D021462846FFF72AFC0226FE
:104A00003046BDE8F883A0787860F9E72179284638
:104A1000FFF72FFE21792846FFF77EFDA0884FF093
:104A20000107010600F00F0000EB80004FF4007357
:104A300005EB80000BD5C0F81880287C00B140231E
:104A4000022281212846FFF769FEEF620BE0C0F8E1
:104A50005881287C00B14023022201212846FFF71B
:104A60005DFEC5F86C7121792846FEF7F3F9C7E7BA
:104A70000A7802704A7842708A78CB7802EB032277
:104A800042800A794B7902EB032282808A79C979C4
:104A900002EB0121C18070470246002011B1C2F82B
:104AA000B41270470220704710B5D0F8B422022427
:104AB0001AB11268904700B90024204610BD0000CA
:104AC00070B50E461E4D897804462970012931D8EB
:104AD00094F89C0202280BD003280FD031462046C0
:104AE000FFF7B7FB29782046BDE87040FFF79ABB77
:104AF000D9B10320616084F89C0209E071B160685B
:104B0000884212D0C1B22046FFF78CFB2978616041
:104B10002046FFF7C9FF02280CD006E0022084F8E7
:104B20009C0220466160FFF77DFB2046BDE8704097
:104B3000FFF7B2BB31462046BDE87040FFF789BBA6
:104B4000CC00002010B5FFF77EFE002010BD2DE93F
:104B5000F0410A78002612F0600208D0202A01D025
:104B6000402A70D1D0F8B422926890476DE04B781B
:104B7000002201250A2B66D2DFE803F0405D65576D
:104B8000650805652C29FFF705FC5EE0044688886A
:104B9000D8B9C888C8B94888802816D200F07F07DD
:104BA00094F89C02032810D084F89E72394620465F
:104BB000FFF70AFE2046FFF76FFB1FB1022084F8C3
:104BC0009C0242E084F89C523FE020463BE0FFF725
:104BD00077FF3AE0CB88012B35D190F89C32012B3E
:104BE00004D0022B02D0032B2DD104E082600122DD
:104BF00000F1080116E00122011D13E090F89C224B
:104C0000012A03D0022A01D0032A1CD1CA88022A11
:104C100019D1C560D0F8A41209B10321C1600222E4
:104C200000F10C01FFF72BFB0FE0498801290CD1A3
:104C3000C0F8A45211E090F89C32012B08D0022B4E
:104C400006D0032B04D0FFF704FB3046BDE8F0810B
:104C500049880129F9D1C0F8A422FFF71DFBF4E728
:104C60002DE9F0410A46044610780027097910F032
:104C700060030AD0202B01D0402B50D1D4F8B402CD
:104C800011468368204698478FE0C0F34110012801
:104C900006D05078D0B301282AD003283FD107E0AE
:104CA000D4F8B402114683682046BDE8F0411847A5
:104CB00094F89C02022802D0032872D10AE071B352
:104CC00080296ED02046FFF7B5FD80212046FFF7F2
:104CD000B1FD6AE0508838B931B1802904D0D0885C
:104CE00010B92046FFF7A6FD2046FFF7D5FA5CE095
:104CF00094F89C020228E2D0032852D1508898BB35
:104D00004806F1D02046FFF7FEFBEDE7FFE794F8F9
:104D10009C020026022803D0032842D112E040E082
:104D200009B180293DD1080601F07F0000EB800029
:104D300004EB800101D5143101E001F5AA710222D2
:104D40000E602AE0080601F00F0000EB800004EB83
:104D500080000AD5806920B301F07F0000EB80005D
:104D600004EB800514350BE01FE0D0F85801C0B10A
:104D700001F07F0000EB800004EB800505F5AA75CB
:104D800041B1802906D02046FFF7B8FC10B10120C0
:104D9000286000E02E60022229462046FFF76FFAC5
:104DA00003E011462046FFF754FA3846BDE8F0818B
:104DB00070B5054608780C4610F0600003D0202836
:104DC00001D0402816D195F89C02012803D0022872
:104DD00001D003280ED1207901280BD8D5F8B402D0
:104DE000826828469047E188014306D12846FFF7AC
:104DF00053FA02E02846FFF72CFA002070BD7047F6
:104E0000004870476C0700202DE9F0470C78002619
:104E100030F8243048F68F121340CA78002A7DD02B
:104E2000012A7CD0022A02D0032A7FD0012648F230
:104E30008002134320F824300D7830F8254048F6DE
:104E40008F731C402C43144320F825400D7B48F2FF
:104E5000C00C48F6BF744CF280074BF68F79EDB367
:104E600091F80080C24630F8285048F280181D4062
:104E700045EA080520F82A50B0F8505091F8008013
:104E8000054405EB0815B1F8088028F00108A5F8DD
:104E90000084B0F8505091F80080054405EB0815E7
:104EA000B1F80A8028F00108A5F808844D78002D93
:104EB0000D7830F825804FEA48487DD0B8F1000FD2
:104EC00007DA30F8258008EA030848EA070820F8DE
:104ED00025800F7830F827506D0600E02CE006D5CD
:104EE00030F827501D4045EA0C0520F82750CB78B4
:104EF0000D78012B30F8253003EA040301D083F04C
:104F00002003134320F825300B7830F8231001EAF2
:104F10000901114320F82310304602E003E008E0C5
:104F200004E0BDE8F08743F4007380E743F4C06316
:104F30007DE743F480637AE74D782DB3B0F85050A5
:104F40000F78054405EB0715CF8827F00107A5F872
:104F500000740F7830F827506D0606D530F82750CA
:104F60001D4045EA0C0520F82750CB78012B06D0D0
:104F70000B7830F82310214081F02001C9E70B782D
:104F800030F823102140C4E7B0F850400D780444B5
:104F900004EB0514CD8825F00105A4F80854B0F8F9
:104FA00050400D78044404EB05140D6904F20C44E0
:104FB00075B13E2D14D800E030E04FEA550CED07F6
:104FC00001D00CF1010C4FF6FF7505EA8C2511E0BC
:104FD000258825F4F8452580258845F4004509E015
:104FE0004FEA551CED0601D1ACF1010C4FF4004520
:104FF00045EA8C2525800D7830F82540640405D5D8
:1050000030F825401C403C4320F825400B7830F810
:10501000231001EA090181F440517AE7B8F1000F49
:1050200007DA30F8258008EA030848EA070820F87C
:1050300025800F7830F827506D0606D530F82750B8
:105040001D4045EA0C0520F827500D7830F8253032
:1050500003EA090383F44053134320F825308EE715
:10506000002070472DE9F04391F80C804F780A78C2
:1050700048F6BF7C4BF68F7948F2800348F2C005B2
:105080004CF2800648F68F74B8F1000F28D0002F3C
:1050900030F822704FEA474748D0002F05DA30F841
:1050A00022702740374320F822700A7830F82270A7
:1050B0007F0605D530F8227027402F4320F8227054
:1050C0000D7830F825202240324320F825200C7836
:1050D00030F8242002EA0C021A4320F824201AE0B7
:1050E0007FB130F82260760605D530F82260264080
:1050F0002E4320F822600A7830F8221001EA0C01D1
:105100000EE030F822506D0405D530F822502540CD
:10511000354320F822500A7830F8221001EA0901BC
:10512000194320F822100020BDE8F083002F05DA93
:1051300030F822702740374320F822700A7830F880
:105140002260760605D530F8226026402E4320F8EE
:1051500022600E7830F8262022402A4320F82620AC
:105160000C7830F8242002EA09021A4320F824209F
:10517000C1E70020704700207047012120F8401F40
:1051800000210180818001820846704730F8401F6D
:1051900021F43F410180002070470020704730B566
:1051A0000A7BB2BB4A7848F68F7548F28004C2B1D8
:1051B0000B7830F82320520607D530F823202A40F8
:1051C00048F2C0052A4320F82320CA78012A20D0BB
:1051D0000A7830F8221048F6BF73194081F0200198
:1051E00014E00A7830F822305B0407D530F822301A
:1051F0002B404CF280052B4320F822300A7830F8FF
:1052000022104BF68F73194081F44051214320F84E
:105210002210002030BD10B54A780978002A48F2E3
:10522000800330F8212005D048F6BF74224082F078
:10523000100204E04BF68F74224082F480521A432D
:1052400020F82120002010BD2DE9F0470E464B78B4
:10525000097B04464FF0000948F68F7248F2800A35
:105260004FF6FF774FF40048012B09D000296ED08C
:10527000F07802286CD001286BD00120BDE8F087BF
:10528000B5693069854200D90546C9B1F17848F25F
:105290008013022923D0317834F8210010401843BC
:1052A00024F82100306A401B3062307834F8201036
:1052B000490671787ED500297DD001297CD03FE157
:1052C000ABB2F2882046716900F0FAFAB4F85000E7
:1052D0003178204400EB0110A0F80454EAE0316A70
:1052E00081426AD9317834F821001040184324F8FB
:1052F0002100306A401B3062307834F820104906B3
:1053000071786CD511B1012924D02AE0B4F850107D
:10531000214401EB001000F20C404DB13E2D0FD89E
:105320006908EA0700D0491C07EA8121018018E0DA
:10533000018821F4F8410180018841F40041F5E73A
:105340006909EA0600D1491E48EA8121EEE79CE19D
:10535000BCE126E2B4F85020111901EB0010A0F8CE
:105360000C547289ABB22046716900F0A9FA7069D9
:10537000284470613169306A884202D9401B30622A
:1053800002E00546C6F82090707800287CD1B4F879
:1053900050003178204400EB011000F204406DB160
:1053A0003E2D13D86908EA0700D0491C07EA81217D
:1053B000018012E001E19BE0BBE084E0018821F480
:1053C000F8410180018841F40041F1E76909EA06EA
:1053D00000D1491E48EA8121EAE7328965E011B12E
:1053E000012921D027E0B4F85010214401EB00102E
:1053F00000F204404DB13E2D0FD86908EA0700D0F5
:10540000491C07EA8121018015E0018821F4F84157
:105410000180018841F40041F5E76909EA0600D1FD
:10542000491E48EA8121EEE7B4F85010214401EB0F
:105430000010A0F804543289ABB22046716900F024
:105440003FFA7069284470613169306A884202D934
:10545000401B306202E00546C6F8209070780028B4
:105460007ED1B4F850003178204400EB011000F2F6
:105470000C4055B13E2D10D86908EA0700D0491CF0
:1054800007EA812101800FE072E0018821F4F841F0
:105490000180018841F40041F4E76909EA0600D17E
:1054A000491E48EA8121EDE77289ABB22046716955
:1054B00000F006FA317834F8210048F6BF72104047
:1054C00080F03000C0E1327834F8220048F68F6373
:1054D000184040EA0A0024F82200B4F8500032785C
:1054E000204400EB02108BB2A0F804343289DDE7CF
:1054F000B4F85010214401EB001000F20C404DB103
:105500003E2D0FD86908EA0700D0491C07EA81211F
:10551000018015E0018821F4F8410180018841F4FF
:105520000041F5E76909EA0600D1491E48EA8121F0
:10553000EEE7B4F85020111901EB0010A0F80C545C
:105540007289ABB22046716900F0BAF970692844DB
:1055500070613169306A884203D9401B306203E0D0
:105560006EE00546C6F82090002DA3D0707858B1A3
:1055700001287FF41EAFB4F850003178204400EBCE
:105580000110A0F8045428E7B4F850003178204402
:1055900000EB011101F204413E2D06D86808EA072C
:1055A00000D0401C07EA802005E06809EA0600D127
:1055B000401E48EA802008800FE711B1012921D060
:1055C00027E0B4F85010214401EB001000F2044031
:1055D0004DB13E2D0FD86908EA0700D0491C07EAF3
:1055E0008121018015E0018821F4F84101800188C2
:1055F00041F40041F5E76909EA0600D1491E48EA8D
:105600008121EEE7B4F85010214401EB0010A0F81E
:1056100004543289ABB22046716900F051F97069C7
:10562000284470613169306A884202D9401B306277
:1056300002E00546C6F82090002D96D0707858B14B
:1056400001287FF420AFB4F850100819317800EB2E
:105650000110A0F80C5427E7B4F85000317820442A
:1056600000EB011101F20C413E2D06D86808EA0753
:1056700000D0401C07EA802005E06809EA0600D156
:10568000401E48EA802008800EE7B16930698142F7
:1056900002D9091AB161B5E00846C6F81890B1E020
:1056A000088820F4F8400880088840F400400BE0A7
:1056B0003E2875D84208C00700D0521C07EA822055
:1056C00002E000BF48EA82200880B5E093B9B4F850
:1056D00050003178204400EB0110316900F20440A1
:1056E00069B13E2913D84B08C90700D05B1C07EAF3
:1056F00083210180707888B1012832D03AE0018896
:1057000021F4F8410180018841F40041F1E74B099F
:10571000C90600D15B1E48EA8321EAE7B4F85000CD
:105720003178204400EB0110316900F20C4049B19E
:105730003E290FD84B08C90700D05B1C07EA83211C
:10574000018017E0018821F4F8410180018841F4CB
:105750000041F5E74B09C90600D15B1E48EA8321E9
:10576000EEE7B4F850100819317800EB0110318AD7
:10577000A0F80C14F069A8B3317834F82100430480
:1057800001D5430603D444F24003184254D134F8FF
:105790002100104048F2C002104324F821004BE0E1
:1057A0003CE0B1693069814202D9091AB16102E075
:1057B0000846C6F818908BB9B4F8501032782144D6
:1057C00001EB021101F2044168B13E2813D84208EE
:1057D000C30700D0521C07EA82220A80717889B17F
:1057E000012921D028E00A8822F4F8420A800A8898
:1057F00042F40042F1E74209C30600D1521E48EAD2
:105800008222EAE7B4F850103278214401EB021109
:1058100001F20C4100287FF44BAF41E74209C0067A
:105820007FF450AF521E4DE7B4F850201119327872
:1058300001EB0211A1F80C04317834F821004BF689
:105840008F72104080F4405040EA0A0024F8210092
:10585000002013E50021A0F844104FF43F41A0F8C8
:105860004010002070470020704700207047000063
:105870000148FCF78DB90000DC090020B0F84400B5
:105880007047000010B500EB42005C0800F5806036
:1058900009D000BF30F8042B01F8012B120A01F8DF
:1058A000012B641EF6D1DA0701D00088087010BD04
:1058B0000020704711B98021A0F84C1000207047DB
:1058C00010B55B1C00EB42005B0800F5806009D05E
:1058D00011F8012B11F8014B42EA042220F8042BA5
:1058E0005B1EF5D110BD000070B5FEF70BF9044644
:1058F000014609A000F0A8F8052506E0FEF702F928
:105900000446014604A000F09FF81CB16D1EF5D2BC
:10591000012070BD002070BD757365725F72657384
:105920005F696E69743A25640D0A000010B514466B
:1059300039B101290FD0022907D0032908D004204A
:1059400010BDFF20FEF790F808E04FF4007000E073
:105950000820108002E0FEF79DF82060002010BDB6
:105960002DE9F0411E001746884601D000BB02E039
:105970000420BDE8F0811A4639464046FEF768F932
:105980000446014633463A460BA000F05DF8052573
:105990000BE0324639464046FEF75AF904460146C6
:1059A00033463A4604A000F04FF81CB16D1EF0D209
:1059B0000120DEE70020DCE77265735F72656164D9
:1059C0003A25642025642025640D0A00002800D0B3
:1059D000012070472DE9F0411E001746884601D08E
:1059E00000BB02E00420BDE8F0811A46394640467B
:1059F000FEF7DCF90446014633463A460BA000F0B8
:105A000023F805250BE0324639464046FEF7CEF92D
:105A10000446014633463A4604A000F015F81CB18E
:105A20006D1EF0D20120DEE70020DCE77265735FB7
:105A300077726974653A25642025642025640D0A0F
:105A400000000000FEE700000FB4054B10B503A9ED
:105A5000044A029800F028F810BC5DF814FB00001E
:105A600041720008840100200907090E002804DBA8
:105A700000F1E02080F80014704700F00F0000F102
:105A8000E02080F8141D704702E008C8121F08C10A
:105A9000002AFAD170477047002001E001C1121FAF
:105AA000002AFBD1704700002DE9FF4F89B09B46CB
:105AB0000446002506E025280BD05A460B9990474E
:105AC000641C6D1C20780028F5D10DB02846BDE877
:105AD000F08F0027B8460122474900E0074314F839
